{"abi":[{"type":"constructor","inputs":[{"name":"_governanceContract","type":"address","internalType":"address"}],"stateMutability":"nonpayable"},{"type":"function","name":"AGENT_CREATOR_ROLE","inputs":[],"outputs":[{"name":"","type":"bytes32","internalType":"bytes32"}],"stateMutability":"view"},{"type":"function","name":"DEFAULT_ADMIN_ROLE","inputs":[],"outputs":[{"name":"","type":"bytes32","internalType":"bytes32"}],"stateMutability":"view"},{"type":"function","name":"DEFAULT_TOKEN_SUPPLY","inputs":[],"outputs":[{"name":"","type":"uint256","internalType":"uint256"}],"stateMutability":"view"},{"type":"function","name":"GOVERNANCE_ROLE","inputs":[],"outputs":[{"name":"","type":"bytes32","internalType":"bytes32"}],"stateMutability":"view"},{"type":"function","name":"agentCount","inputs":[],"outputs":[{"name":"","type":"uint256","internalType":"uint256"}],"stateMutability":"view"},{"type":"function","name":"agentToToken","inputs":[{"name":"","type":"address","internalType":"address"}],"outputs":[{"name":"","type":"address","internalType":"address"}],"stateMutability":"view"},{"type":"function","name":"agents","inputs":[{"name":"","type":"address","internalType":"address"}],"outputs":[{"name":"agentId","type":"bytes32","internalType":"bytes32"},{"name":"agentAddress","type":"address","internalType":"address"},{"name":"tokenAddress","type":"address","internalType":"address"},{"name":"nftId","type":"uint256","internalType":"uint256"},{"name":"metadataHash","type":"bytes32","internalType":"bytes32"},{"name":"agentType","type":"string","internalType":"string"},{"name":"createdAt","type":"uint40","internalType":"uint40"},{"name":"lastUpdate","type":"uint40","internalType":"uint40"},{"name":"active","type":"bool","internalType":"bool"}],"stateMutability":"view"},{"type":"function","name":"allAgents","inputs":[{"name":"","type":"uint256","internalType":"uint256"}],"outputs":[{"name":"","type":"address","internalType":"address"}],"stateMutability":"view"},{"type":"function","name":"approve","inputs":[{"name":"to","type":"address","internalType":"address"},{"name":"tokenId","type":"uint256","internalType":"uint256"}],"outputs":[],"stateMutability":"nonpayable"},{"type":"function","name":"balanceOf","inputs":[{"name":"owner","type":"address","internalType":"address"}],"outputs":[{"name":"","type":"uint256","internalType":"uint256"}],"stateMutability":"view"},{"type":"function","name":"createAgent","inputs":[{"name":"params","type":"tuple","internalType":"struct AgentFactory.AgentCreationParams","components":[{"name":"agentAddress","type":"address","internalType":"address"},{"name":"agentType","type":"string","internalType":"string"},{"name":"tokenName","type":"string","internalType":"string"},{"name":"tokenSymbol","type":"string","internalType":"string"},{"name":"initialTokenSupply","type":"uint256","internalType":"uint256"},{"name":"nftMetadata","type":"string","internalType":"string"},{"name":"metadataHash","type":"bytes32","internalType":"bytes32"}]}],"outputs":[{"name":"agentId","type":"bytes32","internalType":"bytes32"},{"name":"tokenAddress","type":"address","internalType":"address"},{"name":"nftId","type":"uint256","internalType":"uint256"}],"stateMutability":"nonpayable"},{"type":"function","name":"createAgentSimple","inputs":[{"name":"agentAddress","type":"address","internalType":"address"},{"name":"agentType","type":"string","internalType":"string"},{"name":"tokenName","type":"string","internalType":"string"},{"name":"tokenSymbol","type":"string","internalType":"string"},{"name":"nftMetadata","type":"string","internalType":"string"}],"outputs":[{"name":"agentId","type":"bytes32","internalType":"bytes32"}],"stateMutability":"nonpayable"},{"type":"function","name":"destroyAgent","inputs":[{"name":"agentAddress","type":"address","internalType":"address"}],"outputs":[],"stateMutability":"nonpayable"},{"type":"function","name":"getAgent","inputs":[{"name":"agentAddress","type":"address","internalType":"address"}],"outputs":[{"name":"agent","type":"tuple","internalType":"struct AgentFactory.Agent","components":[{"name":"agentId","type":"bytes32","internalType":"bytes32"},{"name":"agentAddress","type":"address","internalType":"address"},{"name":"tokenAddress","type":"address","internalType":"address"},{"name":"nftId","type":"uint256","internalType":"uint256"},{"name":"metadataHash","type":"bytes32","internalType":"bytes32"},{"name":"agentType","type":"string","internalType":"string"},{"name":"createdAt","type":"uint40","internalType":"uint40"},{"name":"lastUpdate","type":"uint40","internalType":"uint40"},{"name":"active","type":"bool","internalType":"bool"}]}],"stateMutability":"view"},{"type":"function","name":"getAgentByNFT","inputs":[{"name":"nftId","type":"uint256","internalType":"uint256"}],"outputs":[{"name":"agentAddress","type":"address","internalType":"address"}],"stateMutability":"view"},{"type":"function","name":"getAgentCounts","inputs":[],"outputs":[{"name":"total","type":"uint256","internalType":"uint256"},{"name":"active","type":"uint256","internalType":"uint256"}],"stateMutability":"view"},{"type":"function","name":"getAgentNFT","inputs":[{"name":"agentAddress","type":"address","internalType":"address"}],"outputs":[{"name":"nftId","type":"uint256","internalType":"uint256"}],"stateMutability":"view"},{"type":"function","name":"getAgentToken","inputs":[{"name":"agentAddress","type":"address","internalType":"address"}],"outputs":[{"name":"tokenAddress","type":"address","internalType":"address"}],"stateMutability":"view"},{"type":"function","name":"getAllAgents","inputs":[],"outputs":[{"name":"","type":"address[]","internalType":"address[]"}],"stateMutability":"view"},{"type":"function","name":"getApproved","inputs":[{"name":"tokenId","type":"uint256","internalType":"uint256"}],"outputs":[{"name":"","type":"address","internalType":"address"}],"stateMutability":"view"},{"type":"function","name":"getRoleAdmin","inputs":[{"name":"role","type":"bytes32","internalType":"bytes32"}],"outputs":[{"name":"","type":"bytes32","internalType":"bytes32"}],"stateMutability":"view"},{"type":"function","name":"governanceContract","inputs":[],"outputs":[{"name":"","type":"address","internalType":"address"}],"stateMutability":"view"},{"type":"function","name":"grantRole","inputs":[{"name":"role","type":"bytes32","internalType":"bytes32"},{"name":"account","type":"address","internalType":"address"}],"outputs":[],"stateMutability":"nonpayable"},{"type":"function","name":"hasRole","inputs":[{"name":"role","type":"bytes32","internalType":"bytes32"},{"name":"account","type":"address","internalType":"address"}],"outputs":[{"name":"","type":"bool","internalType":"bool"}],"stateMutability":"view"},{"type":"function","name":"isAgentActive","inputs":[{"name":"agentAddress","type":"address","internalType":"address"}],"outputs":[{"name":"active","type":"bool","internalType":"bool"}],"stateMutability":"view"},{"type":"function","name":"isApprovedForAll","inputs":[{"name":"owner","type":"address","internalType":"address"},{"name":"operator","type":"address","internalType":"address"}],"outputs":[{"name":"","type":"bool","internalType":"bool"}],"stateMutability":"view"},{"type":"function","name":"mintAgentTokens","inputs":[{"name":"agentAddress","type":"address","internalType":"address"},{"name":"amount","type":"uint256","internalType":"uint256"}],"outputs":[],"stateMutability":"nonpayable"},{"type":"function","name":"name","inputs":[],"outputs":[{"name":"","type":"string","internalType":"string"}],"stateMutability":"view"},{"type":"function","name":"nftToAgent","inputs":[{"name":"","type":"uint256","internalType":"uint256"}],"outputs":[{"name":"","type":"address","internalType":"address"}],"stateMutability":"view"},{"type":"function","name":"ownerOf","inputs":[{"name":"tokenId","type":"uint256","internalType":"uint256"}],"outputs":[{"name":"","type":"address","internalType":"address"}],"stateMutability":"view"},{"type":"function","name":"pause","inputs":[],"outputs":[],"stateMutability":"nonpayable"},{"type":"function","name":"paused","inputs":[],"outputs":[{"name":"","type":"bool","internalType":"bool"}],"stateMutability":"view"},{"type":"function","name":"reactivateAgent","inputs":[{"name":"agentAddress","type":"address","internalType":"address"}],"outputs":[],"stateMutability":"nonpayable"},{"type":"function","name":"renounceRole","inputs":[{"name":"role","type":"bytes32","internalType":"bytes32"},{"name":"callerConfirmation","type":"address","internalType":"address"}],"outputs":[],"stateMutability":"nonpayable"},{"type":"function","name":"revokeRole","inputs":[{"name":"role","type":"bytes32","internalType":"bytes32"},{"name":"account","type":"address","internalType":"address"}],"outputs":[],"stateMutability":"nonpayable"},{"type":"function","name":"safeTransferFrom","inputs":[{"name":"from","type":"address","internalType":"address"},{"name":"to","type":"address","internalType":"address"},{"name":"tokenId","type":"uint256","internalType":"uint256"}],"outputs":[],"stateMutability":"nonpayable"},{"type":"function","name":"safeTransferFrom","inputs":[{"name":"from","type":"address","internalType":"address"},{"name":"to","type":"address","internalType":"address"},{"name":"tokenId","type":"uint256","internalType":"uint256"},{"name":"data","type":"bytes","internalType":"bytes"}],"outputs":[],"stateMutability":"nonpayable"},{"type":"function","name":"setApprovalForAll","inputs":[{"name":"operator","type":"address","internalType":"address"},{"name":"approved","type":"bool","internalType":"bool"}],"outputs":[],"stateMutability":"nonpayable"},{"type":"function","name":"supportsInterface","inputs":[{"name":"interfaceId","type":"bytes4","internalType":"bytes4"}],"outputs":[{"name":"","type":"bool","internalType":"bool"}],"stateMutability":"view"},{"type":"function","name":"symbol","inputs":[],"outputs":[{"name":"","type":"string","internalType":"string"}],"stateMutability":"view"},{"type":"function","name":"tokenURI","inputs":[{"name":"tokenId","type":"uint256","internalType":"uint256"}],"outputs":[{"name":"","type":"string","internalType":"string"}],"stateMutability":"view"},{"type":"function","name":"totalActiveAgents","inputs":[],"outputs":[{"name":"","type":"uint256","internalType":"uint256"}],"stateMutability":"view"},{"type":"function","name":"transferFrom","inputs":[{"name":"from","type":"address","internalType":"address"},{"name":"to","type":"address","internalType":"address"},{"name":"tokenId","type":"uint256","internalType":"uint256"}],"outputs":[],"stateMutability":"nonpayable"},{"type":"function","name":"unpause","inputs":[],"outputs":[],"stateMutability":"nonpayable"},{"type":"function","name":"updateNFTMetadata","inputs":[{"name":"nftId","type":"uint256","internalType":"uint256"},{"name":"newMetadata","type":"string","internalType":"string"}],"outputs":[],"stateMutability":"nonpayable"},{"type":"event","name":"AgentCreated","inputs":[{"name":"agentAddress","type":"address","indexed":true,"internalType":"address"},{"name":"agentId","type":"bytes32","indexed":true,"internalType":"bytes32"},{"name":"tokenAddress","type":"address","indexed":false,"internalType":"address"},{"name":"nftId","type":"uint256","indexed":false,"internalType":"uint256"},{"name":"agentType","type":"string","indexed":false,"internalType":"string"}],"anonymous":false},{"type":"event","name":"AgentDestroyed","inputs":[{"name":"agentAddress","type":"address","indexed":true,"internalType":"address"},{"name":"timestamp","type":"uint40","indexed":false,"internalType":"uint40"}],"anonymous":false},{"type":"event","name":"AgentMetadataUpdated","inputs":[{"name":"nftId","type":"uint256","indexed":true,"internalType":"uint256"},{"name":"newMetadata","type":"string","indexed":false,"internalType":"string"}],"anonymous":false},{"type":"event","name":"AgentReactivated","inputs":[{"name":"agentAddress","type":"address","indexed":true,"internalType":"address"},{"name":"timestamp","type":"uint40","indexed":false,"internalType":"uint40"}],"anonymous":false},{"type":"event","name":"AgentTokenMinted","inputs":[{"name":"agentAddress","type":"address","indexed":true,"internalType":"address"},{"name":"tokenAddress","type":"address","indexed":true,"internalType":"address"},{"name":"amount","type":"uint256","indexed":false,"internalType":"uint256"}],"anonymous":false},{"type":"event","name":"Approval","inputs":[{"name":"owner","type":"address","indexed":true,"internalType":"address"},{"name":"approved","type":"address","indexed":true,"internalType":"address"},{"name":"tokenId","type":"uint256","indexed":true,"internalType":"uint256"}],"anonymous":false},{"type":"event","name":"ApprovalForAll","inputs":[{"name":"owner","type":"address","indexed":true,"internalType":"address"},{"name":"operator","type":"address","indexed":true,"internalType":"address"},{"name":"approved","type":"bool","indexed":false,"internalType":"bool"}],"anonymous":false},{"type":"event","name":"BatchMetadataUpdate","inputs":[{"name":"_fromTokenId","type":"uint256","indexed":false,"internalType":"uint256"},{"name":"_toTokenId","type":"uint256","indexed":false,"internalType":"uint256"}],"anonymous":false},{"type":"event","name":"MetadataUpdate","inputs":[{"name":"_tokenId","type":"uint256","indexed":false,"internalType":"uint256"}],"anonymous":false},{"type":"event","name":"Paused","inputs":[{"name":"account","type":"address","indexed":false,"internalType":"address"}],"anonymous":false},{"type":"event","name":"RoleAdminChanged","inputs":[{"name":"role","type":"bytes32","indexed":true,"internalType":"bytes32"},{"name":"previousAdminRole","type":"bytes32","indexed":true,"internalType":"bytes32"},{"name":"newAdminRole","type":"bytes32","indexed":true,"internalType":"bytes32"}],"anonymous":false},{"type":"event","name":"RoleGranted","inputs":[{"name":"role","type":"bytes32","indexed":true,"internalType":"bytes32"},{"name":"account","type":"address","indexed":true,"internalType":"address"},{"name":"sender","type":"address","indexed":true,"internalType":"address"}],"anonymous":false},{"type":"event","name":"RoleRevoked","inputs":[{"name":"role","type":"bytes32","indexed":true,"internalType":"bytes32"},{"name":"account","type":"address","indexed":true,"internalType":"address"},{"name":"sender","type":"address","indexed":true,"internalType":"address"}],"anonymous":false},{"type":"event","name":"Transfer","inputs":[{"name":"from","type":"address","indexed":true,"internalType":"address"},{"name":"to","type":"address","indexed":true,"internalType":"address"},{"name":"tokenId","type":"uint256","indexed":true,"internalType":"uint256"}],"anonymous":false},{"type":"event","name":"Unpaused","inputs":[{"name":"account","type":"address","indexed":false,"internalType":"address"}],"anonymous":false},{"type":"error","name":"AccessControlBadConfirmation","inputs":[]},{"type":"error","name":"AccessControlUnauthorizedAccount","inputs":[{"name":"account","type":"address","internalType":"address"},{"name":"neededRole","type":"bytes32","internalType":"bytes32"}]},{"type":"error","name":"AgentAlreadyActive","inputs":[]},{"type":"error","name":"AgentAlreadyExists","inputs":[]},{"type":"error","name":"AgentDoesNotExist","inputs":[]},{"type":"error","name":"AgentNotActive","inputs":[]},{"type":"error","name":"ERC721IncorrectOwner","inputs":[{"name":"sender","type":"address","internalType":"address"},{"name":"tokenId","type":"uint256","internalType":"uint256"},{"name":"owner","type":"address","internalType":"address"}]},{"type":"error","name":"ERC721InsufficientApproval","inputs":[{"name":"operator","type":"address","internalType":"address"},{"name":"tokenId","type":"uint256","internalType":"uint256"}]},{"type":"error","name":"ERC721InvalidApprover","inputs":[{"name":"approver","type":"address","internalType":"address"}]},{"type":"error","name":"ERC721InvalidOperator","inputs":[{"name":"operator","type":"address","internalType":"address"}]},{"type":"error","name":"ERC721InvalidOwner","inputs":[{"name":"owner","type":"address","internalType":"address"}]},{"type":"error","name":"ERC721InvalidReceiver","inputs":[{"name":"receiver","type":"address","internalType":"address"}]},{"type":"error","name":"ERC721InvalidSender","inputs":[{"name":"sender","type":"address","internalType":"address"}]},{"type":"error","name":"ERC721NonexistentToken","inputs":[{"name":"tokenId","type":"uint256","internalType":"uint256"}]},{"type":"error","name":"EnforcedPause","inputs":[]},{"type":"error","name":"ExpectedPause","inputs":[]},{"type":"error","name":"InvalidGovernanceAddress","inputs":[]},{"type":"error","name":"OnlyGovernance","inputs":[]},{"type":"error","name":"ReentrancyGuardReentrantCall","inputs":[]}],"bytecode":{"object":"0x60a060405234801562000010575f80fd5b50604051620041f0380380620041f0833981016040819052620000339162000235565b6040518060400160405280600e81526020016d11105253c81059d95b9d0813919560921b81525060405180604001604052806006815260200165111051d1539560d21b815250815f908162000089919062000302565b50600162000098828262000302565b5050506001620000b4620000b16200016160201b60201c565b90565b556001600160a01b038116620000dd5760405163d8de0c9760e01b815260040160405180910390fd5b6001600160a01b038116608052620000f65f3362000185565b50620001115f80516020620041d08339815191528262000185565b506200012c5f80516020620041d08339815191523362000185565b50620001597f14d61fe1ff734deff390e298beb5f0b1c1f31c62bebead0e7849958f1614082a3362000185565b5050620003ce565b7f9b779b17422d0df92223018b32b4d1fa46e071723d6817e2486d003becc55f0090565b5f8281526007602090815260408083206001600160a01b038516845290915281205460ff166200022c575f8381526007602090815260408083206001600160a01b03861684529091529020805460ff19166001179055620001e33390565b6001600160a01b0316826001600160a01b0316847f2f8788117e7eff1d82e926ec794901d17c78024a50270940304540a733656f0d60405160405180910390a45060016200022f565b505f5b92915050565b5f6020828403121562000246575f80fd5b81516001600160a01b03811681146200025d575f80fd5b9392505050565b634e487b7160e01b5f52604160045260245ffd5b600181811c908216806200028d57607f821691505b602082108103620002ac57634e487b7160e01b5f52602260045260245ffd5b50919050565b601f821115620002fd57805f5260205f20601f840160051c81016020851015620002d95750805b601f840160051c820191505b81811015620002fa575f8155600101620002e5565b50505b505050565b81516001600160401b038111156200031e576200031e62000264565b62000336816200032f845462000278565b84620002b2565b602080601f8311600181146200036c575f8415620003545750858301515b5f19600386901b1c1916600185901b178555620003c6565b5f85815260208120601f198616915b828110156200039c578886015182559484019460019091019084016200037b565b5085821015620003ba57878501515f19600388901b60f8161c191681555b505060018460011b0185555b505050505050565b608051613de9620003e75f395f61059a0152613de95ff3fe608060405234801562000010575f80fd5b5060043610620002ac575f3560e01c80638456cb591162000173578063cd409ffe11620000db578063e985e9c5116200008f578063e985e9c51462000700578063ee6fd7091462000717578063eef9f0c0146200072e578063f36c8f5c1462000740578063fb3551ff1462000756578063fd66091e146200077c575f80fd5b8063cd409ffe146200061f578063d057ac641462000650578063d547741f146200066c578063e0bb12f71462000683578063e1212f23146200069a578063e1979a5c14620006c5575f80fd5b8063a22cb4651162000133578063a22cb465146200057d578063b172b2221462000594578063b7dc128414620005bc578063b88d4fde14620005c6578063c87b56dd14620005dd578063c952de3914620005f4575f80fd5b80638456cb591462000531578063860e4ac6146200053b57806391d14854146200055457806395d89b41146200056b578063a217fddf1462000575575f80fd5b80633f4ba83a11620002175780636352211e11620001d75780636352211e146200047c57806364c81794146200049357806370a0823114620004aa57806373e5573f14620004c1578063818c7dba14620004ef57806382a3c932146200051a575f80fd5b80633f4ba83a146200040d57806342842e0e146200041757806344d9b4d6146200042e578063554c4f4b14620004385780635c975abb1462000470575f80fd5b8063248a9ca3116200026f578063248a9ca31462000355578063283f2e2414620003895780632f2ff15d14620003a057806335dcdf1e14620003b757806336568abe14620003ce5780633d21b8ff14620003e5575f80fd5b806301ffc9a714620002b057806306fdde0314620002dc578063081812fc14620002f5578063095ea7b3146200032557806323b872dd146200033e575b5f80fd5b620002c7620002c136600462002512565b620007aa565b60405190151581526020015b60405180910390f35b620002e6620007bc565b604051620002d3919062002581565b6200030c6200030636600462002595565b62000853565b6040516001600160a01b039091168152602001620002d3565b6200033c62000336366004620025d4565b6200087d565b005b6200033c6200034f36600462002601565b6200088e565b6200037a6200036636600462002595565b5f9081526007602052604090206001015490565b604051908152602001620002d3565b6200033c6200039a36600462002644565b62000921565b6200033c620003b136600462002662565b62000a74565b6200033c620003c83660046200276e565b62000a9c565b6200033c620003df36600462002662565b62000c50565b6200037a7f14d61fe1ff734deff390e298beb5f0b1c1f31c62bebead0e7849958f1614082a81565b6200033c62000c8b565b6200033c6200042836600462002601565b62000caf565b6200037a600a5481565b620002c76200044936600462002644565b6001600160a01b03165f908152600b6020526040902060060154600160501b900460ff1690565b60085460ff16620002c7565b6200030c6200048d36600462002595565b62000ccb565b6200033c620004a436600462002644565b62000cd7565b6200037a620004bb36600462002644565b62000e13565b6200037a620004d236600462002644565b6001600160a01b03165f908152600b602052604090206003015490565b6200030c6200050036600462002595565b600c6020525f90815260409020546001600160a01b031681565b6200033c6200052b366004620025d4565b62000e5a565b6200033c62000fab565b6200054562000fcf565b604051620002d39190620027b6565b620002c76200056536600462002662565b62001030565b620002e66200105a565b6200037a5f81565b6200033c6200058e36600462002804565b6200106b565b6200030c7f000000000000000000000000000000000000000000000000000000000000000081565b6200037a60095481565b6200033c620005d736600462002838565b62001078565b620002e6620005ee36600462002595565b62001094565b6200030c6200060536600462002644565b600d6020525f90815260409020546001600160a01b031681565b6200030c6200063036600462002644565b6001600160a01b039081165f908152600b60205260409020600201541690565b600954600a5460408051928352602083019190915201620002d3565b6200033c6200067d36600462002662565b620010a1565b6200030c6200069436600462002595565b620010c9565b6200030c620006ab36600462002595565b5f908152600c60205260409020546001600160a01b031690565b620006dc620006d6366004620028bc565b620010f2565b604080519384526001600160a01b03909216602084015290820152606001620002d3565b620002c762000711366004620029c8565b6200152c565b6200037a62000728366004620029f9565b62001559565b6200037a69d3c21bcecceda100000081565b6200037a5f8051602062003d7483398151915281565b6200076d6200076736600462002644565b62001677565b604051620002d3919062002ac0565b620007936200078d36600462002644565b620017f1565b604051620002d39998979695949392919062002b78565b5f620007b682620018e9565b92915050565b60605f8054620007cc9062002be7565b80601f0160208091040260200160405190810160405280929190818152602001828054620007fa9062002be7565b8015620008495780601f106200081f5761010080835404028352916020019162000849565b820191905f5260205f20905b8154815290600101906020018083116200082b57829003601f168201915b5050505050905090565b5f6200085f8262001910565b505f828152600460205260409020546001600160a01b0316620007b6565b6200088a8282336200194a565b5050565b6001600160a01b038216620008bd57604051633250574960e11b81525f60048201526024015b60405180910390fd5b5f620008cb83833362001959565b9050836001600160a01b0316816001600160a01b0316146200091b576040516364283d7b60e01b81526001600160a01b0380861660048301526024820184905282166044820152606401620008b4565b50505050565b6200093b5f8051602062003d748339815191523362001030565b62000959576040516354348f0360e01b815260040160405180910390fd5b6200096362001a52565b6001600160a01b0381165f908152600b602052604081206006810154909164ffffffffff9091169003620009aa5760405163d3227c9b60e01b815260040160405180910390fd5b6006810154600160501b900460ff16620009d757604051632437e77160e11b815260040160405180910390fd5b6006810180546affffffffffff00000000001916600160281b4264ffffffffff1602179055600a8054905f62000a0d8362002c35565b909155505060405164ffffffffff421681526001600160a01b038316907f8c95e9b6e0f0673ba0fb005108b228166c0a54e987237b52afea25bd53ac6800906020015b60405180910390a25062000a7160015f8051602062003d9483398151915255565b50565b5f8281526007602052604090206001015462000a908162001a70565b6200091b838362001a7c565b3362000aa88362000ccb565b6001600160a01b0316148062000ad3575062000ad35f8051602062003d748339815191523362001030565b62000b125760405162461bcd60e51b815260206004820152600e60248201526d139bdd08185d5d1a1bdc9a5e995960921b6044820152606401620008b4565b5f828152600c60209081526040808320546001600160a01b0316808452600b90925290912060060154600160501b900460ff1662000b865760405162461bcd60e51b815260206004820152601060248201526f4167656e74206e6f742061637469766560801b6044820152606401620008b4565b62000b92838362001b13565b6001600160a01b0381165f908152600b6020908152604091829020600601805469ffffffffff00000000001916600160281b4264ffffffffff1602179055905162000be09184910162002c4d565b60408051601f1981840301815282825280516020918201206001600160a01b0385165f908152600b9092529190206004015583907f859fac2fc059a2fa38efe7236e1c16278c1519298d62dd05582ff7fa392a10459062000c4390859062002581565b60405180910390a2505050565b6001600160a01b038116331462000c7a5760405163334bd91960e11b815260040160405180910390fd5b62000c86828262001b64565b505050565b5f8051602062003d7483398151915262000ca58162001a70565b62000a7162001bd3565b62000c8683838360405180602001604052805f81525062001078565b5f620007b68262001910565b62000cf15f8051602062003d748339815191523362001030565b62000d0f576040516354348f0360e01b815260040160405180910390fd5b62000d1962001a52565b6001600160a01b0381165f908152600b602052604081206006810154909164ffffffffff909116900362000d605760405163d3227c9b60e01b815260040160405180910390fd5b6006810154600160501b900460ff161562000d8d576040516291b29360e41b815260040160405180910390fd5b60068101805464ffffffffff4216600160281b026affffffffffff00000000001990911617600160501b179055600a8054905f62000dcb8362002c6a565b909155505060405164ffffffffff421681526001600160a01b038316907f17d58e090aea686a1cfcd351c298303bf6c9c754cc373f90509f4485f236fc9a9060200162000a50565b5f6001600160a01b03821662000e3f576040516322718ad960e21b81525f6004820152602401620008b4565b506001600160a01b03165f9081526003602052604090205490565b62000e745f8051602062003d748339815191523362001030565b62000e92576040516354348f0360e01b815260040160405180910390fd5b6001600160a01b0382165f908152600b602052604090206006810154600160501b900460ff1662000ef95760405162461bcd60e51b815260206004820152601060248201526f4167656e74206e6f742061637469766560801b6044820152606401620008b4565b60028101546040516340c10f1960e01b81526001600160a01b03858116600483015260248201859052909116906340c10f19906044015f604051808303815f87803b15801562000f47575f80fd5b505af115801562000f5a573d5f803e3d5ffd5b5050505060028101546040518381526001600160a01b03918216918516907f4b8825a13f811f3136f62c589d452f3e0ef716f18faba00c20316ca5563142a7906020015b60405180910390a3505050565b5f8051602062003d7483398151915262000fc58162001a70565b62000a7162001c27565b6060600e8054806020026020016040519081016040528092919081815260200182805480156200084957602002820191905f5260205f20905b81546001600160a01b0316815260019091019060200180831162001008575050505050905090565b5f9182526007602090815260408084206001600160a01b0393909316845291905290205460ff1690565b606060018054620007cc9062002be7565b6200088a33838362001c67565b620010858484846200088e565b6200091b338585858562001d00565b6060620007b68262001e35565b5f82815260076020526040902060010154620010bd8162001a70565b6200091b838362001b64565b600e8181548110620010d9575f80fd5b5f918252602090912001546001600160a01b0316905081565b5f805f7f14d61fe1ff734deff390e298beb5f0b1c1f31c62bebead0e7849958f1614082a620011218162001a70565b6200112b62001a52565b6200113562001f51565b84516001600160a01b03165f908152600b602052604090206006015464ffffffffff16156200117757604051630d82532d60e21b815260040160405180910390fd5b84516001600160a01b0316620011c85760405162461bcd60e51b8152602060048201526015602482015274496e76616c6964206167656e74206164647265737360581b6044820152606401620008b4565b8451602080870151600954604051620011e694934292910162002c85565b6040516020818303038152906040528051906020012093505f808660800151116200121c5769d3c21bcecceda100000062001222565b85608001515b90505f86604001518760600151885f0151846040516200124290620024ee565b62001251949392919062002cca565b604051809103905ff0801580156200126b573d5f803e3d5ffd5b50600980549196508692505f620012828362002c6a565b919050555060095493506200129b875f01518562001f78565b620012ab848860a0015162001b13565b604051806101200160405280878152602001885f01516001600160a01b03168152602001866001600160a01b031681526020018581526020018860c001518152602001886020015181526020014264ffffffffff1681526020014264ffffffffff16815260200160011515815250600b5f895f01516001600160a01b03166001600160a01b031681526020019081526020015f205f820151815f01556020820151816001015f6101000a8154816001600160a01b0302191690836001600160a01b031602179055506040820151816002015f6101000a8154816001600160a01b0302191690836001600160a01b03160217905550606082015181600301556080820151816004015560a0820151816005019081620013ca919062002d57565b5060c08201516006909101805460e0840151610100909401511515600160501b0260ff60501b1964ffffffffff958616600160281b0269ffffffffffffffffffff199093169590941694909417179190911691909117905586515f858152600c6020908152604080832080546001600160a01b039586166001600160a01b0319918216179091558b5185168452600d909252822080548985169083161790558951600e80546001810182559084527fbb7b4a454dc3493923482f07822329ed19e8244eff582cc204f8554c3620c3fd01805491909416911617909155600a805491620014b68362002c6a565b919050555085875f01516001600160a01b03167f910ec11d3e4bf801e83327f81b9512d3f4d900039a47a34160d2d84a2e05d58d87878b60200151604051620015029392919062002e20565b60405180910390a350506200152460015f8051602062003d9483398151915255565b509193909250565b6001600160a01b039182165f90815260056020908152604080832093909416825291909152205460ff1690565b5f7f14d61fe1ff734deff390e298beb5f0b1c1f31c62bebead0e7849958f1614082a620015868162001a70565b5f6040518060e00160405280896001600160a01b0316815260200188815260200187815260200186815260200169d3c21bcecceda1000000815260200185815260200185604051602001620015dc919062002c4d565b604051602081830303815290604052805190602001208152509050306001600160a01b031663e1979a5c826040518263ffffffff1660e01b815260040162001625919062002e51565b6060604051808303815f875af115801562001642573d5f803e3d5ffd5b505050506040513d601f19601f8201168201806040525081019062001668919062002f01565b50909998505050505050505050565b60408051610120810182525f8082526020820181905291810182905260608082018390526080820183905260a082015260c0810182905260e081018290526101008101919091526001600160a01b038083165f908152600b6020908152604091829020825161012081018452815481526001820154851692810192909252600281015490931691810191909152600382015460608201526004820154608082015260058201805491929160a084019190620017329062002be7565b80601f0160208091040260200160405190810160405280929190818152602001828054620017609062002be7565b8015620017af5780601f106200178557610100808354040283529160200191620017af565b820191905f5260205f20905b8154815290600101906020018083116200179157829003601f168201915b50505091835250506006919091015464ffffffffff8082166020840152600160281b8204166040830152600160501b900460ff16151560609091015292915050565b600b6020525f908152604090208054600182015460028301546003840154600485015460058601805495966001600160a01b03958616969590941694929391926200183c9062002be7565b80601f01602080910402602001604051908101604052809291908181526020018280546200186a9062002be7565b8015620018b95780601f106200188f57610100808354040283529160200191620018b9565b820191905f5260205f20905b8154815290600101906020018083116200189b57829003601f168201915b5050506006909301549192505064ffffffffff80821691600160281b81049091169060ff600160501b9091041689565b5f6001600160e01b03198216637965db0b60e01b1480620007b65750620007b68262001f93565b5f818152600260205260408120546001600160a01b031680620007b657604051637e27328960e01b815260048101849052602401620008b4565b62000c86838383600162001fba565b5f828152600260205260408120546001600160a01b0390811690831615620019885762001988818486620020c9565b6001600160a01b03811615620019c557620019a65f855f8062001fba565b6001600160a01b0381165f90815260036020526040902080545f190190555b6001600160a01b03851615620019f4576001600160a01b0385165f908152600360205260409020805460010190555b5f8481526002602052604080822080546001600160a01b0319166001600160a01b0389811691821790925591518793918516917fddf252ad1be2c89b69c2b068fc378daa952ba7f163c4a11628f55a4df523b3ef91a4949350505050565b62001a5c62002133565b60025f8051602062003d9483398151915255565b62000a71813362002164565b5f62001a89838362001030565b62001b0b575f8381526007602090815260408083206001600160a01b03861684529091529020805460ff1916600117905562001ac23390565b6001600160a01b0316826001600160a01b0316847f2f8788117e7eff1d82e926ec794901d17c78024a50270940304540a733656f0d60405160405180910390a4506001620007b6565b505f620007b6565b5f82815260066020526040902062001b2c828262002d57565b506040518281527ff8e1a15aba9398e019f0b49df1a4fde98ee17ae345cb5f6b5e2c27f5033e8ce79060200160405180910390a15050565b5f62001b71838362001030565b1562001b0b575f8381526007602090815260408083206001600160a01b0386168085529252808320805460ff1916905551339286917ff6391f5c32d9c69d2a47ea670b442974b53935d1edc7fd64eb21e047a839171b9190a4506001620007b6565b62001bdd620021a1565b6008805460ff191690557f5db9ee0a495bf2e6ff9c91a7834c1ba4fdd244a5e8aa4e537bd38aeae4b073aa335b6040516001600160a01b03909116815260200160405180910390a1565b62001c3162001f51565b6008805460ff191660011790557f62e78cea01bee320cd4e420270b5ea74000d11b0c9f74754ebdbfc544b05a25862001c0a3390565b6001600160a01b03821662001c9b57604051630b61174360e31b81526001600160a01b0383166004820152602401620008b4565b6001600160a01b038381165f81815260056020908152604080832094871680845294825291829020805460ff191686151590811790915591519182527f17307eab39ab6107e8899845ad3d59bd9653f200f220920489ca2b5937696c31910162000f9e565b6001600160a01b0383163b1562001e2e57604051630a85bd0160e11b81526001600160a01b0384169063150b7a029062001d4590889088908790879060040162002f3a565b6020604051808303815f875af192505050801562001d82575060408051601f3d908101601f1916820190925262001d7f9181019062002f78565b60015b62001dee573d80801562001db2576040519150601f19603f3d011682016040523d82523d5f602084013e62001db7565b606091505b5080515f0362001de657604051633250574960e11b81526001600160a01b0385166004820152602401620008b4565b805160208201fd5b6001600160e01b03198116630a85bd0160e11b1462001e2c57604051633250574960e11b81526001600160a01b0385166004820152602401620008b4565b505b5050505050565b606062001e428262001910565b505f828152600660205260408120805462001e5d9062002be7565b80601f016020809104026020016040519081016040528092919081815260200182805462001e8b9062002be7565b801562001eda5780601f1062001eb05761010080835404028352916020019162001eda565b820191905f5260205f20905b81548152906001019060200180831162001ebc57829003601f168201915b505050505090505f62001ef760408051602081019091525f815290565b905080515f0362001f09575092915050565b81511562001f3e57808260405160200162001f2692919062002f96565b60405160208183030381529060405292505050919050565b62001f4984620021c5565b949350505050565b60085460ff161562001f765760405163d93c066560e01b815260040160405180910390fd5b565b6200088a828260405180602001604052805f8152506200223f565b5f6001600160e01b03198216632483248360e11b1480620007b65750620007b6826200225a565b808062001fcf57506001600160a01b03821615155b156200209a575f62001fe18462001910565b90506001600160a01b038316158015906200200e5750826001600160a01b0316816001600160a01b031614155b80156200202457506200202281846200152c565b155b156200204f5760405163a9fbf51f60e01b81526001600160a01b0384166004820152602401620008b4565b8115620020985783856001600160a01b0316826001600160a01b03167f8c5be1e5ebec7d5bd14f71427d1e84f3dd0314c0f7b2291e5b200ac8c7c3b92560405160405180910390a45b505b50505f90815260046020526040902080546001600160a01b0319166001600160a01b0392909216919091179055565b620020d6838383620022ac565b62000c86576001600160a01b0383166200210757604051637e27328960e01b815260048101829052602401620008b4565b60405163177e802f60e01b81526001600160a01b038316600482015260248101829052604401620008b4565b5f8051602062003d948339815191525460020362001f7657604051633ee5aeb560e01b815260040160405180910390fd5b62002170828262001030565b6200088a5760405163e2517d3f60e01b81526001600160a01b038216600482015260248101839052604401620008b4565b60085460ff1662001f7657604051638dfc202b60e01b815260040160405180910390fd5b6060620021d28262001910565b505f620021e960408051602081019091525f815290565b90505f815111620022095760405180602001604052805f81525062002238565b80620022158462002312565b6040516020016200222892919062002f96565b6040516020818303038152906040525b9392505050565b6200224b8383620023a9565b62000c86335f85858562001d00565b5f6001600160e01b031982166380ac58cd60e01b14806200228b57506001600160e01b03198216635b5e139f60e01b145b80620007b657506301ffc9a760e01b6001600160e01b0319831614620007b6565b5f6001600160a01b0383161580159062001f495750826001600160a01b0316846001600160a01b03161480620022e95750620022e984846200152c565b8062001f495750505f908152600460205260409020546001600160a01b03908116911614919050565b60605f620023208362002410565b60010190505f8167ffffffffffffffff81111562002342576200234262002693565b6040519080825280601f01601f1916602001820160405280156200236d576020820181803683370190505b5090508181016020015b5f19016f181899199a1a9b1b9c1cb0b131b232b360811b600a86061a8153600a85049450846200237757509392505050565b6001600160a01b038216620023d457604051633250574960e11b81525f6004820152602401620008b4565b5f620023e283835f62001959565b90506001600160a01b0381161562000c86576040516339e3563760e11b81525f6004820152602401620008b4565b5f8072184f03e93ff9f4daa797ed6e38ed64bf6a1f0160401b83106200244f5772184f03e93ff9f4daa797ed6e38ed64bf6a1f0160401b830492506040015b6d04ee2d6d415b85acef810000000083106200247c576d04ee2d6d415b85acef8100000000830492506020015b662386f26fc1000083106200249b57662386f26fc10000830492506010015b6305f5e1008310620024b4576305f5e100830492506008015b6127108310620024c957612710830492506004015b60648310620024dc576064830492506002015b600a8310620007b65760010192915050565b610dab8062002fc983390190565b6001600160e01b03198116811462000a71575f80fd5b5f6020828403121562002523575f80fd5b81356200223881620024fc565b5f5b838110156200254c57818101518382015260200162002532565b50505f910152565b5f81518084526200256d81602086016020860162002530565b601f01601f19169290920160200192915050565b602081525f62002238602083018462002554565b5f60208284031215620025a6575f80fd5b5035919050565b6001600160a01b038116811462000a71575f80fd5b8035620025cf81620025ad565b919050565b5f8060408385031215620025e6575f80fd5b8235620025f381620025ad565b946020939093013593505050565b5f805f6060848603121562002614575f80fd5b83356200262181620025ad565b925060208401356200263381620025ad565b929592945050506040919091013590565b5f6020828403121562002655575f80fd5b81356200223881620025ad565b5f806040838503121562002674575f80fd5b8235915060208301356200268881620025ad565b809150509250929050565b634e487b7160e01b5f52604160045260245ffd5b60405160e0810167ffffffffffffffff81118282101715620026cd57620026cd62002693565b60405290565b5f67ffffffffffffffff80841115620026f057620026f062002693565b604051601f8501601f19908116603f011681019082821181831017156200271b576200271b62002693565b8160405280935085815286868601111562002734575f80fd5b858560208301375f602087830101525050509392505050565b5f82601f8301126200275d575f80fd5b6200223883833560208501620026d3565b5f806040838503121562002780575f80fd5b82359150602083013567ffffffffffffffff8111156200279e575f80fd5b620027ac858286016200274d565b9150509250929050565b602080825282518282018190525f9190848201906040850190845b81811015620027f85783516001600160a01b031683529284019291840191600101620027d1565b50909695505050505050565b5f806040838503121562002816575f80fd5b82356200282381620025ad565b91506020830135801515811462002688575f80fd5b5f805f80608085870312156200284c575f80fd5b84356200285981620025ad565b935060208501356200286b81620025ad565b925060408501359150606085013567ffffffffffffffff8111156200288e575f80fd5b8501601f810187136200289f575f80fd5b620028b087823560208401620026d3565b91505092959194509250565b5f60208284031215620028cd575f80fd5b813567ffffffffffffffff80821115620028e5575f80fd5b9083019060e08286031215620028f9575f80fd5b62002903620026a7565b6200290e83620025c2565b815260208301358281111562002922575f80fd5b62002930878286016200274d565b60208301525060408301358281111562002948575f80fd5b62002956878286016200274d565b6040830152506060830135828111156200296e575f80fd5b6200297c878286016200274d565b6060830152506080830135608082015260a0830135828111156200299e575f80fd5b620029ac878286016200274d565b60a08301525060c083013560c082015280935050505092915050565b5f8060408385031215620029da575f80fd5b8235620029e781620025ad565b915060208301356200268881620025ad565b5f805f805f60a0868803121562002a0e575f80fd5b853562002a1b81620025ad565b9450602086013567ffffffffffffffff8082111562002a38575f80fd5b62002a4689838a016200274d565b9550604088013591508082111562002a5c575f80fd5b62002a6a89838a016200274d565b9450606088013591508082111562002a80575f80fd5b62002a8e89838a016200274d565b9350608088013591508082111562002aa4575f80fd5b5062002ab3888289016200274d565b9150509295509295909350565b60208152815160208201525f602083015162002ae760408401826001600160a01b03169052565b5060408301516001600160a01b03811660608401525060608301516080830152608083015160a083015260a08301516101208060c085015262002b2f61014085018362002554565b915060c085015162002b4a60e086018264ffffffffff169052565b5060e085015161010062002b668187018364ffffffffff169052565b90950151151593019290925250919050565b8981526001600160a01b03898116602083015288166040820152606081018790526080810186905261012060a082018190525f9062002bba8382018862002554565b64ffffffffff96871660c08501529490951660e08301525090151561010090910152979650505050505050565b600181811c9082168062002bfc57607f821691505b60208210810362002c1b57634e487b7160e01b5f52602260045260245ffd5b50919050565b634e487b7160e01b5f52601160045260245ffd5b5f8162002c465762002c4662002c21565b505f190190565b5f825162002c6081846020870162002530565b9190910192915050565b5f6001820162002c7e5762002c7e62002c21565b5060010190565b6bffffffffffffffffffffffff198560601b1681525f845162002cb081601485016020890162002530565b909101601481019390935250603482015260540192915050565b608081525f62002cde608083018762002554565b828103602084015262002cf2818762002554565b6001600160a01b0395909516604084015250506060015292915050565b601f82111562000c8657805f5260205f20601f840160051c8101602085101562002d365750805b601f840160051c820191505b8181101562001e2e575f815560010162002d42565b815167ffffffffffffffff81111562002d745762002d7462002693565b62002d8c8162002d85845462002be7565b8462002d0f565b602080601f83116001811462002dc2575f841562002daa5750858301515b5f19600386901b1c1916600185901b17855562001e2c565b5f85815260208120601f198616915b8281101562002df25788860151825594840194600190910190840162002dd1565b508582101562002e1057878501515f19600388901b60f8161c191681555b5050505050600190811b01905550565b60018060a01b0384168152826020820152606060408201525f62002e48606083018462002554565b95945050505050565b602080825282516001600160a01b03168282015282015160e060408301525f9062002e8161010084018262002554565b90506040840151601f198085840301606086015262002ea1838362002554565b9250606086015191508085840301608086015262002ec0838362002554565b9250608086015160a086015260a08601519150808584030160c08601525062002eea828262002554565b91505060c084015160e08401528091505092915050565b5f805f6060848603121562002f14575f80fd5b83519250602084015162002f2881620025ad565b80925050604084015190509250925092565b6001600160a01b03858116825284166020820152604081018390526080606082018190525f9062002f6e9083018462002554565b9695505050505050565b5f6020828403121562002f89575f80fd5b81516200223881620024fc565b5f835162002fa981846020880162002530565b83519083019062002fbf81836020880162002530565b0194935050505056fe60c060405234801562000010575f80fd5b5060405162000dab38038062000dab8339810160408190526200003391620002ac565b83836003620000438382620003c3565b506004620000528282620003c3565b505033608052506001600160a01b03821660a0526200007282826200007c565b50505050620004b5565b6001600160a01b038216620000ab5760405163ec442f0560e01b81525f60048201526024015b60405180910390fd5b620000b85f8383620000bc565b5050565b6001600160a01b038316620000ea578060025f828254620000de91906200048f565b909155506200015c9050565b6001600160a01b0383165f90815260208190526040902054818110156200013e5760405163391434e360e21b81526001600160a01b03851660048201526024810182905260448101839052606401620000a2565b6001600160a01b0384165f9081526020819052604090209082900390555b6001600160a01b0382166200017a5760028054829003905562000198565b6001600160a01b0382165f9081526020819052604090208054820190555b816001600160a01b0316836001600160a01b03167fddf252ad1be2c89b69c2b068fc378daa952ba7f163c4a11628f55a4df523b3ef83604051620001de91815260200190565b60405180910390a3505050565b634e487b7160e01b5f52604160045260245ffd5b5f82601f8301126200020f575f80fd5b81516001600160401b03808211156200022c576200022c620001eb565b604051601f8301601f19908116603f01168101908282118183101715620002575762000257620001eb565b816040528381526020925086602085880101111562000274575f80fd5b5f91505b8382101562000297578582018301518183018401529082019062000278565b5f602085830101528094505050505092915050565b5f805f8060808587031215620002c0575f80fd5b84516001600160401b0380821115620002d7575f80fd5b620002e588838901620001ff565b95506020870151915080821115620002fb575f80fd5b506200030a87828801620001ff565b604087015190945090506001600160a01b038116811462000329575f80fd5b6060959095015193969295505050565b600181811c908216806200034e57607f821691505b6020821081036200036d57634e487b7160e01b5f52602260045260245ffd5b50919050565b601f821115620003be57805f5260205f20601f840160051c810160208510156200039a5750805b601f840160051c820191505b81811015620003bb575f8155600101620003a6565b50505b505050565b81516001600160401b03811115620003df57620003df620001eb565b620003f781620003f0845462000339565b8462000373565b602080601f8311600181146200042d575f8415620004155750858301515b5f19600386901b1c1916600185901b17855562000487565b5f85815260208120601f198616915b828110156200045d578886015182559484019460019091019084016200043c565b50858210156200047b57878501515f19600388901b60f8161c191681555b505060018460011b0185555b505050505050565b80820180821115620004af57634e487b7160e01b5f52601160045260245ffd5b92915050565b60805160a0516108cd620004de5f395f61014901525f81816101f3015261032401526108cd5ff3fe608060405234801561000f575f80fd5b50600436106100cb575f3560e01c806340c10f191161008857806395d89b411161006357806395d89b41146101d3578063a9059cbb146101db578063c45a0155146101ee578063dd62ed3e14610215575f80fd5b806340c10f191461018357806342966c681461019857806370a08231146101ab575f80fd5b806306fdde03146100cf578063095ea7b3146100ed57806318160ddd1461011057806323b872dd14610122578063313ce567146101355780633861369014610144575b5f80fd5b6100d761024d565b6040516100e49190610710565b60405180910390f35b6101006100fb366004610777565b6102dd565b60405190151581526020016100e4565b6002545b6040519081526020016100e4565b61010061013036600461079f565b6102f6565b604051601281526020016100e4565b61016b7f000000000000000000000000000000000000000000000000000000000000000081565b6040516001600160a01b0390911681526020016100e4565b610196610191366004610777565b610319565b005b6101966101a63660046107d8565b61039c565b6101146101b93660046107ef565b6001600160a01b03165f9081526020819052604090205490565b6100d76103a9565b6101006101e9366004610777565b6103b8565b61016b7f000000000000000000000000000000000000000000000000000000000000000081565b61011461022336600461080f565b6001600160a01b039182165f90815260016020908152604080832093909416825291909152205490565b60606003805461025c90610840565b80601f016020809104026020016040519081016040528092919081815260200182805461028890610840565b80156102d35780601f106102aa576101008083540402835291602001916102d3565b820191905f5260205f20905b8154815290600101906020018083116102b657829003601f168201915b5050505050905090565b5f336102ea8185856103c5565b60019150505b92915050565b5f336103038582856103d7565b61030e858585610453565b506001949350505050565b336001600160a01b037f0000000000000000000000000000000000000000000000000000000000000000161461038e5760405162461bcd60e51b815260206004820152601560248201527413db9b1e48199858dd1bdc9e4818d85b881b5a5b9d605a1b60448201526064015b60405180910390fd5b61039882826104b0565b5050565b6103a633826104e4565b50565b60606004805461025c90610840565b5f336102ea818585610453565b6103d28383836001610518565b505050565b6001600160a01b038381165f908152600160209081526040808320938616835292905220545f1981101561044d578181101561043f57604051637dc7a0d960e11b81526001600160a01b03841660048201526024810182905260448101839052606401610385565b61044d84848484035f610518565b50505050565b6001600160a01b03831661047c57604051634b637e8f60e11b81525f6004820152602401610385565b6001600160a01b0382166104a55760405163ec442f0560e01b81525f6004820152602401610385565b6103d28383836105ea565b6001600160a01b0382166104d95760405163ec442f0560e01b81525f6004820152602401610385565b6103985f83836105ea565b6001600160a01b03821661050d57604051634b637e8f60e11b81525f6004820152602401610385565b610398825f836105ea565b6001600160a01b0384166105415760405163e602df0560e01b81525f6004820152602401610385565b6001600160a01b03831661056a57604051634a1406b160e11b81525f6004820152602401610385565b6001600160a01b038085165f908152600160209081526040808320938716835292905220829055801561044d57826001600160a01b0316846001600160a01b03167f8c5be1e5ebec7d5bd14f71427d1e84f3dd0314c0f7b2291e5b200ac8c7c3b925846040516105dc91815260200190565b60405180910390a350505050565b6001600160a01b038316610614578060025f8282546106099190610878565b909155506106849050565b6001600160a01b0383165f90815260208190526040902054818110156106665760405163391434e360e21b81526001600160a01b03851660048201526024810182905260448101839052606401610385565b6001600160a01b0384165f9081526020819052604090209082900390555b6001600160a01b0382166106a0576002805482900390556106be565b6001600160a01b0382165f9081526020819052604090208054820190555b816001600160a01b0316836001600160a01b03167fddf252ad1be2c89b69c2b068fc378daa952ba7f163c4a11628f55a4df523b3ef8360405161070391815260200190565b60405180910390a3505050565b5f602080835283518060208501525f5b8181101561073c57858101830151858201604001528201610720565b505f604082860101526040601f19601f8301168501019250505092915050565b80356001600160a01b0381168114610772575f80fd5b919050565b5f8060408385031215610788575f80fd5b6107918361075c565b946020939093013593505050565b5f805f606084860312156107b1575f80fd5b6107ba8461075c565b92506107c86020850161075c565b9150604084013590509250925092565b5f602082840312156107e8575f80fd5b5035919050565b5f602082840312156107ff575f80fd5b6108088261075c565b9392505050565b5f8060408385031215610820575f80fd5b6108298361075c565b91506108376020840161075c565b90509250929050565b600181811c9082168061085457607f821691505b60208210810361087257634e487b7160e01b5f52602260045260245ffd5b50919050565b808201808211156102f057634e487b7160e01b5f52601160045260245ffdfea2646970667358221220835ae7260a5e90894102916216a854d6bb3e1e8b2bb5c5db0c14acaac1ce420464736f6c6343000818003371840dc4906352362b0cdaf79870196c8e42acafade72d5d5a6d59291253ceb19b779b17422d0df92223018b32b4d1fa46e071723d6817e2486d003becc55f00a26469706673582212200a3873debbb5dd6f0b0e1065e2f36d078ea410c82c1cc410b70f84a0d55ddf2964736f6c6343000818003371840dc4906352362b0cdaf79870196c8e42acafade72d5d5a6d59291253ceb1","linkReferences":{}},"methodIdentifiers":{"AGENT_CREATOR_ROLE()":"3d21b8ff","DEFAULT_ADMIN_ROLE()":"a217fddf","DEFAULT_TOKEN_SUPPLY()":"eef9f0c0","GOVERNANCE_ROLE()":"f36c8f5c","agentCount()":"b7dc1284","agentToToken(address)":"c952de39","agents(address)":"fd66091e","allAgents(uint256)":"e0bb12f7","approve(address,uint256)":"095ea7b3","balanceOf(address)":"70a08231","createAgent((address,string,string,string,uint256,string,bytes32))":"e1979a5c","createAgentSimple(address,string,string,string,string)":"ee6fd709","destroyAgent(address)":"283f2e24","getAgent(address)":"fb3551ff","getAgentByNFT(uint256)":"e1212f23","getAgentCounts()":"d057ac64","getAgentNFT(address)":"73e5573f","getAgentToken(address)":"cd409ffe","getAllAgents()":"860e4ac6","getApproved(uint256)":"081812fc","getRoleAdmin(bytes32)":"248a9ca3","governanceContract()":"b172b222","grantRole(bytes32,address)":"2f2ff15d","hasRole(bytes32,address)":"91d14854","isAgentActive(address)":"554c4f4b","isApprovedForAll(address,address)":"e985e9c5","mintAgentTokens(address,uint256)":"82a3c932","name()":"06fdde03","nftToAgent(uint256)":"818c7dba","ownerOf(uint256)":"6352211e","pause()":"8456cb59","paused()":"5c975abb","reactivateAgent(address)":"64c81794","renounceRole(bytes32,address)":"36568abe","revokeRole(bytes32,address)":"d547741f","safeTransferFrom(address,address,uint256)":"42842e0e","safeTransferFrom(address,address,uint256,bytes)":"b88d4fde","setApprovalForAll(address,bool)":"a22cb465","supportsInterface(bytes4)":"01ffc9a7","symbol()":"95d89b41","tokenURI(uint256)":"c87b56dd","totalActiveAgents()":"44d9b4d6","transferFrom(address,address,uint256)":"23b872dd","unpause()":"3f4ba83a","updateNFTMetadata(uint256,string)":"35dcdf1e"},"id":59}