{"abi":[{"type":"constructor","inputs":[{"name":"name_","type":"string","internalType":"string"},{"name":"symbol_","type":"string","internalType":"string"},{"name":"_agentAddress","type":"address","internalType":"address"},{"name":"initialSupply","type":"uint256","internalType":"uint256"}],"stateMutability":"nonpayable"},{"type":"function","name":"agentAddress","inputs":[],"outputs":[{"name":"","type":"address","internalType":"address"}],"stateMutability":"view"},{"type":"function","name":"allowance","inputs":[{"name":"owner","type":"address","internalType":"address"},{"name":"spender","type":"address","internalType":"address"}],"outputs":[{"name":"","type":"uint256","internalType":"uint256"}],"stateMutability":"view"},{"type":"function","name":"approve","inputs":[{"name":"spender","type":"address","internalType":"address"},{"name":"value","type":"uint256","internalType":"uint256"}],"outputs":[{"name":"","type":"bool","internalType":"bool"}],"stateMutability":"nonpayable"},{"type":"function","name":"balanceOf","inputs":[{"name":"account","type":"address","internalType":"address"}],"outputs":[{"name":"","type":"uint256","internalType":"uint256"}],"stateMutability":"view"},{"type":"function","name":"burn","inputs":[{"name":"amount","type":"uint256","internalType":"uint256"}],"outputs":[],"stateMutability":"nonpayable"},{"type":"function","name":"decimals","inputs":[],"outputs":[{"name":"","type":"uint8","internalType":"uint8"}],"stateMutability":"view"},{"type":"function","name":"factory","inputs":[],"outputs":[{"name":"","type":"address","internalType":"address"}],"stateMutability":"view"},{"type":"function","name":"mint","inputs":[{"name":"to","type":"address","internalType":"address"},{"name":"amount","type":"uint256","internalType":"uint256"}],"outputs":[],"stateMutability":"nonpayable"},{"type":"function","name":"name","inputs":[],"outputs":[{"name":"","type":"string","internalType":"string"}],"stateMutability":"view"},{"type":"function","name":"symbol","inputs":[],"outputs":[{"name":"","type":"string","internalType":"string"}],"stateMutability":"view"},{"type":"function","name":"totalSupply","inputs":[],"outputs":[{"name":"","type":"uint256","internalType":"uint256"}],"stateMutability":"view"},{"type":"function","name":"transfer","inputs":[{"name":"to","type":"address","internalType":"address"},{"name":"value","type":"uint256","internalType":"uint256"}],"outputs":[{"name":"","type":"bool","internalType":"bool"}],"stateMutability":"nonpayable"},{"type":"function","name":"transferFrom","inputs":[{"name":"from","type":"address","internalType":"address"},{"name":"to","type":"address","internalType":"address"},{"name":"value","type":"uint256","internalType":"uint256"}],"outputs":[{"name":"","type":"bool","internalType":"bool"}],"stateMutability":"nonpayable"},{"type":"event","name":"Approval","inputs":[{"name":"owner","type":"address","indexed":true,"internalType":"address"},{"name":"spender","type":"address","indexed":true,"internalType":"address"},{"name":"value","type":"uint256","indexed":false,"internalType":"uint256"}],"anonymous":false},{"type":"event","name":"Transfer","inputs":[{"name":"from","type":"address","indexed":true,"internalType":"address"},{"name":"to","type":"address","indexed":true,"internalType":"address"},{"name":"value","type":"uint256","indexed":false,"internalType":"uint256"}],"anonymous":false},{"type":"error","name":"ERC20InsufficientAllowance","inputs":[{"name":"spender","type":"address","internalType":"address"},{"name":"allowance","type":"uint256","internalType":"uint256"},{"name":"needed","type":"uint256","internalType":"uint256"}]},{"type":"error","name":"ERC20InsufficientBalance","inputs":[{"name":"sender","type":"address","internalType":"address"},{"name":"balance","type":"uint256","internalType":"uint256"},{"name":"needed","type":"uint256","internalType":"uint256"}]},{"type":"error","name":"ERC20InvalidApprover","inputs":[{"name":"approver","type":"address","internalType":"address"}]},{"type":"error","name":"ERC20InvalidReceiver","inputs":[{"name":"receiver","type":"address","internalType":"address"}]},{"type":"error","name":"ERC20InvalidSender","inputs":[{"name":"sender","type":"address","internalType":"address"}]},{"type":"error","name":"ERC20InvalidSpender","inputs":[{"name":"spender","type":"address","internalType":"address"}]}],"bytecode":{"object":"0x60c060405234801562000010575f80fd5b5060405162000dab38038062000dab8339810160408190526200003391620002ac565b83836003620000438382620003c3565b506004620000528282620003c3565b505033608052506001600160a01b03821660a0526200007282826200007c565b50505050620004b5565b6001600160a01b038216620000ab5760405163ec442f0560e01b81525f60048201526024015b60405180910390fd5b620000b85f8383620000bc565b5050565b6001600160a01b038316620000ea578060025f828254620000de91906200048f565b909155506200015c9050565b6001600160a01b0383165f90815260208190526040902054818110156200013e5760405163391434e360e21b81526001600160a01b03851660048201526024810182905260448101839052606401620000a2565b6001600160a01b0384165f9081526020819052604090209082900390555b6001600160a01b0382166200017a5760028054829003905562000198565b6001600160a01b0382165f9081526020819052604090208054820190555b816001600160a01b0316836001600160a01b03167fddf252ad1be2c89b69c2b068fc378daa952ba7f163c4a11628f55a4df523b3ef83604051620001de91815260200190565b60405180910390a3505050565b634e487b7160e01b5f52604160045260245ffd5b5f82601f8301126200020f575f80fd5b81516001600160401b03808211156200022c576200022c620001eb565b604051601f8301601f19908116603f01168101908282118183101715620002575762000257620001eb565b816040528381526020925086602085880101111562000274575f80fd5b5f91505b8382101562000297578582018301518183018401529082019062000278565b5f602085830101528094505050505092915050565b5f805f8060808587031215620002c0575f80fd5b84516001600160401b0380821115620002d7575f80fd5b620002e588838901620001ff565b95506020870151915080821115620002fb575f80fd5b506200030a87828801620001ff565b604087015190945090506001600160a01b038116811462000329575f80fd5b6060959095015193969295505050565b600181811c908216806200034e57607f821691505b6020821081036200036d57634e487b7160e01b5f52602260045260245ffd5b50919050565b601f821115620003be57805f5260205f20601f840160051c810160208510156200039a5750805b601f840160051c820191505b81811015620003bb575f8155600101620003a6565b50505b505050565b81516001600160401b03811115620003df57620003df620001eb565b620003f781620003f0845462000339565b8462000373565b602080601f8311600181146200042d575f8415620004155750858301515b5f19600386901b1c1916600185901b17855562000487565b5f85815260208120601f198616915b828110156200045d578886015182559484019460019091019084016200043c565b50858210156200047b57878501515f19600388901b60f8161c191681555b505060018460011b0185555b505050505050565b80820180821115620004af57634e487b7160e01b5f52601160045260245ffd5b92915050565b60805160a0516108cd620004de5f395f61014901525f81816101f3015261032401526108cd5ff3fe608060405234801561000f575f80fd5b50600436106100cb575f3560e01c806340c10f191161008857806395d89b411161006357806395d89b41146101d3578063a9059cbb146101db578063c45a0155146101ee578063dd62ed3e14610215575f80fd5b806340c10f191461018357806342966c681461019857806370a08231146101ab575f80fd5b806306fdde03146100cf578063095ea7b3146100ed57806318160ddd1461011057806323b872dd14610122578063313ce567146101355780633861369014610144575b5f80fd5b6100d761024d565b6040516100e49190610710565b60405180910390f35b6101006100fb366004610777565b6102dd565b60405190151581526020016100e4565b6002545b6040519081526020016100e4565b61010061013036600461079f565b6102f6565b604051601281526020016100e4565b61016b7f000000000000000000000000000000000000000000000000000000000000000081565b6040516001600160a01b0390911681526020016100e4565b610196610191366004610777565b610319565b005b6101966101a63660046107d8565b61039c565b6101146101b93660046107ef565b6001600160a01b03165f9081526020819052604090205490565b6100d76103a9565b6101006101e9366004610777565b6103b8565b61016b7f000000000000000000000000000000000000000000000000000000000000000081565b61011461022336600461080f565b6001600160a01b039182165f90815260016020908152604080832093909416825291909152205490565b60606003805461025c90610840565b80601f016020809104026020016040519081016040528092919081815260200182805461028890610840565b80156102d35780601f106102aa576101008083540402835291602001916102d3565b820191905f5260205f20905b8154815290600101906020018083116102b657829003601f168201915b5050505050905090565b5f336102ea8185856103c5565b60019150505b92915050565b5f336103038582856103d7565b61030e858585610453565b506001949350505050565b336001600160a01b037f0000000000000000000000000000000000000000000000000000000000000000161461038e5760405162461bcd60e51b815260206004820152601560248201527413db9b1e48199858dd1bdc9e4818d85b881b5a5b9d605a1b60448201526064015b60405180910390fd5b61039882826104b0565b5050565b6103a633826104e4565b50565b60606004805461025c90610840565b5f336102ea818585610453565b6103d28383836001610518565b505050565b6001600160a01b038381165f908152600160209081526040808320938616835292905220545f1981101561044d578181101561043f57604051637dc7a0d960e11b81526001600160a01b03841660048201526024810182905260448101839052606401610385565b61044d84848484035f610518565b50505050565b6001600160a01b03831661047c57604051634b637e8f60e11b81525f6004820152602401610385565b6001600160a01b0382166104a55760405163ec442f0560e01b81525f6004820152602401610385565b6103d28383836105ea565b6001600160a01b0382166104d95760405163ec442f0560e01b81525f6004820152602401610385565b6103985f83836105ea565b6001600160a01b03821661050d57604051634b637e8f60e11b81525f6004820152602401610385565b610398825f836105ea565b6001600160a01b0384166105415760405163e602df0560e01b81525f6004820152602401610385565b6001600160a01b03831661056a57604051634a1406b160e11b81525f6004820152602401610385565b6001600160a01b038085165f908152600160209081526040808320938716835292905220829055801561044d57826001600160a01b0316846001600160a01b03167f8c5be1e5ebec7d5bd14f71427d1e84f3dd0314c0f7b2291e5b200ac8c7c3b925846040516105dc91815260200190565b60405180910390a350505050565b6001600160a01b038316610614578060025f8282546106099190610878565b909155506106849050565b6001600160a01b0383165f90815260208190526040902054818110156106665760405163391434e360e21b81526001600160a01b03851660048201526024810182905260448101839052606401610385565b6001600160a01b0384165f9081526020819052604090209082900390555b6001600160a01b0382166106a0576002805482900390556106be565b6001600160a01b0382165f9081526020819052604090208054820190555b816001600160a01b0316836001600160a01b03167fddf252ad1be2c89b69c2b068fc378daa952ba7f163c4a11628f55a4df523b3ef8360405161070391815260200190565b60405180910390a3505050565b5f602080835283518060208501525f5b8181101561073c57858101830151858201604001528201610720565b505f604082860101526040601f19601f8301168501019250505092915050565b80356001600160a01b0381168114610772575f80fd5b919050565b5f8060408385031215610788575f80fd5b6107918361075c565b946020939093013593505050565b5f805f606084860312156107b1575f80fd5b6107ba8461075c565b92506107c86020850161075c565b9150604084013590509250925092565b5f602082840312156107e8575f80fd5b5035919050565b5f602082840312156107ff575f80fd5b6108088261075c565b9392505050565b5f8060408385031215610820575f80fd5b6108298361075c565b91506108376020840161075c565b90509250929050565b600181811c9082168061085457607f821691505b60208210810361087257634e487b7160e01b5f52602260045260245ffd5b50919050565b808201808211156102f057634e487b7160e01b5f52601160045260245ffdfea2646970667358221220835ae7260a5e90894102916216a854d6bb3e1e8b2bb5c5db0c14acaac1ce420464736f6c63430008180033","linkReferences":{}},"methodIdentifiers":{"agentAddress()":"38613690","allowance(address,address)":"dd62ed3e","approve(address,uint256)":"095ea7b3","balanceOf(address)":"70a08231","burn(uint256)":"42966c68","decimals()":"313ce567","factory()":"c45a0155","mint(address,uint256)":"40c10f19","name()":"06fdde03","symbol()":"95d89b41","totalSupply()":"18160ddd","transfer(address,uint256)":"a9059cbb","transferFrom(address,address,uint256)":"23b872dd"},"id":59}