{
  "_format": "hh-sol-artifact-1",
  "contractName": "MinimalUUPS",
  "sourceName": "contracts/MinimalUUPS.sol",
  "abi": [
    {
      "inputs": [],
      "stateMutability": "nonpayable",
      "type": "constructor"
    },
    {
      "inputs": [
        {
          "internalType": "address",
          "name": "target",
          "type": "address"
        }
      ],
      "name": "AddressEmptyCode",
      "type": "error"
    },
    {
      "inputs": [
        {
          "internalType": "address",
          "name": "implementation",
          "type": "address"
        }
      ],
      "name": "ERC1967InvalidImplementation",
      "type": "error"
    },
    {
      "inputs": [],
      "name": "ERC1967NonPayable",
      "type": "error"
    },
    {
      "inputs": [],
      "name": "FailedCall",
      "type": "error"
    },
    {
      "inputs": [],
      "name": "InvalidInitialization",
      "type": "error"
    },
    {
      "inputs": [],
      "name": "NotInitializing",
      "type": "error"
    },
    {
      "inputs": [
        {
          "internalType": "address",
          "name": "owner",
          "type": "address"
        }
      ],
      "name": "OwnableInvalidOwner",
      "type": "error"
    },
    {
      "inputs": [
        {
          "internalType": "address",
          "name": "account",
          "type": "address"
        }
      ],
      "name": "OwnableUnauthorizedAccount",
      "type": "error"
    },
    {
      "inputs": [],
      "name": "UUPSUnauthorizedCallContext",
      "type": "error"
    },
    {
      "inputs": [
        {
          "internalType": "bytes32",
          "name": "slot",
          "type": "bytes32"
        }
      ],
      "name": "UUPSUnsupportedProxiableUUID",
      "type": "error"
    },
    {
      "anonymous": false,
      "inputs": [
        {
          "indexed": false,
          "internalType": "uint64",
          "name": "version",
          "type": "uint64"
        }
      ],
      "name": "Initialized",
      "type": "event"
    },
    {
      "anonymous": false,
      "inputs": [
        {
          "indexed": true,
          "internalType": "address",
          "name": "previousOwner",
          "type": "address"
        },
        {
          "indexed": true,
          "internalType": "address",
          "name": "newOwner",
          "type": "address"
        }
      ],
      "name": "OwnershipTransferred",
      "type": "event"
    },
    {
      "anonymous": false,
      "inputs": [
        {
          "indexed": true,
          "internalType": "address",
          "name": "implementation",
          "type": "address"
        }
      ],
      "name": "Upgraded",
      "type": "event"
    },
    {
      "inputs": [],
      "name": "UPGRADE_INTERFACE_VERSION",
      "outputs": [
        {
          "internalType": "string",
          "name": "",
          "type": "string"
        }
      ],
      "stateMutability": "view",
      "type": "function"
    },
    {
      "inputs": [],
      "name": "getVersion",
      "outputs": [
        {
          "internalType": "string",
          "name": "",
          "type": "string"
        }
      ],
      "stateMutability": "pure",
      "type": "function"
    },
    {
      "inputs": [
        {
          "internalType": "address",
          "name": "identityRegistry_",
          "type": "address"
        }
      ],
      "name": "initialize",
      "outputs": [],
      "stateMutability": "nonpayable",
      "type": "function"
    },
    {
      "inputs": [],
      "name": "owner",
      "outputs": [
        {
          "internalType": "address",
          "name": "",
          "type": "address"
        }
      ],
      "stateMutability": "view",
      "type": "function"
    },
    {
      "inputs": [],
      "name": "proxiableUUID",
      "outputs": [
        {
          "internalType": "bytes32",
          "name": "",
          "type": "bytes32"
        }
      ],
      "stateMutability": "view",
      "type": "function"
    },
    {
      "inputs": [],
      "name": "renounceOwnership",
      "outputs": [],
      "stateMutability": "nonpayable",
      "type": "function"
    },
    {
      "inputs": [
        {
          "internalType": "address",
          "name": "newOwner",
          "type": "address"
        }
      ],
      "name": "transferOwnership",
      "outputs": [],
      "stateMutability": "nonpayable",
      "type": "function"
    },
    {
      "inputs": [
        {
          "internalType": "address",
          "name": "newImplementation",
          "type": "address"
        },
        {
          "internalType": "bytes",
          "name": "data",
          "type": "bytes"
        }
      ],
      "name": "upgradeToAndCall",
      "outputs": [],
      "stateMutability": "payable",
      "type": "function"
    }
  ],
  "bytecode": "0x60a080604052346100cc57306080527ff0c57e16840df040f15088dc2f81fe391c3923bec73e23a9662efc9c229c6a009081549060ff8260401c166100bd57506001600160401b036002600160401b031982821601610078575b60405161087390816100d1823960805181818161039501526104790152f35b6001600160401b031990911681179091556040519081527fc7f505b2f371ae2175ee4913f4499e1f2633a7b5936321eed1cdaeb6115181d290602090a15f8080610059565b63f92ee8a960e01b8152600490fd5b5f80fdfe608060409080825260049081361015610016575f80fd5b5f3560e01c9081630d8e6e2c1461062d575080634f1ef286146103f957806352d1902d14610381578063715018a61461031a5780638da5cb5b146102e6578063ad3cb1cc146102a6578063c4d66de81461010f5763f2fde38b14610078575f80fd5b3461010b57602036600319011261010b576100916106ab565b9061009a610713565b6001600160a01b039182169283156100f55750505f8051602061081e83398151915280546001600160a01b031981168417909155167f8be0079c531659141344cd1fd0a4f28419497f9722a3daafe3b4186f6b6457e05f80a3005b905f6024925191631e4fbdf760e01b8352820152fd5b5f80fd5b503461010b57602036600319011261010b576101296106ab565b907ff0c57e16840df040f15088dc2f81fe391c3923bec73e23a9662efc9c229c6a0091825460ff81861c16159267ffffffffffffffff82168015908161029e575b6001149081610294575b15908161028b575b5061027d575067ffffffffffffffff19811660011784558261025e575b506101a261074b565b6101aa61074b565b5f8051602061081e83398151915280546001600160a01b031980821673547289319c3e6aedb179c0b8e8af0b5acd062603908117909355926001600160a01b0392909183167f8be0079c531659141344cd1fd0a4f28419497f9722a3daafe3b4186f6b6457e05f80a316905f5416175f5561022157005b805468ff00000000000000001916905551600181527fc7f505b2f371ae2175ee4913f4499e1f2633a7b5936321eed1cdaeb6115181d290602090a1005b68ffffffffffffffffff1916680100000000000000011783555f610199565b855163f92ee8a960e01b8152fd5b9050155f61017c565b303b159150610174565b85915061016a565b823461010b575f36600319011261010b5780516102e2916102c6826106c1565b60058252640352e302e360dc1b60208301525191829182610664565b0390f35b823461010b575f36600319011261010b575f8051602061081e8339815191525490516001600160a01b039091168152602090f35b3461010b575f36600319011261010b57610332610713565b5f8051602061081e83398151915280546001600160a01b031981169091555f906001600160a01b03167f8be0079c531659141344cd1fd0a4f28419497f9722a3daafe3b4186f6b6457e08280a3005b50903461010b575f36600319011261010b577f00000000000000000000000000000000000000000000000000000000000000006001600160a01b031630036103ec57602090517f360894a13ba1a3210667c828492db98dca3e2076cc3735a920a3ca505d382bbc8152f35b5163703e46dd60e11b8152fd5b508160031936011261010b5761040d6106ab565b602492833567ffffffffffffffff9283821161010b573660238301121561010b578185013593841161061b5760209383519261045286601f19601f85011601856106f1565b8184523688838301011161010b57815f928988930183870137840101526001600160a01b037f000000000000000000000000000000000000000000000000000000000000000081163081149081156105ed575b506105dd576104b2610713565b83516352d1902d60e01b81529082169480828881895afa9182915f936105ad575b50506104ed575050505191634c9c8ce360e01b8352820152fd5b85938591887f360894a13ba1a3210667c828492db98dca3e2076cc3735a920a3ca505d382bbc918281036105985750843b15610584575080546001600160a01b0319168317905551907fbc7cd75a20ee27fd9adebab32041f755214dbc6bffa90cc0225b39da2e5c2d3b5f80a282511561056e575061056c925061078c565b005b9150503461057857005b63b398979f60e01b8152fd5b8251634c9c8ce360e01b8152808801859052fd5b8351632a87526960e21b815280890191909152fd5b9080929350813d83116105d6575b6105c581836106f1565b8101031261010b5751905f806104d3565b503d6105bb565b835163703e46dd60e11b81528690fd5b9050817f360894a13ba1a3210667c828492db98dca3e2076cc3735a920a3ca505d382bbc541614155f6104a5565b85604186634e487b7160e01b5f52525ffd5b83903461010b575f36600319011261010b576102e29161064c826106c1565b6005825264302e302e3160d81b602083015251918291825b602080825282518183018190529093925f5b82811061069757505060409293505f838284010152601f8019910116010190565b818101860151848201604001528501610676565b600435906001600160a01b038216820361010b57565b6040810190811067ffffffffffffffff8211176106dd57604052565b634e487b7160e01b5f52604160045260245ffd5b90601f8019910116810190811067ffffffffffffffff8211176106dd57604052565b5f8051602061081e833981519152546001600160a01b0316330361073357565b60405163118cdaa760e01b8152336004820152602490fd5b60ff7ff0c57e16840df040f15088dc2f81fe391c3923bec73e23a9662efc9c229c6a005460401c161561077a57565b604051631afcd79f60e31b8152600490fd5b905f8091602081519101845af4808061080a575b156107c05750506040513d81523d5f602083013e60203d82010160405290565b156107e757604051639996b31560e01b81526001600160a01b039091166004820152602490fd5b3d156107f8576040513d5f823e3d90fd5b60405163d6bda27560e01b8152600490fd5b503d1515806107a05750813b15156107a056fe9016d09d72d40fdae2fd8ceac6b6234c7706214fd39c1cd1e609a0528c199300a264697066735822122031be6b882971a8722873a1dbfed9fa36c8b65a5ac4f53f49673c5f4a7feea3fd64736f6c63430008180033",
  "linkReferences": {},
  "deployedLinkReferences": {}
}