{"abi":[{"type":"constructor","inputs":[],"stateMutability":"nonpayable"},{"type":"function","name":"CREDENTIAL_ISSUER_ROLE","inputs":[],"outputs":[{"name":"","type":"bytes32","internalType":"bytes32"}],"stateMutability":"view"},{"type":"function","name":"DEFAULT_ADMIN_ROLE","inputs":[],"outputs":[{"name":"","type":"bytes32","internalType":"bytes32"}],"stateMutability":"view"},{"type":"function","name":"GOVERNANCE_ROLE","inputs":[],"outputs":[{"name":"","type":"bytes32","internalType":"bytes32"}],"stateMutability":"view"},{"type":"function","name":"THOT_512","inputs":[],"outputs":[{"name":"","type":"uint8","internalType":"uint8"}],"stateMutability":"view"},{"type":"function","name":"THOT_768","inputs":[],"outputs":[{"name":"","type":"uint8","internalType":"uint8"}],"stateMutability":"view"},{"type":"function","name":"THOT_8D","inputs":[],"outputs":[{"name":"","type":"uint8","internalType":"uint8"}],"stateMutability":"view"},{"type":"function","name":"VERIFIER_ROLE","inputs":[],"outputs":[{"name":"","type":"bytes32","internalType":"bytes32"}],"stateMutability":"view"},{"type":"function","name":"approve","inputs":[{"name":"to","type":"address","internalType":"address"},{"name":"tokenId","type":"uint256","internalType":"uint256"}],"outputs":[],"stateMutability":"nonpayable"},{"type":"function","name":"attachModelDataset","inputs":[{"name":"tokenId","type":"uint256","internalType":"uint256"},{"name":"datasetCID","type":"bytes32","internalType":"bytes32"},{"name":"modelArchitecture","type":"string","internalType":"string"}],"outputs":[],"stateMutability":"nonpayable"},{"type":"function","name":"attachTHOT","inputs":[{"name":"tokenId","type":"uint256","internalType":"uint256"},{"name":"thotCID","type":"bytes32","internalType":"bytes32"},{"name":"dimensions","type":"uint8","internalType":"uint8"},{"name":"parallelUnits","type":"uint8","internalType":"uint8"}],"outputs":[{"name":"success","type":"bool","internalType":"bool"}],"stateMutability":"nonpayable"},{"type":"function","name":"balanceOf","inputs":[{"name":"owner","type":"address","internalType":"address"}],"outputs":[{"name":"","type":"uint256","internalType":"uint256"}],"stateMutability":"view"},{"type":"function","name":"enableSoulbound","inputs":[{"name":"tokenId","type":"uint256","internalType":"uint256"}],"outputs":[{"name":"","type":"bool","internalType":"bool"}],"stateMutability":"nonpayable"},{"type":"function","name":"getAgentCredentials","inputs":[{"name":"tokenId","type":"uint256","internalType":"uint256"}],"outputs":[{"name":"credentialIds","type":"bytes32[]","internalType":"bytes32[]"}],"stateMutability":"view"},{"type":"function","name":"getAgentIdentity","inputs":[{"name":"tokenId","type":"uint256","internalType":"uint256"}],"outputs":[{"name":"identity","type":"tuple","internalType":"struct IDNFT.AgentIdentity","components":[{"name":"agentId","type":"bytes32","internalType":"bytes32"},{"name":"primaryWallet","type":"address","internalType":"address"},{"name":"agentType","type":"string","internalType":"string"},{"name":"prompt","type":"string","internalType":"string"},{"name":"persona","type":"string","internalType":"string"},{"name":"creationTime","type":"uint40","internalType":"uint40"},{"name":"lastUpdate","type":"uint40","internalType":"uint40"},{"name":"isActive","type":"bool","internalType":"bool"},{"name":"trustScore","type":"uint16","internalType":"uint16"},{"name":"isSoulbound","type":"bool","internalType":"bool"}]}],"stateMutability":"view"},{"type":"function","name":"getApproved","inputs":[{"name":"tokenId","type":"uint256","internalType":"uint256"}],"outputs":[{"name":"","type":"address","internalType":"address"}],"stateMutability":"view"},{"type":"function","name":"getModelDataset","inputs":[{"name":"tokenId","type":"uint256","internalType":"uint256"}],"outputs":[{"name":"dataset","type":"tuple","internalType":"struct IDNFT.ModelDataset","components":[{"name":"datasetCID","type":"bytes32","internalType":"bytes32"},{"name":"modelArchitecture","type":"string","internalType":"string"},{"name":"uploadedAt","type":"uint40","internalType":"uint40"},{"name":"verified","type":"bool","internalType":"bool"}]}],"stateMutability":"view"},{"type":"function","name":"getRoleAdmin","inputs":[{"name":"role","type":"bytes32","internalType":"bytes32"}],"outputs":[{"name":"","type":"bytes32","internalType":"bytes32"}],"stateMutability":"view"},{"type":"function","name":"getSoulBadgerAddress","inputs":[],"outputs":[{"name":"","type":"address","internalType":"address"}],"stateMutability":"view"},{"type":"function","name":"getTHOTAttachments","inputs":[{"name":"tokenId","type":"uint256","internalType":"uint256"}],"outputs":[{"name":"attachments","type":"tuple[]","internalType":"struct IDNFT.THOTAttachment[]","components":[{"name":"thotCID","type":"bytes32","internalType":"bytes32"},{"name":"dimensions","type":"uint8","internalType":"uint8"},{"name":"parallelUnits","type":"uint8","internalType":"uint8"},{"name":"attachedAt","type":"uint40","internalType":"uint40"},{"name":"verified","type":"bool","internalType":"bool"}]}],"stateMutability":"view"},{"type":"function","name":"getTokenIdByAgentId","inputs":[{"name":"agentId","type":"bytes32","internalType":"bytes32"}],"outputs":[{"name":"tokenId","type":"uint256","internalType":"uint256"}],"stateMutability":"view"},{"type":"function","name":"getTokenIdByWallet","inputs":[{"name":"wallet","type":"address","internalType":"address"}],"outputs":[{"name":"tokenId","type":"uint256","internalType":"uint256"}],"stateMutability":"view"},{"type":"function","name":"grantRole","inputs":[{"name":"role","type":"bytes32","internalType":"bytes32"},{"name":"account","type":"address","internalType":"address"}],"outputs":[],"stateMutability":"nonpayable"},{"type":"function","name":"hasRole","inputs":[{"name":"role","type":"bytes32","internalType":"bytes32"},{"name":"account","type":"address","internalType":"address"}],"outputs":[{"name":"","type":"bool","internalType":"bool"}],"stateMutability":"view"},{"type":"function","name":"isApprovedForAll","inputs":[{"name":"owner","type":"address","internalType":"address"},{"name":"operator","type":"address","internalType":"address"}],"outputs":[{"name":"","type":"bool","internalType":"bool"}],"stateMutability":"view"},{"type":"function","name":"isSoulbound","inputs":[{"name":"tokenId","type":"uint256","internalType":"uint256"}],"outputs":[{"name":"","type":"bool","internalType":"bool"}],"stateMutability":"view"},{"type":"function","name":"issueCredential","inputs":[{"name":"tokenId","type":"uint256","internalType":"uint256"},{"name":"credentialType","type":"string","internalType":"string"},{"name":"validityPeriod","type":"uint40","internalType":"uint40"},{"name":"credentialData","type":"bytes","internalType":"bytes"},{"name":"issuerSignature","type":"bytes","internalType":"bytes"}],"outputs":[],"stateMutability":"nonpayable"},{"type":"function","name":"mintAgentIdentity","inputs":[{"name":"primaryWallet","type":"address","internalType":"address"},{"name":"agentType","type":"string","internalType":"string"},{"name":"prompt","type":"string","internalType":"string"},{"name":"persona","type":"string","internalType":"string"},{"name":"metadataURI","type":"string","internalType":"string"},{"name":"useSoulbound","type":"bool","internalType":"bool"}],"outputs":[{"name":"tokenId","type":"uint256","internalType":"uint256"}],"stateMutability":"nonpayable"},{"type":"function","name":"mintSoulboundIdentity","inputs":[{"name":"primaryWallet","type":"address","internalType":"address"},{"name":"agentType","type":"string","internalType":"string"},{"name":"prompt","type":"string","internalType":"string"},{"name":"persona","type":"string","internalType":"string"},{"name":"metadataURI","type":"string","internalType":"string"}],"outputs":[{"name":"","type":"uint256","internalType":"uint256"}],"stateMutability":"nonpayable"},{"type":"function","name":"name","inputs":[],"outputs":[{"name":"","type":"string","internalType":"string"}],"stateMutability":"view"},{"type":"function","name":"ownerOf","inputs":[{"name":"tokenId","type":"uint256","internalType":"uint256"}],"outputs":[{"name":"","type":"address","internalType":"address"}],"stateMutability":"view"},{"type":"function","name":"renounceRole","inputs":[{"name":"role","type":"bytes32","internalType":"bytes32"},{"name":"callerConfirmation","type":"address","internalType":"address"}],"outputs":[],"stateMutability":"nonpayable"},{"type":"function","name":"revokeCredential","inputs":[{"name":"tokenId","type":"uint256","internalType":"uint256"},{"name":"credentialId","type":"bytes32","internalType":"bytes32"}],"outputs":[],"stateMutability":"nonpayable"},{"type":"function","name":"revokeRole","inputs":[{"name":"role","type":"bytes32","internalType":"bytes32"},{"name":"account","type":"address","internalType":"address"}],"outputs":[],"stateMutability":"nonpayable"},{"type":"function","name":"safeTransferFrom","inputs":[{"name":"from","type":"address","internalType":"address"},{"name":"to","type":"address","internalType":"address"},{"name":"tokenId","type":"uint256","internalType":"uint256"}],"outputs":[],"stateMutability":"nonpayable"},{"type":"function","name":"safeTransferFrom","inputs":[{"name":"from","type":"address","internalType":"address"},{"name":"to","type":"address","internalType":"address"},{"name":"tokenId","type":"uint256","internalType":"uint256"},{"name":"data","type":"bytes","internalType":"bytes"}],"outputs":[],"stateMutability":"nonpayable"},{"type":"function","name":"setApprovalForAll","inputs":[{"name":"operator","type":"address","internalType":"address"},{"name":"approved","type":"bool","internalType":"bool"}],"outputs":[],"stateMutability":"nonpayable"},{"type":"function","name":"setSoulBadger","inputs":[{"name":"_soulBadger","type":"address","internalType":"address"}],"outputs":[],"stateMutability":"nonpayable"},{"type":"function","name":"soulBadger","inputs":[],"outputs":[{"name":"","type":"address","internalType":"contract ISoulBadger"}],"stateMutability":"view"},{"type":"function","name":"supportsInterface","inputs":[{"name":"interfaceId","type":"bytes4","internalType":"bytes4"}],"outputs":[{"name":"","type":"bool","internalType":"bool"}],"stateMutability":"view"},{"type":"function","name":"symbol","inputs":[],"outputs":[{"name":"","type":"string","internalType":"string"}],"stateMutability":"view"},{"type":"function","name":"tokenURI","inputs":[{"name":"tokenId","type":"uint256","internalType":"uint256"}],"outputs":[{"name":"","type":"string","internalType":"string"}],"stateMutability":"view"},{"type":"function","name":"transferFrom","inputs":[{"name":"from","type":"address","internalType":"address"},{"name":"to","type":"address","internalType":"address"},{"name":"tokenId","type":"uint256","internalType":"uint256"}],"outputs":[],"stateMutability":"nonpayable"},{"type":"function","name":"updatePersona","inputs":[{"name":"tokenId","type":"uint256","internalType":"uint256"},{"name":"newPrompt","type":"string","internalType":"string"},{"name":"newPersona","type":"string","internalType":"string"}],"outputs":[],"stateMutability":"nonpayable"},{"type":"function","name":"updateTrustScore","inputs":[{"name":"tokenId","type":"uint256","internalType":"uint256"},{"name":"newScore","type":"uint16","internalType":"uint16"}],"outputs":[],"stateMutability":"nonpayable"},{"type":"function","name":"verifyCredential","inputs":[{"name":"tokenId","type":"uint256","internalType":"uint256"},{"name":"credentialId","type":"bytes32","internalType":"bytes32"}],"outputs":[{"name":"isValid","type":"bool","internalType":"bool"},{"name":"credentialType","type":"string","internalType":"string"}],"stateMutability":"view"},{"type":"event","name":"AgentIdentityCreated","inputs":[{"name":"tokenId","type":"uint256","indexed":true,"internalType":"uint256"},{"name":"agentId","type":"bytes32","indexed":true,"internalType":"bytes32"},{"name":"primaryWallet","type":"address","indexed":true,"internalType":"address"},{"name":"agentType","type":"string","indexed":false,"internalType":"string"}],"anonymous":false},{"type":"event","name":"Approval","inputs":[{"name":"owner","type":"address","indexed":true,"internalType":"address"},{"name":"approved","type":"address","indexed":true,"internalType":"address"},{"name":"tokenId","type":"uint256","indexed":true,"internalType":"uint256"}],"anonymous":false},{"type":"event","name":"ApprovalForAll","inputs":[{"name":"owner","type":"address","indexed":true,"internalType":"address"},{"name":"operator","type":"address","indexed":true,"internalType":"address"},{"name":"approved","type":"bool","indexed":false,"internalType":"bool"}],"anonymous":false},{"type":"event","name":"BatchMetadataUpdate","inputs":[{"name":"_fromTokenId","type":"uint256","indexed":false,"internalType":"uint256"},{"name":"_toTokenId","type":"uint256","indexed":false,"internalType":"uint256"}],"anonymous":false},{"type":"event","name":"CredentialIssued","inputs":[{"name":"tokenId","type":"uint256","indexed":true,"internalType":"uint256"},{"name":"credentialId","type":"bytes32","indexed":true,"internalType":"bytes32"},{"name":"credentialType","type":"string","indexed":false,"internalType":"string"}],"anonymous":false},{"type":"event","name":"CredentialRevoked","inputs":[{"name":"tokenId","type":"uint256","indexed":true,"internalType":"uint256"},{"name":"credentialId","type":"bytes32","indexed":true,"internalType":"bytes32"}],"anonymous":false},{"type":"event","name":"MetadataUpdate","inputs":[{"name":"_tokenId","type":"uint256","indexed":false,"internalType":"uint256"}],"anonymous":false},{"type":"event","name":"ModelDatasetAttached","inputs":[{"name":"tokenId","type":"uint256","indexed":true,"internalType":"uint256"},{"name":"datasetCID","type":"bytes32","indexed":true,"internalType":"bytes32"},{"name":"modelArchitecture","type":"string","indexed":false,"internalType":"string"}],"anonymous":false},{"type":"event","name":"PersonaUpdated","inputs":[{"name":"tokenId","type":"uint256","indexed":true,"internalType":"uint256"},{"name":"newPrompt","type":"string","indexed":false,"internalType":"string"},{"name":"newPersona","type":"string","indexed":false,"internalType":"string"}],"anonymous":false},{"type":"event","name":"RoleAdminChanged","inputs":[{"name":"role","type":"bytes32","indexed":true,"internalType":"bytes32"},{"name":"previousAdminRole","type":"bytes32","indexed":true,"internalType":"bytes32"},{"name":"newAdminRole","type":"bytes32","indexed":true,"internalType":"bytes32"}],"anonymous":false},{"type":"event","name":"RoleGranted","inputs":[{"name":"role","type":"bytes32","indexed":true,"internalType":"bytes32"},{"name":"account","type":"address","indexed":true,"internalType":"address"},{"name":"sender","type":"address","indexed":true,"internalType":"address"}],"anonymous":false},{"type":"event","name":"RoleRevoked","inputs":[{"name":"role","type":"bytes32","indexed":true,"internalType":"bytes32"},{"name":"account","type":"address","indexed":true,"internalType":"address"},{"name":"sender","type":"address","indexed":true,"internalType":"address"}],"anonymous":false},{"type":"event","name":"SoulboundEnabled","inputs":[{"name":"tokenId","type":"uint256","indexed":true,"internalType":"uint256"},{"name":"soulBadgeId","type":"uint256","indexed":false,"internalType":"uint256"}],"anonymous":false},{"type":"event","name":"THOTAttached","inputs":[{"name":"tokenId","type":"uint256","indexed":true,"internalType":"uint256"},{"name":"thotCID","type":"bytes32","indexed":true,"internalType":"bytes32"},{"name":"dimensions","type":"uint8","indexed":false,"internalType":"uint8"},{"name":"parallelUnits","type":"uint8","indexed":false,"internalType":"uint8"}],"anonymous":false},{"type":"event","name":"Transfer","inputs":[{"name":"from","type":"address","indexed":true,"internalType":"address"},{"name":"to","type":"address","indexed":true,"internalType":"address"},{"name":"tokenId","type":"uint256","indexed":true,"internalType":"uint256"}],"anonymous":false},{"type":"event","name":"TrustScoreUpdated","inputs":[{"name":"tokenId","type":"uint256","indexed":true,"internalType":"uint256"},{"name":"oldScore","type":"uint16","indexed":false,"internalType":"uint16"},{"name":"newScore","type":"uint16","indexed":false,"internalType":"uint16"}],"anonymous":false},{"type":"error","name":"AccessControlBadConfirmation","inputs":[]},{"type":"error","name":"AccessControlUnauthorizedAccount","inputs":[{"name":"account","type":"address","internalType":"address"},{"name":"neededRole","type":"bytes32","internalType":"bytes32"}]},{"type":"error","name":"AlreadySoulbound","inputs":[]},{"type":"error","name":"ERC721IncorrectOwner","inputs":[{"name":"sender","type":"address","internalType":"address"},{"name":"tokenId","type":"uint256","internalType":"uint256"},{"name":"owner","type":"address","internalType":"address"}]},{"type":"error","name":"ERC721InsufficientApproval","inputs":[{"name":"operator","type":"address","internalType":"address"},{"name":"tokenId","type":"uint256","internalType":"uint256"}]},{"type":"error","name":"ERC721InvalidApprover","inputs":[{"name":"approver","type":"address","internalType":"address"}]},{"type":"error","name":"ERC721InvalidOperator","inputs":[{"name":"operator","type":"address","internalType":"address"}]},{"type":"error","name":"ERC721InvalidOwner","inputs":[{"name":"owner","type":"address","internalType":"address"}]},{"type":"error","name":"ERC721InvalidReceiver","inputs":[{"name":"receiver","type":"address","internalType":"address"}]},{"type":"error","name":"ERC721InvalidSender","inputs":[{"name":"sender","type":"address","internalType":"address"}]},{"type":"error","name":"ERC721NonexistentToken","inputs":[{"name":"tokenId","type":"uint256","internalType":"uint256"}]},{"type":"error","name":"IdentityNotActive","inputs":[]},{"type":"error","name":"InvalidTHOTDimensions","inputs":[]},{"type":"error","name":"InvalidWallet","inputs":[]},{"type":"error","name":"NonceAlreadyUsed","inputs":[]},{"type":"error","name":"ReentrancyGuardReentrantCall","inputs":[]},{"type":"error","name":"SoulBadgerNotConfigured","inputs":[]},{"type":"error","name":"WalletAlreadyRegistered","inputs":[]}],"bytecode":{"object":"0x608060405234801562000010575f80fd5b50604051806040016040528060128152602001711059d95b9d081259195b9d1a5d1e4813919560721b81525060405180604001604052806005815260200164125113919560da1b815250815f90816200006a9190620002a2565b506001620000798282620002a2565b505050600162000095620000926200013060201b60201c565b90565b55620000a25f3362000154565b50620000cf7f7a5ae009d6a61115ac0993f8e8e8d8ba374961395165c1b6f1f9cefa70d851593362000154565b50620000fc7f0ce23c3e399818cfee81a7ab0880f714e53d7672b08df0fa62f2843416e1ea093362000154565b50620001297f71840dc4906352362b0cdaf79870196c8e42acafade72d5d5a6d59291253ceb13362000154565b506200036e565b7f9b779b17422d0df92223018b32b4d1fa46e071723d6817e2486d003becc55f0090565b5f8281526007602090815260408083206001600160a01b038516845290915281205460ff16620001fb575f8381526007602090815260408083206001600160a01b03861684529091529020805460ff19166001179055620001b23390565b6001600160a01b0316826001600160a01b0316847f2f8788117e7eff1d82e926ec794901d17c78024a50270940304540a733656f0d60405160405180910390a4506001620001fe565b505f5b92915050565b634e487b7160e01b5f52604160045260245ffd5b600181811c908216806200022d57607f821691505b6020821081036200024c57634e487b7160e01b5f52602260045260245ffd5b50919050565b601f8211156200029d57805f5260205f20601f840160051c81016020851015620002795750805b601f840160051c820191505b818110156200029a575f815560010162000285565b50505b505050565b81516001600160401b03811115620002be57620002be62000204565b620002d681620002cf845462000218565b8462000252565b602080601f8311600181146200030c575f8415620002f45750858301515b5f19600386901b1c1916600185901b17855562000366565b5f85815260208120601f198616915b828110156200033c578886015182559484019460019091019084016200031b565b50858210156200035a57878501515f19600388901b60f8161c191681555b505060018460011b0185555b505050505050565b6137a4806200037c5f395ff3fe608060405234801561000f575f80fd5b5060043610610276575f3560e01c80635128d92811610156578063a217fddf116100ca578063c87b56dd11610084578063c87b56dd14610615578063d547741f14610628578063e7705db61461063b578063e985e9c514610662578063f20a226314610675578063f36c8f5c14610688575f80fd5b8063a217fddf146105af578063a22cb465146105b6578063a2df6cb8146105c9578063b7a6037a146105dc578063b88d4fde146105ef578063c4a3b2ae14610602575f80fd5b80638691348c1161011b5780638691348c146105225780638b11836814610542578063911ec4701461055557806391d148541461058157806395d89b4114610594578063992a42d71461059c575f80fd5b80635128d928146104ce5780636352211e146104e157806370a08231146104f457806375b0d1b914610507578063802dd17c1461051a575f80fd5b80632f2ff15d116101ed57806336d001a4116101b257806336d001a4146104475780633be044fc1461045a5780633eadd11d1461048157806342842e0e1461049457806342dc2c7e146104a75780634fc35c12146104c6575f80fd5b80632f2ff15d146103d05780632f43202e146103e357806333b05247146103f4578063364c7e611461041457806336568abe14610434575f80fd5b80631b9519a81161023e5780631b9519a8146103175780631d2cbedc1461033857806321a92a1f1461036e57806323b872dd14610388578063248a9ca31461039b5780632e91fb2e146103bd575f80fd5b806301ffc9a71461027a57806306fdde03146102a2578063081812fc146102b7578063095ea7b3146102e257806312f3a11d146102f7575b5f80fd5b61028d610288366004612bb8565b61069c565b60405190151581526020015b60405180910390f35b6102aa6106ac565b6040516102999190612c20565b6102ca6102c5366004612c32565b61073b565b6040516001600160a01b039091168152602001610299565b6102f56102f0366004612c64565b610762565b005b61030a610305366004612c32565b610771565b6040516102999190612c8c565b61032a610325366004612d78565b6109fe565b604051610299929190612d98565b610360610346366004612db2565b6001600160a01b03165f908152600f602052604090205490565b604051908152602001610299565b610376608081565b60405160ff9091168152602001610299565b6102f5610396366004612dcb565b610bd8565b6103606103a9366004612c32565b5f9081526007602052604090206001015490565b6103606103cb366004612eb0565b610c66565b6102f56103de366004612f75565b611043565b6009546001600160a01b03166102ca565b610407610402366004612c32565b611067565b6040516102999190612f9f565b610427610422366004612c32565b61116b565b6040516102999190612fed565b6102f5610442366004612f75565b6111ca565b6102f5610455366004613030565b611202565b6103607f7a5ae009d6a61115ac0993f8e8e8d8ba374961395165c1b6f1f9cefa70d8515981565b61036061048f366004613064565b61134f565b6102f56104a2366004612dcb565b6113e0565b6103606104b5366004612c32565b5f9081526010602052604090205490565b610376600881565b6102f56104dc366004612d78565b6113fa565b6102ca6104ef366004612c32565b61153d565b610360610502366004612db2565b611547565b6009546102ca906001600160a01b031681565b610376604081565b610535610530366004612c32565b61158c565b604051610299919061311a565b61028d6105503660046131a6565b611641565b61028d610563366004612c32565b5f908152600a6020526040902060050154600160681b900460ff1690565b61028d61058f366004612f75565b611868565b6102aa611892565b6102f56105aa366004612db2565b6118a1565b6103605f81565b6102f56105c43660046131e9565b6118ce565b61028d6105d7366004612c32565b6118d9565b6102f56105ea366004613211565b611ae9565b6102f56105fd36600461327f565b611d1b565b6102f56106103660046132e3565b611d33565b6102aa610623366004612c32565b611e69565b6102f5610636366004612f75565b611e74565b6103607f0ce23c3e399818cfee81a7ab0880f714e53d7672b08df0fa62f2843416e1ea0981565b61028d61067036600461334b565b611e98565b6102f5610683366004613373565b611ec5565b6103605f8051602061374f83398151915281565b5f6106a682612008565b92915050565b60605f80546106ba906133b5565b80601f01602080910402602001604051908101604052809291908181526020018280546106e6906133b5565b80156107315780601f1061070857610100808354040283529160200191610731565b820191905f5260205f20905b81548152906001019060200180831161071457829003601f168201915b5050505050905090565b5f6107458261202c565b505f828152600460205260409020546001600160a01b03166106a6565b61076d828233612064565b5050565b6040805161014080820183525f80835260208084018290526060848601819052808501819052608085015260a0840182905260c0840182905260e0840182905261010084018290526101208401829052858252600a815290849020845192830185528054835260018101546001600160a01b031691830191909152600281018054939492939192840191610804906133b5565b80601f0160208091040260200160405190810160405280929190818152602001828054610830906133b5565b801561087b5780601f106108525761010080835404028352916020019161087b565b820191905f5260205f20905b81548152906001019060200180831161085e57829003601f168201915b50505050508152602001600382018054610894906133b5565b80601f01602080910402602001604051908101604052809291908181526020018280546108c0906133b5565b801561090b5780601f106108e25761010080835404028352916020019161090b565b820191905f5260205f20905b8154815290600101906020018083116108ee57829003601f168201915b50505050508152602001600482018054610924906133b5565b80601f0160208091040260200160405190810160405280929190818152602001828054610950906133b5565b801561099b5780601f106109725761010080835404028352916020019161099b565b820191905f5260205f20905b81548152906001019060200180831161097e57829003601f168201915b50505091835250506005919091015464ffffffffff8082166020840152600160281b820416604083015260ff600160501b820481161515606084015261ffff600160581b8304166080840152600160681b90910416151560a09091015292915050565b5f828152600d602090815260408083208484528252808320815160e08101909252805482526001810180546060948694939290840191610a3d906133b5565b80601f0160208091040260200160405190810160405280929190818152602001828054610a69906133b5565b8015610ab45780601f10610a8b57610100808354040283529160200191610ab4565b820191905f5260205f20905b815481529060010190602001808311610a9757829003601f168201915b505050918352505060028201546020820152600382015464ffffffffff8082166040840152600160281b909104166060820152600482018054608090920191610afc906133b5565b80601f0160208091040260200160405190810160405280929190818152602001828054610b28906133b5565b8015610b735780601f10610b4a57610100808354040283529160200191610b73565b820191905f5260205f20905b815481529060010190602001808311610b5657829003601f168201915b50505091835250506005919091015460ff16151560209091015260c08101519091505f90158015610bae575042826080015164ffffffffff16115b8015610bc457505f826060015164ffffffffff16115b602090920151919350909150509250929050565b6001600160a01b038216610c0657604051633250574960e11b81525f60048201526024015b60405180910390fd5b5f610c12838333612071565b9050836001600160a01b0316816001600160a01b031614610c60576040516364283d7b60e01b81526001600160a01b0380861660048301526024820184905282166044820152606401610bfd565b50505050565b5f5f8051602061374f833981519152610c7e81612138565b610c86612145565b6001600160a01b038816610cad576040516323455ba160e01b815260040160405180910390fd5b6001600160a01b0388165f908152600f602052604090205415610ce35760405163792279f360e01b815260040160405180910390fd5b60088054905f610cf283613401565b919050555060085491505f88884243604051602001610d149493929190613419565b60408051808303601f190181528282528051602091820120610140840183528084526001600160a01b038d81168386019081528585018e8152606087018e9052608087018d90524264ffffffffff1660a0880181905260c0880152600160e088018190526113886101008901528b15156101208901525f8b8152600a9096529590942086518155905194810180546001600160a01b0319169590921694909417905590519093506002820190610dca90826134a0565b5060608201516003820190610ddf90826134a0565b5060808201516004820190610df490826134a0565b5060a08201516005909101805460c084015160e0850151610100860151610120909601511515600160681b0260ff60681b1961ffff909716600160581b0261ffff60581b19921515600160501b029290921662ffffff60501b1964ffffffffff948516600160281b0269ffffffffffffffffffff19909616949097169390931793909317949094161792909217929092161790556001600160a01b0389165f908152600f6020908152604080832086905583835260109091529020839055610ebc8984612173565b610ec6838661218c565b886001600160a01b031681847f02cff0a4f5080798004e114c1b5417c22b0e30797f143da89907b280ee63aa6a8b604051610f019190612c20565b60405180910390a4838015610f2057506009546001600160a01b031615155b1561100e57600954604080516d4147454e545f4944454e5449545960901b6020808301919091528251600e818403018152602e830193849052805191012063408d377560e11b9092525f926001600160a01b03169163811a6eea91610f90918e9186906003908d9060320161355c565b6020604051808303815f875af1158015610fac573d5f803e3d5ffd5b505050506040513d601f19601f82011682018060405250810190610fd09190613598565b9050837f3ee8e02eb667416adf587937e5742d2fbec51bcd87a7975e8d431b6235b2d7088260405161100491815260200190565b60405180910390a2505b5061103860017f9b779b17422d0df92223018b32b4d1fa46e071723d6817e2486d003becc55f0055565b509695505050505050565b5f8281526007602052604090206001015461105d81612138565b610c6083836121db565b604080516080810182525f80825260606020830181905292820181905291810191909152600c5f8381526020019081526020015f206040518060800160405290815f82015481526020016001820180546110c0906133b5565b80601f01602080910402602001604051908101604052809291908181526020018280546110ec906133b5565b80156111375780601f1061110e57610100808354040283529160200191611137565b820191905f5260205f20905b81548152906001019060200180831161111a57829003601f168201915b50505091835250506002919091015464ffffffffff81166020830152600160281b900460ff16151560409091015292915050565b5f818152600e60209081526040918290208054835181840281018401909452808452606093928301828280156111be57602002820191905f5260205f20905b8154815260200190600101908083116111aa575b50505050509050919050565b6001600160a01b03811633146111f35760405163334bd91960e11b815260040160405180910390fd5b6111fd828261226c565b505050565b7f0ce23c3e399818cfee81a7ab0880f714e53d7672b08df0fa62f2843416e1ea0961122c81612138565b5f838152600a6020526040902060050154600160501b900460ff166112635760405162461bcd60e51b8152600401610bfd906135af565b6127108261ffff1611156112af5760405162461bcd60e51b8152602060048201526013602482015272496e76616c69642073636f72652072616e676560681b6044820152606401610bfd565b5f838152600a60209081526040918290206005810180546cffff00ffffffffff0000000000198116600160581b61ffff89811682810269ffffffffff0000000000191693909317600160281b4264ffffffffff1602179094558651920490921680825293810191909152909286917ff437d9ebff07ef87e1cfc9f634b375bce67de53710740ed58d1917cb68656473910160405180910390a25050505050565b5f5f8051602061374f83398151915261136781612138565b604051631748fd9760e11b81523090632e91fb2e90611395908a908a908a908a908a906001906004016135dc565b6020604051808303815f875af11580156113b1573d5f803e3d5ffd5b505050506040513d601f19601f820116820180604052508101906113d59190613598565b979650505050505050565b6111fd83838360405180602001604052805f815250611d1b565b7f7a5ae009d6a61115ac0993f8e8e8d8ba374961395165c1b6f1f9cefa70d8515961142481612138565b5f838152600d6020908152604080832085845290915290206003015464ffffffffff1661148a5760405162461bcd60e51b815260206004820152601460248201527310dc9959195b9d1a585b081b9bdd08199bdd5b9960621b6044820152606401610bfd565b5f838152600d6020908152604080832085845290915290206005015460ff16156114e85760405162461bcd60e51b815260206004820152600f60248201526e105b1c9958591e481c995d9bdad959608a1b6044820152606401610bfd565b5f838152600d60209081526040808320858452909152808220600501805460ff1916600117905551839185917fce470ad6830ac5e37bcdda3bf56ed8ea64e47faf85ea7ae96c3ee8cf51f5fbbf9190a3505050565b5f6106a68261202c565b5f6001600160a01b038216611571576040516322718ad960e21b81525f6004820152602401610bfd565b506001600160a01b03165f9081526003602052604090205490565b6060600b5f8381526020019081526020015f20805480602002602001604051908101604052809291908181526020015f905b82821015611636575f8481526020908190206040805160a081018252600286029092018054835260019081015460ff80821685870152610100820481169385019390935264ffffffffff62010000820416606085015267010000000000000090049091161515608083015290835290920191016115be565b505050509050919050565b5f5f8051602061374f83398151915261165981612138565b5f868152600a6020526040902060050154600160501b900460ff166116905760405162461bcd60e51b8152600401610bfd906135af565b60ff84166008148015906116a8575060ff8416604014155b80156116b8575060ff8416608014155b156116d6576040516353408a4760e11b815260040160405180910390fd5b5f6040518060a001604052808781526020018660ff1681526020018560ff1681526020014264ffffffffff168152602001600115158152509050600b5f8881526020019081526020015f2081908060018154018082558091505060019003905f5260205f2090600202015f909190919091505f820151815f01556020820151816001015f6101000a81548160ff021916908360ff16021790555060408201518160010160016101000a81548160ff021916908360ff16021790555060608201518160010160026101000a81548164ffffffffff021916908364ffffffffff16021790555060808201518160010160076101000a81548160ff021916908315150217905550505042600a5f8981526020019081526020015f2060050160056101000a81548164ffffffffff021916908364ffffffffff16021790555085877f4026fe1b66816db7cc80f1f6f1aeeeb7331966591d20b48748fd587a3cc6a359878760405161185392919060ff92831681529116602082015260400190565b60405180910390a35060019695505050505050565b5f9182526007602090815260408084206001600160a01b0393909316845291905290205460ff1690565b6060600180546106ba906133b5565b5f6118ab81612138565b50600980546001600160a01b0319166001600160a01b0392909216919091179055565b61076d3383836122d7565b5f336118e48361153d565b6001600160a01b0316146119265760405162461bcd60e51b81526020600482015260096024820152682737ba1037bbb732b960b91b6044820152606401610bfd565b5f828152600a6020526040902060050154600160681b900460ff16156119825760405162461bcd60e51b8152602060048201526011602482015270105b1c9958591e481cdbdd5b189bdd5b99607a1b6044820152606401610bfd565b6009546001600160a01b03166119ab57604051630d839ecd60e41b815260040160405180910390fd5b5f828152600a60209081526040808320600501805464ffffffffff4216600160281b026dff000000ffffffffff00000000001990911617600160681b17905560095490516001600160a01b039091169163811a6eea913391611a2291016d4147454e545f4944454e5449545960901b8152600e0190565b604051602081830303815290604052805190602001205f6003611a4489611e69565b6040518663ffffffff1660e01b8152600401611a6495949392919061355c565b6020604051808303815f875af1158015611a80573d5f803e3d5ffd5b505050506040513d601f19601f82011682018060405250810190611aa49190613598565b9050827f3ee8e02eb667416adf587937e5742d2fbec51bcd87a7975e8d431b6235b2d70882604051611ad891815260200190565b60405180910390a250600192915050565b7f7a5ae009d6a61115ac0993f8e8e8d8ba374961395165c1b6f1f9cefa70d85159611b1381612138565b5f868152600a6020526040902060050154600160501b900460ff16611b4a5760405162461bcd60e51b8152600401610bfd906135af565b5f86864286604051602001611b62949392919061364f565b6040516020818303038152906040528051906020012090505f6040518060e0016040528083815260200188815260200133604051602001611bbb919060609190911b6bffffffffffffffffffffffff1916815260140190565b6040516020818303038152906040528051906020012081526020014264ffffffffff1681526020018764ffffffffff1642611bf69190613692565b64ffffffffff16815260208082018790525f60409283018190528b8152600d8252828120868252825291909120825181559082015191925082916001820190611c3f90826134a0565b50604082015160028201556060820151600382018054608085015164ffffffffff908116600160281b0269ffffffffffffffffffff1990921693169290921791909117905560a08201516004820190611c9890826134a0565b5060c091909101516005909101805460ff19169115159190911790555f888152600e602090815260408083208054600181018255908452919092200183905551829089907f405a6057ac65f6bd7396b32656f76a2878bd77c1125e24284bf919563a106b0e90611d09908b90612c20565b60405180910390a35050505050505050565b611d26848484610bd8565b610c603385858585612375565b33611d3d8461153d565b6001600160a01b03161480611d645750611d645f8051602061374f83398151915233611868565b611da15760405162461bcd60e51b815260206004820152600e60248201526d139bdd08185d5d1a1bdc9a5e995960921b6044820152606401610bfd565b5f838152600a6020526040902060050154600160501b900460ff16611dd85760405162461bcd60e51b8152600401610bfd906135af565b5f838152600a6020526040902060038101611df384826134a0565b5060048101611e0283826134a0565b5060058101805469ffffffffff00000000001916600160281b4264ffffffffff160217905560405184907f4e681ab559b289e3d892ae4ec22bd5757f6a9753a5d7bf25c392253ab30266f290611e5b90869086906136a5565b60405180910390a250505050565b60606106a68261249d565b5f82815260076020526040902060010154611e8e81612138565b610c60838361226c565b6001600160a01b039182165f90815260056020908152604080832093909416825291909152205460ff1690565b5f8051602061374f833981519152611edc81612138565b5f848152600a6020526040902060050154600160501b900460ff16611f135760405162461bcd60e51b8152600401610bfd906135af565b60408051608081018252848152602080820185815264ffffffffff4216838501526001606084018190525f898152600c909352939091208251815590519192909190820190611f6290826134a0565b50604082810151600292909201805460609094015164ffffffffff93841665ffffffffffff1990951694909417600160281b94151585021790555f878152600a602052819020600501805469ffffffffff00000000001916429093169093029190911790915551839085907fa2204f89ffa896c6242473cceb36f90b8516366f2a14be16fcb8eb4826c95bbf90611ffa908690612c20565b60405180910390a350505050565b5f6001600160e01b03198216637965db0b60e01b14806106a657506106a6826125a8565b5f818152600260205260408120546001600160a01b0316806106a657604051637e27328960e01b815260048101849052602401610bfd565b6111fd83838360016125cc565b5f82815260026020908152604080832054600a9092528220600501546001600160a01b0390911690600160681b900460ff1680156120b757506001600160a01b03811615155b80156120cb57506001600160a01b03851615155b156121245760405162461bcd60e51b8152602060048201526024808201527f5472616e7366657220626c6f636b65643a20736f756c626f756e64206964656e6044820152637469747960e01b6064820152608401610bfd565b61212f8585856126d0565b95945050505050565b61214281336127c2565b50565b61214d6127fb565b60027f9b779b17422d0df92223018b32b4d1fa46e071723d6817e2486d003becc55f0055565b61076d828260405180602001604052805f81525061283f565b5f8281526006602052604090206121a382826134a0565b506040518281527ff8e1a15aba9398e019f0b49df1a4fde98ee17ae345cb5f6b5e2c27f5033e8ce79060200160405180910390a15050565b5f6121e68383611868565b612265575f8381526007602090815260408083206001600160a01b03861684529091529020805460ff1916600117905561221d3390565b6001600160a01b0316826001600160a01b0316847f2f8788117e7eff1d82e926ec794901d17c78024a50270940304540a733656f0d60405160405180910390a45060016106a6565b505f6106a6565b5f6122778383611868565b15612265575f8381526007602090815260408083206001600160a01b0386168085529252808320805460ff1916905551339286917ff6391f5c32d9c69d2a47ea670b442974b53935d1edc7fd64eb21e047a839171b9190a45060016106a6565b6001600160a01b03821661230957604051630b61174360e31b81526001600160a01b0383166004820152602401610bfd565b6001600160a01b038381165f81815260056020908152604080832094871680845294825291829020805460ff191686151590811790915591519182527f17307eab39ab6107e8899845ad3d59bd9653f200f220920489ca2b5937696c31910160405180910390a3505050565b6001600160a01b0383163b1561249657604051630a85bd0160e11b81526001600160a01b0384169063150b7a02906123b79088908890879087906004016136c9565b6020604051808303815f875af19250505080156123f1575060408051601f3d908101601f191682019092526123ee91810190613705565b60015b612458573d80801561241e576040519150601f19603f3d011682016040523d82523d5f602084013e612423565b606091505b5080515f0361245057604051633250574960e11b81526001600160a01b0385166004820152602401610bfd565b805160208201fd5b6001600160e01b03198116630a85bd0160e11b1461249457604051633250574960e11b81526001600160a01b0385166004820152602401610bfd565b505b5050505050565b60606124a88261202c565b505f82815260066020526040812080546124c1906133b5565b80601f01602080910402602001604051908101604052809291908181526020018280546124ed906133b5565b80156125385780601f1061250f57610100808354040283529160200191612538565b820191905f5260205f20905b81548152906001019060200180831161251b57829003601f168201915b505050505090505f61255460408051602081019091525f815290565b905080515f03612565575092915050565b81511561259757808260405160200161257f929190613720565b60405160208183030381529060405292505050919050565b6125a084612856565b949350505050565b5f6001600160e01b03198216632483248360e11b14806106a657506106a6826128c7565b80806125e057506001600160a01b03821615155b156126a1575f6125ef8461202c565b90506001600160a01b0383161580159061261b5750826001600160a01b0316816001600160a01b031614155b801561262e575061262c8184611e98565b155b156126575760405163a9fbf51f60e01b81526001600160a01b0384166004820152602401610bfd565b811561269f5783856001600160a01b0316826001600160a01b03167f8c5be1e5ebec7d5bd14f71427d1e84f3dd0314c0f7b2291e5b200ac8c7c3b92560405160405180910390a45b505b50505f90815260046020526040902080546001600160a01b0319166001600160a01b0392909216919091179055565b5f828152600260205260408120546001600160a01b03908116908316156126fc576126fc818486612916565b6001600160a01b03811615612736576127175f855f806125cc565b6001600160a01b0381165f90815260036020526040902080545f190190555b6001600160a01b03851615612764576001600160a01b0385165f908152600360205260409020805460010190555b5f8481526002602052604080822080546001600160a01b0319166001600160a01b0389811691821790925591518793918516917fddf252ad1be2c89b69c2b068fc378daa952ba7f163c4a11628f55a4df523b3ef91a4949350505050565b6127cc8282611868565b61076d5760405163e2517d3f60e01b81526001600160a01b038216600482015260248101839052604401610bfd565b7f9b779b17422d0df92223018b32b4d1fa46e071723d6817e2486d003becc55f005460020361283d57604051633ee5aeb560e01b815260040160405180910390fd5b565b612849838361297a565b6111fd335f858585612375565b60606128618261202c565b505f61287760408051602081019091525f815290565b90505f8151116128955760405180602001604052805f8152506128c0565b8061289f846129db565b6040516020016128b0929190613720565b6040516020818303038152906040525b9392505050565b5f6001600160e01b031982166380ac58cd60e01b14806128f757506001600160e01b03198216635b5e139f60e01b145b806106a657506301ffc9a760e01b6001600160e01b03198316146106a6565b612921838383612a6b565b6111fd576001600160a01b03831661294f57604051637e27328960e01b815260048101829052602401610bfd565b60405163177e802f60e01b81526001600160a01b038316600482015260248101829052604401610bfd565b6001600160a01b0382166129a357604051633250574960e11b81525f6004820152602401610bfd565b5f6129af83835f612071565b90506001600160a01b038116156111fd576040516339e3563760e11b81525f6004820152602401610bfd565b60605f6129e783612acc565b60010190505f8167ffffffffffffffff811115612a0657612a06612e04565b6040519080825280601f01601f191660200182016040528015612a30576020820181803683370190505b5090508181016020015b5f19016f181899199a1a9b1b9c1cb0b131b232b360811b600a86061a8153600a8504945084612a3a57509392505050565b5f6001600160a01b038316158015906125a05750826001600160a01b0316846001600160a01b03161480612aa45750612aa48484611e98565b806125a05750505f908152600460205260409020546001600160a01b03908116911614919050565b5f8072184f03e93ff9f4daa797ed6e38ed64bf6a1f0160401b8310612b0a5772184f03e93ff9f4daa797ed6e38ed64bf6a1f0160401b830492506040015b6d04ee2d6d415b85acef81000000008310612b36576d04ee2d6d415b85acef8100000000830492506020015b662386f26fc100008310612b5457662386f26fc10000830492506010015b6305f5e1008310612b6c576305f5e100830492506008015b6127108310612b8057612710830492506004015b60648310612b92576064830492506002015b600a83106106a65760010192915050565b6001600160e01b031981168114612142575f80fd5b5f60208284031215612bc8575f80fd5b81356128c081612ba3565b5f5b83811015612bed578181015183820152602001612bd5565b50505f910152565b5f8151808452612c0c816020860160208601612bd3565b601f01601f19169290920160200192915050565b602081525f6128c06020830184612bf5565b5f60208284031215612c42575f80fd5b5035919050565b80356001600160a01b0381168114612c5f575f80fd5b919050565b5f8060408385031215612c75575f80fd5b612c7e83612c49565b946020939093013593505050565b60208152815160208201525f6020830151612cb260408401826001600160a01b03169052565b506040830151610140806060850152612ccf610160850183612bf5565b91506060850151601f1980868503016080870152612ced8483612bf5565b935060808701519150808685030160a087015250612d0b8382612bf5565b92505060a0850151612d2660c086018264ffffffffff169052565b5060c085015164ffffffffff811660e08601525060e0850151610100612d4f8187018315159052565b8601519050610120612d668682018361ffff169052565b90950151151593019290925250919050565b5f8060408385031215612d89575f80fd5b50508035926020909101359150565b8215158152604060208201525f6125a06040830184612bf5565b5f60208284031215612dc2575f80fd5b6128c082612c49565b5f805f60608486031215612ddd575f80fd5b612de684612c49565b9250612df460208501612c49565b9150604084013590509250925092565b634e487b7160e01b5f52604160045260245ffd5b5f82601f830112612e27575f80fd5b813567ffffffffffffffff80821115612e4257612e42612e04565b604051601f8301601f19908116603f01168101908282118183101715612e6a57612e6a612e04565b81604052838152866020858801011115612e82575f80fd5b836020870160208301375f602085830101528094505050505092915050565b80358015158114612c5f575f80fd5b5f805f805f8060c08789031215612ec5575f80fd5b612ece87612c49565b9550602087013567ffffffffffffffff80821115612eea575f80fd5b612ef68a838b01612e18565b96506040890135915080821115612f0b575f80fd5b612f178a838b01612e18565b95506060890135915080821115612f2c575f80fd5b612f388a838b01612e18565b94506080890135915080821115612f4d575f80fd5b50612f5a89828a01612e18565b925050612f6960a08801612ea1565b90509295509295509295565b5f8060408385031215612f86575f80fd5b82359150612f9660208401612c49565b90509250929050565b60208152815160208201525f602083015160806040840152612fc460a0840182612bf5565b905064ffffffffff60408501511660608401526060840151151560808401528091505092915050565b602080825282518282018190525f9190848201906040850190845b8181101561302457835183529284019291840191600101613008565b50909695505050505050565b5f8060408385031215613041575f80fd5b82359150602083013561ffff81168114613059575f80fd5b809150509250929050565b5f805f805f60a08688031215613078575f80fd5b61308186612c49565b9450602086013567ffffffffffffffff8082111561309d575f80fd5b6130a989838a01612e18565b955060408801359150808211156130be575f80fd5b6130ca89838a01612e18565b945060608801359150808211156130df575f80fd5b6130eb89838a01612e18565b93506080880135915080821115613100575f80fd5b5061310d88828901612e18565b9150509295509295909350565b602080825282518282018190525f919060409081850190868401855b82811015613189578151805185528681015160ff9081168887015286820151168686015260608082015164ffffffffff169086015260809081015115159085015260a09093019290850190600101613136565b5091979650505050505050565b803560ff81168114612c5f575f80fd5b5f805f80608085870312156131b9575f80fd5b84359350602085013592506131d060408601613196565b91506131de60608601613196565b905092959194509250565b5f80604083850312156131fa575f80fd5b61320383612c49565b9150612f9660208401612ea1565b5f805f805f60a08688031215613225575f80fd5b85359450602086013567ffffffffffffffff80821115613243575f80fd5b61324f89838a01612e18565b95506040880135915064ffffffffff8216821461326a575f80fd5b909350606087013590808211156130df575f80fd5b5f805f8060808587031215613292575f80fd5b61329b85612c49565b93506132a960208601612c49565b925060408501359150606085013567ffffffffffffffff8111156132cb575f80fd5b6132d787828801612e18565b91505092959194509250565b5f805f606084860312156132f5575f80fd5b83359250602084013567ffffffffffffffff80821115613313575f80fd5b61331f87838801612e18565b93506040860135915080821115613334575f80fd5b5061334186828701612e18565b9150509250925092565b5f806040838503121561335c575f80fd5b61336583612c49565b9150612f9660208401612c49565b5f805f60608486031215613385575f80fd5b8335925060208401359150604084013567ffffffffffffffff8111156133a9575f80fd5b61334186828701612e18565b600181811c908216806133c957607f821691505b6020821081036133e757634e487b7160e01b5f52602260045260245ffd5b50919050565b634e487b7160e01b5f52601160045260245ffd5b5f60018201613412576134126133ed565b5060010190565b6bffffffffffffffffffffffff198560601b1681525f8451613442816014850160208901612bd3565b909101601481019390935250603482015260540192915050565b601f8211156111fd57805f5260205f20601f840160051c810160208510156134815750805b601f840160051c820191505b81811015612496575f815560010161348d565b815167ffffffffffffffff8111156134ba576134ba612e04565b6134ce816134c884546133b5565b8461345c565b602080601f831160018114613501575f84156134ea5750858301515b5f19600386901b1c1916600185901b178555612494565b5f85815260208120601f198616915b8281101561352f57888601518255948401946001909101908401613510565b508582101561354c57878501515f19600388901b60f8161c191681555b5050505050600190811b01905550565b60018060a01b038616815284602082015264ffffffffff8416604082015260ff8316606082015260a060808201525f6113d560a0830184612bf5565b5f602082840312156135a8575f80fd5b5051919050565b6020808252601390820152724964656e74697479206e6f742061637469766560681b604082015260600190565b6001600160a01b038716815260c0602082018190525f906135ff90830188612bf5565b82810360408401526136118188612bf5565b905082810360608401526136258187612bf5565b905082810360808401526136398186612bf5565b91505082151560a0830152979650505050505050565b8481525f8451613666816020850160208901612bd3565b80830190508460208201528351613684816040840160208801612bd3565b016040019695505050505050565b808201808211156106a6576106a66133ed565b604081525f6136b76040830185612bf5565b828103602084015261212f8185612bf5565b6001600160a01b03858116825284166020820152604081018390526080606082018190525f906136fb90830184612bf5565b9695505050505050565b5f60208284031215613715575f80fd5b81516128c081612ba3565b5f8351613731818460208801612bd3565b835190830190613745818360208801612bd3565b0194935050505056fe71840dc4906352362b0cdaf79870196c8e42acafade72d5d5a6d59291253ceb1a26469706673582212202e241a550bbca815b9395735398dc04c68ab3158f8a6ead9e6e495b9f374f63064736f6c63430008180033","linkReferences":{}},"methodIdentifiers":{"CREDENTIAL_ISSUER_ROLE()":"3be044fc","DEFAULT_ADMIN_ROLE()":"a217fddf","GOVERNANCE_ROLE()":"f36c8f5c","THOT_512()":"802dd17c","THOT_768()":"21a92a1f","THOT_8D()":"4fc35c12","VERIFIER_ROLE()":"e7705db6","approve(address,uint256)":"095ea7b3","attachModelDataset(uint256,bytes32,string)":"f20a2263","attachTHOT(uint256,bytes32,uint8,uint8)":"8b118368","balanceOf(address)":"70a08231","enableSoulbound(uint256)":"a2df6cb8","getAgentCredentials(uint256)":"364c7e61","getAgentIdentity(uint256)":"12f3a11d","getApproved(uint256)":"081812fc","getModelDataset(uint256)":"33b05247","getRoleAdmin(bytes32)":"248a9ca3","getSoulBadgerAddress()":"2f43202e","getTHOTAttachments(uint256)":"8691348c","getTokenIdByAgentId(bytes32)":"42dc2c7e","getTokenIdByWallet(address)":"1d2cbedc","grantRole(bytes32,address)":"2f2ff15d","hasRole(bytes32,address)":"91d14854","isApprovedForAll(address,address)":"e985e9c5","isSoulbound(uint256)":"911ec470","issueCredential(uint256,string,uint40,bytes,bytes)":"b7a6037a","mintAgentIdentity(address,string,string,string,string,bool)":"2e91fb2e","mintSoulboundIdentity(address,string,string,string,string)":"3eadd11d","name()":"06fdde03","ownerOf(uint256)":"6352211e","renounceRole(bytes32,address)":"36568abe","revokeCredential(uint256,bytes32)":"5128d928","revokeRole(bytes32,address)":"d547741f","safeTransferFrom(address,address,uint256)":"42842e0e","safeTransferFrom(address,address,uint256,bytes)":"b88d4fde","setApprovalForAll(address,bool)":"a22cb465","setSoulBadger(address)":"992a42d7","soulBadger()":"75b0d1b9","supportsInterface(bytes4)":"01ffc9a7","symbol()":"95d89b41","tokenURI(uint256)":"c87b56dd","transferFrom(address,address,uint256)":"23b872dd","updatePersona(uint256,string,string)":"c4a3b2ae","updateTrustScore(uint256,uint16)":"36d001a4","verifyCredential(uint256,bytes32)":"1b9519a8"},"id":61}