{"abi":[{"type":"constructor","inputs":[{"name":"minDelay","type":"uint256","internalType":"uint256"},{"name":"proposers","type":"address[]","internalType":"address[]"},{"name":"executors","type":"address[]","internalType":"address[]"},{"name":"admin","type":"address","internalType":"address"}],"stateMutability":"nonpayable"},{"type":"receive","stateMutability":"payable"},{"type":"function","name":"CANCELLER_ROLE","inputs":[],"outputs":[{"name":"","type":"bytes32","internalType":"bytes32"}],"stateMutability":"view"},{"type":"function","name":"DEFAULT_ADMIN_ROLE","inputs":[],"outputs":[{"name":"","type":"bytes32","internalType":"bytes32"}],"stateMutability":"view"},{"type":"function","name":"EXECUTOR_ROLE","inputs":[],"outputs":[{"name":"","type":"bytes32","internalType":"bytes32"}],"stateMutability":"view"},{"type":"function","name":"PROPOSER_ROLE","inputs":[],"outputs":[{"name":"","type":"bytes32","internalType":"bytes32"}],"stateMutability":"view"},{"type":"function","name":"cancel","inputs":[{"name":"id","type":"bytes32","internalType":"bytes32"}],"outputs":[],"stateMutability":"nonpayable"},{"type":"function","name":"execute","inputs":[{"name":"target","type":"address","internalType":"address"},{"name":"value","type":"uint256","internalType":"uint256"},{"name":"payload","type":"bytes","internalType":"bytes"},{"name":"predecessor","type":"bytes32","internalType":"bytes32"},{"name":"salt","type":"bytes32","internalType":"bytes32"}],"outputs":[],"stateMutability":"payable"},{"type":"function","name":"executeBatch","inputs":[{"name":"targets","type":"address[]","internalType":"address[]"},{"name":"values","type":"uint256[]","internalType":"uint256[]"},{"name":"payloads","type":"bytes[]","internalType":"bytes[]"},{"name":"predecessor","type":"bytes32","internalType":"bytes32"},{"name":"salt","type":"bytes32","internalType":"bytes32"}],"outputs":[],"stateMutability":"payable"},{"type":"function","name":"getMinDelay","inputs":[],"outputs":[{"name":"","type":"uint256","internalType":"uint256"}],"stateMutability":"view"},{"type":"function","name":"getOperationState","inputs":[{"name":"id","type":"bytes32","internalType":"bytes32"}],"outputs":[{"name":"","type":"uint8","internalType":"enum TimelockController.OperationState"}],"stateMutability":"view"},{"type":"function","name":"getRoleAdmin","inputs":[{"name":"role","type":"bytes32","internalType":"bytes32"}],"outputs":[{"name":"","type":"bytes32","internalType":"bytes32"}],"stateMutability":"view"},{"type":"function","name":"getTimestamp","inputs":[{"name":"id","type":"bytes32","internalType":"bytes32"}],"outputs":[{"name":"","type":"uint256","internalType":"uint256"}],"stateMutability":"view"},{"type":"function","name":"grantRole","inputs":[{"name":"role","type":"bytes32","internalType":"bytes32"},{"name":"account","type":"address","internalType":"address"}],"outputs":[],"stateMutability":"nonpayable"},{"type":"function","name":"hasRole","inputs":[{"name":"role","type":"bytes32","internalType":"bytes32"},{"name":"account","type":"address","internalType":"address"}],"outputs":[{"name":"","type":"bool","internalType":"bool"}],"stateMutability":"view"},{"type":"function","name":"hashOperation","inputs":[{"name":"target","type":"address","internalType":"address"},{"name":"value","type":"uint256","internalType":"uint256"},{"name":"data","type":"bytes","internalType":"bytes"},{"name":"predecessor","type":"bytes32","internalType":"bytes32"},{"name":"salt","type":"bytes32","internalType":"bytes32"}],"outputs":[{"name":"","type":"bytes32","internalType":"bytes32"}],"stateMutability":"pure"},{"type":"function","name":"hashOperationBatch","inputs":[{"name":"targets","type":"address[]","internalType":"address[]"},{"name":"values","type":"uint256[]","internalType":"uint256[]"},{"name":"payloads","type":"bytes[]","internalType":"bytes[]"},{"name":"predecessor","type":"bytes32","internalType":"bytes32"},{"name":"salt","type":"bytes32","internalType":"bytes32"}],"outputs":[{"name":"","type":"bytes32","internalType":"bytes32"}],"stateMutability":"pure"},{"type":"function","name":"isOperation","inputs":[{"name":"id","type":"bytes32","internalType":"bytes32"}],"outputs":[{"name":"","type":"bool","internalType":"bool"}],"stateMutability":"view"},{"type":"function","name":"isOperationDone","inputs":[{"name":"id","type":"bytes32","internalType":"bytes32"}],"outputs":[{"name":"","type":"bool","internalType":"bool"}],"stateMutability":"view"},{"type":"function","name":"isOperationPending","inputs":[{"name":"id","type":"bytes32","internalType":"bytes32"}],"outputs":[{"name":"","type":"bool","internalType":"bool"}],"stateMutability":"view"},{"type":"function","name":"isOperationReady","inputs":[{"name":"id","type":"bytes32","internalType":"bytes32"}],"outputs":[{"name":"","type":"bool","internalType":"bool"}],"stateMutability":"view"},{"type":"function","name":"onERC1155BatchReceived","inputs":[{"name":"","type":"address","internalType":"address"},{"name":"","type":"address","internalType":"address"},{"name":"","type":"uint256[]","internalType":"uint256[]"},{"name":"","type":"uint256[]","internalType":"uint256[]"},{"name":"","type":"bytes","internalType":"bytes"}],"outputs":[{"name":"","type":"bytes4","internalType":"bytes4"}],"stateMutability":"nonpayable"},{"type":"function","name":"onERC1155Received","inputs":[{"name":"","type":"address","internalType":"address"},{"name":"","type":"address","internalType":"address"},{"name":"","type":"uint256","internalType":"uint256"},{"name":"","type":"uint256","internalType":"uint256"},{"name":"","type":"bytes","internalType":"bytes"}],"outputs":[{"name":"","type":"bytes4","internalType":"bytes4"}],"stateMutability":"nonpayable"},{"type":"function","name":"onERC721Received","inputs":[{"name":"","type":"address","internalType":"address"},{"name":"","type":"address","internalType":"address"},{"name":"","type":"uint256","internalType":"uint256"},{"name":"","type":"bytes","internalType":"bytes"}],"outputs":[{"name":"","type":"bytes4","internalType":"bytes4"}],"stateMutability":"nonpayable"},{"type":"function","name":"renounceRole","inputs":[{"name":"role","type":"bytes32","internalType":"bytes32"},{"name":"callerConfirmation","type":"address","internalType":"address"}],"outputs":[],"stateMutability":"nonpayable"},{"type":"function","name":"revokeRole","inputs":[{"name":"role","type":"bytes32","internalType":"bytes32"},{"name":"account","type":"address","internalType":"address"}],"outputs":[],"stateMutability":"nonpayable"},{"type":"function","name":"schedule","inputs":[{"name":"target","type":"address","internalType":"address"},{"name":"value","type":"uint256","internalType":"uint256"},{"name":"data","type":"bytes","internalType":"bytes"},{"name":"predecessor","type":"bytes32","internalType":"bytes32"},{"name":"salt","type":"bytes32","internalType":"bytes32"},{"name":"delay","type":"uint256","internalType":"uint256"}],"outputs":[],"stateMutability":"nonpayable"},{"type":"function","name":"scheduleBatch","inputs":[{"name":"targets","type":"address[]","internalType":"address[]"},{"name":"values","type":"uint256[]","internalType":"uint256[]"},{"name":"payloads","type":"bytes[]","internalType":"bytes[]"},{"name":"predecessor","type":"bytes32","internalType":"bytes32"},{"name":"salt","type":"bytes32","internalType":"bytes32"},{"name":"delay","type":"uint256","internalType":"uint256"}],"outputs":[],"stateMutability":"nonpayable"},{"type":"function","name":"supportsInterface","inputs":[{"name":"interfaceId","type":"bytes4","internalType":"bytes4"}],"outputs":[{"name":"","type":"bool","internalType":"bool"}],"stateMutability":"view"},{"type":"function","name":"updateDelay","inputs":[{"name":"newDelay","type":"uint256","internalType":"uint256"}],"outputs":[],"stateMutability":"nonpayable"},{"type":"event","name":"CallExecuted","inputs":[{"name":"id","type":"bytes32","indexed":true,"internalType":"bytes32"},{"name":"index","type":"uint256","indexed":true,"internalType":"uint256"},{"name":"target","type":"address","indexed":false,"internalType":"address"},{"name":"value","type":"uint256","indexed":false,"internalType":"uint256"},{"name":"data","type":"bytes","indexed":false,"internalType":"bytes"}],"anonymous":false},{"type":"event","name":"CallSalt","inputs":[{"name":"id","type":"bytes32","indexed":true,"internalType":"bytes32"},{"name":"salt","type":"bytes32","indexed":false,"internalType":"bytes32"}],"anonymous":false},{"type":"event","name":"CallScheduled","inputs":[{"name":"id","type":"bytes32","indexed":true,"internalType":"bytes32"},{"name":"index","type":"uint256","indexed":true,"internalType":"uint256"},{"name":"target","type":"address","indexed":false,"internalType":"address"},{"name":"value","type":"uint256","indexed":false,"internalType":"uint256"},{"name":"data","type":"bytes","indexed":false,"internalType":"bytes"},{"name":"predecessor","type":"bytes32","indexed":false,"internalType":"bytes32"},{"name":"delay","type":"uint256","indexed":false,"internalType":"uint256"}],"anonymous":false},{"type":"event","name":"Cancelled","inputs":[{"name":"id","type":"bytes32","indexed":true,"internalType":"bytes32"}],"anonymous":false},{"type":"event","name":"MinDelayChange","inputs":[{"name":"oldDuration","type":"uint256","indexed":false,"internalType":"uint256"},{"name":"newDuration","type":"uint256","indexed":false,"internalType":"uint256"}],"anonymous":false},{"type":"event","name":"RoleAdminChanged","inputs":[{"name":"role","type":"bytes32","indexed":true,"internalType":"bytes32"},{"name":"previousAdminRole","type":"bytes32","indexed":true,"internalType":"bytes32"},{"name":"newAdminRole","type":"bytes32","indexed":true,"internalType":"bytes32"}],"anonymous":false},{"type":"event","name":"RoleGranted","inputs":[{"name":"role","type":"bytes32","indexed":true,"internalType":"bytes32"},{"name":"account","type":"address","indexed":true,"internalType":"address"},{"name":"sender","type":"address","indexed":true,"internalType":"address"}],"anonymous":false},{"type":"event","name":"RoleRevoked","inputs":[{"name":"role","type":"bytes32","indexed":true,"internalType":"bytes32"},{"name":"account","type":"address","indexed":true,"internalType":"address"},{"name":"sender","type":"address","indexed":true,"internalType":"address"}],"anonymous":false},{"type":"error","name":"AccessControlBadConfirmation","inputs":[]},{"type":"error","name":"AccessControlUnauthorizedAccount","inputs":[{"name":"account","type":"address","internalType":"address"},{"name":"neededRole","type":"bytes32","internalType":"bytes32"}]},{"type":"error","name":"FailedCall","inputs":[]},{"type":"error","name":"TimelockInsufficientDelay","inputs":[{"name":"delay","type":"uint256","internalType":"uint256"},{"name":"minDelay","type":"uint256","internalType":"uint256"}]},{"type":"error","name":"TimelockInvalidOperationLength","inputs":[{"name":"targets","type":"uint256","internalType":"uint256"},{"name":"payloads","type":"uint256","internalType":"uint256"},{"name":"values","type":"uint256","internalType":"uint256"}]},{"type":"error","name":"TimelockUnauthorizedCaller","inputs":[{"name":"caller","type":"address","internalType":"address"}]},{"type":"error","name":"TimelockUnexecutedPredecessor","inputs":[{"name":"predecessorId","type":"bytes32","internalType":"bytes32"}]},{"type":"error","name":"TimelockUnexpectedOperationState","inputs":[{"name":"operationId","type":"bytes32","internalType":"bytes32"},{"name":"expectedStates","type":"bytes32","internalType":"bytes32"}]}],"bytecode":{"object":"0x608060405234801562000010575f80fd5b5060405162001d4c38038062001d4c833981016040819052620000339162000320565b6200003f5f3062000197565b506001600160a01b038116156200005e576200005c5f8262000197565b505b5f5b8351811015620000fd57620000b87fb09aa5aeb3702cfd50b6b62bc4532604938f21248a27a1d5ca736082b6819cc1858381518110620000a457620000a4620003a2565b60200260200101516200019760201b60201c565b50620000f37ffd643c72710c63c0180259aba6b2d05451e3591a24e58b62239378085726f783858381518110620000a457620000a4620003a2565b5060010162000060565b505f5b82518110156200014e57620001447fd8aa0f3194971a2a116679f7c2090f6939c8d4e01a2a8d7e41d55e5351469e63848381518110620000a457620000a4620003a2565b5060010162000100565b506002849055604080515f8152602081018690527f11c24f4ead16507c69ac467fbd5e4eed5fb5c699626d2cc6d66421df253886d5910160405180910390a150505050620003b6565b5f828152602081815260408083206001600160a01b038516845290915281205460ff166200023a575f838152602081815260408083206001600160a01b03861684529091529020805460ff19166001179055620001f13390565b6001600160a01b0316826001600160a01b0316847f2f8788117e7eff1d82e926ec794901d17c78024a50270940304540a733656f0d60405160405180910390a45060016200023d565b505f5b92915050565b634e487b7160e01b5f52604160045260245ffd5b80516001600160a01b03811681146200026e575f80fd5b919050565b5f82601f83011262000283575f80fd5b815160206001600160401b0380831115620002a257620002a262000243565b8260051b604051601f19603f83011681018181108482111715620002ca57620002ca62000243565b6040529384526020818701810194908101925087851115620002ea575f80fd5b6020870191505b848210156200031557620003058262000257565b83529183019190830190620002f1565b979650505050505050565b5f805f806080858703121562000334575f80fd5b845160208601519094506001600160401b038082111562000353575f80fd5b620003618883890162000273565b9450604087015191508082111562000377575f80fd5b50620003868782880162000273565b925050620003976060860162000257565b905092959194509250565b634e487b7160e01b5f52603260045260245ffd5b61198880620003c45f395ff3fe6080604052600436106101b2575f3560e01c80638065657f116100e7578063bc197c8111610087578063d547741f11610062578063d547741f14610546578063e38335e514610565578063f23a6e6114610578578063f27a0c92146105a3575f80fd5b8063bc197c81146104d1578063c4d252f5146104fc578063d45c44351461051b575f80fd5b806391d14854116100c257806391d148541461044d578063a217fddf1461046c578063b08e51c01461047f578063b1c5f427146104b2575f80fd5b80638065657f146103dc5780638f2a0bb0146103fb5780638f61f4f51461041a575f80fd5b80632ab0f5291161015257806336568abe1161012d57806336568abe14610353578063584b153e1461037257806364d62353146103915780637958004c146103b0575f80fd5b80632ab0f529146102f65780632f2ff15d1461031557806331d5075014610334575f80fd5b8063134008d31161018d578063134008d31461025357806313bc9f2014610266578063150b7a0214610285578063248a9ca3146102c8575f80fd5b806301d5062a146101bd57806301ffc9a7146101de57806307bd026514610212575f80fd5b366101b957005b5f80fd5b3480156101c8575f80fd5b506101dc6101d7366004611163565b6105b7565b005b3480156101e9575f80fd5b506101fd6101f83660046111d1565b61068b565b60405190151581526020015b60405180910390f35b34801561021d575f80fd5b506102457fd8aa0f3194971a2a116679f7c2090f6939c8d4e01a2a8d7e41d55e5351469e6381565b604051908152602001610209565b6101dc6102613660046111f8565b61069b565b348015610271575f80fd5b506101fd61028036600461125e565b61074d565b348015610290575f80fd5b506102af61029f366004611324565b630a85bd0160e11b949350505050565b6040516001600160e01b03199091168152602001610209565b3480156102d3575f80fd5b506102456102e236600461125e565b5f9081526020819052604090206001015490565b348015610301575f80fd5b506101fd61031036600461125e565b610772565b348015610320575f80fd5b506101dc61032f366004611387565b61077a565b34801561033f575f80fd5b506101fd61034e36600461125e565b6107a4565b34801561035e575f80fd5b506101dc61036d366004611387565b6107c8565b34801561037d575f80fd5b506101fd61038c36600461125e565b610800565b34801561039c575f80fd5b506101dc6103ab36600461125e565b610845565b3480156103bb575f80fd5b506103cf6103ca36600461125e565b6108b8565b60405161020991906113c5565b3480156103e7575f80fd5b506102456103f63660046111f8565b610900565b348015610406575f80fd5b506101dc61041536600461142b565b61093e565b348015610425575f80fd5b506102457fb09aa5aeb3702cfd50b6b62bc4532604938f21248a27a1d5ca736082b6819cc181565b348015610458575f80fd5b506101fd610467366004611387565b610aca565b348015610477575f80fd5b506102455f81565b34801561048a575f80fd5b506102457ffd643c72710c63c0180259aba6b2d05451e3591a24e58b62239378085726f78381565b3480156104bd575f80fd5b506102456104cc3660046114d3565b610af2565b3480156104dc575f80fd5b506102af6104eb3660046115ef565b63bc197c8160e01b95945050505050565b348015610507575f80fd5b506101dc61051636600461125e565b610b36565b348015610526575f80fd5b5061024561053536600461125e565b5f9081526001602052604090205490565b348015610551575f80fd5b506101dc610560366004611387565b610be0565b6101dc6105733660046114d3565b610c04565b348015610583575f80fd5b506102af610592366004611691565b63f23a6e6160e01b95945050505050565b3480156105ae575f80fd5b50600254610245565b7fb09aa5aeb3702cfd50b6b62bc4532604938f21248a27a1d5ca736082b6819cc16105e181610d85565b5f6105f0898989898989610900565b90506105fc8184610d92565b5f817f4cf4410cc57040e44862ef0f45f3dd5a5e02db8eb8add648d4b0e236f1d07dca8b8b8b8b8b8a60405161063796959493929190611718565b60405180910390a3831561068057807f20fda5fd27a1ea7bf5b9567f143ac5470bb059374a27e8f67cb44f946f6d03878560405161067791815260200190565b60405180910390a25b505050505050505050565b5f61069582610e23565b92915050565b7fd8aa0f3194971a2a116679f7c2090f6939c8d4e01a2a8d7e41d55e5351469e636106c6815f610aca565b6106d4576106d48133610e47565b5f6106e3888888888888610900565b90506106ef8185610e84565b6106fb88888888610ed2565b5f817fc2617efa69bab66782fa219543714338489c4e9e178271560a91b82c3f612b588a8a8a8a6040516107329493929190611754565b60405180910390a361074381610f46565b5050505050505050565b5f60025b61075a836108b8565b600381111561076b5761076b6113b1565b1492915050565b5f6003610751565b5f8281526020819052604090206001015461079481610d85565b61079e8383610f71565b50505050565b5f806107af836108b8565b60038111156107c0576107c06113b1565b141592915050565b6001600160a01b03811633146107f15760405163334bd91960e11b815260040160405180910390fd5b6107fb8282611000565b505050565b5f8061080b836108b8565b90506001816003811115610821576108216113b1565b148061083e5750600281600381111561083c5761083c6113b1565b145b9392505050565b333081146108765760405163e2850c5960e01b81526001600160a01b03821660048201526024015b60405180910390fd5b60025460408051918252602082018490527f11c24f4ead16507c69ac467fbd5e4eed5fb5c699626d2cc6d66421df253886d5910160405180910390a150600255565b5f81815260016020526040812054805f036108d557505f92915050565b600181036108e65750600392915050565b428111156108f75750600192915050565b50600292915050565b5f86868686868660405160200161091c96959493929190611718565b6040516020818303038152906040528051906020012090509695505050505050565b7fb09aa5aeb3702cfd50b6b62bc4532604938f21248a27a1d5ca736082b6819cc161096881610d85565b88871415806109775750888514155b156109a9576040516001624fcdef60e01b03198152600481018a9052602481018690526044810188905260640161086d565b5f6109ba8b8b8b8b8b8b8b8b610af2565b90506109c68184610d92565b5f5b8a811015610a7b5780827f4cf4410cc57040e44862ef0f45f3dd5a5e02db8eb8add648d4b0e236f1d07dca8e8e85818110610a0557610a05611785565b9050602002016020810190610a1a9190611799565b8d8d86818110610a2c57610a2c611785565b905060200201358c8c87818110610a4557610a45611785565b9050602002810190610a5791906117b2565b8c8b604051610a6b96959493929190611718565b60405180910390a36001016109c8565b508315610abd57807f20fda5fd27a1ea7bf5b9567f143ac5470bb059374a27e8f67cb44f946f6d038785604051610ab491815260200190565b60405180910390a25b5050505050505050505050565b5f918252602082815260408084206001600160a01b0393909316845291905290205460ff1690565b5f8888888888888888604051602001610b12989796959493929190611885565b60405160208183030381529060405280519060200120905098975050505050505050565b7ffd643c72710c63c0180259aba6b2d05451e3591a24e58b62239378085726f783610b6081610d85565b610b6982610800565b610ba55781610b786002611069565b610b826001611069565b604051635ead8eb560e01b8152600481019390935217602482015260440161086d565b5f828152600160205260408082208290555183917fbaa1eb22f2a492ba1a5fea61b8df4d27c6c8b5f3971e63bb58fa14ff72eedb7091a25050565b5f82815260208190526040902060010154610bfa81610d85565b61079e8383611000565b7fd8aa0f3194971a2a116679f7c2090f6939c8d4e01a2a8d7e41d55e5351469e63610c2f815f610aca565b610c3d57610c3d8133610e47565b8786141580610c4c5750878414155b15610c7e576040516001624fcdef60e01b0319815260048101899052602481018590526044810187905260640161086d565b5f610c8f8a8a8a8a8a8a8a8a610af2565b9050610c9b8185610e84565b5f5b89811015610d6f575f8b8b83818110610cb857610cb8611785565b9050602002016020810190610ccd9190611799565b90505f8a8a84818110610ce257610ce2611785565b905060200201359050365f8a8a86818110610cff57610cff611785565b9050602002810190610d1191906117b2565b91509150610d2184848484610ed2565b84867fc2617efa69bab66782fa219543714338489c4e9e178271560a91b82c3f612b5886868686604051610d589493929190611754565b60405180910390a350505050806001019050610c9d565b50610d7981610f46565b50505050505050505050565b610d8f8133610e47565b50565b610d9b826107a4565b15610dcc5781610daa5f611069565b604051635ead8eb560e01b81526004810192909252602482015260440161086d565b5f610dd660025490565b905080821015610e0357604051635433660960e01b8152600481018390526024810182905260440161086d565b610e0d8242611924565b5f93845260016020526040909320929092555050565b5f6001600160e01b03198216630271189760e51b148061069557506106958261108b565b610e518282610aca565b610e805760405163e2517d3f60e01b81526001600160a01b03821660048201526024810183905260440161086d565b5050565b610e8d8261074d565b610e9c5781610daa6002611069565b8015801590610eb15750610eaf81610772565b155b15610e805760405163121534c360e31b81526004810182905260240161086d565b5f80856001600160a01b0316858585604051610eef929190611943565b5f6040518083038185875af1925050503d805f8114610f29576040519150601f19603f3d011682016040523d82523d5f602084013e610f2e565b606091505b5091509150610f3d82826110bf565b50505050505050565b610f4f8161074d565b610f5e5780610daa6002611069565b5f90815260016020819052604090912055565b5f610f7c8383610aca565b610ff9575f838152602081815260408083206001600160a01b03861684529091529020805460ff19166001179055610fb13390565b6001600160a01b0316826001600160a01b0316847f2f8788117e7eff1d82e926ec794901d17c78024a50270940304540a733656f0d60405160405180910390a4506001610695565b505f610695565b5f61100b8383610aca565b15610ff9575f838152602081815260408083206001600160a01b0386168085529252808320805460ff1916905551339286917ff6391f5c32d9c69d2a47ea670b442974b53935d1edc7fd64eb21e047a839171b9190a4506001610695565b5f81600381111561107c5761107c6113b1565b600160ff919091161b92915050565b5f6001600160e01b03198216637965db0b60e01b148061069557506301ffc9a760e01b6001600160e01b0319831614610695565b606082156110ce575080610695565b8151156110e3576110de826110fc565b610695565b60405163d6bda27560e01b815260040160405180910390fd5b805160208201fd5b80356001600160a01b038116811461111a575f80fd5b919050565b5f8083601f84011261112f575f80fd5b5081356001600160401b03811115611145575f80fd5b60208301915083602082850101111561115c575f80fd5b9250929050565b5f805f805f805f60c0888a031215611179575f80fd5b61118288611104565b96506020880135955060408801356001600160401b038111156111a3575f80fd5b6111af8a828b0161111f565b989b979a50986060810135976080820135975060a09091013595509350505050565b5f602082840312156111e1575f80fd5b81356001600160e01b03198116811461083e575f80fd5b5f805f805f8060a0878903121561120d575f80fd5b61121687611104565b95506020870135945060408701356001600160401b03811115611237575f80fd5b61124389828a0161111f565b979a9699509760608101359660809091013595509350505050565b5f6020828403121561126e575f80fd5b5035919050565b634e487b7160e01b5f52604160045260245ffd5b604051601f8201601f191681016001600160401b03811182821017156112b1576112b1611275565b604052919050565b5f82601f8301126112c8575f80fd5b81356001600160401b038111156112e1576112e1611275565b6112f4601f8201601f1916602001611289565b818152846020838601011115611308575f80fd5b816020850160208301375f918101602001919091529392505050565b5f805f8060808587031215611337575f80fd5b61134085611104565b935061134e60208601611104565b92506040850135915060608501356001600160401b0381111561136f575f80fd5b61137b878288016112b9565b91505092959194509250565b5f8060408385031215611398575f80fd5b823591506113a860208401611104565b90509250929050565b634e487b7160e01b5f52602160045260245ffd5b60208101600483106113e557634e487b7160e01b5f52602160045260245ffd5b91905290565b5f8083601f8401126113fb575f80fd5b5081356001600160401b03811115611411575f80fd5b6020830191508360208260051b850101111561115c575f80fd5b5f805f805f805f805f60c08a8c031215611443575f80fd5b89356001600160401b0380821115611459575f80fd5b6114658d838e016113eb565b909b50995060208c013591508082111561147d575f80fd5b6114898d838e016113eb565b909950975060408c01359150808211156114a1575f80fd5b506114ae8c828d016113eb565b9a9d999c50979a969997986060880135976080810135975060a0013595509350505050565b5f805f805f805f8060a0898b0312156114ea575f80fd5b88356001600160401b0380821115611500575f80fd5b61150c8c838d016113eb565b909a50985060208b0135915080821115611524575f80fd5b6115308c838d016113eb565b909850965060408b0135915080821115611548575f80fd5b506115558b828c016113eb565b999c989b509699959896976060870135966080013595509350505050565b5f82601f830112611582575f80fd5b813560206001600160401b0382111561159d5761159d611275565b8160051b6115ac828201611289565b92835284810182019282810190878511156115c5575f80fd5b83870192505b848310156115e4578235825291830191908301906115cb565b979650505050505050565b5f805f805f60a08688031215611603575f80fd5b61160c86611104565b945061161a60208701611104565b935060408601356001600160401b0380821115611635575f80fd5b61164189838a01611573565b94506060880135915080821115611656575f80fd5b61166289838a01611573565b93506080880135915080821115611677575f80fd5b50611684888289016112b9565b9150509295509295909350565b5f805f805f60a086880312156116a5575f80fd5b6116ae86611104565b94506116bc60208701611104565b9350604086013592506060860135915060808601356001600160401b038111156116e4575f80fd5b611684888289016112b9565b81835281816020850137505f828201602090810191909152601f909101601f19169091010190565b60018060a01b038716815285602082015260a060408201525f61173f60a0830186886116f0565b60608301949094525060800152949350505050565b60018060a01b0385168152836020820152606060408201525f61177b6060830184866116f0565b9695505050505050565b634e487b7160e01b5f52603260045260245ffd5b5f602082840312156117a9575f80fd5b61083e82611104565b5f808335601e198436030181126117c7575f80fd5b8301803591506001600160401b038211156117e0575f80fd5b60200191503681900382131561115c575f80fd5b5f838385526020808601955060208560051b830101845f5b8781101561187857848303601f19018952813536889003601e19018112611831575f80fd5b870184810190356001600160401b0381111561184b575f80fd5b803603821315611859575f80fd5b6118648582846116f0565b9a86019a945050509083019060010161180c565b5090979650505050505050565b60a080825281018890525f8960c08301825b8b8110156118c5576001600160a01b036118b084611104565b16825260209283019290910190600101611897565b5083810360208501528881526001600160fb1b038911156118e4575f80fd5b8860051b9150818a6020830137018281036020908101604085015261190c90820187896117f4565b60608401959095525050608001529695505050505050565b8082018082111561069557634e487b7160e01b5f52601160045260245ffd5b818382375f910190815291905056fea264697066735822122065cef4a4828256b222300e591c16a7de610875cf0e6d34a1a802e63ec5b8a7a464736f6c63430008180033","linkReferences":{}},"methodIdentifiers":{"CANCELLER_ROLE()":"b08e51c0","DEFAULT_ADMIN_ROLE()":"a217fddf","EXECUTOR_ROLE()":"07bd0265","PROPOSER_ROLE()":"8f61f4f5","cancel(bytes32)":"c4d252f5","execute(address,uint256,bytes,bytes32,bytes32)":"134008d3","executeBatch(address[],uint256[],bytes[],bytes32,bytes32)":"e38335e5","getMinDelay()":"f27a0c92","getOperationState(bytes32)":"7958004c","getRoleAdmin(bytes32)":"248a9ca3","getTimestamp(bytes32)":"d45c4435","grantRole(bytes32,address)":"2f2ff15d","hasRole(bytes32,address)":"91d14854","hashOperation(address,uint256,bytes,bytes32,bytes32)":"8065657f","hashOperationBatch(address[],uint256[],bytes[],bytes32,bytes32)":"b1c5f427","isOperation(bytes32)":"31d50750","isOperationDone(bytes32)":"2ab0f529","isOperationPending(bytes32)":"584b153e","isOperationReady(bytes32)":"13bc9f20","onERC1155BatchReceived(address,address,uint256[],uint256[],bytes)":"bc197c81","onERC1155Received(address,address,uint256,uint256,bytes)":"f23a6e61","onERC721Received(address,address,uint256,bytes)":"150b7a02","renounceRole(bytes32,address)":"36568abe","revokeRole(bytes32,address)":"d547741f","schedule(address,uint256,bytes,bytes32,bytes32,uint256)":"01d5062a","scheduleBatch(address[],uint256[],bytes[],bytes32,bytes32,uint256)":"8f2a0bb0","supportsInterface(bytes4)":"01ffc9a7","updateDelay(uint256)":"64d62353"},"id":22}