{
  "_format": "hh-sol-artifact-1",
  "contractName": "ReputationRegistryUpgradeable",
  "sourceName": "contracts/ReputationRegistryUpgradeable.sol",
  "abi": [
    {
      "inputs": [],
      "stateMutability": "nonpayable",
      "type": "constructor"
    },
    {
      "inputs": [
        {
          "internalType": "address",
          "name": "target",
          "type": "address"
        }
      ],
      "name": "AddressEmptyCode",
      "type": "error"
    },
    {
      "inputs": [
        {
          "internalType": "address",
          "name": "implementation",
          "type": "address"
        }
      ],
      "name": "ERC1967InvalidImplementation",
      "type": "error"
    },
    {
      "inputs": [],
      "name": "ERC1967NonPayable",
      "type": "error"
    },
    {
      "inputs": [],
      "name": "FailedCall",
      "type": "error"
    },
    {
      "inputs": [],
      "name": "InvalidInitialization",
      "type": "error"
    },
    {
      "inputs": [],
      "name": "NotInitializing",
      "type": "error"
    },
    {
      "inputs": [
        {
          "internalType": "address",
          "name": "owner",
          "type": "address"
        }
      ],
      "name": "OwnableInvalidOwner",
      "type": "error"
    },
    {
      "inputs": [
        {
          "internalType": "address",
          "name": "account",
          "type": "address"
        }
      ],
      "name": "OwnableUnauthorizedAccount",
      "type": "error"
    },
    {
      "inputs": [],
      "name": "UUPSUnauthorizedCallContext",
      "type": "error"
    },
    {
      "inputs": [
        {
          "internalType": "bytes32",
          "name": "slot",
          "type": "bytes32"
        }
      ],
      "name": "UUPSUnsupportedProxiableUUID",
      "type": "error"
    },
    {
      "anonymous": false,
      "inputs": [
        {
          "indexed": true,
          "internalType": "uint256",
          "name": "agentId",
          "type": "uint256"
        },
        {
          "indexed": true,
          "internalType": "address",
          "name": "clientAddress",
          "type": "address"
        },
        {
          "indexed": true,
          "internalType": "uint64",
          "name": "feedbackIndex",
          "type": "uint64"
        }
      ],
      "name": "FeedbackRevoked",
      "type": "event"
    },
    {
      "anonymous": false,
      "inputs": [
        {
          "indexed": false,
          "internalType": "uint64",
          "name": "version",
          "type": "uint64"
        }
      ],
      "name": "Initialized",
      "type": "event"
    },
    {
      "anonymous": false,
      "inputs": [
        {
          "indexed": true,
          "internalType": "uint256",
          "name": "agentId",
          "type": "uint256"
        },
        {
          "indexed": true,
          "internalType": "address",
          "name": "clientAddress",
          "type": "address"
        },
        {
          "indexed": false,
          "internalType": "uint64",
          "name": "feedbackIndex",
          "type": "uint64"
        },
        {
          "indexed": false,
          "internalType": "int128",
          "name": "value",
          "type": "int128"
        },
        {
          "indexed": false,
          "internalType": "uint8",
          "name": "valueDecimals",
          "type": "uint8"
        },
        {
          "indexed": true,
          "internalType": "string",
          "name": "indexedTag1",
          "type": "string"
        },
        {
          "indexed": false,
          "internalType": "string",
          "name": "tag1",
          "type": "string"
        },
        {
          "indexed": false,
          "internalType": "string",
          "name": "tag2",
          "type": "string"
        },
        {
          "indexed": false,
          "internalType": "string",
          "name": "endpoint",
          "type": "string"
        },
        {
          "indexed": false,
          "internalType": "string",
          "name": "feedbackURI",
          "type": "string"
        },
        {
          "indexed": false,
          "internalType": "bytes32",
          "name": "feedbackHash",
          "type": "bytes32"
        }
      ],
      "name": "NewFeedback",
      "type": "event"
    },
    {
      "anonymous": false,
      "inputs": [
        {
          "indexed": true,
          "internalType": "address",
          "name": "previousOwner",
          "type": "address"
        },
        {
          "indexed": true,
          "internalType": "address",
          "name": "newOwner",
          "type": "address"
        }
      ],
      "name": "OwnershipTransferred",
      "type": "event"
    },
    {
      "anonymous": false,
      "inputs": [
        {
          "indexed": true,
          "internalType": "uint256",
          "name": "agentId",
          "type": "uint256"
        },
        {
          "indexed": true,
          "internalType": "address",
          "name": "clientAddress",
          "type": "address"
        },
        {
          "indexed": false,
          "internalType": "uint64",
          "name": "feedbackIndex",
          "type": "uint64"
        },
        {
          "indexed": true,
          "internalType": "address",
          "name": "responder",
          "type": "address"
        },
        {
          "indexed": false,
          "internalType": "string",
          "name": "responseURI",
          "type": "string"
        },
        {
          "indexed": false,
          "internalType": "bytes32",
          "name": "responseHash",
          "type": "bytes32"
        }
      ],
      "name": "ResponseAppended",
      "type": "event"
    },
    {
      "anonymous": false,
      "inputs": [
        {
          "indexed": true,
          "internalType": "address",
          "name": "implementation",
          "type": "address"
        }
      ],
      "name": "Upgraded",
      "type": "event"
    },
    {
      "inputs": [],
      "name": "UPGRADE_INTERFACE_VERSION",
      "outputs": [
        {
          "internalType": "string",
          "name": "",
          "type": "string"
        }
      ],
      "stateMutability": "view",
      "type": "function"
    },
    {
      "inputs": [
        {
          "internalType": "uint256",
          "name": "agentId",
          "type": "uint256"
        },
        {
          "internalType": "address",
          "name": "clientAddress",
          "type": "address"
        },
        {
          "internalType": "uint64",
          "name": "feedbackIndex",
          "type": "uint64"
        },
        {
          "internalType": "string",
          "name": "responseURI",
          "type": "string"
        },
        {
          "internalType": "bytes32",
          "name": "responseHash",
          "type": "bytes32"
        }
      ],
      "name": "appendResponse",
      "outputs": [],
      "stateMutability": "nonpayable",
      "type": "function"
    },
    {
      "inputs": [
        {
          "internalType": "uint256",
          "name": "agentId",
          "type": "uint256"
        }
      ],
      "name": "getClients",
      "outputs": [
        {
          "internalType": "address[]",
          "name": "",
          "type": "address[]"
        }
      ],
      "stateMutability": "view",
      "type": "function"
    },
    {
      "inputs": [],
      "name": "getIdentityRegistry",
      "outputs": [
        {
          "internalType": "address",
          "name": "",
          "type": "address"
        }
      ],
      "stateMutability": "view",
      "type": "function"
    },
    {
      "inputs": [
        {
          "internalType": "uint256",
          "name": "agentId",
          "type": "uint256"
        },
        {
          "internalType": "address",
          "name": "clientAddress",
          "type": "address"
        }
      ],
      "name": "getLastIndex",
      "outputs": [
        {
          "internalType": "uint64",
          "name": "",
          "type": "uint64"
        }
      ],
      "stateMutability": "view",
      "type": "function"
    },
    {
      "inputs": [
        {
          "internalType": "uint256",
          "name": "agentId",
          "type": "uint256"
        },
        {
          "internalType": "address",
          "name": "clientAddress",
          "type": "address"
        },
        {
          "internalType": "uint64",
          "name": "feedbackIndex",
          "type": "uint64"
        },
        {
          "internalType": "address[]",
          "name": "responders",
          "type": "address[]"
        }
      ],
      "name": "getResponseCount",
      "outputs": [
        {
          "internalType": "uint64",
          "name": "count",
          "type": "uint64"
        }
      ],
      "stateMutability": "view",
      "type": "function"
    },
    {
      "inputs": [
        {
          "internalType": "uint256",
          "name": "agentId",
          "type": "uint256"
        },
        {
          "internalType": "address[]",
          "name": "clientAddresses",
          "type": "address[]"
        },
        {
          "internalType": "string",
          "name": "tag1",
          "type": "string"
        },
        {
          "internalType": "string",
          "name": "tag2",
          "type": "string"
        }
      ],
      "name": "getSummary",
      "outputs": [
        {
          "internalType": "uint64",
          "name": "count",
          "type": "uint64"
        },
        {
          "internalType": "int128",
          "name": "summaryValue",
          "type": "int128"
        },
        {
          "internalType": "uint8",
          "name": "summaryValueDecimals",
          "type": "uint8"
        }
      ],
      "stateMutability": "view",
      "type": "function"
    },
    {
      "inputs": [],
      "name": "getVersion",
      "outputs": [
        {
          "internalType": "string",
          "name": "",
          "type": "string"
        }
      ],
      "stateMutability": "pure",
      "type": "function"
    },
    {
      "inputs": [
        {
          "internalType": "uint256",
          "name": "agentId",
          "type": "uint256"
        },
        {
          "internalType": "int128",
          "name": "value",
          "type": "int128"
        },
        {
          "internalType": "uint8",
          "name": "valueDecimals",
          "type": "uint8"
        },
        {
          "internalType": "string",
          "name": "tag1",
          "type": "string"
        },
        {
          "internalType": "string",
          "name": "tag2",
          "type": "string"
        },
        {
          "internalType": "string",
          "name": "endpoint",
          "type": "string"
        },
        {
          "internalType": "string",
          "name": "feedbackURI",
          "type": "string"
        },
        {
          "internalType": "bytes32",
          "name": "feedbackHash",
          "type": "bytes32"
        }
      ],
      "name": "giveFeedback",
      "outputs": [],
      "stateMutability": "nonpayable",
      "type": "function"
    },
    {
      "inputs": [],
      "name": "initialize",
      "outputs": [],
      "stateMutability": "nonpayable",
      "type": "function"
    },
    {
      "inputs": [],
      "name": "owner",
      "outputs": [
        {
          "internalType": "address",
          "name": "",
          "type": "address"
        }
      ],
      "stateMutability": "view",
      "type": "function"
    },
    {
      "inputs": [],
      "name": "proxiableUUID",
      "outputs": [
        {
          "internalType": "bytes32",
          "name": "",
          "type": "bytes32"
        }
      ],
      "stateMutability": "view",
      "type": "function"
    },
    {
      "inputs": [
        {
          "internalType": "uint256",
          "name": "agentId",
          "type": "uint256"
        },
        {
          "internalType": "address[]",
          "name": "clientAddresses",
          "type": "address[]"
        },
        {
          "internalType": "string",
          "name": "tag1",
          "type": "string"
        },
        {
          "internalType": "string",
          "name": "tag2",
          "type": "string"
        },
        {
          "internalType": "bool",
          "name": "includeRevoked",
          "type": "bool"
        }
      ],
      "name": "readAllFeedback",
      "outputs": [
        {
          "internalType": "address[]",
          "name": "clients",
          "type": "address[]"
        },
        {
          "internalType": "uint64[]",
          "name": "feedbackIndexes",
          "type": "uint64[]"
        },
        {
          "internalType": "int128[]",
          "name": "values",
          "type": "int128[]"
        },
        {
          "internalType": "uint8[]",
          "name": "valueDecimals",
          "type": "uint8[]"
        },
        {
          "internalType": "string[]",
          "name": "tag1s",
          "type": "string[]"
        },
        {
          "internalType": "string[]",
          "name": "tag2s",
          "type": "string[]"
        },
        {
          "internalType": "bool[]",
          "name": "revokedStatuses",
          "type": "bool[]"
        }
      ],
      "stateMutability": "view",
      "type": "function"
    },
    {
      "inputs": [
        {
          "internalType": "uint256",
          "name": "agentId",
          "type": "uint256"
        },
        {
          "internalType": "address",
          "name": "clientAddress",
          "type": "address"
        },
        {
          "internalType": "uint64",
          "name": "feedbackIndex",
          "type": "uint64"
        }
      ],
      "name": "readFeedback",
      "outputs": [
        {
          "internalType": "int128",
          "name": "value",
          "type": "int128"
        },
        {
          "internalType": "uint8",
          "name": "valueDecimals",
          "type": "uint8"
        },
        {
          "internalType": "string",
          "name": "tag1",
          "type": "string"
        },
        {
          "internalType": "string",
          "name": "tag2",
          "type": "string"
        },
        {
          "internalType": "bool",
          "name": "isRevoked",
          "type": "bool"
        }
      ],
      "stateMutability": "view",
      "type": "function"
    },
    {
      "inputs": [],
      "name": "renounceOwnership",
      "outputs": [],
      "stateMutability": "nonpayable",
      "type": "function"
    },
    {
      "inputs": [
        {
          "internalType": "uint256",
          "name": "agentId",
          "type": "uint256"
        },
        {
          "internalType": "uint64",
          "name": "feedbackIndex",
          "type": "uint64"
        }
      ],
      "name": "revokeFeedback",
      "outputs": [],
      "stateMutability": "nonpayable",
      "type": "function"
    },
    {
      "inputs": [
        {
          "internalType": "address",
          "name": "newOwner",
          "type": "address"
        }
      ],
      "name": "transferOwnership",
      "outputs": [],
      "stateMutability": "nonpayable",
      "type": "function"
    },
    {
      "inputs": [
        {
          "internalType": "address",
          "name": "newImplementation",
          "type": "address"
        },
        {
          "internalType": "bytes",
          "name": "data",
          "type": "bytes"
        }
      ],
      "name": "upgradeToAndCall",
      "outputs": [],
      "stateMutability": "payable",
      "type": "function"
    }
  ],
  "bytecode": "0x60a080604052346100cc57306080527ff0c57e16840df040f15088dc2f81fe391c3923bec73e23a9662efc9c229c6a009081549060ff8260401c166100bd57506001600160401b036002600160401b031982821601610078575b60405161292890816100d18239608051818181610fdf01526110970152f35b6001600160401b031990911681179091556040519081527fc7f505b2f371ae2175ee4913f4499e1f2633a7b5936321eed1cdaeb6115181d290602090a15f8080610059565b63f92ee8a960e01b8152600490fd5b5f80fdfe6080806040526004361015610012575f80fd5b5f3560e01c9081630d8e6e2c14611bda57508063232b081014611abb5780633c036a7e146113e657806342dd519c146113595780634ab3ca99146112345780634f1ef2861461104957806352d1902d14610fcd5780636e04cacd14610dd7578063715018a614610d705780638129fc1c14610c4a57806381bbba5814610bb55780638da5cb5b14610b81578063ad3cb1cc14610b38578063bc4d861b14610b11578063c2349ab2146108cf578063d9d842241461016a578063f2d81759146101115763f2fde38b146100e2575f80fd5b3461010d57602036600319011261010d5761010b6100fe611c6d565b610106612768565b612528565b005b5f80fd5b3461010d57604036600319011261010d5761012a611c57565b6004355f525f805160206128d383398151915260205260405f209060018060a01b03165f5260205260206001600160401b0360405f205416604051908152f35b3461010d5760a036600319011261010d576024356001600160401b03811161010d5761019a903690600401611d9e565b6044356001600160401b03811161010d576101b9903690600401611c99565b6064929192356001600160401b03811161010d576101db903690600401611c99565b9460843593841515850361010d5780156108535761020261024a939261023b923691612065565b955b5f60405161021181611d1d565b527fc5d2460186f7233c927e7db2dcc703c0e500b653ca82273b7bfad8045d85a470943691611d59565b60208151910120953691611d59565b602081519101205f925f955b85518710156103c2576004355f9081525f805160206128d3833981519152602052604090206001600160a01b039690876102908a8461203a565b51165f526020526001600160401b0360405f205416906001965b6001600160401b0388168381116103b2576004355f525f805160206128b383398151915260205260405f208a6102e08d8661203a565b51165f5260205260405f20905f5260205260405f20851586156103a4575b6103755784881415858903610380575b610375578688141590878903610346575b5061033c57610330610336916124d1565b97611f75565b966102aa565b9661033690611f75565b600291506103659061035e6040518094819301611ee4565b0382611d38565b602081519101208614158b61031f565b509661033690611f75565b506040516103958161035e8160018601611ee4565b6020815191012085141561030e565b5060ff815460881c166102fe565b5096509650509560010195610256565b93856103cd8261204e565b926103db6040519485611d38565b8284526103e78361204e565b601f19013660208601376103fa8361204e565b946104086040519687611d38565b8386526104148461204e565b601f19013660208801376104278461204e565b956104356040519788611d38565b8487526104418561204e565b601f19013660208901376104548561204e565b956104626040519788611d38565b85875261046e8661204e565b601f1901366020890137610481866124df565b9261048b876124df565b956104ae6104988961204e565b986104a66040519a8b611d38565b808a5261204e565b601f19013660208a01375f9a5f925b825184101561071c576004355f9081525f805160206128d3833981519152602052604090206001600160a01b036104f4868661203a565b51165f5260205260405f20546001600160401b03169d8e9d60019e8f6001600160401b03905b161161070e576004355f9081525f805160206128b3833981519152602052604090208f906001600160a01b03610550898961203a565b51165f526020526001600160401b0360405f2091165f5260205260405f208a158b15610700575b6106ad57828514158386036106dc575b6106ad57838514158486036106b8575b6106ad578f8f918f918f918f908692908f8f8f908f948f88969387948592600160a01b60019003916105c89161203a565b5116916105d49161203a565b526001600160401b0316916105e89161203a565b528282549889600f0b916105fb9161203a565b528260ff97888a60801c16916106109161203a565b526040518390806106248160018701611ee4565b0361062f9082611d38565b610639828461203a565b526106439161203a565b506040518060028193019061065791611ee4565b036106629082611d38565b61066c828461203a565b526106769161203a565b506106809161203a565b9160881c1615159052610692906124d1565b9d61069c90611f75565b9d8f8f6001600160401b039061051a565b509d61069c90611f75565b506040516106cd8161035e8160028601611ee4565b60208151910120841415610597565b506040516106f18161035e8160018601611ee4565b60208151910120831415610587565b5060ff815460881c16610577565b9d509d5092600101926104bd565b50505050959691925061073a6040519660e0885260e0880190611cc6565b8681036020880152602080835192838152019201905f5b818110610834575050508581036040870152602080835192838152019201905f5b81811061081b575050508481036060860152602080875192838152019601905f5b81811061080257505050906107b4856107c293868098036080880152611dce565b9084820360a0860152611dce565b82810360c0840152602080835192838152019201905f5b8181106107e7575050500390f35b825115158452859450602093840193909201916001016107d9565b825160ff16885260209788019790920191600101610793565b8251600f0b845260209384019390920191600101610772565b82516001600160401b0316845260209384019390920191600101610751565b50506004355f5260205f8051602061287383398151915260205260405f206040519182602083549182815201925f5260205f20915f905b8282106108af5750505050816108a961024a949361023b930382611d38565b95610204565b83546001600160a01b03168552938401936001938401939091019061088a565b3461010d5760a036600319011261010d576004356108eb611c57565b6108f3611c83565b916001600160401b0360643581811161010d5761091582913690600401611c99565b9290951694610925861515611e2a565b8215610ae0577fb1c6be0b5b8aef6539e2fac0fd131a2faa7b49edf8e505b5eb0ad487d56051d4926060610a5593865f526020905f805160206128d3833981519152825260405f209860018060a01b031698895f52825261098e8160405f2054168b1115611e6a565b875f527fa03d7693f2b3746b2d03f163c788147b71aa82854399a21fdf4de143ba77830480835260405f208a5f52835260405f208b5f52835260405f20335f52835260ff60405f20541615610a66575b50875f527fa03d7693f2b3746b2d03f163c788147b71aa82854399a21fdf4de143ba778302825260405f20895f52825260405f208a5f52825260405f20335f52825260405f2090815490610a33818316611f75565b16906001600160401b0319161790556040519889528801526060870191611fff565b9360843560408201528033950390a4005b885f527fa03d7693f2b3746b2d03f163c788147b71aa82854399a21fdf4de143ba778303835260405f208a5f52835260405f208b5f528352610aab3360405f20611fa1565b885f52825260405f20895f52825260405f208a5f52825260405f20335f52825260405f20600160ff198254161790558a6109de565b60405162461bcd60e51b8152602060048201526009602482015268456d7074792055524960b81b6044820152606490fd5b3461010d575f36600319011261010d575f546040516001600160a01b039091168152602090f35b3461010d575f36600319011261010d57610b7d604051610b5781611d02565b60058152640352e302e360dc1b6020820152604051918291602083526020830190611c19565b0390f35b3461010d575f36600319011261010d575f80516020612893833981519152546040516001600160a01b039091168152602090f35b3461010d57608036600319011261010d576001600160401b0360243581811161010d57610be6903690600401611d9e565b60449291923582811161010d57610c01903690600401611c99565b9390916064359184831161010d5760609560ff94610c26610c31953690600401611c99565b949093600435612121565b919360405194168452600f0b6020840152166040820152f35b3461010d575f36600319011261010d577ff0c57e16840df040f15088dc2f81fe391c3923bec73e23a9662efc9c229c6a00805460ff8160401c1615906001600160401b03811680159081610d68575b6001149081610d5e575b159081610d55575b50610d435767ffffffffffffffff198116600117835581610d24575b50610cd06127a0565b610cd86127a0565b610ce133612528565b610ce757005b68ff00000000000000001981541690557fc7f505b2f371ae2175ee4913f4499e1f2633a7b5936321eed1cdaeb6115181d2602060405160018152a1005b68ffffffffffffffffff19166801000000000000000117825582610cc7565b60405163f92ee8a960e01b8152600490fd5b90501584610cab565b303b159150610ca3565b839150610c99565b3461010d575f36600319011261010d57610d88612768565b5f8051602061289383398151915280546001600160a01b031981169091555f906001600160a01b03167f8be0079c531659141344cd1fd0a4f28419497f9722a3daafe3b4186f6b6457e08280a3005b3461010d57608036600319011261010d57600435610df3611c57565b90610dfc611c83565b916001600160401b039160643583811161010d57610e1e903690600401611d9e565b6001600160a01b03955f94919391908782169081610f3457505050805f526020955f80516020612873833981519152875260405f2060405180828a8294549384815201905f528a5f20925f5b8c828210610f1c57505050610e8192500382611d38565b5f5b8151811015610f0757835f525f805160206128d3833981519152895260405f2083610eae838561203a565b51165f5289528760405f2054166001905b808a83161115610ed3575050600101610e83565b9097610efb610f0191610ef58a8a8d8a610eed8a8c61203a565b51168c612599565b9061201f565b98611f75565b90610ebf565b50505050505090602092505b60405191168152f35b85548816845260019586019587955093019201610e6a565b90919295968098508116155f14610fb65750845f94939294525f805160206128d383398151915260205260405f20905f526020528560405f205416926001945b848887161115610f8c57505050505050602091610f13565b909192939495610fa6610fac91610ef587878b8888612599565b96611f75565b9493929190610f74565b9190506020969550610fc794612599565b90610f13565b3461010d575f36600319011261010d577f00000000000000000000000000000000000000000000000000000000000000006001600160a01b031630036110375760206040517f360894a13ba1a3210667c828492db98dca3e2076cc3735a920a3ca505d382bbc8152f35b60405163703e46dd60e11b8152600490fd5b604036600319011261010d5761105d611c6d565b6024356001600160401b03811161010d573660238201121561010d5761108d903690602481600401359101611d59565b6001600160a01b037f00000000000000000000000000000000000000000000000000000000000000008116308114908115611206575b50611037576110d0612768565b8216916040516352d1902d60e01b8152602081600481875afa5f91816111d2575b5061110f57604051634c9c8ce360e01b815260048101859052602490fd5b7f360894a13ba1a3210667c828492db98dca3e2076cc3735a920a3ca505d382bbc908181036111ba5750813b156111a15780546001600160a01b03191684179055604051927fbc7cd75a20ee27fd9adebab32041f755214dbc6bffa90cc0225b39da2e5c2d3b5f80a28151156111895761010b92506127e1565b50503461119257005b63b398979f60e01b8152600490fd5b604051634c9c8ce360e01b815260048101859052602490fd5b60249060405190632a87526960e21b82526004820152fd5b9091506020813d6020116111fe575b816111ee60209383611d38565b8101031261010d575190856110f1565b3d91506111e1565b9050817f360894a13ba1a3210667c828492db98dca3e2076cc3735a920a3ca505d382bbc54161415846110c3565b3461010d57604036600319011261010d57600435602435906001600160401b0380831680930361010d57611269831515611e2a565b815f526112996020915f805160206128d3833981519152835260405f20335f52835260405f205416841115611e6a565b815f525f805160206128b383398151915280825260405f20335f52825260405f20845f52825260ff60405f205460881c1661132257825f52815260405f20335f52815260405f2090835f525260405f20600160881b60ff60881b1982541617905533907f25156fd3288212246d8b008d5921fde376c71ed14ac2e072a506eb06fde6d09d5f80a4005b60405162461bcd60e51b815260048101839052600f60248201526e105b1c9958591e481c995d9bdad959608a1b6044820152606490fd5b3461010d5760208060031936011261010d576004355f525f80516020612873833981519152815260405f20906040518083838295549384815201905f52835f20925f5b858282106113c7575050506113b392500383611d38565b610b7d604051928284938452830190611cc6565b85546001600160a01b031684526001958601958895509301920161139c565b3461010d5761010036600319011261010d5760243580600f0b810361010d5760443560ff8116810361010d576064356001600160401b03811161010d57611431903690600401611c99565b906084356001600160401b03811161010d57611451903690600401611c99565b9060a4356001600160401b03811161010d57611471903690600401611c99565b91909260c4356001600160401b03811161010d57611493903690600401611c99565b959096601260ff8a1611611a82576f4b3b4ca85a86c47a098a223fffffffff198a600f0b121580611a65575b15611a2e576044602060018060a01b035f541660405192838092636caf395f60e11b825233600483015260043560248301525afa908115611a23575f916119e8575b506119a3576004355f525f805160206128d383398151915260205260405f20335f5260205260405f20988954996001600160401b03611541818d16611f75565b16809b6001600160401b0319161790556040518060a08101106001600160401b0360a0830111176118d35760a081016040528b600f0b8152602081019060ff8316825260408101915f8352611597368688611d59565b90606083019182526115aa36898b611d59565b60808401526004355f525f805160206128b383398151915260205260405f20335f526020528d60405f20905f5260205260405f20938351916fffffffffffffffffffffffffffffffff86549160ff60801b905160801b169260ff60881b9051151560881b1693169071ffffffffffffffffffffffffffffffffffff19161717178355518051906001600160401b0382116118d35761164b6001850154611eac565b601f811161195f575b50602090601f83116001146118f25760809392915f91836118e7575b50508160011b915f199060031b1c19161760018401555b01518051906001600160401b0382116118d3576116a76002840154611eac565b601f811161188f575b50602090601f831160011461182357600292915f9183611818575b50508160011b915f199060031b1c1916179101555b6004355f527fa03d7693f2b3746b2d03f163c788147b71aa82854399a21fdf4de143ba7783068060205260405f20335f5260205260ff60405f205416156117ce575b5060405182848237808381015f81520390209a6040519a8b52600f0b60208b015260ff1660408a015260608901610100905261010089019061176392611fff565b90878203608089015261177592611fff565b9085820360a087015261178792611fff565b9083820360c085015261179992611fff565b60e43560e083015233918060043592037f6a4a61743519c9d648a14e6493f47dbe3ff1aa29e7785c96c8326a205e58febc91a4005b6004355f525f805160206128738339815191526020526117f13360405f20611fa1565b6004355f5260205260405f20335f5260205260405f20600160ff198254161790558b611722565b015190508f806116cb565b90600284015f5260205f20915f5b601f19851681106118775750918391600193600295601f1981161061185f575b505050811b019101556116e0565b01515f1960f88460031b161c191690558f8080611851565b91926020600181928685015181550194019201611831565b600284015f5260205f20601f840160051c8101602085106118cc575b601f830160051c820181106118c15750506116b0565b5f81556001016118ab565b50806118ab565b634e487b7160e01b5f52604160045260245ffd5b015190505f80611670565b90601f19831691600186015f5260205f20925f5b818110611947575091600193918560809796941061192f575b505050811b016001840155611687565b01515f1960f88460031b161c191690555f808061191f565b92936020600181928786015181550195019301611906565b600185015f5260205f20601f840160051c81016020851061199c575b601f830160051c82018110611991575050611654565b5f815560010161197b565b508061197b565b60405162461bcd60e51b815260206004820152601960248201527f53656c662d666565646261636b206e6f7420616c6c6f776564000000000000006044820152606490fd5b90506020813d602011611a1b575b81611a0360209383611d38565b8101031261010d5751801515810361010d578b611501565b3d91506119f6565b6040513d5f823e3d90fd5b60405162461bcd60e51b815260206004820152600f60248201526e76616c756520746f6f206c6172676560881b6044820152606490fd5b506f4b3b4ca85a86c47a098a2240000000008a600f0b13156114bf565b60405162461bcd60e51b8152602060048201526011602482015270746f6f206d616e7920646563696d616c7360781b6044820152606490fd5b3461010d57606036600319011261010d57600435611ad7611c57565b906001600160401b039182611aea611c83565b1691611af7831515611e2a565b805f52611b316020945f805160206128d3833981519152865260405f209360018060a01b031693845f52865260405f205416841115611e6a565b5f525f805160206128b3833981519152835260405f20905f52825260405f20905f52815260405f2090815460ff611bca6002611b9260405196611b8288611b7b8160018501611ee4565b0389611d38565b61035e6040518094819301611ee4565b611bbc60405196879686600f0b8852858760801c169088015260a0604088015260a0870190611c19565b908582036060870152611c19565b9160881c16151560808301520390f35b3461010d575f36600319011261010d5780611bf7610b7d92611d02565b60058152640322e302e360dc1b60208201526040519182916020835260208301905b91908251928382525f5b848110611c43575050825f602080949584010152601f8019910116010190565b602081830181015184830182015201611c23565b602435906001600160a01b038216820361010d57565b600435906001600160a01b038216820361010d57565b604435906001600160401b038216820361010d57565b9181601f8401121561010d578235916001600160401b03831161010d576020838186019501011161010d57565b9081518082526020808093019301915f5b828110611ce5575050505090565b83516001600160a01b031685529381019392810192600101611cd7565b604081019081106001600160401b038211176118d357604052565b602081019081106001600160401b038211176118d357604052565b90601f801991011681019081106001600160401b038211176118d357604052565b9291926001600160401b0382116118d35760405191611d82601f8201601f191660200184611d38565b82948184528183011161010d578281602093845f960137010152565b9181601f8401121561010d578235916001600160401b03831161010d576020808501948460051b01011161010d57565b90808251908181526020809101926020808460051b8301019501935f915b848310611dfc5750505050505090565b9091929394958480611e1a600193601f198682030187528a51611c19565b9801930193019194939290611dec565b15611e3157565b60405162461bcd60e51b81526020600482015260116024820152700696e646578206d757374206265203e203607c1b6044820152606490fd5b15611e7157565b60405162461bcd60e51b8152602060048201526013602482015272696e646578206f7574206f6620626f756e647360681b6044820152606490fd5b90600182811c92168015611eda575b6020831014611ec657565b634e487b7160e01b5f52602260045260245ffd5b91607f1691611ebb565b80545f9392611ef282611eac565b918282526020936001916001811690815f14611f565750600114611f18575b5050505050565b90939495505f92919252835f2092845f945b838610611f4257505050500101905f80808080611f11565b805485870183015294019385908201611f2a565b60ff19168685015250505090151560051b010191505f80808080611f11565b6001600160401b03809116908114611f8d5760010190565b634e487b7160e01b5f52601160045260245ffd5b805490680100000000000000008210156118d35760018201808255821015611feb575f5260205f20019060018060a01b03166bffffffffffffffffffffffff60a01b825416179055565b634e487b7160e01b5f52603260045260245ffd5b908060209392818452848401375f828201840152601f01601f1916010190565b9190916001600160401b0380809416911601918211611f8d57565b8051821015611feb5760209160051b010190565b6001600160401b0381116118d35760051b60200190565b92916120708261204e565b9161207e6040519384611d38565b829481845260208094019160051b810192831161010d57905b8282106120a45750505050565b81356001600160a01b038116810361010d578152908301908301612097565b60ff166012039060ff8211611f8d57565b604d8111611f8d57600a0a90565b906013811015611feb5760051b0190565b811561210d57600160ff1b81145f19831416611f8d570590565b634e487b7160e01b5f52601260045260245ffd5b9296929593945f949291821561248c5761214361217b9161218a943691612065565b985f60405161215181611d1d565b527fc5d2460186f7233c927e7db2dcc703c0e500b653ca82273b7bfad8045d85a470973691611d59565b60208151910120923691611d59565b60208151910120935f9260405197610260808a018a81106001600160401b038211176118d3576040999397969952368a375f915b81518310156123c5575f8181525f805160206128d3833981519152602052604090209598956001600160a01b036121f5858561203a565b51165f526020526001600160401b0360405f205416986001965b8a6001600160401b038916116123b6575f8381525f805160206128b3833981519152602052604090206001600160a01b0361224a878761203a565b51165f5260205260405f206001600160401b0389165f5260205260405f209081549060ff92838360881c1661238357898914158a8a03612392575b612383578c891415908d8a0361235b575b5061234d576122b3836122ad818560801c166120c3565b166120d4565b925f600f84900b12600160ff1b851416611f8d5782600f0b8484600f0b0205841483600f0b151715611f8d576001600160401b038f61231290612306836122ff868960801c16846120e2565b5116611f75565b938660801c16906120e2565b911690525f81128015600f84900b850283810112908116901590911617611f8d576123469261033092600f0b020192611f75565b969061220f565b929890506123469150611f75565b600291506123739061035e6040518094819301611ee4565b602081519101208c14155f612296565b50929890506123469150611f75565b506040516123a78161035e8160018601611ee4565b602081519101208a1415612285565b995095506001909201916121be565b5050505050909391506001600160401b03811615612481575f9081805b60ff811660128111612447576001600160401b0361240082886120e2565b51166001600160401b03861610612427575b5060ff809116908114611f8d576001016123e2565b61243d9194506001600160401b039250856120e2565b511691805f612412565b5050936124669195935061247a92506001600160401b038616906120f3565b61247460ff6122ad866120c3565b906120f3565b600f0b9190565b5050505f905f905f90565b60405162461bcd60e51b815260206004820152601860248201527f636c69656e7441646472657373657320726571756972656400000000000000006044820152606490fd5b5f198114611f8d5760010190565b906124e98261204e565b6124f66040519182611d38565b8281528092612507601f199161204e565b01905f5b82811061251757505050565b80606060208093850101520161250b565b6001600160a01b03908116908115612581575f8051602061289383398151915280546001600160a01b031981168417909155167f8be0079c531659141344cd1fd0a4f28419497f9722a3daafe3b4186f6b6457e05f80a3565b604051631e4fbdf760e01b81525f6004820152602490fd5b9091929493945f9580155f146126c4575050805f5260207fa03d7693f2b3746b2d03f163c788147b71aa82854399a21fdf4de143ba7783038152604092835f2060018060a01b0380921690815f528352845f20906001600160401b0380971691825f528452855f209486518087878299549384815201905f52875f20925f5b898282106126ac5750505061262f92500387611d38565b5f995b86518b10156126a057612698600191835f527fa03d7693f2b3746b2d03f163c788147b71aa82854399a21fdf4de143ba7783028852895f20855f528852895f20865f5288528c876126868c5f20928c61203a565b51165f5288528a8a5f2054169061201f565b9a0199612632565b99505050505050505050565b85548a1684526001958601958c955093019201612618565b91935f939193945b8386106126db57505050505050565b909192939496815f526020907fa03d7693f2b3746b2d03f163c788147b71aa82854399a21fdf4de143ba7783028252604090815f209160018060a01b03928388165f528452805f20906001600160401b03918288165f528552805f208c60051b8b013594851680950361010d5760019561275c955f52525f2054169061201f565b970194939291906126cc565b5f80516020612893833981519152546001600160a01b0316330361278857565b60405163118cdaa760e01b8152336004820152602490fd5b60ff7ff0c57e16840df040f15088dc2f81fe391c3923bec73e23a9662efc9c229c6a005460401c16156127cf57565b604051631afcd79f60e31b8152600490fd5b905f8091602081519101845af4808061285f575b156128155750506040513d81523d5f602083013e60203d82010160405290565b1561283c57604051639996b31560e01b81526001600160a01b039091166004820152602490fd5b3d1561284d576040513d5f823e3d90fd5b60405163d6bda27560e01b8152600490fd5b503d1515806127f55750813b15156127f556fea03d7693f2b3746b2d03f163c788147b71aa82854399a21fdf4de143ba7783059016d09d72d40fdae2fd8ceac6b6234c7706214fd39c1cd1e609a0528c199300a03d7693f2b3746b2d03f163c788147b71aa82854399a21fdf4de143ba778300a03d7693f2b3746b2d03f163c788147b71aa82854399a21fdf4de143ba778301a26469706673582212205cf99d02b9d2109de1deb2816f3c822d9027f31e680a99c830fa0bd0f9f8aaf564736f6c63430008180033",
  "linkReferences": {},
  "deployedLinkReferences": {}
}