{
  "_format": "hh-sol-artifact-1",
  "contractName": "SingletonFactory",
  "sourceName": "contracts/SingletonFactory.sol",
  "abi": [
    {
      "inputs": [
        {
          "internalType": "bytes",
          "name": "_initCode",
          "type": "bytes"
        },
        {
          "internalType": "bytes32",
          "name": "_salt",
          "type": "bytes32"
        }
      ],
      "name": "deploy",
      "outputs": [
        {
          "internalType": "address payable",
          "name": "createdContract",
          "type": "address"
        }
      ],
      "stateMutability": "nonpayable",
      "type": "function"
    }
  ],
  "bytecode": "0x608080604052346100165761016c908161001b8239f35b5f80fdfe60806040526004361015610011575f80fd5b5f3560e01c634af63f0214610024575f80fd5b346100cf5760403660031901126100cf5767ffffffffffffffff6004358181116100cf57366023820112156100cf578060040135918083116100d35760405190601f8401601f19908116603f01168201908111828210176100d35760405282815236602484840101116100cf575f6020846100cb9560246100b196018386013783010152602435906100e7565b6040516001600160a01b0390911681529081906020820190565b0390f35b5f80fd5b634e487b7160e01b5f52604160045260245ffd5b6020815191015ff5906001600160a01b0382161561010157565b60405162461bcd60e51b815260206004820152600d60248201526c11195c1b1bde4819985a5b1959609a1b6044820152606490fdfea26469706673582212200a3bddc0fecde358db884742cd179a1dc103dbc3dc13d57921b1889a78d7825d64736f6c63430008180033",
  "linkReferences": {},
  "deployedLinkReferences": {}
}