{
  "_format": "hh-sol-artifact-1",
  "contractName": "ValidationRegistryUpgradeable",
  "sourceName": "contracts/ValidationRegistryUpgradeable.sol",
  "abi": [
    {
      "inputs": [],
      "stateMutability": "nonpayable",
      "type": "constructor"
    },
    {
      "inputs": [
        {
          "internalType": "address",
          "name": "target",
          "type": "address"
        }
      ],
      "name": "AddressEmptyCode",
      "type": "error"
    },
    {
      "inputs": [
        {
          "internalType": "address",
          "name": "implementation",
          "type": "address"
        }
      ],
      "name": "ERC1967InvalidImplementation",
      "type": "error"
    },
    {
      "inputs": [],
      "name": "ERC1967NonPayable",
      "type": "error"
    },
    {
      "inputs": [],
      "name": "FailedCall",
      "type": "error"
    },
    {
      "inputs": [],
      "name": "InvalidInitialization",
      "type": "error"
    },
    {
      "inputs": [],
      "name": "NotInitializing",
      "type": "error"
    },
    {
      "inputs": [
        {
          "internalType": "address",
          "name": "owner",
          "type": "address"
        }
      ],
      "name": "OwnableInvalidOwner",
      "type": "error"
    },
    {
      "inputs": [
        {
          "internalType": "address",
          "name": "account",
          "type": "address"
        }
      ],
      "name": "OwnableUnauthorizedAccount",
      "type": "error"
    },
    {
      "inputs": [],
      "name": "UUPSUnauthorizedCallContext",
      "type": "error"
    },
    {
      "inputs": [
        {
          "internalType": "bytes32",
          "name": "slot",
          "type": "bytes32"
        }
      ],
      "name": "UUPSUnsupportedProxiableUUID",
      "type": "error"
    },
    {
      "anonymous": false,
      "inputs": [
        {
          "indexed": false,
          "internalType": "uint64",
          "name": "version",
          "type": "uint64"
        }
      ],
      "name": "Initialized",
      "type": "event"
    },
    {
      "anonymous": false,
      "inputs": [
        {
          "indexed": true,
          "internalType": "address",
          "name": "previousOwner",
          "type": "address"
        },
        {
          "indexed": true,
          "internalType": "address",
          "name": "newOwner",
          "type": "address"
        }
      ],
      "name": "OwnershipTransferred",
      "type": "event"
    },
    {
      "anonymous": false,
      "inputs": [
        {
          "indexed": true,
          "internalType": "address",
          "name": "implementation",
          "type": "address"
        }
      ],
      "name": "Upgraded",
      "type": "event"
    },
    {
      "anonymous": false,
      "inputs": [
        {
          "indexed": true,
          "internalType": "address",
          "name": "validatorAddress",
          "type": "address"
        },
        {
          "indexed": true,
          "internalType": "uint256",
          "name": "agentId",
          "type": "uint256"
        },
        {
          "indexed": false,
          "internalType": "string",
          "name": "requestURI",
          "type": "string"
        },
        {
          "indexed": true,
          "internalType": "bytes32",
          "name": "requestHash",
          "type": "bytes32"
        }
      ],
      "name": "ValidationRequest",
      "type": "event"
    },
    {
      "anonymous": false,
      "inputs": [
        {
          "indexed": true,
          "internalType": "address",
          "name": "validatorAddress",
          "type": "address"
        },
        {
          "indexed": true,
          "internalType": "uint256",
          "name": "agentId",
          "type": "uint256"
        },
        {
          "indexed": true,
          "internalType": "bytes32",
          "name": "requestHash",
          "type": "bytes32"
        },
        {
          "indexed": false,
          "internalType": "uint8",
          "name": "response",
          "type": "uint8"
        },
        {
          "indexed": false,
          "internalType": "string",
          "name": "responseURI",
          "type": "string"
        },
        {
          "indexed": false,
          "internalType": "bytes32",
          "name": "responseHash",
          "type": "bytes32"
        },
        {
          "indexed": false,
          "internalType": "string",
          "name": "tag",
          "type": "string"
        }
      ],
      "name": "ValidationResponse",
      "type": "event"
    },
    {
      "inputs": [],
      "name": "UPGRADE_INTERFACE_VERSION",
      "outputs": [
        {
          "internalType": "string",
          "name": "",
          "type": "string"
        }
      ],
      "stateMutability": "view",
      "type": "function"
    },
    {
      "inputs": [
        {
          "internalType": "uint256",
          "name": "agentId",
          "type": "uint256"
        }
      ],
      "name": "getAgentValidations",
      "outputs": [
        {
          "internalType": "bytes32[]",
          "name": "",
          "type": "bytes32[]"
        }
      ],
      "stateMutability": "view",
      "type": "function"
    },
    {
      "inputs": [],
      "name": "getIdentityRegistry",
      "outputs": [
        {
          "internalType": "address",
          "name": "",
          "type": "address"
        }
      ],
      "stateMutability": "view",
      "type": "function"
    },
    {
      "inputs": [
        {
          "internalType": "uint256",
          "name": "agentId",
          "type": "uint256"
        },
        {
          "internalType": "address[]",
          "name": "validatorAddresses",
          "type": "address[]"
        },
        {
          "internalType": "string",
          "name": "tag",
          "type": "string"
        }
      ],
      "name": "getSummary",
      "outputs": [
        {
          "internalType": "uint64",
          "name": "count",
          "type": "uint64"
        },
        {
          "internalType": "uint8",
          "name": "avgResponse",
          "type": "uint8"
        }
      ],
      "stateMutability": "view",
      "type": "function"
    },
    {
      "inputs": [
        {
          "internalType": "bytes32",
          "name": "requestHash",
          "type": "bytes32"
        }
      ],
      "name": "getValidationStatus",
      "outputs": [
        {
          "internalType": "address",
          "name": "validatorAddress",
          "type": "address"
        },
        {
          "internalType": "uint256",
          "name": "agentId",
          "type": "uint256"
        },
        {
          "internalType": "uint8",
          "name": "response",
          "type": "uint8"
        },
        {
          "internalType": "bytes32",
          "name": "responseHash",
          "type": "bytes32"
        },
        {
          "internalType": "string",
          "name": "tag",
          "type": "string"
        },
        {
          "internalType": "uint256",
          "name": "lastUpdate",
          "type": "uint256"
        }
      ],
      "stateMutability": "view",
      "type": "function"
    },
    {
      "inputs": [
        {
          "internalType": "address",
          "name": "validatorAddress",
          "type": "address"
        }
      ],
      "name": "getValidatorRequests",
      "outputs": [
        {
          "internalType": "bytes32[]",
          "name": "",
          "type": "bytes32[]"
        }
      ],
      "stateMutability": "view",
      "type": "function"
    },
    {
      "inputs": [],
      "name": "getVersion",
      "outputs": [
        {
          "internalType": "string",
          "name": "",
          "type": "string"
        }
      ],
      "stateMutability": "pure",
      "type": "function"
    },
    {
      "inputs": [
        {
          "internalType": "address",
          "name": "identityRegistry_",
          "type": "address"
        },
        {
          "internalType": "address",
          "name": "reputationRegistry_",
          "type": "address"
        }
      ],
      "name": "initialize",
      "outputs": [],
      "stateMutability": "nonpayable",
      "type": "function"
    },
    {
      "inputs": [],
      "name": "owner",
      "outputs": [
        {
          "internalType": "address",
          "name": "",
          "type": "address"
        }
      ],
      "stateMutability": "view",
      "type": "function"
    },
    {
      "inputs": [],
      "name": "proxiableUUID",
      "outputs": [
        {
          "internalType": "bytes32",
          "name": "",
          "type": "bytes32"
        }
      ],
      "stateMutability": "view",
      "type": "function"
    },
    {
      "inputs": [],
      "name": "renounceOwnership",
      "outputs": [],
      "stateMutability": "nonpayable",
      "type": "function"
    },
    {
      "inputs": [
        {
          "internalType": "address",
          "name": "newOwner",
          "type": "address"
        }
      ],
      "name": "transferOwnership",
      "outputs": [],
      "stateMutability": "nonpayable",
      "type": "function"
    },
    {
      "inputs": [
        {
          "internalType": "address",
          "name": "newImplementation",
          "type": "address"
        },
        {
          "internalType": "bytes",
          "name": "data",
          "type": "bytes"
        }
      ],
      "name": "upgradeToAndCall",
      "outputs": [],
      "stateMutability": "payable",
      "type": "function"
    },
    {
      "inputs": [
        {
          "internalType": "address",
          "name": "validatorAddress",
          "type": "address"
        },
        {
          "internalType": "uint256",
          "name": "agentId",
          "type": "uint256"
        },
        {
          "internalType": "string",
          "name": "requestURI",
          "type": "string"
        },
        {
          "internalType": "bytes32",
          "name": "requestHash",
          "type": "bytes32"
        }
      ],
      "name": "validationRequest",
      "outputs": [],
      "stateMutability": "nonpayable",
      "type": "function"
    },
    {
      "inputs": [
        {
          "internalType": "bytes32",
          "name": "requestHash",
          "type": "bytes32"
        },
        {
          "internalType": "uint8",
          "name": "response",
          "type": "uint8"
        },
        {
          "internalType": "string",
          "name": "responseURI",
          "type": "string"
        },
        {
          "internalType": "bytes32",
          "name": "responseHash",
          "type": "bytes32"
        },
        {
          "internalType": "string",
          "name": "tag",
          "type": "string"
        }
      ],
      "name": "validationResponse",
      "outputs": [],
      "stateMutability": "nonpayable",
      "type": "function"
    }
  ],
  "bytecode": "0x60a080604052346100cc57306080527ff0c57e16840df040f15088dc2f81fe391c3923bec73e23a9662efc9c229c6a009081549060ff8260401c166100bd57506001600160401b036002600160401b031982821601610078575b6040516117da90816100d182396080518181816108b101526109690152f35b6001600160401b031990911681179091556040519081527fc7f505b2f371ae2175ee4913f4499e1f2633a7b5936321eed1cdaeb6115181d290602090a15f8080610059565b63f92ee8a960e01b8152600490fd5b5f80fdfe6080806040526004361015610012575f80fd5b5f3560e01c9081630d8e6e2c14611263575080631b7cabd6146110065780633d659a9614610d82578063485cc95514610ba35780634bf3158c14610b065780634f1ef2861461091b57806352d1902d1461089f578063715018a6146108385780638d5d0c2d146107a55780638da5cb5b14610771578063aaf400c41461025f578063ad3cb1cc14610216578063bc4d861b146101ef578063f2fde38b146101c45763ff2febfc146100c1575f80fd5b346101c05760203660031901126101c0576004355f525f8051602061178583398151915260205260405f20604051906100f98261135e565b60018060a01b038082541683526101b66001830154926020850193845260ff600282015416946040810195865260ff60038301549460608301958652604051926101518461014a816004890161145b565b0385611394565b6080810193845282600660058701549660a08401978852015416151560c08201526101808282511615156114ec565b5116955196511693519051915193604051968796875260208701526040860152606085015260c0608085015260c08401906112a2565b9060a08301520390f35b5f80fd5b346101c05760203660031901126101c0576101ed6101e061130d565b6101e861165a565b6115e9565b005b346101c0575f3660031901126101c0575f546040516001600160a01b039091168152602090f35b346101c0575f3660031901126101c05761025b60405161023581611379565b60058152640352e302e360dc1b60208201526040519182916020835260208301906112a2565b0390f35b346101c05760803660031901126101c05761027861130d565b6044356001600160401b0381116101c0576102979036906004016112e0565b9091906001600160a01b0382161561073c576064355f9081525f8051602061178583398151915260205260409020546001600160a01b031661070e5760018060a01b035f54166040516331a9108f60e11b81526024356004820152602081602481855afa90811561066e575f916106ef575b5060018060a01b031690813314918215610679575b5081156105fe575b50156105c8576040516103388161135e565b60018060a01b03831681526020810160243581525f6040830152606082015f8152604051908160208101106001600160401b036020840111176105b457602082016040525f8252608084019182524260a08501525f60c08501526064355f525f8051602061178583398151915260205260405f209260018060a01b038551166bffffffffffffffffffffffff60a01b8554161784555160018401556002830160ff60408601511660ff19825416179055516003830155518051906001600160401b0382116105b45761041a826104116004860154611423565b60048601611522565b602090601f8311600114610543578260069360c0959361044f935f92610538575b50508160011b915f199060031b1c19161790565b60048201555b60a0840151600582015501910151151560ff801983541691161790556024355f527f21543a2dd0df813994fbf82c69c61d1aafcdce183d68d2ef40068bdce14811016020526104a960643560405f206115b0565b6001600160a01b0382165f9081527f21543a2dd0df813994fbf82c69c61d1aafcdce183d68d2ef40068bdce1481102602052604090206104ec90606435906115b0565b7f530436c3634a98e1e626b0898be2f1e9980cc1bd2a78c07a0aba52d0a48a50596040516020815280610533606435966024359660018060a01b0316956020840191611571565b0390a4005b015190508a8061043b565b90600484015f5260205f20915f5b601f198516811061059c57509260c0949260019260069583601f19811610610584575b505050811b016004820155610455565b01515f1960f88460031b161c19169055898080610574565b91926020600181928685015181550194019201610551565b634e487b7160e01b5f52604160045260245ffd5b60405162461bcd60e51b815260206004820152600e60248201526d139bdd08185d5d1a1bdc9a5e995960921b6044820152606490fd5b602491506020906040519283809263020604bf60e21b8252823560048301525afa90811561066e575f9161063f575b506001600160a01b0316331484610326565b610661915060203d602011610667575b6106598183611394565b810190611591565b8461062d565b503d61064f565b6040513d5f823e3d90fd5b9091506040519063e985e9c560e01b82526004820152336024820152602081604481855afa90811561066e575f916106b4575b50908561031e565b90506020813d6020116106e7575b816106cf60209383611394565b810103126101c0575180151581036101c057856106ac565b3d91506106c2565b610708915060203d602011610667576106598183611394565b85610309565b60405162461bcd60e51b815260206004820152600660248201526565786973747360d01b6044820152606490fd5b60405162461bcd60e51b815260206004820152600d60248201526c3130b2103b30b634b230ba37b960991b6044820152606490fd5b346101c0575f3660031901126101c0575f80516020611765833981519152546040516001600160a01b039091168152602090f35b346101c0576020806003193601126101c0576004355f527f21543a2dd0df813994fbf82c69c61d1aafcdce183d68d2ef40068bdce148110160205260405f20906040519081602084549182815201935f5260205f20915f905b8282106108215761025b8561081581890382611394565b60405191829182611323565b8354865294850194600193840193909101906107fe565b346101c0575f3660031901126101c05761085061165a565b5f8051602061176583398151915280546001600160a01b031981169091555f906001600160a01b03167f8be0079c531659141344cd1fd0a4f28419497f9722a3daafe3b4186f6b6457e08280a3005b346101c0575f3660031901126101c0577f00000000000000000000000000000000000000000000000000000000000000006001600160a01b031630036109095760206040517f360894a13ba1a3210667c828492db98dca3e2076cc3735a920a3ca505d382bbc8152f35b60405163703e46dd60e11b8152600490fd5b60403660031901126101c05761092f61130d565b6024356001600160401b0381116101c057366023820112156101c05761095f9036906024816004013591016113b5565b6001600160a01b037f00000000000000000000000000000000000000000000000000000000000000008116308114908115610ad8575b50610909576109a261165a565b8216916040516352d1902d60e01b8152602081600481875afa5f9181610aa4575b506109e157604051634c9c8ce360e01b815260048101859052602490fd5b7f360894a13ba1a3210667c828492db98dca3e2076cc3735a920a3ca505d382bbc90818103610a8c5750813b15610a735780546001600160a01b03191684179055604051927fbc7cd75a20ee27fd9adebab32041f755214dbc6bffa90cc0225b39da2e5c2d3b5f80a2815115610a5b576101ed92506116d3565b505034610a6457005b63b398979f60e01b8152600490fd5b604051634c9c8ce360e01b815260048101859052602490fd5b60249060405190632a87526960e21b82526004820152fd5b9091506020813d602011610ad0575b81610ac060209383611394565b810103126101c0575190856109c3565b3d9150610ab3565b9050817f360894a13ba1a3210667c828492db98dca3e2076cc3735a920a3ca505d382bbc5416141584610995565b346101c0576020806003193601126101c057610b5b610b2361130d565b6001600160a01b03165f9081527f21543a2dd0df813994fbf82c69c61d1aafcdce183d68d2ef40068bdce14811026020526040902090565b906040519081602084549182815201935f5260205f20915f905b828210610b8c5761025b8561081581890382611394565b835486529485019460019384019390910190610b75565b346101c05760403660031901126101c057610bbc61130d565b6001600160a01b0390602435828116908190036101c0577ff0c57e16840df040f15088dc2f81fe391c3923bec73e23a9662efc9c229c6a009283549260ff8460401c1615936001600160401b03811680159081610d7a575b6001149081610d70575b159081610d67575b50610d555767ffffffffffffffff198116600117865584610d36575b50610c4b611692565b610c53611692565b610c5c336115e9565b168015610d02578115610ccc576bffffffffffffffffffffffff60a01b90815f5416175f556001541617600155610c8f57005b68ff00000000000000001981541690557fc7f505b2f371ae2175ee4913f4499e1f2633a7b5936321eed1cdaeb6115181d2602060405160018152a1005b60405162461bcd60e51b815260206004820152600e60248201526d3130b2103932b83aba30ba34b7b760911b6044820152606490fd5b60405162461bcd60e51b815260206004820152600c60248201526b626164206964656e7469747960a01b6044820152606490fd5b68ffffffffffffffffff19166801000000000000000117855585610c42565b60405163f92ee8a960e01b8152600490fd5b90501587610c26565b303b159150610c1e565b869150610c14565b346101c05760a03660031901126101c05760043560243560ff81168091036101c0576001600160401b036044358181116101c057610dc49036906004016112e0565b926064356084358481116101c057610de09036906004016112e0565b90875f526020945f80516020611785833981519152865260405f209660018060a01b039081895416610e138115156114ec565b3303610fd15760648711610fa157600289019060ff199188838254161790558660038b015560048a019086116105b45780610e5987610e538d9454611423565b83611522565b5f601f8811600114610f095793610eeb93600160068a989582957fafddf629e874ccc3963b6a888c477bd464a6c8525024fc88759ea3b2326349ae9f9e9d9b998b6105339e610ebc925f91610efe575b508160011b915f199060031b1c19161790565b90555b42600582015501918254161790558b54169a01549a6080604051998a998a528901526080880191611571565b9260408601528483036060860152611571565b90508c01355f610ea9565b601f19881690825f528b5f20915f5b818110610f87575060068a98956001957fafddf629e874ccc3963b6a888c477bd464a6c8525024fc88759ea3b2326349ae9f9e9d9b9995610eeb99956105339e899610610f6e575b5050838b811b019055610ebf565b8b01355f1960038e901b60f8161c191690555f80610f60565b8983013584558e9550600190930192918d01918d01610f18565b60405162461bcd60e51b81526004810189905260086024820152670726573703e3130360c41b6044820152606490fd5b60405162461bcd60e51b815260048101899052600d60248201526c3737ba103b30b634b230ba37b960991b6044820152606490fd5b346101c05760603660031901126101c0576001600160401b03602435116101c0573660236024350112156101c0576001600160401b0360243560040135116101c05736602480356004013560051b81350101116101c0576044356001600160401b0381116101c05761107c9036906004016112e0565b905f80916004355f527f21543a2dd0df813994fbf82c69c61d1aafcdce183d68d2ef40068bdce148110160205260405f20935f948054955b86811061110957856001600160401b0386168015806110fc576110e85760ff808260409404165b8351928352166020820152f35b634e487b7160e01b5f52601260045260245ffd5b506040915060ff5f6110db565b61111381836113fa565b90549060031b1c5f525f8051602061178583398151915260205260405f20602435600401351560243560040135611208575b841580156111cd575b816111c5575b50806111b7575b611169575b506001016110b4565b600260ff919792969701541681018091116111a3576001600160401b039095166001600160401b0381146111a35760018091019490611160565b634e487b7160e01b5f52601160045260245ffd5b5060ff60068201541661115b565b905089611154565b506040516111e9816111e2816004870161145b565b0382611394565b602081519101206111fb3687896113b5565b602081519101201461114e565b81546001600160a01b03165f5b60243560040135811061122a575b5050611145565b6001600160a01b0360248035600584901b010135908116908190036101c057821461125757600101611215565b50505060018980611223565b346101c0575f3660031901126101c0578061128061025b92611379565b60058152640322e302e360dc1b60208201526040519182916020835260208301905b91908251928382525f5b8481106112cc575050825f602080949584010152601f8019910116010190565b6020818301810151848301820152016112ac565b9181601f840112156101c0578235916001600160401b0383116101c057602083818601950101116101c057565b600435906001600160a01b03821682036101c057565b60209060206040818301928281528551809452019301915f5b82811061134a575050505090565b83518552938101939281019260010161133c565b60e081019081106001600160401b038211176105b457604052565b604081019081106001600160401b038211176105b457604052565b90601f801991011681019081106001600160401b038211176105b457604052565b9291926001600160401b0382116105b457604051916113de601f8201601f191660200184611394565b8294818452818301116101c0578281602093845f960137010152565b805482101561140f575f5260205f2001905f90565b634e487b7160e01b5f52603260045260245ffd5b90600182811c92168015611451575b602083101461143d57565b634e487b7160e01b5f52602260045260245ffd5b91607f1691611432565b80545f939261146982611423565b918282526020936001916001811690815f146114cd575060011461148f575b5050505050565b90939495505f92919252835f2092845f945b8386106114b957505050500101905f80808080611488565b8054858701830152940193859082016114a1565b60ff19168685015250505090151560051b010191505f80808080611488565b156114f357565b60405162461bcd60e51b81526020600482015260076024820152663ab735b737bbb760c91b6044820152606490fd5b601f821161152f57505050565b5f5260205f20906020601f840160051c83019310611567575b601f0160051c01905b81811061155c575050565b5f8155600101611551565b9091508190611548565b908060209392818452848401375f828201840152601f01601f1916010190565b908160209103126101c057516001600160a01b03811681036101c05790565b8054680100000000000000008110156105b4576115d2916001820181556113fa565b819291549060031b91821b915f19901b1916179055565b6001600160a01b03908116908115611642575f8051602061176583398151915280546001600160a01b031981168417909155167f8be0079c531659141344cd1fd0a4f28419497f9722a3daafe3b4186f6b6457e05f80a3565b604051631e4fbdf760e01b81525f6004820152602490fd5b5f80516020611765833981519152546001600160a01b0316330361167a57565b60405163118cdaa760e01b8152336004820152602490fd5b60ff7ff0c57e16840df040f15088dc2f81fe391c3923bec73e23a9662efc9c229c6a005460401c16156116c157565b604051631afcd79f60e31b8152600490fd5b905f8091602081519101845af48080611751575b156117075750506040513d81523d5f602083013e60203d82010160405290565b1561172e57604051639996b31560e01b81526001600160a01b039091166004820152602490fd5b3d1561173f576040513d5f823e3d90fd5b60405163d6bda27560e01b8152600490fd5b503d1515806116e75750813b15156116e756fe9016d09d72d40fdae2fd8ceac6b6234c7706214fd39c1cd1e609a0528c19930021543a2dd0df813994fbf82c69c61d1aafcdce183d68d2ef40068bdce1481100a264697066735822122046d213dad1aeca4ecb62200bb3859ab517690eff8f7593414f6352515b01abf964736f6c63430008180033",
  "linkReferences": {},
  "deployedLinkReferences": {}
}