{"abi":[{"type":"constructor","inputs":[{"name":"_timelock","type":"address","internalType":"contract TimelockController"}],"stateMutability":"nonpayable"},{"type":"function","name":"AGENT_MANAGER_ROLE","inputs":[],"outputs":[{"name":"","type":"bytes32","internalType":"bytes32"}],"stateMutability":"view"},{"type":"function","name":"AI_VOTE_WEIGHT","inputs":[],"outputs":[{"name":"","type":"uint256","internalType":"uint256"}],"stateMutability":"view"},{"type":"function","name":"BASIS_POINTS","inputs":[],"outputs":[{"name":"","type":"uint256","internalType":"uint256"}],"stateMutability":"view"},{"type":"function","name":"DEFAULT_ADMIN_ROLE","inputs":[],"outputs":[{"name":"","type":"bytes32","internalType":"bytes32"}],"stateMutability":"view"},{"type":"function","name":"GOVERNANCE_ROLE","inputs":[],"outputs":[{"name":"","type":"bytes32","internalType":"bytes32"}],"stateMutability":"view"},{"type":"function","name":"MAX_KNOWLEDGE_LEVEL","inputs":[],"outputs":[{"name":"","type":"uint32","internalType":"uint32"}],"stateMutability":"view"},{"type":"function","name":"PROPOSER_ROLE","inputs":[],"outputs":[{"name":"","type":"bytes32","internalType":"bytes32"}],"stateMutability":"view"},{"type":"function","name":"QUORUM_THRESHOLD","inputs":[],"outputs":[{"name":"","type":"uint256","internalType":"uint256"}],"stateMutability":"view"},{"type":"function","name":"VOTING_PERIOD","inputs":[],"outputs":[{"name":"","type":"uint256","internalType":"uint256"}],"stateMutability":"view"},{"type":"function","name":"agentIdToProposalCount","inputs":[{"name":"","type":"bytes32","internalType":"bytes32"}],"outputs":[{"name":"","type":"uint256","internalType":"uint256"}],"stateMutability":"view"},{"type":"function","name":"agentTimeout","inputs":[],"outputs":[{"name":"","type":"uint256","internalType":"uint256"}],"stateMutability":"view"},{"type":"function","name":"agentVote","inputs":[{"name":"proposalId","type":"uint256","internalType":"uint256"},{"name":"support","type":"bool","internalType":"bool"}],"outputs":[],"stateMutability":"nonpayable"},{"type":"function","name":"agents","inputs":[{"name":"","type":"address","internalType":"address"}],"outputs":[{"name":"agentId","type":"bytes32","internalType":"bytes32"},{"name":"knowledgeLevel","type":"uint32","internalType":"uint32"},{"name":"domain","type":"uint8","internalType":"enum KnowledgeHierarchyDAIO.Domain"},{"name":"active","type":"bool","internalType":"bool"},{"name":"registeredAt","type":"uint40","internalType":"uint40"},{"name":"lastActiveTime","type":"uint40","internalType":"uint40"},{"name":"proposalCount","type":"uint256","internalType":"uint256"},{"name":"voteCount","type":"uint256","internalType":"uint256"}],"stateMutability":"view"},{"type":"function","name":"agentsByDomain","inputs":[{"name":"","type":"uint8","internalType":"enum KnowledgeHierarchyDAIO.Domain"},{"name":"","type":"uint256","internalType":"uint256"}],"outputs":[{"name":"","type":"address","internalType":"address"}],"stateMutability":"view"},{"type":"function","name":"aggregateVotes","inputs":[{"name":"proposalId","type":"uint256","internalType":"uint256"}],"outputs":[{"name":"passed","type":"bool","internalType":"bool"}],"stateMutability":"view"},{"type":"function","name":"cancelProposal","inputs":[{"name":"proposalId","type":"uint256","internalType":"uint256"}],"outputs":[],"stateMutability":"nonpayable"},{"type":"function","name":"createProposal","inputs":[{"name":"description","type":"string","internalType":"string"},{"name":"targets","type":"address[]","internalType":"address[]"},{"name":"values","type":"uint256[]","internalType":"uint256[]"},{"name":"calldatas","type":"bytes[]","internalType":"bytes[]"}],"outputs":[{"name":"proposalId","type":"uint256","internalType":"uint256"}],"stateMutability":"nonpayable"},{"type":"function","name":"deactivateInactiveAgents","inputs":[{"name":"batchSize","type":"uint256","internalType":"uint256"}],"outputs":[],"stateMutability":"nonpayable"},{"type":"function","name":"executeProposal","inputs":[{"name":"proposalId","type":"uint256","internalType":"uint256"}],"outputs":[],"stateMutability":"nonpayable"},{"type":"function","name":"finalizeProposal","inputs":[{"name":"proposalId","type":"uint256","internalType":"uint256"}],"outputs":[],"stateMutability":"nonpayable"},{"type":"function","name":"getAgent","inputs":[{"name":"agentAddress","type":"address","internalType":"address"}],"outputs":[{"name":"agent","type":"tuple","internalType":"struct KnowledgeHierarchyDAIO.Agent","components":[{"name":"agentId","type":"bytes32","internalType":"bytes32"},{"name":"knowledgeLevel","type":"uint32","internalType":"uint32"},{"name":"domain","type":"uint8","internalType":"enum KnowledgeHierarchyDAIO.Domain"},{"name":"active","type":"bool","internalType":"bool"},{"name":"registeredAt","type":"uint40","internalType":"uint40"},{"name":"lastActiveTime","type":"uint40","internalType":"uint40"},{"name":"proposalCount","type":"uint256","internalType":"uint256"},{"name":"voteCount","type":"uint256","internalType":"uint256"}]}],"stateMutability":"view"},{"type":"function","name":"getAgentCount","inputs":[],"outputs":[{"name":"count","type":"uint256","internalType":"uint256"}],"stateMutability":"view"},{"type":"function","name":"getAgentsByDomain","inputs":[{"name":"domain","type":"uint8","internalType":"enum KnowledgeHierarchyDAIO.Domain"}],"outputs":[{"name":"","type":"address[]","internalType":"address[]"}],"stateMutability":"view"},{"type":"function","name":"getProposal","inputs":[{"name":"proposalId","type":"uint256","internalType":"uint256"}],"outputs":[{"name":"proposal","type":"tuple","internalType":"struct KnowledgeHierarchyDAIO.Proposal","components":[{"name":"id","type":"uint256","internalType":"uint256"},{"name":"proposer","type":"address","internalType":"address"},{"name":"description","type":"string","internalType":"string"},{"name":"actionHash","type":"bytes32","internalType":"bytes32"},{"name":"targets","type":"address[]","internalType":"address[]"},{"name":"values","type":"uint256[]","internalType":"uint256[]"},{"name":"calldatas","type":"bytes[]","internalType":"bytes[]"},{"name":"startTime","type":"uint40","internalType":"uint40"},{"name":"endTime","type":"uint40","internalType":"uint40"},{"name":"voteCountDev","type":"uint256","internalType":"uint256"},{"name":"voteCountMarketing","type":"uint256","internalType":"uint256"},{"name":"voteCountCommunity","type":"uint256","internalType":"uint256"},{"name":"voteCountAI","type":"uint256","internalType":"uint256"},{"name":"status","type":"uint8","internalType":"enum KnowledgeHierarchyDAIO.ProposalStatus"},{"name":"executed","type":"bool","internalType":"bool"}]}],"stateMutability":"view"},{"type":"function","name":"getRoleAdmin","inputs":[{"name":"role","type":"bytes32","internalType":"bytes32"}],"outputs":[{"name":"","type":"bytes32","internalType":"bytes32"}],"stateMutability":"view"},{"type":"function","name":"getVoteCounts","inputs":[{"name":"proposalId","type":"uint256","internalType":"uint256"}],"outputs":[{"name":"dev","type":"uint256","internalType":"uint256"},{"name":"marketing","type":"uint256","internalType":"uint256"},{"name":"community","type":"uint256","internalType":"uint256"},{"name":"ai","type":"uint256","internalType":"uint256"}],"stateMutability":"view"},{"type":"function","name":"grantRole","inputs":[{"name":"role","type":"bytes32","internalType":"bytes32"},{"name":"account","type":"address","internalType":"address"}],"outputs":[],"stateMutability":"nonpayable"},{"type":"function","name":"hasRole","inputs":[{"name":"role","type":"bytes32","internalType":"bytes32"},{"name":"account","type":"address","internalType":"address"}],"outputs":[{"name":"","type":"bool","internalType":"bool"}],"stateMutability":"view"},{"type":"function","name":"hasVoted","inputs":[{"name":"","type":"uint256","internalType":"uint256"},{"name":"","type":"address","internalType":"address"}],"outputs":[{"name":"","type":"bool","internalType":"bool"}],"stateMutability":"view"},{"type":"function","name":"pause","inputs":[],"outputs":[],"stateMutability":"nonpayable"},{"type":"function","name":"paused","inputs":[],"outputs":[{"name":"","type":"bool","internalType":"bool"}],"stateMutability":"view"},{"type":"function","name":"proposalCount","inputs":[],"outputs":[{"name":"","type":"uint256","internalType":"uint256"}],"stateMutability":"view"},{"type":"function","name":"proposals","inputs":[{"name":"","type":"uint256","internalType":"uint256"}],"outputs":[{"name":"id","type":"uint256","internalType":"uint256"},{"name":"proposer","type":"address","internalType":"address"},{"name":"description","type":"string","internalType":"string"},{"name":"actionHash","type":"bytes32","internalType":"bytes32"},{"name":"startTime","type":"uint40","internalType":"uint40"},{"name":"endTime","type":"uint40","internalType":"uint40"},{"name":"voteCountDev","type":"uint256","internalType":"uint256"},{"name":"voteCountMarketing","type":"uint256","internalType":"uint256"},{"name":"voteCountCommunity","type":"uint256","internalType":"uint256"},{"name":"voteCountAI","type":"uint256","internalType":"uint256"},{"name":"status","type":"uint8","internalType":"enum KnowledgeHierarchyDAIO.ProposalStatus"},{"name":"executed","type":"bool","internalType":"bool"}],"stateMutability":"view"},{"type":"function","name":"queueProposal","inputs":[{"name":"proposalId","type":"uint256","internalType":"uint256"}],"outputs":[],"stateMutability":"nonpayable"},{"type":"function","name":"registerAgent","inputs":[{"name":"agentAddress","type":"address","internalType":"address"},{"name":"knowledgeLevel","type":"uint32","internalType":"uint32"},{"name":"domain","type":"uint8","internalType":"enum KnowledgeHierarchyDAIO.Domain"}],"outputs":[{"name":"agentId","type":"bytes32","internalType":"bytes32"}],"stateMutability":"nonpayable"},{"type":"function","name":"registeredAgents","inputs":[{"name":"","type":"uint256","internalType":"uint256"}],"outputs":[{"name":"","type":"address","internalType":"address"}],"stateMutability":"view"},{"type":"function","name":"renounceRole","inputs":[{"name":"role","type":"bytes32","internalType":"bytes32"},{"name":"callerConfirmation","type":"address","internalType":"address"}],"outputs":[],"stateMutability":"nonpayable"},{"type":"function","name":"revokeRole","inputs":[{"name":"role","type":"bytes32","internalType":"bytes32"},{"name":"account","type":"address","internalType":"address"}],"outputs":[],"stateMutability":"nonpayable"},{"type":"function","name":"setAgentTimeout","inputs":[{"name":"newTimeout","type":"uint256","internalType":"uint256"}],"outputs":[],"stateMutability":"nonpayable"},{"type":"function","name":"supportsInterface","inputs":[{"name":"interfaceId","type":"bytes4","internalType":"bytes4"}],"outputs":[{"name":"","type":"bool","internalType":"bool"}],"stateMutability":"view"},{"type":"function","name":"timelock","inputs":[],"outputs":[{"name":"","type":"address","internalType":"contract TimelockController"}],"stateMutability":"view"},{"type":"function","name":"totalAgentVotes","inputs":[],"outputs":[{"name":"","type":"uint256","internalType":"uint256"}],"stateMutability":"view"},{"type":"function","name":"unpause","inputs":[],"outputs":[],"stateMutability":"nonpayable"},{"type":"function","name":"updateAgent","inputs":[{"name":"agentAddress","type":"address","internalType":"address"},{"name":"knowledgeLevel","type":"uint32","internalType":"uint32"},{"name":"domain","type":"uint8","internalType":"enum KnowledgeHierarchyDAIO.Domain"},{"name":"active","type":"bool","internalType":"bool"}],"outputs":[],"stateMutability":"nonpayable"},{"type":"function","name":"voteOnProposal","inputs":[{"name":"proposalId","type":"uint256","internalType":"uint256"},{"name":"subComponent","type":"uint8","internalType":"enum KnowledgeHierarchyDAIO.SubComponent"},{"name":"support","type":"bool","internalType":"bool"},{"name":"votingPower","type":"uint256","internalType":"uint256"}],"outputs":[],"stateMutability":"nonpayable"},{"type":"function","name":"voterPower","inputs":[{"name":"","type":"uint256","internalType":"uint256"},{"name":"","type":"address","internalType":"address"}],"outputs":[{"name":"power","type":"uint256","internalType":"uint256"},{"name":"subComponent","type":"uint8","internalType":"enum KnowledgeHierarchyDAIO.SubComponent"},{"name":"hasVoted","type":"bool","internalType":"bool"}],"stateMutability":"view"},{"type":"event","name":"AIVoteAggregated","inputs":[{"name":"proposalId","type":"uint256","indexed":true,"internalType":"uint256"},{"name":"totalAIVotes","type":"uint256","indexed":false,"internalType":"uint256"}],"anonymous":false},{"type":"event","name":"AIVoteCast","inputs":[{"name":"proposalId","type":"uint256","indexed":true,"internalType":"uint256"},{"name":"agent","type":"address","indexed":true,"internalType":"address"},{"name":"support","type":"bool","indexed":false,"internalType":"bool"},{"name":"knowledgeWeight","type":"uint32","indexed":false,"internalType":"uint32"}],"anonymous":false},{"type":"event","name":"AgentDeactivated","inputs":[{"name":"agentAddress","type":"address","indexed":true,"internalType":"address"},{"name":"timestamp","type":"uint40","indexed":false,"internalType":"uint40"}],"anonymous":false},{"type":"event","name":"AgentRegistered","inputs":[{"name":"agentAddress","type":"address","indexed":true,"internalType":"address"},{"name":"agentId","type":"bytes32","indexed":true,"internalType":"bytes32"},{"name":"knowledgeLevel","type":"uint32","indexed":false,"internalType":"uint32"},{"name":"domain","type":"uint8","indexed":false,"internalType":"enum KnowledgeHierarchyDAIO.Domain"}],"anonymous":false},{"type":"event","name":"AgentUpdated","inputs":[{"name":"agentAddress","type":"address","indexed":true,"internalType":"address"},{"name":"knowledgeLevel","type":"uint32","indexed":false,"internalType":"uint32"},{"name":"domain","type":"uint8","indexed":false,"internalType":"enum KnowledgeHierarchyDAIO.Domain"},{"name":"active","type":"bool","indexed":false,"internalType":"bool"}],"anonymous":false},{"type":"event","name":"Paused","inputs":[{"name":"account","type":"address","indexed":false,"internalType":"address"}],"anonymous":false},{"type":"event","name":"ProposalCancelled","inputs":[{"name":"proposalId","type":"uint256","indexed":true,"internalType":"uint256"}],"anonymous":false},{"type":"event","name":"ProposalCreated","inputs":[{"name":"proposalId","type":"uint256","indexed":true,"internalType":"uint256"},{"name":"proposer","type":"address","indexed":true,"internalType":"address"},{"name":"description","type":"string","indexed":false,"internalType":"string"}],"anonymous":false},{"type":"event","name":"ProposalExecuted","inputs":[{"name":"proposalId","type":"uint256","indexed":true,"internalType":"uint256"},{"name":"timestamp","type":"uint40","indexed":false,"internalType":"uint40"}],"anonymous":false},{"type":"event","name":"ProposalQueued","inputs":[{"name":"proposalId","type":"uint256","indexed":true,"internalType":"uint256"},{"name":"eta","type":"uint40","indexed":false,"internalType":"uint40"}],"anonymous":false},{"type":"event","name":"RoleAdminChanged","inputs":[{"name":"role","type":"bytes32","indexed":true,"internalType":"bytes32"},{"name":"previousAdminRole","type":"bytes32","indexed":true,"internalType":"bytes32"},{"name":"newAdminRole","type":"bytes32","indexed":true,"internalType":"bytes32"}],"anonymous":false},{"type":"event","name":"RoleGranted","inputs":[{"name":"role","type":"bytes32","indexed":true,"internalType":"bytes32"},{"name":"account","type":"address","indexed":true,"internalType":"address"},{"name":"sender","type":"address","indexed":true,"internalType":"address"}],"anonymous":false},{"type":"event","name":"RoleRevoked","inputs":[{"name":"role","type":"bytes32","indexed":true,"internalType":"bytes32"},{"name":"account","type":"address","indexed":true,"internalType":"address"},{"name":"sender","type":"address","indexed":true,"internalType":"address"}],"anonymous":false},{"type":"event","name":"Unpaused","inputs":[{"name":"account","type":"address","indexed":false,"internalType":"address"}],"anonymous":false},{"type":"event","name":"VoteCast","inputs":[{"name":"proposalId","type":"uint256","indexed":true,"internalType":"uint256"},{"name":"voter","type":"address","indexed":true,"internalType":"address"},{"name":"subComponent","type":"uint8","indexed":false,"internalType":"enum KnowledgeHierarchyDAIO.SubComponent"},{"name":"support","type":"bool","indexed":false,"internalType":"bool"},{"name":"weight","type":"uint256","indexed":false,"internalType":"uint256"}],"anonymous":false},{"type":"error","name":"AccessControlBadConfirmation","inputs":[]},{"type":"error","name":"AccessControlUnauthorizedAccount","inputs":[{"name":"account","type":"address","internalType":"address"},{"name":"neededRole","type":"bytes32","internalType":"bytes32"}]},{"type":"error","name":"AgentAlreadyRegistered","inputs":[]},{"type":"error","name":"AgentNotActive","inputs":[]},{"type":"error","name":"AlreadyVoted","inputs":[]},{"type":"error","name":"EnforcedPause","inputs":[]},{"type":"error","name":"ExpectedPause","inputs":[]},{"type":"error","name":"InsufficientKnowledgeLevel","inputs":[]},{"type":"error","name":"ProposalAlreadyExecuted","inputs":[]},{"type":"error","name":"ProposalNotActive","inputs":[]},{"type":"error","name":"QuorumNotReached","inputs":[]},{"type":"error","name":"ReentrancyGuardReentrantCall","inputs":[]},{"type":"error","name":"VotingEnded","inputs":[]},{"type":"error","name":"VotingNotEnded","inputs":[]}],"bytecode":{"object":"0x60806040526301e1338060045534801562000018575f80fd5b50604051620039f1380380620039f18339810160408190526200003b91620001c6565b60017f9b779b17422d0df92223018b32b4d1fa46e071723d6817e2486d003becc55f005560018054610100600160a81b0319166101006001600160a01b038416021790556200008b5f336200011a565b50620000b87f71840dc4906352362b0cdaf79870196c8e42acafade72d5d5a6d59291253ceb1336200011a565b50620000e57f1e2a6bac40bbfc8ee106bbe5b0bf6c3d1d0baa2e28130744599c48d67ff06f8f336200011a565b50620001127fb09aa5aeb3702cfd50b6b62bc4532604938f21248a27a1d5ca736082b6819cc1336200011a565b5050620001f5565b5f828152602081815260408083206001600160a01b038516845290915281205460ff16620001bd575f838152602081815260408083206001600160a01b03861684529091529020805460ff19166001179055620001743390565b6001600160a01b0316826001600160a01b0316847f2f8788117e7eff1d82e926ec794901d17c78024a50270940304540a733656f0d60405160405180910390a4506001620001c0565b505f5b92915050565b5f60208284031215620001d7575f80fd5b81516001600160a01b0381168114620001ee575f80fd5b9392505050565b6137ee80620002035f395ff3fe608060405234801561000f575f80fd5b5060043610610281575f3560e01c80638f61f4f511610156578063ba6152f2116100ca578063db28ab8d11610084578063db28ab8d14610657578063e0a8f6f51461066a578063e1f1c4a71461067d578063f36c8f5c14610686578063fb3551ff1461069a578063fd66091e146106ba575f80fd5b8063ba6152f2146105e7578063c259c70f146105fa578063c7f758a814610603578063d33219b414610623578063d547741f1461063b578063da35c6641461064e575f80fd5b806395cbfca01161011b57806395cbfca01461055b578063a1a6268714610564578063a217fddf14610577578063a241f0fd1461057e578063a7bd211c146105ca578063b1610d7e146105dd575f80fd5b80638f61f4f5146104f357806391cab63e1461051a57806391d14854146105225780639291b2211461053557806394a14a3414610548575f80fd5b80633f4ba83a116101f857806368b7c947116101b257806368b7c9471461042257806381ec83261461043557806383ea2365146104485780638456cb5914610473578063893db7581461047b5780638a241f4c1461049b575f80fd5b80633f4ba83a146103a957806343859632146103b15780635652077c146103de57806358145bf4146103f15780635c975abb1461040e5780635e510b6014610419575f80fd5b80630d61b519116102495780630d61b519146103265780630d971f931461033b578063185ebb2b1461034e578063248a9ca3146103615780632f2ff15d1461038357806336568abe14610396575f80fd5b8063013cf08b1461028557806301ffc9a7146102b95780630cfa3982146102dc5780630d160644146102f35780630d1c12f414610312575b5f80fd5b6102986102933660046129bb565b61073a565b6040516102b09c9b9a99989796959493929190612a3d565b60405180910390f35b6102cc6102c7366004612ac9565b610838565b60405190151581526020016102b0565b6102e560035481565b6040519081526020016102b0565b6102e56103013660046129bb565b60096020525f908152604090205481565b6102e55f8051602061375983398151915281565b6103396103343660046129bb565b61086e565b005b610339610349366004612b0b565b610a25565b61033961035c366004612b35565b610c73565b6102e561036f3660046129bb565b5f9081526020819052604090206001015490565b610339610391366004612b91565b610f88565b6103396103a4366004612b91565b610fac565b610339610fe4565b6102cc6103bf366004612b91565b600760209081525f928352604080842090915290825290205460ff1681565b6103396103ec3660046129bb565b611006565b6103f9606481565b60405163ffffffff90911681526020016102b0565b60015460ff166102cc565b6102e5611a0b81565b6102cc6104303660046129bb565b6110f6565b6102e5610443366004612bd3565b61118e565b61045b610456366004612c13565b6114d3565b6040516001600160a01b0390911681526020016102b0565b610339611507565b61048e610489366004612c3b565b611526565b6040516102b09190612c97565b6104d36104a93660046129bb565b5f90815260066020526040902060088101546009820154600a830154600b90930154919390929190565b6040805194855260208501939093529183015260608201526080016102b0565b6102e57fb09aa5aeb3702cfd50b6b62bc4532604938f21248a27a1d5ca736082b6819cc181565b600a546102e5565b6102cc610530366004612b91565b6115b9565b6103396105433660046129bb565b6115e1565b6103396105563660046129bb565b61172d565b6102e560045481565b6103396105723660046129bb565b6119d9565b6102e55f81565b6105bb61058c366004612b91565b600860209081525f92835260408084209091529082529020805460019091015460ff8082169161010090041683565b6040516102b093929190612cb9565b61045b6105d83660046129bb565b6119f6565b6102e562093a8081565b6102e56105f5366004612ef7565b611a1e565b6102e5610d0581565b6106166106113660046129bb565b611d58565b6040516102b0919061303a565b60015461045b9061010090046001600160a01b031681565b610339610649366004612b91565b612055565b6102e560025481565b610339610665366004613171565b612079565b6103396106783660046129bb565b612253565b6102e561271081565b6102e55f8051602061377983398151915281565b6106ad6106a83660046131c2565b612479565b6040516102b091906131eb565b6107266106c83660046131c2565b60056020525f90815260409020805460018201546002830154600390930154919263ffffffff82169260ff6401000000008404811693600160281b81049091169264ffffffffff600160301b8304811693600160581b909304169188565b6040516102b0989796959493929190613261565b60066020525f908152604090208054600182015460028301805492936001600160a01b039092169261076b906132b1565b80601f0160208091040260200160405190810160405280929190818152602001828054610797906132b1565b80156107e25780601f106107b9576101008083540402835291602001916107e2565b820191905f5260205f20905b8154815290600101906020018083116107c557829003601f168201915b5050506003840154600785015460088601546009870154600a880154600b890154600c909901549798949764ffffffffff8086169850600160281b90950490941695509193909260ff808216916101009004168c565b5f6001600160e01b03198216637965db0b60e01b148061086857506301ffc9a760e01b6001600160e01b03198316145b92915050565b5f8051602061377983398151915261088581612577565b61088d612581565b5f8281526006602052604090206004600c82015460ff1660068111156108b5576108b5612a15565b146108fd5760405162461bcd60e51b8152602060048201526013602482015272141c9bdc1bdcd85b081b9bdd081c5d595d5959606a1b60448201526064015b60405180910390fd5b600c810154610100900460ff161561094a5760405162461bcd60e51b815260206004820152601060248201526f105b1c9958591e48195e1958dd5d195960821b60448201526064016108f4565b60015460405163e38335e560e01b81526101009091046001600160a01b03169063e38335e59061098e90600485810191600587019160068801915f918b9101613417565b5f604051808303815f87803b1580156109a5575f80fd5b505af11580156109b7573d5f803e3d5ffd5b50505050600c8101805461010561ffff199091161790556040514264ffffffffff16815283907f1c544fddfed0c53e34f7b47811afc8599462309639ceaff0db757afae72fab7c9060200160405180910390a250610a2160015f8051602061379983398151915255565b5050565b610a2d612581565b610a3561259c565b335f90815260056020908152604080832085845260069092529091206001820154600160281b900460ff16610a7d57604051632437e77160e11b815260040160405180910390fd5b600182015463ffffffff165f03610aa757604051631ba8bd0960e31b815260040160405180910390fd5b6001600c82015460ff166006811115610ac257610ac2612a15565b14610ae057604051637becc13f60e01b815260040160405180910390fd5b6007810154600160281b900464ffffffffff164210610b1257604051637a19ed0560e01b815260040160405180910390fd5b5f84815260076020908152604080832033845290915290205460ff1615610b4c57604051637c9a1cf960e01b815260040160405180910390fd5b5f8481526007602090815260408083203384529091528120805460ff1916600117905560038301805491610b7f83613478565b909155505060018201805464ffffffffff60581b1916600160581b4264ffffffffff16021790558215610bd3576001820154600b8201805463ffffffff909216915f90610bcd908490613490565b90915550505b600182015460408051851515815263ffffffff9092166020830152339186917f35489ad3da3024ee27b54d1d2e3d28376e7e6ab97c096f3e7da2b47e565cf7cd910160405180910390a3837feb4b405222f5f1d736ebe26dcc691a46612e5a1ebf48359bd482a96257b5b1c182600b0154604051610c5391815260200190565b60405180910390a25050610a2160015f8051602061379983398151915255565b610c7b612581565b610c8361259c565b5f8481526006602052604090206001600c82015460ff166006811115610cab57610cab612a15565b14610cee5760405162461bcd60e51b815260206004820152601360248201527250726f706f73616c206e6f742061637469766560681b60448201526064016108f4565b6007810154600160281b900464ffffffffff164210610d3e5760405162461bcd60e51b815260206004820152600c60248201526b159bdd1a5b99c8195b99195960a21b60448201526064016108f4565b5f85815260076020908152604080832033845290915290205460ff1615610d975760405162461bcd60e51b815260206004820152600d60248201526c105b1c9958591e481d9bdd1959609a1b60448201526064016108f4565b5f8211610dd85760405162461bcd60e51b815260206004820152600f60248201526e2737903b37ba34b733903837bbb2b960891b60448201526064016108f4565b5f858152600760209081526040808320338452825291829020805460ff191660011790558151606081019092528382528101856002811115610e1c57610e1c612a15565b8152600160209182018190525f88815260088352604080822033835284529020835181559183015182820180549192909160ff191690836002811115610e6457610e64612a15565b021790555060409190910151600190910180549115156101000261ff00199092169190911790558215610f25575f846002811115610ea457610ea4612a15565b03610ec75781816008015f828254610ebc9190613490565b90915550610f259050565b6001846002811115610edb57610edb612a15565b03610ef35781816009015f828254610ebc9190613490565b6002846002811115610f0757610f07612a15565b03610f25578181600a015f828254610f1f9190613490565b90915550505b336001600160a01b0316857f1141ef13f4f3564245a38516de239d3da7f054b3df39c1dcfbc7a9c17ca67349868686604051610f63939291906134a3565b60405180910390a350610f8260015f8051602061379983398151915255565b50505050565b5f82815260208190526040902060010154610fa281612577565b610f8283836125c2565b6001600160a01b0381163314610fd55760405163334bd91960e11b815260040160405180910390fd5b610fdf8282612651565b505050565b5f80516020613779833981519152610ffb81612577565b6110036126ba565b50565b5f8181526006602052604090206001600c82015460ff16600681111561102e5761102e612a15565b146110715760405162461bcd60e51b815260206004820152601360248201527250726f706f73616c206e6f742061637469766560681b60448201526064016108f4565b6007810154600160281b900464ffffffffff164210156110c65760405162461bcd60e51b815260206004820152601060248201526f159bdd1a5b99c81b9bdd08195b99195960821b60448201526064016108f4565b6110cf826110f6565b156110e557600c01805460ff1916600317905550565b600c01805460ff1916600217905550565b5f818152600660205260408120600a8101546009820154600883015484929161111e91613490565b6111289190613490565b90505f806003541161113a575f611157565b6003548284600b015461114d91906134c2565b61115791906134d9565b90505f6111648284613490565b90505f612710611176611a0b866134c2565b61118091906134d9565b909110159695505050505050565b5f5f805160206137598339815191526111a681612577565b6001600160a01b0385165f90815260056020526040902060010154600160301b900464ffffffffff16156111ed5760405163704c69f760e11b815260040160405180910390fd5b606463ffffffff851611156112445760405162461bcd60e51b815260206004820152601b60248201527f4b6e6f776c65646765206c6576656c2065786365656473206d6178000000000060448201526064016108f4565b848342604051602001611259939291906134f8565b6040516020818303038152906040528051906020012091506040518061010001604052808381526020018563ffffffff1681526020018460078111156112a1576112a1612a15565b8152600160208083018290524264ffffffffff16604080850182905260608501919091525f6080850181905260a09094018490526001600160a01b038a16845260058252928390208451815590840151918101805463ffffffff19811663ffffffff90941693841782559385015191939192909164ffffffffff19161764010000000083600781111561133657611336612a15565b02179055506060820151600182018054608085015160a086015164ffffffffff908116600160581b0264ffffffffff60581b1991909216600160301b026affffffffff00000000000019951515600160281b02959095166affffffffffff00000000001990931692909217939093171691909117905560c0820151600282015560e090910151600391820155805463ffffffff861691905f906113da908490613490565b9091555050600a80546001810182555f9182527fc65a7bb8d6351c1cf70c95a316cc6a92839c986682d98bc35f958f4883f9d2a80180546001600160a01b0319166001600160a01b038816179055600b9084600781111561143d5761143d612a15565b600781111561144e5761144e612a15565b815260208082019290925260409081015f908120805460018101825590825292902090910180546001600160a01b0319166001600160a01b03881690811790915590518391907f4565df365eb801c93588cfe09228408ec7f9efd76f66179e02db5f3de41aa2a3906114c39088908890613537565b60405180910390a3509392505050565b600b602052815f5260405f2081815481106114ec575f80fd5b5f918252602090912001546001600160a01b03169150829050565b5f8051602061377983398151915261151e81612577565b61100361270c565b6060600b5f83600781111561153d5761153d612a15565b600781111561154e5761154e612a15565b81526020019081526020015f208054806020026020016040519081016040528092919081815260200182805480156115ad57602002820191905f5260205f20905b81546001600160a01b0316815260019091019060200180831161158f575b50505050509050919050565b5f918252602082815260408084206001600160a01b0393909316845291905290205460ff1690565b5f805160206137598339815191526115f881612577565b600a545f90815b818110801561160d57508483105b15611726575f600a828154811061162657611626613551565b5f9182526020808320909101546001600160a01b03168083526005909152604090912060018101549192509060ff600160281b909104168015611687575060045460018201546116849190600160581b900464ffffffffff16613490565b42115b156117045760018101805465ff00000000001981169091556003805463ffffffff909216915f906116b9908490613565565b909155505060405164ffffffffff421681526001600160a01b038316907f0cd962daa82c9af8dedfac0cdcefd68bec4a53da9b8eab4cfe513e2c6254287f9060200160405180910390a25b8461170e81613478565b9550505050808061171e90613478565b9150506115ff565b5050505050565b5f8051602061377983398151915261174481612577565b5f8281526006602052604090206003600c82015460ff16600681111561176c5761176c612a15565b146117b25760405162461bcd60e51b8152602060048201526016602482015275141c9bdc1bdcd85b081b9bdd081cdd58d8d95959195960521b60448201526064016108f4565b60015460405163b1c5f42760e01b81525f9161010090046001600160a01b03169063b1c5f427906117f7906004868101916005880191600689019188918c9101613417565b602060405180830381865afa158015611812573d5f803e3d5ffd5b505050506040513d601f19601f820116820180604052508101906118369190613578565b6001546040805163793d064960e11b815290519293506101009091046001600160a01b031691638f2a0bb091600486810192600588019260068901925f928c92899263f27a0c929281830192602092908290030181865afa15801561189d573d5f803e3d5ffd5b505050506040513d601f19601f820116820180604052508101906118c19190613578565b6040518763ffffffff1660e01b81526004016118e29695949392919061358f565b5f604051808303815f87803b1580156118f9575f80fd5b505af115801561190b573d5f803e3d5ffd5b50505050600c8201805460ff191660049081179091556001546040805163793d064960e11b8152905187937f85ba54bf952d977b577e997f359055900af4d3f2f2d6b73b82a23fe33f03ec74936001600160a01b03610100909104169263f27a0c9292818301926020928290030181865afa15801561198c573d5f803e3d5ffd5b505050506040513d601f19601f820116820180604052508101906119b09190613578565b6119ba9042613490565b60405164ffffffffff909116815260200160405180910390a250505050565b5f805160206137798339815191526119f081612577565b50600455565b600a8181548110611a05575f80fd5b5f918252602090912001546001600160a01b0316905081565b5f7fb09aa5aeb3702cfd50b6b62bc4532604938f21248a27a1d5ca736082b6819cc1611a4981612577565b611a5161259c565b83518551148015611a63575082518451145b611aa15760405162461bcd60e51b815260206004820152600f60248201526e098cadccee8d040dad2e6dac2e8c6d608b1b60448201526064016108f4565b5f855111611ae25760405162461bcd60e51b815260206004820152600e60248201526d115b5c1d1e481c1c9bdc1bdcd85b60921b60448201526064016108f4565b60028054905f611af183613478565b919050555060025491505f858585604051602001611b11939291906135e6565b604051602081830303815290604052805190602001209050604051806101e00160405280848152602001336001600160a01b031681526020018881526020018281526020018781526020018681526020018581526020014264ffffffffff16815260200162093a8042611b849190613490565b64ffffffffff1681525f602082018190526040820181905260608201819052608082015260a001600181525f60209182018190528581526006825260409081902083518155918301516001830180546001600160a01b0319166001600160a01b039092169190911790558201516002820190611c00908261366c565b506060820151600382015560808201518051611c269160048401916020909101906127d2565b5060a08201518051611c42916005840191602090910190612835565b5060c08201518051611c5e91600684019160209091019061286e565b5060e082015160078201805461010085015164ffffffffff908116600160281b0269ffffffffffffffffffff1990921693169290921791909117905561012082015160088201556101408201516009820155610160820151600a820155610180820151600b8201556101a0820151600c8201805460ff19166001836006811115611cea57611cea612a15565b02179055506101c09190910151600c90910180549115156101000261ff0019909216919091179055604051339084907f7585f467599d0f008985f231af99293be388626ac16ca59505c2f8f88969cd6390611d46908b9061372c565b60405180910390a35050949350505050565b611d606128be565b5f8281526006602090815260409182902082516101e0810184528154815260018201546001600160a01b0316928101929092526002810180549293919291840191611daa906132b1565b80601f0160208091040260200160405190810160405280929190818152602001828054611dd6906132b1565b8015611e215780601f10611df857610100808354040283529160200191611e21565b820191905f5260205f20905b815481529060010190602001808311611e0457829003601f168201915b505050505081526020016003820154815260200160048201805480602002602001604051908101604052809291908181526020018280548015611e8b57602002820191905f5260205f20905b81546001600160a01b03168152600190910190602001808311611e6d575b5050505050815260200160058201805480602002602001604051908101604052809291908181526020018280548015611ee157602002820191905f5260205f20905b815481526020019060010190808311611ecd575b5050505050815260200160068201805480602002602001604051908101604052809291908181526020015f905b82821015611fb6578382905f5260205f20018054611f2b906132b1565b80601f0160208091040260200160405190810160405280929190818152602001828054611f57906132b1565b8015611fa25780601f10611f7957610100808354040283529160200191611fa2565b820191905f5260205f20905b815481529060010190602001808311611f8557829003601f168201915b505050505081526020019060010190611f0e565b50505090825250600782015464ffffffffff8082166020840152600160281b9091041660408201526008820154606082015260098201546080820152600a82015460a0820152600b82015460c0820152600c82015460e09091019060ff16600681111561202557612025612a15565b600681111561203657612036612a15565b8152600c9190910154610100900460ff16151560209091015292915050565b5f8281526020819052604090206001015461206f81612577565b610f828383612651565b5f8051602061375983398151915261209081612577565b6001600160a01b0385165f90815260056020526040812060018101549091600160301b90910464ffffffffff1690036121025760405162461bcd60e51b81526020600482015260146024820152731059d95b9d081b9bdd081c9959da5cdd195c995960621b60448201526064016108f4565b606463ffffffff861611156121595760405162461bcd60e51b815260206004820152601b60248201527f4b6e6f776c65646765206c6576656c2065786365656473206d6178000000000060448201526064016108f4565b600181015460035463ffffffff8088169261217692911690613565565b6121809190613490565b60035560018101805463ffffffff871663ffffffff1982168117835586929164ffffffffff1916176401000000008360078111156121c0576121c0612a15565b02179055506001810180546fffffffffff0000000000ff00000000001916600160281b8515150264ffffffffff60581b191617600160581b4264ffffffffff16021790556040516001600160a01b038716907f7a9b15fcf1031acac908588eac3fbc404bdd8a196b1fb7c3855f4c8246afd9a6906122439088908890889061373e565b60405180910390a2505050505050565b5f81815260066020526040902060018101546001600160a01b031633148061228d575061228d5f80516020613779833981519152336115b9565b6122ca5760405162461bcd60e51b815260206004820152600e60248201526d139bdd08185d5d1a1bdc9a5e995960921b60448201526064016108f4565b6001600c82015460ff1660068111156122e5576122e5612a15565b148061230957506004600c82015460ff16600681111561230757612307612a15565b145b6123455760405162461bcd60e51b815260206004820152600d60248201526c10d85b9b9bdd0818d85b98d95b609a1b60448201526064016108f4565b6004600c82015460ff16600681111561236057612360612a15565b0361243c5760015460405163b1c5f42760e01b81526101009091046001600160a01b03169063c4d252f590829063b1c5f427906123b190600487810191600589019160068a01915f918c9101613417565b602060405180830381865afa1580156123cc573d5f803e3d5ffd5b505050506040513d601f19601f820116820180604052508101906123f09190613578565b6040518263ffffffff1660e01b815260040161240e91815260200190565b5f604051808303815f87803b158015612425575f80fd5b505af1158015612437573d5f803e3d5ffd5b505050505b600c8101805460ff1916600617905560405182907f416e669c63d9a3a5e36ee7cc7e2104b8db28ccd286aa18966e98fa230c73b08c905f90a25050565b6040805161010080820183525f8083526020808401829052838501829052606084018290526080840182905260a0840182905260c0840182905260e084018290526001600160a01b038616825260058152908490208451928301855280548352600181015463ffffffff8116928401929092529293919291830190640100000000900460ff16600781111561251057612510612a15565b600781111561252157612521612a15565b8152600182015460ff600160281b8204161515602083015264ffffffffff600160301b820481166040840152600160581b9091041660608201526002820154608082015260039091015460a09091015292915050565b6110038133612747565b612589612780565b60025f8051602061379983398151915255565b60015460ff16156125c05760405163d93c066560e01b815260040160405180910390fd5b565b5f6125cd83836115b9565b61264a575f838152602081815260408083206001600160a01b03861684529091529020805460ff191660011790556126023390565b6001600160a01b0316826001600160a01b0316847f2f8788117e7eff1d82e926ec794901d17c78024a50270940304540a733656f0d60405160405180910390a4506001610868565b505f610868565b5f61265c83836115b9565b1561264a575f838152602081815260408083206001600160a01b0386168085529252808320805460ff1916905551339286917ff6391f5c32d9c69d2a47ea670b442974b53935d1edc7fd64eb21e047a839171b9190a4506001610868565b6126c26127af565b6001805460ff191690557f5db9ee0a495bf2e6ff9c91a7834c1ba4fdd244a5e8aa4e537bd38aeae4b073aa335b6040516001600160a01b03909116815260200160405180910390a1565b61271461259c565b6001805460ff1916811790557f62e78cea01bee320cd4e420270b5ea74000d11b0c9f74754ebdbfc544b05a258336126ef565b61275182826115b9565b610a215760405163e2517d3f60e01b81526001600160a01b0382166004820152602481018390526044016108f4565b5f80516020613799833981519152546002036125c057604051633ee5aeb560e01b815260040160405180910390fd5b60015460ff166125c057604051638dfc202b60e01b815260040160405180910390fd5b828054828255905f5260205f20908101928215612825579160200282015b8281111561282557825182546001600160a01b0319166001600160a01b039091161782556020909201916001909101906127f0565b50612831929150612954565b5090565b828054828255905f5260205f20908101928215612825579160200282015b82811115612825578251825591602001919060010190612853565b828054828255905f5260205f209081019282156128b2579160200282015b828111156128b257825182906128a2908261366c565b509160200191906001019061288c565b50612831929150612968565b604051806101e001604052805f81526020015f6001600160a01b03168152602001606081526020015f80191681526020016060815260200160608152602001606081526020015f64ffffffffff1681526020015f64ffffffffff1681526020015f81526020015f81526020015f81526020015f81526020015f600681111561294857612948612a15565b81525f60209091015290565b5b80821115612831575f8155600101612955565b80821115612831575f61297b8282612984565b50600101612968565b508054612990906132b1565b5f825580601f1061299f575050565b601f0160209004905f5260205f20908101906110039190612954565b5f602082840312156129cb575f80fd5b5035919050565b5f81518084525f5b818110156129f6576020818501810151868301820152016129da565b505f602082860101526020601f19601f83011685010191505092915050565b634e487b7160e01b5f52602160045260245ffd5b60078110612a3957612a39612a15565b9052565b8c81526001600160a01b038c166020820152610180604082018190525f90612a678382018e6129d2565b9150508a606083015264ffffffffff808b166080840152808a1660a0840152508760c08301528660e08301528561010083015284610120830152612aaf610140830185612a29565b8215156101608301529d9c50505050505050505050505050565b5f60208284031215612ad9575f80fd5b81356001600160e01b031981168114612af0575f80fd5b9392505050565b80358015158114612b06575f80fd5b919050565b5f8060408385031215612b1c575f80fd5b82359150612b2c60208401612af7565b90509250929050565b5f805f8060808587031215612b48575f80fd5b84359350602085013560038110612b5d575f80fd5b9250612b6b60408601612af7565b9396929550929360600135925050565b80356001600160a01b0381168114612b06575f80fd5b5f8060408385031215612ba2575f80fd5b82359150612b2c60208401612b7b565b803563ffffffff81168114612b06575f80fd5b803560088110612b06575f80fd5b5f805f60608486031215612be5575f80fd5b612bee84612b7b565b9250612bfc60208501612bb2565b9150612c0a60408501612bc5565b90509250925092565b5f8060408385031215612c24575f80fd5b612c2d83612bc5565b946020939093013593505050565b5f60208284031215612c4b575f80fd5b612af082612bc5565b5f815180845260208085019450602084015f5b83811015612c8c5781516001600160a01b031687529582019590820190600101612c67565b509495945050505050565b602081525f612af06020830184612c54565b60038110612a3957612a39612a15565b83815260608101612ccd6020830185612ca9565b8215156040830152949350505050565b634e487b7160e01b5f52604160045260245ffd5b604051601f8201601f1916810167ffffffffffffffff81118282101715612d1a57612d1a612cdd565b604052919050565b5f67ffffffffffffffff831115612d3b57612d3b612cdd565b612d4e601f8401601f1916602001612cf1565b9050828152838383011115612d61575f80fd5b828260208301375f602084830101529392505050565b5f67ffffffffffffffff821115612d9057612d90612cdd565b5060051b60200190565b5f82601f830112612da9575f80fd5b81356020612dbe612db983612d77565b612cf1565b8083825260208201915060208460051b870101935086841115612ddf575f80fd5b602086015b84811015612e0257612df581612b7b565b8352918301918301612de4565b509695505050505050565b5f82601f830112612e1c575f80fd5b81356020612e2c612db983612d77565b8083825260208201915060208460051b870101935086841115612e4d575f80fd5b602086015b84811015612e025780358352918301918301612e52565b5f82601f830112612e78575f80fd5b81356020612e88612db983612d77565b82815260059290921b84018101918181019086841115612ea6575f80fd5b8286015b84811015612e0257803567ffffffffffffffff811115612ec8575f80fd5b8701603f81018913612ed8575f80fd5b612ee9898683013560408401612d22565b845250918301918301612eaa565b5f805f8060808587031215612f0a575f80fd5b843567ffffffffffffffff80821115612f21575f80fd5b818701915087601f830112612f34575f80fd5b612f4388833560208501612d22565b95506020870135915080821115612f58575f80fd5b612f6488838901612d9a565b94506040870135915080821115612f79575f80fd5b612f8588838901612e0d565b93506060870135915080821115612f9a575f80fd5b50612fa787828801612e69565b91505092959194509250565b5f815180845260208085019450602084015f5b83811015612c8c57815187529582019590820190600101612fc6565b5f8282518085526020808601955060208260051b840101602086015f5b8481101561302d57601f1986840301895261301b8383516129d2565b98840198925090830190600101612fff565b5090979650505050505050565b60208152815160208201525f602083015161306060408401826001600160a01b03169052565b5060408301516101e080606085015261307d6102008501836129d2565b9150606085015160808501526080850151601f19808685030160a08701526130a58483612c54565b935060a08701519150808685030160c08701526130c28483612fb3565b935060c08701519150808685030160e0870152506130e08382612fe2565b92505060e08501516101006130fd8187018364ffffffffff169052565b86015190506101206131178682018364ffffffffff169052565b8601516101408681019190915286015161016080870191909152860151610180808701919091528601516101a08087019190915286015190506101c061315f81870183612a29565b90950151151593019290925250919050565b5f805f8060808587031215613184575f80fd5b61318d85612b7b565b935061319b60208601612bb2565b92506131a960408601612bc5565b91506131b760608601612af7565b905092959194509250565b5f602082840312156131d2575f80fd5b612af082612b7b565b60088110612a3957612a39612a15565b5f610100820190508251825263ffffffff6020840151166020830152604083015161321960408401826131db565b50606083015115156060830152608083015164ffffffffff80821660808501528060a08601511660a0850152505060c083015160c083015260e083015160e083015292915050565b88815263ffffffff88166020820152610100810161328260408301896131db565b951515606082015264ffffffffff94851660808201529290931660a083015260c082015260e001529392505050565b600181811c908216806132c557607f821691505b6020821081036132e357634e487b7160e01b5f52602260045260245ffd5b50919050565b5f815480845260208085019450835f5260205f205f5b83811015612c8c5781546001600160a01b0316875295820195600191820191016132ff565b5f815480845260208085019450835f5260205f205f5b83811015612c8c5781548752958201956001918201910161333a565b5f828254808552602080860195506005818360051b850101865f52825f205f5b8581101561340957601f19878403018a525f8254613393816132b1565b808652600182811680156133ae57600181146133c7576133f2565b60ff198416888b0152821515891b88018a0194506133f2565b865f52895f205f5b848110156133ea5781548a82018d0152908301908b016133cf565b89018b019550505b509c88019c92955050509190910190600101613376565b509098975050505050505050565b60a081525f61342960a08301886132e9565b828103602084015261343b8188613324565b9050828103604084015261344f8187613356565b60608401959095525050608001529392505050565b634e487b7160e01b5f52601160045260245ffd5b5f6001820161348957613489613464565b5060010190565b8082018082111561086857610868613464565b606081016134b18286612ca9565b921515602082015260400152919050565b808202811582820484141761086857610868613464565b5f826134f357634e487b7160e01b5f52601260045260245ffd5b500490565b6bffffffffffffffffffffffff198460601b1681525f6008841061351e5761351e612a15565b5060f89290921b60148301526015820152603501919050565b63ffffffff8316815260408101612af060208301846131db565b634e487b7160e01b5f52603260045260245ffd5b8181038181111561086857610868613464565b5f60208284031215613588575f80fd5b5051919050565b60c081525f6135a160c08301896132e9565b82810360208401526135b38189613324565b905082810360408401526135c78188613356565b60608401969096525050608081019290925260a0909101529392505050565b606081525f6135f86060830186612c54565b828103602084015261360a8186612fb3565b9050828103604084015261361e8185612fe2565b9695505050505050565b601f821115610fdf57805f5260205f20601f840160051c8101602085101561364d5750805b601f840160051c820191505b81811015611726575f8155600101613659565b815167ffffffffffffffff81111561368657613686612cdd565b61369a8161369484546132b1565b84613628565b602080601f8311600181146136cd575f84156136b65750858301515b5f19600386901b1c1916600185901b178555613724565b5f85815260208120601f198616915b828110156136fb578886015182559484019460019091019084016136dc565b508582101561371857878501515f19600388901b60f8161c191681555b505060018460011b0185555b505050505050565b602081525f612af060208301846129d2565b63ffffffff8416815260608101612ccd60208301856131db56fe1e2a6bac40bbfc8ee106bbe5b0bf6c3d1d0baa2e28130744599c48d67ff06f8f71840dc4906352362b0cdaf79870196c8e42acafade72d5d5a6d59291253ceb19b779b17422d0df92223018b32b4d1fa46e071723d6817e2486d003becc55f00a26469706673582212202af718290b1a7a67002134d454a5e8023a688837f39650fec75a797b12cd156864736f6c63430008180033","linkReferences":{}},"methodIdentifiers":{"AGENT_MANAGER_ROLE()":"0d1c12f4","AI_VOTE_WEIGHT()":"c259c70f","BASIS_POINTS()":"e1f1c4a7","DEFAULT_ADMIN_ROLE()":"a217fddf","GOVERNANCE_ROLE()":"f36c8f5c","MAX_KNOWLEDGE_LEVEL()":"58145bf4","PROPOSER_ROLE()":"8f61f4f5","QUORUM_THRESHOLD()":"5e510b60","VOTING_PERIOD()":"b1610d7e","agentIdToProposalCount(bytes32)":"0d160644","agentTimeout()":"95cbfca0","agentVote(uint256,bool)":"0d971f93","agents(address)":"fd66091e","agentsByDomain(uint8,uint256)":"83ea2365","aggregateVotes(uint256)":"68b7c947","cancelProposal(uint256)":"e0a8f6f5","createProposal(string,address[],uint256[],bytes[])":"ba6152f2","deactivateInactiveAgents(uint256)":"9291b221","executeProposal(uint256)":"0d61b519","finalizeProposal(uint256)":"5652077c","getAgent(address)":"fb3551ff","getAgentCount()":"91cab63e","getAgentsByDomain(uint8)":"893db758","getProposal(uint256)":"c7f758a8","getRoleAdmin(bytes32)":"248a9ca3","getVoteCounts(uint256)":"8a241f4c","grantRole(bytes32,address)":"2f2ff15d","hasRole(bytes32,address)":"91d14854","hasVoted(uint256,address)":"43859632","pause()":"8456cb59","paused()":"5c975abb","proposalCount()":"da35c664","proposals(uint256)":"013cf08b","queueProposal(uint256)":"94a14a34","registerAgent(address,uint32,uint8)":"81ec8326","registeredAgents(uint256)":"a7bd211c","renounceRole(bytes32,address)":"36568abe","revokeRole(bytes32,address)":"d547741f","setAgentTimeout(uint256)":"a1a62687","supportsInterface(bytes4)":"01ffc9a7","timelock()":"d33219b4","totalAgentVotes()":"0cfa3982","unpause()":"3f4ba83a","updateAgent(address,uint32,uint8,bool)":"db28ab8d","voteOnProposal(uint256,uint8,bool,uint256)":"185ebb2b","voterPower(uint256,address)":"a241f0fd"},"id":62}