{"abi":[{"type":"constructor","inputs":[{"name":"_chairman","type":"address","internalType":"address"},{"name":"_governance","type":"address","internalType":"address"}],"stateMutability":"nonpayable"},{"type":"function","name":"BASIS_POINTS","inputs":[],"outputs":[{"name":"","type":"uint256","internalType":"uint256"}],"stateMutability":"view"},{"type":"function","name":"CHAIRMAN_ROLE","inputs":[],"outputs":[{"name":"","type":"bytes32","internalType":"bytes32"}],"stateMutability":"view"},{"type":"function","name":"DEFAULT_ADMIN_ROLE","inputs":[],"outputs":[{"name":"","type":"bytes32","internalType":"bytes32"}],"stateMutability":"view"},{"type":"function","name":"DIVERSIFICATION_MANDATE","inputs":[],"outputs":[{"name":"","type":"uint256","internalType":"uint256"}],"stateMutability":"view"},{"type":"function","name":"GOVERNANCE_ROLE","inputs":[],"outputs":[{"name":"","type":"bytes32","internalType":"bytes32"}],"stateMutability":"view"},{"type":"function","name":"TREASURY_TITHE","inputs":[],"outputs":[{"name":"","type":"uint256","internalType":"uint256"}],"stateMutability":"view"},{"type":"function","name":"VALIDATOR_ROLE","inputs":[],"outputs":[{"name":"","type":"bytes32","internalType":"bytes32"}],"stateMutability":"view"},{"type":"function","name":"VOTING_QUORUM","inputs":[],"outputs":[{"name":"","type":"uint256","internalType":"uint256"}],"stateMutability":"view"},{"type":"function","name":"actions","inputs":[{"name":"","type":"bytes32","internalType":"bytes32"}],"outputs":[{"name":"actionType","type":"uint8","internalType":"enum DAIO_Constitution.ActionType"},{"name":"initiator","type":"address","internalType":"address"},{"name":"target","type":"address","internalType":"address"},{"name":"value","type":"uint256","internalType":"uint256"},{"name":"data","type":"bytes","internalType":"bytes"},{"name":"timestamp","type":"uint256","internalType":"uint256"},{"name":"validated","type":"bool","internalType":"bool"}],"stateMutability":"view"},{"type":"function","name":"calculateTithe","inputs":[{"name":"profit","type":"uint256","internalType":"uint256"}],"outputs":[{"name":"titheAmount","type":"uint256","internalType":"uint256"}],"stateMutability":"pure"},{"type":"function","name":"checkDiversificationLimit","inputs":[],"outputs":[{"name":"compliant","type":"bool","internalType":"bool"}],"stateMutability":"view"},{"type":"function","name":"emergencyActionCount","inputs":[],"outputs":[{"name":"","type":"uint256","internalType":"uint256"}],"stateMutability":"view"},{"type":"function","name":"executedActions","inputs":[{"name":"","type":"bytes32","internalType":"bytes32"}],"outputs":[{"name":"","type":"bool","internalType":"bool"}],"stateMutability":"view"},{"type":"function","name":"getAction","inputs":[{"name":"actionId","type":"bytes32","internalType":"bytes32"}],"outputs":[{"name":"","type":"tuple","internalType":"struct DAIO_Constitution.ConstitutionalAction","components":[{"name":"actionType","type":"uint8","internalType":"enum DAIO_Constitution.ActionType"},{"name":"initiator","type":"address","internalType":"address"},{"name":"target","type":"address","internalType":"address"},{"name":"value","type":"uint256","internalType":"uint256"},{"name":"data","type":"bytes","internalType":"bytes"},{"name":"timestamp","type":"uint256","internalType":"uint256"},{"name":"validated","type":"bool","internalType":"bool"}]}],"stateMutability":"view"},{"type":"function","name":"getRoleAdmin","inputs":[{"name":"role","type":"bytes32","internalType":"bytes32"}],"outputs":[{"name":"","type":"bytes32","internalType":"bytes32"}],"stateMutability":"view"},{"type":"function","name":"getTreasuryCompliance","inputs":[],"outputs":[{"name":"diversificationCompliant","type":"bool","internalType":"bool"},{"name":"totalValue","type":"uint256","internalType":"uint256"},{"name":"diversifiedValue","type":"uint256","internalType":"uint256"},{"name":"requiredDiversification","type":"uint256","internalType":"uint256"}],"stateMutability":"view"},{"type":"function","name":"grantRole","inputs":[{"name":"role","type":"bytes32","internalType":"bytes32"},{"name":"account","type":"address","internalType":"address"}],"outputs":[],"stateMutability":"nonpayable"},{"type":"function","name":"hasRole","inputs":[{"name":"role","type":"bytes32","internalType":"bytes32"},{"name":"account","type":"address","internalType":"address"}],"outputs":[{"name":"","type":"bool","internalType":"bool"}],"stateMutability":"view"},{"type":"function","name":"isActionPending","inputs":[{"name":"actionId","type":"bytes32","internalType":"bytes32"}],"outputs":[{"name":"","type":"bool","internalType":"bool"}],"stateMutability":"view"},{"type":"function","name":"lastEmergencyAction","inputs":[],"outputs":[{"name":"","type":"uint256","internalType":"uint256"}],"stateMutability":"view"},{"type":"function","name":"markActionExecuted","inputs":[{"name":"actionId","type":"bytes32","internalType":"bytes32"}],"outputs":[],"stateMutability":"nonpayable"},{"type":"function","name":"pauseSystem","inputs":[{"name":"reason","type":"string","internalType":"string"}],"outputs":[],"stateMutability":"nonpayable"},{"type":"function","name":"paused","inputs":[],"outputs":[{"name":"","type":"bool","internalType":"bool"}],"stateMutability":"view"},{"type":"function","name":"recordTithe","inputs":[{"name":"amount","type":"uint256","internalType":"uint256"},{"name":"from","type":"address","internalType":"address"}],"outputs":[],"stateMutability":"nonpayable"},{"type":"function","name":"renounceRole","inputs":[{"name":"role","type":"bytes32","internalType":"bytes32"},{"name":"callerConfirmation","type":"address","internalType":"address"}],"outputs":[],"stateMutability":"nonpayable"},{"type":"function","name":"revokeRole","inputs":[{"name":"role","type":"bytes32","internalType":"bytes32"},{"name":"account","type":"address","internalType":"address"}],"outputs":[],"stateMutability":"nonpayable"},{"type":"function","name":"supportsInterface","inputs":[{"name":"interfaceId","type":"bytes4","internalType":"bytes4"}],"outputs":[{"name":"","type":"bool","internalType":"bool"}],"stateMutability":"view"},{"type":"function","name":"treasuryState","inputs":[],"outputs":[{"name":"totalValue","type":"uint256","internalType":"uint256"},{"name":"diversifiedValue","type":"uint256","internalType":"uint256"},{"name":"lastUpdateTime","type":"uint256","internalType":"uint256"}],"stateMutability":"view"},{"type":"function","name":"unpauseSystem","inputs":[],"outputs":[],"stateMutability":"nonpayable"},{"type":"function","name":"updateTreasuryState","inputs":[{"name":"totalValue","type":"uint256","internalType":"uint256"},{"name":"diversifiedValue","type":"uint256","internalType":"uint256"}],"outputs":[],"stateMutability":"nonpayable"},{"type":"function","name":"validateAction","inputs":[{"name":"actionType","type":"uint8","internalType":"enum DAIO_Constitution.ActionType"},{"name":"initiator","type":"address","internalType":"address"},{"name":"target","type":"address","internalType":"address"},{"name":"value","type":"uint256","internalType":"uint256"},{"name":"data","type":"bytes","internalType":"bytes"}],"outputs":[{"name":"actionId","type":"bytes32","internalType":"bytes32"}],"stateMutability":"nonpayable"},{"type":"function","name":"validateTithe","inputs":[{"name":"profit","type":"uint256","internalType":"uint256"},{"name":"titheProvided","type":"uint256","internalType":"uint256"}],"outputs":[{"name":"valid","type":"bool","internalType":"bool"}],"stateMutability":"pure"},{"type":"event","name":"ActionExecuted","inputs":[{"name":"actionId","type":"bytes32","indexed":true,"internalType":"bytes32"},{"name":"actionType","type":"uint8","indexed":false,"internalType":"enum DAIO_Constitution.ActionType"}],"anonymous":false},{"type":"event","name":"ActionRejected","inputs":[{"name":"actionId","type":"bytes32","indexed":true,"internalType":"bytes32"},{"name":"reason","type":"string","indexed":false,"internalType":"string"}],"anonymous":false},{"type":"event","name":"ActionValidated","inputs":[{"name":"actionId","type":"bytes32","indexed":true,"internalType":"bytes32"},{"name":"actionType","type":"uint8","indexed":false,"internalType":"enum DAIO_Constitution.ActionType"},{"name":"initiator","type":"address","indexed":false,"internalType":"address"}],"anonymous":false},{"type":"event","name":"ChairmanVetoActivated","inputs":[{"name":"chairman","type":"address","indexed":true,"internalType":"address"},{"name":"reason","type":"string","indexed":false,"internalType":"string"}],"anonymous":false},{"type":"event","name":"ChairmanVetoDeactivated","inputs":[{"name":"chairman","type":"address","indexed":true,"internalType":"address"}],"anonymous":false},{"type":"event","name":"ConstitutionalViolation","inputs":[{"name":"actionId","type":"bytes32","indexed":true,"internalType":"bytes32"},{"name":"violation","type":"string","indexed":false,"internalType":"string"}],"anonymous":false},{"type":"event","name":"Paused","inputs":[{"name":"account","type":"address","indexed":false,"internalType":"address"}],"anonymous":false},{"type":"event","name":"RoleAdminChanged","inputs":[{"name":"role","type":"bytes32","indexed":true,"internalType":"bytes32"},{"name":"previousAdminRole","type":"bytes32","indexed":true,"internalType":"bytes32"},{"name":"newAdminRole","type":"bytes32","indexed":true,"internalType":"bytes32"}],"anonymous":false},{"type":"event","name":"RoleGranted","inputs":[{"name":"role","type":"bytes32","indexed":true,"internalType":"bytes32"},{"name":"account","type":"address","indexed":true,"internalType":"address"},{"name":"sender","type":"address","indexed":true,"internalType":"address"}],"anonymous":false},{"type":"event","name":"RoleRevoked","inputs":[{"name":"role","type":"bytes32","indexed":true,"internalType":"bytes32"},{"name":"account","type":"address","indexed":true,"internalType":"address"},{"name":"sender","type":"address","indexed":true,"internalType":"address"}],"anonymous":false},{"type":"event","name":"TitheCollected","inputs":[{"name":"amount","type":"uint256","indexed":false,"internalType":"uint256"},{"name":"from","type":"address","indexed":true,"internalType":"address"}],"anonymous":false},{"type":"event","name":"TreasuryStateUpdated","inputs":[{"name":"totalValue","type":"uint256","indexed":false,"internalType":"uint256"},{"name":"diversifiedValue","type":"uint256","indexed":false,"internalType":"uint256"}],"anonymous":false},{"type":"event","name":"Unpaused","inputs":[{"name":"account","type":"address","indexed":false,"internalType":"address"}],"anonymous":false},{"type":"error","name":"AccessControlBadConfirmation","inputs":[]},{"type":"error","name":"AccessControlUnauthorizedAccount","inputs":[{"name":"account","type":"address","internalType":"address"},{"name":"neededRole","type":"bytes32","internalType":"bytes32"}]},{"type":"error","name":"ActionAlreadyExecuted","inputs":[{"name":"actionId","type":"bytes32","internalType":"bytes32"}]},{"type":"error","name":"ActionNotValidated","inputs":[{"name":"actionId","type":"bytes32","internalType":"bytes32"}]},{"type":"error","name":"DiversificationViolation","inputs":[{"name":"required","type":"uint256","internalType":"uint256"},{"name":"actual","type":"uint256","internalType":"uint256"}]},{"type":"error","name":"EnforcedPause","inputs":[]},{"type":"error","name":"ExpectedPause","inputs":[]},{"type":"error","name":"InvalidActionType","inputs":[]},{"type":"error","name":"ReentrancyGuardReentrantCall","inputs":[]},{"type":"error","name":"TitheViolation","inputs":[{"name":"required","type":"uint256","internalType":"uint256"},{"name":"actual","type":"uint256","internalType":"uint256"}]},{"type":"error","name":"Unauthorized","inputs":[]}],"bytecode":{"object":"0x608060405234801562000010575f80fd5b5060405162001a2438038062001a248339810160408190526200003391620001bb565b60017f9b779b17422d0df92223018b32b4d1fa46e071723d6817e2486d003becc55f0055620000635f33620000f3565b50620000907fdc1958ce1178d6eb32ccc146dcea8933f1978155832913ec88fa509962e1b41383620000f3565b50620000bd7f71840dc4906352362b0cdaf79870196c8e42acafade72d5d5a6d59291253ceb182620000f3565b50620000ea7f21702c8af46127c7fa207f89d0b0a8441bb32959a0ac7df790e9ab1a25c9892633620000f3565b505050620001f1565b5f828152602081815260408083206001600160a01b038516845290915281205460ff1662000196575f838152602081815260408083206001600160a01b03861684529091529020805460ff191660011790556200014d3390565b6001600160a01b0316826001600160a01b0316847f2f8788117e7eff1d82e926ec794901d17c78024a50270940304540a733656f0d60405160405180910390a450600162000199565b505f5b92915050565b80516001600160a01b0381168114620001b6575f80fd5b919050565b5f8060408385031215620001cd575f80fd5b620001d8836200019f565b9150620001e8602084016200019f565b90509250929050565b61182580620001ff5f395ff3fe608060405234801561000f575f80fd5b50600436106101e7575f3560e01c806398d428bb11610109578063dce9f0701161009e578063e1f1c4a71161006e578063e1f1c4a714610430578063f222977d14610439578063f36c8f5c1461044c578063f3abde3214610460575f80fd5b8063dce9f070146103eb578063dceab8b81461040b578063de517cf414610414578063e0d30ed914610427575f80fd5b8063b131a1d5116100d9578063b131a1d51461038b578063c49baebe1461039e578063d5004c7c146103c5578063d547741f146103d8575f80fd5b806398d428bb1461031b578063a097dc4b1461035d578063a217fddf14610371578063ae44fd9614610378575f80fd5b80634c7612401161017f5780638087de991161014f5780638087de991461031b5780638475d7261461032457806391d1485414610337578063983d70941461034a575f80fd5b80634c761240146102f75780635c975abb146102ff578063708dd0181461030a578063726e50b714610312575f80fd5b80632f2ff15d116101ba5780632f2ff15d1461029a57806336568abe146102af5780633b1c57cb146102c257806344c828d7146102e4575f80fd5b806301ffc9a7146101eb57806307ae88fa14610213578063248a9ca31461023d578063271bfa541461026d575b5f80fd5b6101fe6101f9366004611216565b610486565b60405190151581526020015b60405180910390f35b61021b6104bc565b604080519415158552602085019390935291830152606082015260800161020a565b61025f61024b366004611244565b5f9081526020819052604090206001015490565b60405190815260200161020a565b60045460055460065461027f92919083565b6040805193845260208401929092529082015260600161020a565b6102ad6102a8366004611276565b6104f6565b005b6102ad6102bd366004611276565b610520565b6101fe6102d0366004611244565b60036020525f908152604090205460ff1681565b61025f6102f23660046112e5565b610558565b6102ad610849565b60015460ff166101fe565b6101fe610895565b61025f60085481565b61025f6105dc81565b6101fe610332366004611364565b6108d1565b6101fe610345366004611276565b6108e7565b61025f610358366004611244565b61090f565b61025f5f805160206117d083398151915281565b61025f5f81565b6102ad610386366004611364565b610929565b6102ad610399366004611244565b610a24565b61025f7f21702c8af46127c7fa207f89d0b0a8441bb32959a0ac7df790e9ab1a25c9892681565b6102ad6103d3366004611384565b610b47565b6102ad6103e6366004611276565b610bb2565b6103fe6103f9366004611244565b610bd6565b60405161020a919061143a565b61025f611a0b81565b6101fe610422366004611244565b610d31565b61025f60075481565b61025f61271081565b6102ad610447366004611276565b610d62565b61025f5f805160206117b083398151915281565b61047361046e366004611244565b610db4565b60405161020a97969594939291906114b5565b5f6001600160e01b03198216637965db0b60e01b14806104b657506301ffc9a760e01b6001600160e01b03198316145b92915050565b5f805f806104c8610895565b600454600554919550935091506127106104e46105dc85611523565b6104ee919061153a565b905090919293565b5f8281526020819052604090206001015461051081610e8a565b61051a8383610e97565b50505050565b6001600160a01b03811633146105495760405163334bd91960e11b815260040160405180910390fd5b6105538282610f26565b505050565b5f7f21702c8af46127c7fa207f89d0b0a8441bb32959a0ac7df790e9ab1a25c9892661058381610e8a565b61058b610f8f565b87878787878742436040516020016105aa989796959493929190611559565b60408051601f1981840301815291815281516020928301205f818152600390935291205490925060ff16156106265760405162461bcd60e51b815260206004820152601860248201527f416374696f6e20616c72656164792070726f636573736564000000000000000060448201526064015b60405180910390fd5b5f610635898989898989610fb5565b9050806106bb57827f4f04bc9690c759009a36b8279f46869e92155d7532fb99d46d16b347054fd46960405161069a906020808252818101527f436f6e737469747574696f6e616c2076616c69646174696f6e206661696c6564604082015260600190565b60405180910390a2604051632237483560e21b815260040160405180910390fd5b6040518060e001604052808a60058111156106d8576106d86113c3565b8152602001896001600160a01b03168152602001886001600160a01b0316815260200187815260200186868080601f0160208091040260200160405190810160405280939291908181526020018383808284375f92018290525093855250504260208085019190915260016040948501819052888452600290915292909120835181549193909250839160ff191690836005811115610779576107796113c3565b021790555060208201518154610100600160a81b0319166101006001600160a01b039283160217825560408301516001830180546001600160a01b0319169190921617905560608201516002820155608082015160038201906107dc9082611662565b5060a0820151600482015560c0909101516005909101805460ff191691151591909117905560405183907fc709543db59cd342424dc52e3eb4fae1bd69ba739278afcd89dea8fd6c101d8a90610835908c908c90611722565b60405180910390a250509695505050505050565b5f805160206117d083398151915261086081610e8a565b6108686110ad565b60405133907f14729a0ce12ddb8a6c4051b8246c11e54e052aabf7e63da0b1ca40c6f93c1108905f90a250565b6004545f9081036108a65750600190565b5f6127106105dc60045f01546108bc9190611523565b6108c6919061153a565b600554101592915050565b5f806108dc8461090f565b909210159392505050565b5f918252602082815260408084206001600160a01b0393909316845291905290205460ff1690565b5f61271061091f6105dc84611523565b6104b6919061153a565b5f805160206117b083398151915261094081610e8a565b60408051606081018252848152602081018490524290820181905260048590556005849055600655517fb265d739e6beb09351b9ace455356b44ab3025bf1b74b3c6a97bb615f25a8ad1906109a19085908590918252602082015260400190565b60405180910390a16109b1610895565b610553575f801b7f29836296fb11a9fc2e8623ec78870c3c66280d336b2f35957f46bf0f6ee39871604051610a17906020808252601f908201527f446976657273696669636174696f6e206d616e64617465206e6f74206d657400604082015260600190565b60405180910390a2505050565b5f805160206117b0833981519152610a3b81610e8a565b5f8281526002602052604090206005015460ff16610a925760405162461bcd60e51b81526020600482015260146024820152731058dd1a5bdb881b9bdd081d985b1a59185d195960621b604482015260640161061d565b5f8281526003602052604090205460ff1615610ae35760405162461bcd60e51b815260206004820152601060248201526f105b1c9958591e48195e1958dd5d195960821b604482015260640161061d565b5f828152600360209081526040808320805460ff1916600117905560029091529081902054905183917f434a4db7d123f4bca5a92783a9a272f3a4ad797d4ca9b52a2c7f321450b538bd91610b3b9160ff1690611748565b60405180910390a25050565b5f805160206117d0833981519152610b5e81610e8a565b610b666110ff565b60078054905f610b7583611756565b90915550504260085560405133907fb15473e06f64cc4c399164c5312766ef0581b9eb186e299b4d80857ed126bde390610a17908690869061176e565b5f82815260208190526040902060010154610bcc81610e8a565b61051a8383610f26565b6040805160e0810182525f808252602082018190529181018290526060808201839052608082015260a0810182905260c08101919091525f8281526002602052604090819020815160e081019092528054829060ff166005811115610c3d57610c3d6113c3565b6005811115610c4e57610c4e6113c3565b815281546001600160a01b0361010090910481166020830152600183015416604082015260028201546060820152600382018054608090920191610c91906115df565b80601f0160208091040260200160405190810160405280929190818152602001828054610cbd906115df565b8015610d085780601f10610cdf57610100808354040283529160200191610d08565b820191905f5260205f20905b815481529060010190602001808311610ceb57829003601f168201915b50505091835250506004820154602082015260059091015460ff16151560409091015292915050565b5f8181526002602052604081206005015460ff1680156104b65750505f9081526003602052604090205460ff161590565b5f805160206117b0833981519152610d7981610e8a565b816001600160a01b03167f642d6100784674df0318aaf2b8a0a6f0fd73e7c56880f2e3988957c984da95b584604051610a1791815260200190565b600260208190525f9182526040909120805460018201549282015460038301805460ff8416956001600160a01b036101009095048516959416939190610df9906115df565b80601f0160208091040260200160405190810160405280929190818152602001828054610e25906115df565b8015610e705780601f10610e4757610100808354040283529160200191610e70565b820191905f5260205f20905b815481529060010190602001808311610e5357829003601f168201915b50505050600483015460059093015491929160ff16905087565b610e94813361113a565b50565b5f610ea283836108e7565b610f1f575f838152602081815260408083206001600160a01b03861684529091529020805460ff19166001179055610ed73390565b6001600160a01b0316826001600160a01b0316847f2f8788117e7eff1d82e926ec794901d17c78024a50270940304540a733656f0d60405160405180910390a45060016104b6565b505f6104b6565b5f610f3183836108e7565b15610f1f575f838152602081815260408083206001600160a01b0386168085529252808320805460ff1916905551339286917ff6391f5c32d9c69d2a47ea670b442974b53935d1edc7fd64eb21e047a839171b9190a45060016104b6565b60015460ff1615610fb35760405163d93c066560e01b815260040160405180910390fd5b565b5f80876005811115610fc957610fc96113c3565b03610fde57610fd784611177565b90506110a3565b6001876005811115610ff257610ff26113c3565b0361100257610fd78684846111d3565b6002876005811115611016576110166113c3565b03611022576001610fd7565b6003876005811115611036576110366113c3565b0361104657610fd78684846111d3565b600487600581111561105a5761105a6113c3565b0361107657610fd75f805160206117d0833981519152876108e7565b600587600581111561108a5761108a6113c3565b036110a0576001600160a01b0385161515610fd7565b505f5b9695505050505050565b6110b56111f3565b6001805460ff191690557f5db9ee0a495bf2e6ff9c91a7834c1ba4fdd244a5e8aa4e537bd38aeae4b073aa335b6040516001600160a01b03909116815260200160405180910390a1565b611107610f8f565b6001805460ff1916811790557f62e78cea01bee320cd4e420270b5ea74000d11b0c9f74754ebdbfc544b05a258336110e2565b61114482826108e7565b6111735760405163e2517d3f60e01b81526001600160a01b03821660048201526024810183905260440161061d565b5050565b6004545f90810361118a57506001919050565b5f8260045f01541161119c575f6111aa565b6004546111aa90849061179c565b90505f6127106111bc6105dc84611523565b6111c6919061153a565b6005541015949350505050565b5f6111eb5f805160206117b0833981519152856108e7565b949350505050565b60015460ff16610fb357604051638dfc202b60e01b815260040160405180910390fd5b5f60208284031215611226575f80fd5b81356001600160e01b03198116811461123d575f80fd5b9392505050565b5f60208284031215611254575f80fd5b5035919050565b80356001600160a01b0381168114611271575f80fd5b919050565b5f8060408385031215611287575f80fd5b823591506112976020840161125b565b90509250929050565b5f8083601f8401126112b0575f80fd5b50813567ffffffffffffffff8111156112c7575f80fd5b6020830191508360208285010111156112de575f80fd5b9250929050565b5f805f805f8060a087890312156112fa575f80fd5b863560068110611308575f80fd5b95506113166020880161125b565b94506113246040880161125b565b935060608701359250608087013567ffffffffffffffff811115611346575f80fd5b61135289828a016112a0565b979a9699509497509295939492505050565b5f8060408385031215611375575f80fd5b50508035926020909101359150565b5f8060208385031215611395575f80fd5b823567ffffffffffffffff8111156113ab575f80fd5b6113b7858286016112a0565b90969095509350505050565b634e487b7160e01b5f52602160045260245ffd5b600681106113f357634e487b7160e01b5f52602160045260245ffd5b9052565b5f81518084525f5b8181101561141b576020818501810151868301820152016113ff565b505f602082860101526020601f19601f83011685010191505092915050565b6020815261144c6020820183516113d7565b5f602083015160018060a01b038082166040850152806040860151166060850152505060608301516080830152608083015160e060a08401526114936101008401826113f7565b905060a084015160c084015260c0840151151560e08401528091505092915050565b6114bf81896113d7565b6001600160a01b038781166020830152861660408201526060810185905260e0608082018190525f906114f4908301866113f7565b60a08301949094525090151560c09091015295945050505050565b634e487b7160e01b5f52601160045260245ffd5b80820281158282048414176104b6576104b661150f565b5f8261155457634e487b7160e01b5f52601260045260245ffd5b500490565b5f60068a1061157657634e487b7160e01b5f52602160045260245ffd5b8960f81b82526bffffffffffffffffffffffff19808a60601b166001840152808960601b1660158401525086602983015284866049840137506049930192830191909152606982015260890195945050505050565b634e487b7160e01b5f52604160045260245ffd5b600181811c908216806115f357607f821691505b60208210810361161157634e487b7160e01b5f52602260045260245ffd5b50919050565b601f82111561055357805f5260205f20601f840160051c8101602085101561163c5750805b601f840160051c820191505b8181101561165b575f8155600101611648565b5050505050565b815167ffffffffffffffff81111561167c5761167c6115cb565b6116908161168a84546115df565b84611617565b602080601f8311600181146116c3575f84156116ac5750858301515b5f19600386901b1c1916600185901b17855561171a565b5f85815260208120601f198616915b828110156116f1578886015182559484019460019091019084016116d2565b508582101561170e57878501515f19600388901b60f8161c191681555b505060018460011b0185555b505050505050565b6040810161173082856113d7565b6001600160a01b039290921660209190910152919050565b602081016104b682846113d7565b5f600182016117675761176761150f565b5060010190565b60208152816020820152818360408301375f818301604090810191909152601f909201601f19160101919050565b818103818111156104b6576104b661150f56fe71840dc4906352362b0cdaf79870196c8e42acafade72d5d5a6d59291253ceb1dc1958ce1178d6eb32ccc146dcea8933f1978155832913ec88fa509962e1b413a26469706673582212204785397605dcf9d12daa6a80c178f7bf8908393c1e09106e81e43bb8b927857064736f6c63430008180033","linkReferences":{}},"methodIdentifiers":{"BASIS_POINTS()":"e1f1c4a7","CHAIRMAN_ROLE()":"a097dc4b","DEFAULT_ADMIN_ROLE()":"a217fddf","DIVERSIFICATION_MANDATE()":"98d428bb","GOVERNANCE_ROLE()":"f36c8f5c","TREASURY_TITHE()":"8087de99","VALIDATOR_ROLE()":"c49baebe","VOTING_QUORUM()":"dceab8b8","actions(bytes32)":"f3abde32","calculateTithe(uint256)":"983d7094","checkDiversificationLimit()":"708dd018","emergencyActionCount()":"e0d30ed9","executedActions(bytes32)":"3b1c57cb","getAction(bytes32)":"dce9f070","getRoleAdmin(bytes32)":"248a9ca3","getTreasuryCompliance()":"07ae88fa","grantRole(bytes32,address)":"2f2ff15d","hasRole(bytes32,address)":"91d14854","isActionPending(bytes32)":"de517cf4","lastEmergencyAction()":"726e50b7","markActionExecuted(bytes32)":"b131a1d5","pauseSystem(string)":"d5004c7c","paused()":"5c975abb","recordTithe(uint256,address)":"f222977d","renounceRole(bytes32,address)":"36568abe","revokeRole(bytes32,address)":"d547741f","supportsInterface(bytes4)":"01ffc9a7","treasuryState()":"271bfa54","unpauseSystem()":"4c761240","updateTreasuryState(uint256,uint256)":"ae44fd96","validateAction(uint8,address,address,uint256,bytes)":"44c828d7","validateTithe(uint256,uint256)":"8475d726"},"id":60}