{
  "_format": "hh-sol-artifact-1",
  "contractName": "HardhatMinimalUUPS",
  "sourceName": "contracts/HardhatMinimalUUPS.sol",
  "abi": [
    {
      "inputs": [],
      "stateMutability": "nonpayable",
      "type": "constructor"
    },
    {
      "inputs": [
        {
          "internalType": "address",
          "name": "target",
          "type": "address"
        }
      ],
      "name": "AddressEmptyCode",
      "type": "error"
    },
    {
      "inputs": [
        {
          "internalType": "address",
          "name": "implementation",
          "type": "address"
        }
      ],
      "name": "ERC1967InvalidImplementation",
      "type": "error"
    },
    {
      "inputs": [],
      "name": "ERC1967NonPayable",
      "type": "error"
    },
    {
      "inputs": [],
      "name": "FailedCall",
      "type": "error"
    },
    {
      "inputs": [],
      "name": "InvalidInitialization",
      "type": "error"
    },
    {
      "inputs": [],
      "name": "NotInitializing",
      "type": "error"
    },
    {
      "inputs": [
        {
          "internalType": "address",
          "name": "owner",
          "type": "address"
        }
      ],
      "name": "OwnableInvalidOwner",
      "type": "error"
    },
    {
      "inputs": [
        {
          "internalType": "address",
          "name": "account",
          "type": "address"
        }
      ],
      "name": "OwnableUnauthorizedAccount",
      "type": "error"
    },
    {
      "inputs": [],
      "name": "UUPSUnauthorizedCallContext",
      "type": "error"
    },
    {
      "inputs": [
        {
          "internalType": "bytes32",
          "name": "slot",
          "type": "bytes32"
        }
      ],
      "name": "UUPSUnsupportedProxiableUUID",
      "type": "error"
    },
    {
      "anonymous": false,
      "inputs": [
        {
          "indexed": false,
          "internalType": "uint64",
          "name": "version",
          "type": "uint64"
        }
      ],
      "name": "Initialized",
      "type": "event"
    },
    {
      "anonymous": false,
      "inputs": [
        {
          "indexed": true,
          "internalType": "address",
          "name": "previousOwner",
          "type": "address"
        },
        {
          "indexed": true,
          "internalType": "address",
          "name": "newOwner",
          "type": "address"
        }
      ],
      "name": "OwnershipTransferred",
      "type": "event"
    },
    {
      "anonymous": false,
      "inputs": [
        {
          "indexed": true,
          "internalType": "address",
          "name": "implementation",
          "type": "address"
        }
      ],
      "name": "Upgraded",
      "type": "event"
    },
    {
      "inputs": [],
      "name": "UPGRADE_INTERFACE_VERSION",
      "outputs": [
        {
          "internalType": "string",
          "name": "",
          "type": "string"
        }
      ],
      "stateMutability": "view",
      "type": "function"
    },
    {
      "inputs": [],
      "name": "getVersion",
      "outputs": [
        {
          "internalType": "string",
          "name": "",
          "type": "string"
        }
      ],
      "stateMutability": "pure",
      "type": "function"
    },
    {
      "inputs": [
        {
          "internalType": "address",
          "name": "identityRegistry_",
          "type": "address"
        }
      ],
      "name": "initialize",
      "outputs": [],
      "stateMutability": "nonpayable",
      "type": "function"
    },
    {
      "inputs": [],
      "name": "owner",
      "outputs": [
        {
          "internalType": "address",
          "name": "",
          "type": "address"
        }
      ],
      "stateMutability": "view",
      "type": "function"
    },
    {
      "inputs": [],
      "name": "proxiableUUID",
      "outputs": [
        {
          "internalType": "bytes32",
          "name": "",
          "type": "bytes32"
        }
      ],
      "stateMutability": "view",
      "type": "function"
    },
    {
      "inputs": [],
      "name": "renounceOwnership",
      "outputs": [],
      "stateMutability": "nonpayable",
      "type": "function"
    },
    {
      "inputs": [
        {
          "internalType": "address",
          "name": "newOwner",
          "type": "address"
        }
      ],
      "name": "transferOwnership",
      "outputs": [],
      "stateMutability": "nonpayable",
      "type": "function"
    },
    {
      "inputs": [
        {
          "internalType": "address",
          "name": "newImplementation",
          "type": "address"
        },
        {
          "internalType": "bytes",
          "name": "data",
          "type": "bytes"
        }
      ],
      "name": "upgradeToAndCall",
      "outputs": [],
      "stateMutability": "payable",
      "type": "function"
    }
  ],
  "bytecode": "0x60a080604052346100cc57306080527ff0c57e16840df040f15088dc2f81fe391c3923bec73e23a9662efc9c229c6a009081549060ff8260401c166100bd57506001600160401b036002600160401b031982821601610078575b60405161082d90816100d182396080518181816102e101526103c40152f35b6001600160401b031990911681179091556040519081527fc7f505b2f371ae2175ee4913f4499e1f2633a7b5936321eed1cdaeb6115181d290602090a15f8080610059565b63f92ee8a960e01b8152600490fd5b5f80fdfe60806040818152600480361015610014575f80fd5b5f3560e01c9283630d8e6e2c14610576575082634f1ef2861461034557826352d1902d146102ce578263715018a6146102675782638da5cb5b14610233578263ad3cb1cc146101f3578263c4d66de8146100a757505063f2fde38b14610078575f80fd5b346100a35760203660031901126100a3576100a16100946105f4565b61009c6106cd565b61065c565b005b5f80fd5b346100a35760203660031901126100a3576100c06105f4565b907ff0c57e16840df040f15088dc2f81fe391c3923bec73e23a9662efc9c229c6a0091825460ff81861c16159267ffffffffffffffff8216801590816101eb575b60011490816101e1575b1590816101d8575b506101ca575067ffffffffffffffff1981166001178455826101ab575b50610139610705565b610141610705565b61014a3361065c565b60018060a01b03166bffffffffffffffffffffffff60a01b5f5416175f5561016e57005b805468ff00000000000000001916905551600181527fc7f505b2f371ae2175ee4913f4499e1f2633a7b5936321eed1cdaeb6115181d290602090a1005b68ffffffffffffffffff19166801000000000000000117835584610130565b855163f92ee8a960e01b8152fd5b90501587610113565b303b15915061010b565b859150610101565b50346100a3575f3660031901126100a357805161022f916102138261060a565b60058252640352e302e360dc1b602083015251918291826105ad565b0390f35b50346100a3575f3660031901126100a3575f805160206107d88339815191525490516001600160a01b039091168152602090f35b346100a3575f3660031901126100a35761027f6106cd565b5f805160206107d883398151915280546001600160a01b031981169091555f906001600160a01b03167f8be0079c531659141344cd1fd0a4f28419497f9722a3daafe3b4186f6b6457e08280a3005b90346100a3575f3660031901126100a3577f00000000000000000000000000000000000000000000000000000000000000006001600160a01b0316300361033857602090517f360894a13ba1a3210667c828492db98dca3e2076cc3735a920a3ca505d382bbc8152f35b5163703e46dd60e11b8152fd5b816003193601126100a3576103586105f4565b602492833567ffffffffffffffff928382116100a357366023830112156100a357818501359384116105645760209383519261039d86601f19601f850116018561063a565b818452368883830101116100a357815f928988930183870137840101526001600160a01b037f00000000000000000000000000000000000000000000000000000000000000008116308114908115610536575b50610526576103fd6106cd565b83516352d1902d60e01b81529082169480828881895afa9182915f936104f6575b5050610438575050505191634c9c8ce360e01b8352820152fd5b85938591887f360894a13ba1a3210667c828492db98dca3e2076cc3735a920a3ca505d382bbc918281036104e15750843b156104cd575080546001600160a01b0319168317905551907fbc7cd75a20ee27fd9adebab32041f755214dbc6bffa90cc0225b39da2e5c2d3b5f80a28251156104b757506100a19250610746565b915050346104c157005b63b398979f60e01b8152fd5b8251634c9c8ce360e01b8152808801859052fd5b8351632a87526960e21b815280890191909152fd5b9080929350813d831161051f575b61050e818361063a565b810103126100a3575190888061041e565b503d610504565b835163703e46dd60e11b81528690fd5b9050817f360894a13ba1a3210667c828492db98dca3e2076cc3735a920a3ca505d382bbc54161415886103f0565b85604186634e487b7160e01b5f52525ffd5b9050346100a3575f3660031901126100a35761022f916105958261060a565b6005825264302e302e3160d81b602083015251918291825b602080825282518183018190529093925f5b8281106105e057505060409293505f838284010152601f8019910116010190565b8181018601518482016040015285016105bf565b600435906001600160a01b03821682036100a357565b6040810190811067ffffffffffffffff82111761062657604052565b634e487b7160e01b5f52604160045260245ffd5b90601f8019910116810190811067ffffffffffffffff82111761062657604052565b6001600160a01b039081169081156106b5575f805160206107d883398151915280546001600160a01b031981168417909155167f8be0079c531659141344cd1fd0a4f28419497f9722a3daafe3b4186f6b6457e05f80a3565b604051631e4fbdf760e01b81525f6004820152602490fd5b5f805160206107d8833981519152546001600160a01b031633036106ed57565b60405163118cdaa760e01b8152336004820152602490fd5b60ff7ff0c57e16840df040f15088dc2f81fe391c3923bec73e23a9662efc9c229c6a005460401c161561073457565b604051631afcd79f60e31b8152600490fd5b905f8091602081519101845af480806107c4575b1561077a5750506040513d81523d5f602083013e60203d82010160405290565b156107a157604051639996b31560e01b81526001600160a01b039091166004820152602490fd5b3d156107b2576040513d5f823e3d90fd5b60405163d6bda27560e01b8152600490fd5b503d15158061075a5750813b151561075a56fe9016d09d72d40fdae2fd8ceac6b6234c7706214fd39c1cd1e609a0528c199300a26469706673582212202f82ebc021d1f6366ba169e4feb59b3c66fdd8a7aea74f0460d5e51663d7ac5864736f6c63430008180033",
  "linkReferences": {},
  "deployedLinkReferences": {}
}