{"abi":[{"type":"constructor","inputs":[{"name":"_constitution","type":"address","internalType":"address"}],"stateMutability":"nonpayable"},{"type":"receive","stateMutability":"payable"},{"type":"function","name":"BASIS_POINTS","inputs":[],"outputs":[{"name":"","type":"uint256","internalType":"uint256"}],"stateMutability":"view"},{"type":"function","name":"DEFAULT_ADMIN_ROLE","inputs":[],"outputs":[{"name":"","type":"bytes32","internalType":"bytes32"}],"stateMutability":"view"},{"type":"function","name":"DISTRIBUTION_PERCENTAGE","inputs":[],"outputs":[{"name":"","type":"uint256","internalType":"uint256"}],"stateMutability":"view"},{"type":"function","name":"GOVERNANCE_ROLE","inputs":[],"outputs":[{"name":"","type":"bytes32","internalType":"bytes32"}],"stateMutability":"view"},{"type":"function","name":"MAX_SIGNERS","inputs":[],"outputs":[{"name":"","type":"uint256","internalType":"uint256"}],"stateMutability":"view"},{"type":"function","name":"REQUIRED_SIGNATURES","inputs":[],"outputs":[{"name":"","type":"uint256","internalType":"uint256"}],"stateMutability":"view"},{"type":"function","name":"SIGNER_ROLE","inputs":[],"outputs":[{"name":"","type":"bytes32","internalType":"bytes32"}],"stateMutability":"view"},{"type":"function","name":"TITHE_PERCENTAGE","inputs":[],"outputs":[{"name":"","type":"uint256","internalType":"uint256"}],"stateMutability":"view"},{"type":"function","name":"TREASURER_ROLE","inputs":[],"outputs":[{"name":"","type":"bytes32","internalType":"bytes32"}],"stateMutability":"view"},{"type":"function","name":"allocationRequestCount","inputs":[],"outputs":[{"name":"","type":"uint256","internalType":"uint256"}],"stateMutability":"view"},{"type":"function","name":"allocationRequests","inputs":[{"name":"","type":"uint256","internalType":"uint256"}],"outputs":[{"name":"id","type":"uint256","internalType":"uint256"},{"name":"requester","type":"address","internalType":"address"},{"name":"amount","type":"uint256","internalType":"uint256"},{"name":"token","type":"address","internalType":"address"},{"name":"purpose","type":"string","internalType":"string"},{"name":"approved","type":"bool","internalType":"bool"},{"name":"executed","type":"bool","internalType":"bool"},{"name":"requestedAt","type":"uint40","internalType":"uint40"}],"stateMutability":"view"},{"type":"function","name":"approveAllocation","inputs":[{"name":"requestId","type":"uint256","internalType":"uint256"}],"outputs":[],"stateMutability":"nonpayable"},{"type":"function","name":"cancelTransaction","inputs":[{"name":"txId","type":"uint256","internalType":"uint256"}],"outputs":[],"stateMutability":"nonpayable"},{"type":"function","name":"checkConstitutionalConstraints","inputs":[],"outputs":[{"name":"compliant","type":"bool","internalType":"bool"}],"stateMutability":"view"},{"type":"function","name":"confirmTransaction","inputs":[{"name":"txId","type":"uint256","internalType":"uint256"}],"outputs":[],"stateMutability":"nonpayable"},{"type":"function","name":"confirmations","inputs":[{"name":"","type":"uint256","internalType":"uint256"},{"name":"","type":"address","internalType":"address"}],"outputs":[{"name":"","type":"bool","internalType":"bool"}],"stateMutability":"view"},{"type":"function","name":"constitution","inputs":[],"outputs":[{"name":"","type":"address","internalType":"contract IDAIO_Constitution"}],"stateMutability":"view"},{"type":"function","name":"deposit","inputs":[],"outputs":[],"stateMutability":"payable"},{"type":"function","name":"depositToken","inputs":[{"name":"token","type":"address","internalType":"address"},{"name":"amount","type":"uint256","internalType":"uint256"}],"outputs":[],"stateMutability":"nonpayable"},{"type":"function","name":"distributeReward","inputs":[{"name":"to","type":"address","internalType":"address"},{"name":"amount","type":"uint256","internalType":"uint256"},{"name":"token","type":"address","internalType":"address"},{"name":"reason","type":"string","internalType":"string"}],"outputs":[],"stateMutability":"nonpayable"},{"type":"function","name":"distributionCount","inputs":[],"outputs":[{"name":"","type":"uint256","internalType":"uint256"}],"stateMutability":"view"},{"type":"function","name":"distributions","inputs":[{"name":"","type":"uint256","internalType":"uint256"}],"outputs":[{"name":"id","type":"uint256","internalType":"uint256"},{"name":"agent","type":"address","internalType":"address"},{"name":"amount","type":"uint256","internalType":"uint256"},{"name":"token","type":"address","internalType":"address"},{"name":"reason","type":"string","internalType":"string"},{"name":"distributedAt","type":"uint40","internalType":"uint40"}],"stateMutability":"view"},{"type":"function","name":"diversifiedTokenBalances","inputs":[{"name":"","type":"address","internalType":"address"}],"outputs":[{"name":"","type":"uint256","internalType":"uint256"}],"stateMutability":"view"},{"type":"function","name":"diversifiedValue","inputs":[],"outputs":[{"name":"","type":"uint256","internalType":"uint256"}],"stateMutability":"view"},{"type":"function","name":"executeAllocation","inputs":[{"name":"requestId","type":"uint256","internalType":"uint256"}],"outputs":[],"stateMutability":"nonpayable"},{"type":"function","name":"executeTransaction","inputs":[{"name":"txId","type":"uint256","internalType":"uint256"}],"outputs":[],"stateMutability":"nonpayable"},{"type":"function","name":"getAllocationRequest","inputs":[{"name":"requestId","type":"uint256","internalType":"uint256"}],"outputs":[{"name":"request","type":"tuple","internalType":"struct Treasury.AllocationRequest","components":[{"name":"id","type":"uint256","internalType":"uint256"},{"name":"requester","type":"address","internalType":"address"},{"name":"amount","type":"uint256","internalType":"uint256"},{"name":"token","type":"address","internalType":"address"},{"name":"purpose","type":"string","internalType":"string"},{"name":"approved","type":"bool","internalType":"bool"},{"name":"executed","type":"bool","internalType":"bool"},{"name":"requestedAt","type":"uint40","internalType":"uint40"}]}],"stateMutability":"view"},{"type":"function","name":"getBalance","inputs":[],"outputs":[{"name":"ethBalance","type":"uint256","internalType":"uint256"},{"name":"totalTokenValue","type":"uint256","internalType":"uint256"}],"stateMutability":"view"},{"type":"function","name":"getRoleAdmin","inputs":[{"name":"role","type":"bytes32","internalType":"bytes32"}],"outputs":[{"name":"","type":"bytes32","internalType":"bytes32"}],"stateMutability":"view"},{"type":"function","name":"getStats","inputs":[],"outputs":[{"name":"deposited","type":"uint256","internalType":"uint256"},{"name":"distributed","type":"uint256","internalType":"uint256"},{"name":"tithe","type":"uint256","internalType":"uint256"},{"name":"diversified","type":"uint256","internalType":"uint256"}],"stateMutability":"view"},{"type":"function","name":"getTransaction","inputs":[{"name":"txId","type":"uint256","internalType":"uint256"}],"outputs":[{"name":"transaction","type":"tuple","internalType":"struct Treasury.Transaction","components":[{"name":"id","type":"uint256","internalType":"uint256"},{"name":"to","type":"address","internalType":"address"},{"name":"value","type":"uint256","internalType":"uint256"},{"name":"data","type":"bytes","internalType":"bytes"},{"name":"token","type":"address","internalType":"address"},{"name":"reason","type":"string","internalType":"string"},{"name":"confirmations","type":"uint256","internalType":"uint256"},{"name":"status","type":"uint8","internalType":"enum Treasury.TransactionStatus"},{"name":"createdAt","type":"uint40","internalType":"uint40"},{"name":"executedAt","type":"uint40","internalType":"uint40"}]}],"stateMutability":"view"},{"type":"function","name":"grantRole","inputs":[{"name":"role","type":"bytes32","internalType":"bytes32"},{"name":"account","type":"address","internalType":"address"}],"outputs":[],"stateMutability":"nonpayable"},{"type":"function","name":"hasRole","inputs":[{"name":"role","type":"bytes32","internalType":"bytes32"},{"name":"account","type":"address","internalType":"address"}],"outputs":[{"name":"","type":"bool","internalType":"bool"}],"stateMutability":"view"},{"type":"function","name":"isTokenSupported","inputs":[{"name":"","type":"address","internalType":"address"}],"outputs":[{"name":"","type":"bool","internalType":"bool"}],"stateMutability":"view"},{"type":"function","name":"markAsDiversified","inputs":[{"name":"token","type":"address","internalType":"address"},{"name":"amount","type":"uint256","internalType":"uint256"}],"outputs":[],"stateMutability":"nonpayable"},{"type":"function","name":"pause","inputs":[],"outputs":[],"stateMutability":"nonpayable"},{"type":"function","name":"paused","inputs":[],"outputs":[{"name":"","type":"bool","internalType":"bool"}],"stateMutability":"view"},{"type":"function","name":"renounceRole","inputs":[{"name":"role","type":"bytes32","internalType":"bytes32"},{"name":"callerConfirmation","type":"address","internalType":"address"}],"outputs":[],"stateMutability":"nonpayable"},{"type":"function","name":"requestAllocation","inputs":[{"name":"amount","type":"uint256","internalType":"uint256"},{"name":"token","type":"address","internalType":"address"},{"name":"purpose","type":"string","internalType":"string"}],"outputs":[{"name":"requestId","type":"uint256","internalType":"uint256"}],"stateMutability":"nonpayable"},{"type":"function","name":"revokeRole","inputs":[{"name":"role","type":"bytes32","internalType":"bytes32"},{"name":"account","type":"address","internalType":"address"}],"outputs":[],"stateMutability":"nonpayable"},{"type":"function","name":"setConstitution","inputs":[{"name":"newConstitution","type":"address","internalType":"address"}],"outputs":[],"stateMutability":"nonpayable"},{"type":"function","name":"submitTransaction","inputs":[{"name":"to","type":"address","internalType":"address"},{"name":"value","type":"uint256","internalType":"uint256"},{"name":"token","type":"address","internalType":"address"},{"name":"data","type":"bytes","internalType":"bytes"},{"name":"reason","type":"string","internalType":"string"}],"outputs":[{"name":"txId","type":"uint256","internalType":"uint256"}],"stateMutability":"nonpayable"},{"type":"function","name":"supportedTokens","inputs":[{"name":"","type":"uint256","internalType":"uint256"}],"outputs":[{"name":"","type":"address","internalType":"address"}],"stateMutability":"view"},{"type":"function","name":"supportsInterface","inputs":[{"name":"interfaceId","type":"bytes4","internalType":"bytes4"}],"outputs":[{"name":"","type":"bool","internalType":"bool"}],"stateMutability":"view"},{"type":"function","name":"titheCollected","inputs":[],"outputs":[{"name":"","type":"uint256","internalType":"uint256"}],"stateMutability":"view"},{"type":"function","name":"tokenBalances","inputs":[{"name":"","type":"address","internalType":"address"}],"outputs":[{"name":"","type":"uint256","internalType":"uint256"}],"stateMutability":"view"},{"type":"function","name":"totalDeposited","inputs":[],"outputs":[{"name":"","type":"uint256","internalType":"uint256"}],"stateMutability":"view"},{"type":"function","name":"totalDistributed","inputs":[],"outputs":[{"name":"","type":"uint256","internalType":"uint256"}],"stateMutability":"view"},{"type":"function","name":"transactionCount","inputs":[],"outputs":[{"name":"","type":"uint256","internalType":"uint256"}],"stateMutability":"view"},{"type":"function","name":"transactions","inputs":[{"name":"","type":"uint256","internalType":"uint256"}],"outputs":[{"name":"id","type":"uint256","internalType":"uint256"},{"name":"to","type":"address","internalType":"address"},{"name":"value","type":"uint256","internalType":"uint256"},{"name":"data","type":"bytes","internalType":"bytes"},{"name":"token","type":"address","internalType":"address"},{"name":"reason","type":"string","internalType":"string"},{"name":"confirmations","type":"uint256","internalType":"uint256"},{"name":"status","type":"uint8","internalType":"enum Treasury.TransactionStatus"},{"name":"createdAt","type":"uint40","internalType":"uint40"},{"name":"executedAt","type":"uint40","internalType":"uint40"}],"stateMutability":"view"},{"type":"function","name":"unpause","inputs":[],"outputs":[],"stateMutability":"nonpayable"},{"type":"event","name":"AllocationApproved","inputs":[{"name":"requestId","type":"uint256","indexed":true,"internalType":"uint256"}],"anonymous":false},{"type":"event","name":"AllocationRequested","inputs":[{"name":"requestId","type":"uint256","indexed":true,"internalType":"uint256"},{"name":"requester","type":"address","indexed":true,"internalType":"address"},{"name":"amount","type":"uint256","indexed":false,"internalType":"uint256"},{"name":"purpose","type":"string","indexed":false,"internalType":"string"}],"anonymous":false},{"type":"event","name":"Deposit","inputs":[{"name":"from","type":"address","indexed":true,"internalType":"address"},{"name":"token","type":"address","indexed":true,"internalType":"address"},{"name":"amount","type":"uint256","indexed":false,"internalType":"uint256"},{"name":"titheAmount","type":"uint256","indexed":false,"internalType":"uint256"}],"anonymous":false},{"type":"event","name":"Paused","inputs":[{"name":"account","type":"address","indexed":false,"internalType":"address"}],"anonymous":false},{"type":"event","name":"RewardDistributed","inputs":[{"name":"distributionId","type":"uint256","indexed":true,"internalType":"uint256"},{"name":"agent","type":"address","indexed":true,"internalType":"address"},{"name":"amount","type":"uint256","indexed":false,"internalType":"uint256"},{"name":"token","type":"address","indexed":false,"internalType":"address"}],"anonymous":false},{"type":"event","name":"RoleAdminChanged","inputs":[{"name":"role","type":"bytes32","indexed":true,"internalType":"bytes32"},{"name":"previousAdminRole","type":"bytes32","indexed":true,"internalType":"bytes32"},{"name":"newAdminRole","type":"bytes32","indexed":true,"internalType":"bytes32"}],"anonymous":false},{"type":"event","name":"RoleGranted","inputs":[{"name":"role","type":"bytes32","indexed":true,"internalType":"bytes32"},{"name":"account","type":"address","indexed":true,"internalType":"address"},{"name":"sender","type":"address","indexed":true,"internalType":"address"}],"anonymous":false},{"type":"event","name":"RoleRevoked","inputs":[{"name":"role","type":"bytes32","indexed":true,"internalType":"bytes32"},{"name":"account","type":"address","indexed":true,"internalType":"address"},{"name":"sender","type":"address","indexed":true,"internalType":"address"}],"anonymous":false},{"type":"event","name":"TitheCollected","inputs":[{"name":"amount","type":"uint256","indexed":false,"internalType":"uint256"},{"name":"from","type":"address","indexed":true,"internalType":"address"}],"anonymous":false},{"type":"event","name":"TokenAdded","inputs":[{"name":"token","type":"address","indexed":true,"internalType":"address"}],"anonymous":false},{"type":"event","name":"TokenRemoved","inputs":[{"name":"token","type":"address","indexed":true,"internalType":"address"}],"anonymous":false},{"type":"event","name":"TransactionCancelled","inputs":[{"name":"txId","type":"uint256","indexed":true,"internalType":"uint256"}],"anonymous":false},{"type":"event","name":"TransactionConfirmed","inputs":[{"name":"txId","type":"uint256","indexed":true,"internalType":"uint256"},{"name":"signer","type":"address","indexed":true,"internalType":"address"}],"anonymous":false},{"type":"event","name":"TransactionExecuted","inputs":[{"name":"txId","type":"uint256","indexed":true,"internalType":"uint256"},{"name":"executor","type":"address","indexed":true,"internalType":"address"}],"anonymous":false},{"type":"event","name":"TransactionSubmitted","inputs":[{"name":"txId","type":"uint256","indexed":true,"internalType":"uint256"},{"name":"to","type":"address","indexed":true,"internalType":"address"},{"name":"value","type":"uint256","indexed":false,"internalType":"uint256"},{"name":"token","type":"address","indexed":false,"internalType":"address"}],"anonymous":false},{"type":"event","name":"Unpaused","inputs":[{"name":"account","type":"address","indexed":false,"internalType":"address"}],"anonymous":false},{"type":"error","name":"AccessControlBadConfirmation","inputs":[]},{"type":"error","name":"AccessControlUnauthorizedAccount","inputs":[{"name":"account","type":"address","internalType":"address"},{"name":"neededRole","type":"bytes32","internalType":"bytes32"}]},{"type":"error","name":"ConstitutionalViolation","inputs":[]},{"type":"error","name":"EnforcedPause","inputs":[]},{"type":"error","name":"ExpectedPause","inputs":[]},{"type":"error","name":"InsufficientBalance","inputs":[]},{"type":"error","name":"InvalidAmount","inputs":[]},{"type":"error","name":"NotEnoughConfirmations","inputs":[]},{"type":"error","name":"ReentrancyGuardReentrantCall","inputs":[]},{"type":"error","name":"SafeERC20FailedOperation","inputs":[{"name":"token","type":"address","internalType":"address"}]},{"type":"error","name":"TokenNotSupported","inputs":[]},{"type":"error","name":"TransactionAlreadyConfirmed","inputs":[]},{"type":"error","name":"TransactionAlreadyExecuted","inputs":[]}],"bytecode":{"object":"0x608060405234801562000010575f80fd5b5060405162003833380380620038338339810160408190526200003391620001be565b60017f9b779b17422d0df92223018b32b4d1fa46e071723d6817e2486d003becc55f005560018054610100600160a81b0319166101006001600160a01b03841602179055620000835f3362000112565b50620000b07f71840dc4906352362b0cdaf79870196c8e42acafade72d5d5a6d59291253ceb13362000112565b50620000dd7f3496e2e73c4d42b75d702e60d9e48102720b8691234415963a5a857b86425d073362000112565b506200010a7fe2f4eaae4a9751e85a3e4a7b9587827a877f29914755229b07a7b2da98285f703362000112565b5050620001ed565b5f828152602081815260408083206001600160a01b038516845290915281205460ff16620001b5575f838152602081815260408083206001600160a01b03861684529091529020805460ff191660011790556200016c3390565b6001600160a01b0316826001600160a01b0316847f2f8788117e7eff1d82e926ec794901d17c78024a50270940304540a733656f0d60405160405180910390a4506001620001b8565b505f5b92915050565b5f60208284031215620001cf575f80fd5b81516001600160a01b0381168114620001e6575f80fd5b9392505050565b61363880620001fb5f395ff3fe6080604052600436106102dc575f3560e01c806391d1485411610189578063c65c3d95116100d8578063e75b0b4d11610092578063f0a3a97c1161006d578063f0a3a97c1461096f578063f36c8f5c146109a2578063ff08108f146109c2578063ff50abdc146109e1575f80fd5b8063e75b0b4d14610926578063ee22610b1461093b578063efca2eed1461095a575f80fd5b8063c65c3d951461089c578063c96b9e29146108b1578063d0e30db0146108d5578063d547741f146108dd578063e1f1c4a7146108fc578063e2d87d0614610911575f80fd5b8063a217fddf11610143578063c01a8c841161011e578063c01a8c84146107ef578063c59d48471461080e578063c612572514610846578063c625562614610865575f80fd5b8063a217fddf146107a8578063a29c400b146107bb578063b77bf600146107da575f80fd5b806391d14854146106d8578063920545d8146106f757806395ea119d1461070c5780639ac18b191461073f5780639ace38c214610753578063a1ebf35d14610788575f80fd5b80634e83ed7911610245578063613919e7116101ff57806375151b63116101da57806375151b63146106635780638456cb59146106915780638b129228146106a55780638dda8118146106b9575f80fd5b8063613919e7146106105780636282e772146106255780636fa01cd014610644575f80fd5b80634e83ed791461055b578063517e171f1461058657806351af0f231461059b578063523fba7f146105ba57806359ecd657146105e55780635c975abb146105f9575f80fd5b8063338b5dea11610296578063338b5dea1461047357806333ea3dc8146104925780633411c81c146104be57806336568abe146104f75780633f4ba83a146105165780634487d3df1461052a575f80fd5b806301ffc9a71461036e57806312065fe0146103a2578063248a9ca3146103cb5780632e58552a146104075780632f2ff15d146104335780633380c0d814610454575f80fd5b3661036a575f6127106102f16105dc34612c9e565b6102fb9190612cb5565b90508060075f82825461030e9190612cd4565b925050819055503460055f8282546103269190612cd4565b909155505060408051348152602081018390525f9133917fdcbc1c05240f31ff3ad067ef1ee35ce4997762752e3a095284754544f4c709d7910160405180910390a3005b5f80fd5b348015610379575f80fd5b5061038d610388366004612ce7565b6109f6565b60405190151581526020015b60405180910390f35b3480156103ad575f80fd5b506103b6610a2c565b60408051928352602083019190915201610399565b3480156103d6575f80fd5b506103f96103e5366004612d15565b5f9081526020819052604090206001015490565b604051908152602001610399565b348015610412575f80fd5b50610426610421366004612d15565b610a8d565b6040516103999190612d6f565b34801561043e575f80fd5b5061045261044d366004612e1e565b610be7565b005b34801561045f575f80fd5b5061045261046e366004612d15565b610c11565b34801561047e575f80fd5b5061045261048d366004612e48565b610cb3565b34801561049d575f80fd5b506104b16104ac366004612d15565b610f02565b6040516103999190612ea4565b3480156104c9575f80fd5b5061038d6104d8366004612e1e565b600960209081525f928352604080842090915290825290205460ff1681565b348015610502575f80fd5b50610452610511366004612e1e565b6110f1565b348015610521575f80fd5b50610452611129565b348015610535575f80fd5b50610549610544366004612d15565b61114b565b60405161039996959493929190612f7a565b348015610566575f80fd5b506103f9610575366004612fcc565b60106020525f908152604090205481565b348015610591575f80fd5b506103f9600f5481565b3480156105a6575f80fd5b506104526105b5366004612fcc565b61121a565b3480156105c5575f80fd5b506103f96105d4366004612fcc565b600c6020525f908152604090205481565b3480156105f0575f80fd5b506103f9600581565b348015610604575f80fd5b5060015460ff1661038d565b34801561061b575f80fd5b506103f960035481565b348015610630575f80fd5b5061045261063f366004612d15565b61125a565b34801561064f575f80fd5b506103f961065e36600461308a565b6113e1565b34801561066e575f80fd5b5061038d61067d366004612fcc565b600e6020525f908152604090205460ff1681565b34801561069c575f80fd5b506104526115f4565b3480156106b0575f80fd5b5061038d611613565b3480156106c4575f80fd5b506104526106d3366004612e48565b61168c565b3480156106e3575f80fd5b5061038d6106f2366004612e1e565b6117dc565b348015610702575f80fd5b506103f960075481565b348015610717575f80fd5b5061072b610726366004612d15565b611804565b604051610399989796959493929190613129565b34801561074a575f80fd5b506103f9600381565b34801561075e575f80fd5b5061077261076d366004612d15565b6118e9565b6040516103999a9998979695949392919061318a565b348015610793575f80fd5b506103f95f805160206135c383398151915281565b3480156107b3575f80fd5b506103f95f81565b3480156107c6575f80fd5b506103f96107d5366004613216565b611a6c565b3480156107e5575f80fd5b506103f960025481565b3480156107fa575f80fd5b50610452610809366004612d15565b611bcc565b348015610819575f80fd5b50600554600654600754600f54604080519485526020850193909352918301526060820152608001610399565b348015610851575f80fd5b50610452610860366004612d15565b611cfd565b348015610870575f80fd5b5061088461087f366004612d15565b611f3a565b6040516001600160a01b039091168152602001610399565b3480156108a7575f80fd5b506103f960045481565b3480156108bc575f80fd5b506001546108849061010090046001600160a01b031681565b610452611f62565b3480156108e8575f80fd5b506104526108f7366004612e1e565b6120b9565b348015610907575f80fd5b506103f961271081565b34801561091c575f80fd5b506103f961213481565b348015610931575f80fd5b506103f96105dc81565b348015610946575f80fd5b50610452610955366004612d15565b6120dd565b348015610965575f80fd5b506103f960065481565b34801561097a575f80fd5b506103f97f3496e2e73c4d42b75d702e60d9e48102720b8691234415963a5a857b86425d0781565b3480156109ad575f80fd5b506103f95f805160206135a383398151915281565b3480156109cd575f80fd5b506104526109dc366004613269565b612414565b3480156109ec575f80fd5b506103f960055481565b5f6001600160e01b03198216637965db0b60e01b1480610a2657506301ffc9a760e01b6001600160e01b03198316145b92915050565b475f805b600d54811015610a8857600c5f600d8381548110610a5057610a506132cd565b5f9182526020808320909101546001600160a01b03168352820192909252604001902054610a7e9083612cd4565b9150600101610a30565b509091565b60408051610100810182525f808252602082018190529181018290526060808201839052608082015260a0810182905260c0810182905260e08101919091525f828152600a60209081526040918290208251610100810184528154815260018201546001600160a01b039081169382019390935260028201549381019390935260038101549091166060830152600481018054608084019190610b2f906132e1565b80601f0160208091040260200160405190810160405280929190818152602001828054610b5b906132e1565b8015610ba65780601f10610b7d57610100808354040283529160200191610ba6565b820191905f5260205f20905b815481529060010190602001808311610b8957829003601f168201915b50505091835250506005919091015460ff808216151560208401526101008204161515604083015262010000900464ffffffffff1660609091015292915050565b5f82815260208190526040902060010154610c01816127c8565b610c0b83836127d2565b50505050565b5f805160206135a3833981519152610c28816127c8565b5f82815260086020526040812090600782015460ff166002811115610c4f57610c4f612e70565b14610c755760405162461bcd60e51b8152600401610c6c90613319565b60405180910390fd5b60078101805460ff1916600217905560405183907f956fb32199d8b882b2039a14e1be35ab14f7a80b9089fc223f14b43937173e60905f90a2505050565b610cbb612861565b610cc361287c565b5f8111610d005760405162461bcd60e51b815260206004820152600b60248201526a16995c9bc8185b5bdd5b9d60aa1b6044820152606401610c6c565b610d156001600160a01b0383163330846128a0565b5f612710610d256105dc84612c9e565b610d2f9190612cb5565b90508060075f828254610d429190612cd4565b90915550506001600160a01b0383165f908152600c602052604081208054849290610d6e908490612cd4565b925050819055508160055f828254610d869190612cd4565b90915550506001600160a01b0383165f908152600e602052604090205460ff16610e3657600d805460018082019092557fd7b6990105719101dabeb77144f2a3385c8033acd3af97e9423a695e81ad1eb50180546001600160a01b0319166001600160a01b0386169081179091555f818152600e6020526040808220805460ff1916909417909355915190917f784c8f4dbf0ffedd6e72c76501c545a70f8b203b30a26ce542bf92ba87c248a491a25b60015460405163f222977d60e01b8152600481018390523360248201526101009091046001600160a01b03169063f222977d906044015f604051808303815f87803b158015610e83575f80fd5b505af1158015610e95573d5f803e3d5ffd5b50505050610ea16128d6565b60408051838152602081018390526001600160a01b0385169133917fdcbc1c05240f31ff3ad067ef1ee35ce4997762752e3a095284754544f4c709d7910160405180910390a350610efe60015f805160206135e383398151915255565b5050565b610f0a612c1b565b5f828152600860209081526040918290208251610140810184528154815260018201546001600160a01b031692810192909252600281015492820192909252600382018054919291606084019190610f61906132e1565b80601f0160208091040260200160405190810160405280929190818152602001828054610f8d906132e1565b8015610fd85780601f10610faf57610100808354040283529160200191610fd8565b820191905f5260205f20905b815481529060010190602001808311610fbb57829003601f168201915b505050918352505060048201546001600160a01b03166020820152600582018054604090920191611008906132e1565b80601f0160208091040260200160405190810160405280929190818152602001828054611034906132e1565b801561107f5780601f106110565761010080835404028352916020019161107f565b820191905f5260205f20905b81548152906001019060200180831161106257829003601f168201915b505050918352505060068201546020820152600782015460409091019060ff1660028111156110b0576110b0612e70565b60028111156110c1576110c1612e70565b81526007919091015464ffffffffff610100820481166020840152600160301b9091041660409091015292915050565b6001600160a01b038116331461111a5760405163334bd91960e11b815260040160405180910390fd5b6111248282612996565b505050565b5f805160206135a3833981519152611140816127c8565b6111486129ff565b50565b600b6020525f90815260409020805460018201546002830154600384015460048501805494956001600160a01b039485169593949092169261118c906132e1565b80601f01602080910402602001604051908101604052809291908181526020018280546111b8906132e1565b80156112035780601f106111da57610100808354040283529160200191611203565b820191905f5260205f20905b8154815290600101906020018083116111e657829003601f168201915b5050506005909301549192505064ffffffffff1686565b5f805160206135a3833981519152611231816127c8565b50600180546001600160a01b0390921661010002610100600160a81b0319909216919091179055565b5f805160206135a3833981519152611271816127c8565b5f828152600a60205260409020600581015460ff16156112c65760405162461bcd60e51b815260206004820152601060248201526f105b1c9958591e48185c1c1c9bdd995960821b6044820152606401610c6c565b6005810154610100900460ff16156113135760405162461bcd60e51b815260206004820152601060248201526f105b1c9958591e48195e1958dd5d195960821b6044820152606401610c6c565b60018054906101000a90046001600160a01b03166001600160a01b031663708dd0186040518163ffffffff1660e01b8152600401602060405180830381865afa158015611362573d5f803e3d5ffd5b505050506040513d601f19601f82011682018060405250810190611386919061333e565b6113a357604051630ebcf8ad60e21b815260040160405180910390fd5b60058101805460ff1916600117905560405183907fa7e0791b5866e572a2f7a36abaf9fdd271fdc1be13d9a8879814ab67c0cdd3ce905f90a2505050565b5f5f805160206135c38339815191526113f9816127c8565b60028054905f6114088361335d565b91905055506002549150604051806101400160405280838152602001886001600160a01b03168152602001878152602001858152602001866001600160a01b031681526020018481526020015f81526020015f600281111561146c5761146c612e70565b81524264ffffffffff166020808301919091525f60409283018190528581526008825282902083518155908301516001820180546001600160a01b0319166001600160a01b03909216919091179055908201516002820155606082015160038201906114d890826133b9565b5060808201516004820180546001600160a01b0319166001600160a01b0390921691909117905560a0820151600582019061151390826133b9565b5060c0820151600682015560e082015160078201805460ff1916600183600281111561154157611541612e70565b02179055506101008281015160079290920180546101209094015164ffffffffff908116600160301b026affffffffff0000000000001991909416909202919091166affffffffffffffffffff001990931692909217179055604080518781526001600160a01b03878116602083015289169184917f6456cbd6065ce598fbcc30d50b4d4d736ca1f66349ac629c4de702ff6b9d5604910160405180910390a36115ea82611bcc565b5095945050505050565b5f805160206135a383398151915261160b816127c8565b611148612a51565b5f60018054906101000a90046001600160a01b03166001600160a01b031663708dd0186040518163ffffffff1660e01b8152600401602060405180830381865afa158015611663573d5f803e3d5ffd5b505050506040513d601f19601f82011682018060405250810190611687919061333e565b905090565b7f3496e2e73c4d42b75d702e60d9e48102720b8691234415963a5a857b86425d076116b6816127c8565b6001600160a01b0383165f908152600e602052604090205460ff16806116e357506001600160a01b038316155b6117255760405162461bcd60e51b8152602060048201526013602482015272151bdad95b881b9bdd081cdd5c1c1bdc9d1959606a1b6044820152606401610c6c565b6001600160a01b03831661175857814710156117535760405162461bcd60e51b8152600401610c6c90613479565b61178f565b6001600160a01b0383165f908152600c602052604090205482111561178f5760405162461bcd60e51b8152600401610c6c906134a3565b6001600160a01b0383165f90815260106020526040812080548492906117b6908490612cd4565b9250508190555081600f5f8282546117ce9190612cd4565b9091555061112490506128d6565b5f918252602082815260408084206001600160a01b0393909316845291905290205460ff1690565b600a6020525f90815260409020805460018201546002830154600384015460048501805494956001600160a01b0394851695939490921692611845906132e1565b80601f0160208091040260200160405190810160405280929190818152602001828054611871906132e1565b80156118bc5780601f10611893576101008083540402835291602001916118bc565b820191905f5260205f20905b81548152906001019060200180831161189f57829003601f168201915b5050506005909301549192505060ff8082169161010081049091169064ffffffffff620100009091041688565b60086020525f9081526040902080546001820154600283015460038401805493946001600160a01b0390931693919291611922906132e1565b80601f016020809104026020016040519081016040528092919081815260200182805461194e906132e1565b80156119995780601f1061197057610100808354040283529160200191611999565b820191905f5260205f20905b81548152906001019060200180831161197c57829003601f168201915b505050600484015460058501805494956001600160a01b039092169491935091506119c3906132e1565b80601f01602080910402602001604051908101604052809291908181526020018280546119ef906132e1565b8015611a3a5780601f10611a1157610100808354040283529160200191611a3a565b820191905f5260205f20905b815481529060010190602001808311611a1d57829003601f168201915b505050600684015460079094015492939260ff8116925064ffffffffff610100820481169250600160301b909104168a565b600380545f9182611a7c8361335d565b90915550506003805460408051610100810182528281523360208083019182528284018a81526001600160a01b038a811660608601908152608086018b81525f60a0880181905260c0880181905264ffffffffff421660e0890152898152600a909552969093208551815593516001850180549183166001600160a01b0319928316179055915160028501559151968301805497909216961695909517909455905191935091906004820190611b3290826133b9565b5060a08201516005909101805460c084015160e09094015164ffffffffff16620100000266ffffffffff0000199415156101000261ff00199415159490941661ffff19909216919091179290921792909216179055604051339082907fea39117a5c2b9ed7463847372793da7252f898ee32479e9543283f3ff6846e2190611bbd90889087906134d0565b60405180910390a39392505050565b5f805160206135c3833981519152611be3816127c8565b5f82815260086020526040812090600782015460ff166002811115611c0a57611c0a612e70565b14611c275760405162461bcd60e51b8152600401610c6c90613319565b5f83815260096020908152604080832033845290915290205460ff1615611c845760405162461bcd60e51b8152602060048201526011602482015270105b1c9958591e4818dbdb999a5c9b5959607a1b6044820152606401610c6c565b5f8381526009602090815260408083203384529091528120805460ff1916600117905560068201805491611cb78361335d565b9091555050604051339084907f15c2f311c9e0f53b50388279894aeff029a3457884a6601e924fca879e12adcc905f90a3600381600601541061112457611124836120dd565b611d05612861565b5f818152600a60205260409020600581015460ff16611d555760405162461bcd60e51b815260206004820152600c60248201526b139bdd08185c1c1c9bdd995960a21b6044820152606401610c6c565b6005810154610100900460ff1615611da25760405162461bcd60e51b815260206004820152601060248201526f105b1c9958591e48195e1958dd5d195960821b6044820152606401610c6c565b60058101805461ff00191661010017905560038101546001600160a01b0316611e65578060020154471015611de95760405162461bcd60e51b8152600401610c6c90613479565b600181015460028201546040515f926001600160a01b031691908381818185875af1925050503d805f8114611e39576040519150601f19603f3d011682016040523d82523d5f602084013e611e3e565b606091505b5050905080611e5f5760405162461bcd60e51b8152600401610c6c906134f0565b50611f00565b600281015460038201546001600160a01b03165f908152600c60205260409020541015611ea45760405162461bcd60e51b8152600401610c6c906134a3565b600281015460038201546001600160a01b03165f908152600c602052604081208054909190611ed490849061351d565b9091555050600181015460028201546003830154611f00926001600160a01b0391821692911690612a8c565b806002015460065f828254611f159190612cd4565b90915550611f2390506128d6565b5061114860015f805160206135e383398151915255565b600d8181548110611f49575f80fd5b5f918252602090912001546001600160a01b0316905081565b611f6a612861565b611f7261287c565b5f3411611fae5760405162461bcd60e51b815260206004820152600a6024820152695a65726f2076616c756560b01b6044820152606401610c6c565b5f612710611fbe6105dc34612c9e565b611fc89190612cb5565b90508060075f828254611fdb9190612cd4565b925050819055503460055f828254611ff39190612cd4565b909155505060015460405163f222977d60e01b8152600481018390523360248201526101009091046001600160a01b03169063f222977d906044015f604051808303815f87803b158015612045575f80fd5b505af1158015612057573d5f803e3d5ffd5b505050506120636128d6565b60408051348152602081018390525f9133917fdcbc1c05240f31ff3ad067ef1ee35ce4997762752e3a095284754544f4c709d7910160405180910390a3506120b760015f805160206135e383398151915255565b565b5f828152602081905260409020600101546120d3816127c8565b610c0b8383612996565b5f805160206135c38339815191526120f4816127c8565b6120fc612861565b5f82815260086020526040812090600782015460ff16600281111561212357612123612e70565b146121405760405162461bcd60e51b8152600401610c6c90613319565b6003816006015410156121955760405162461bcd60e51b815260206004820152601860248201527f4e6f7420656e6f75676820636f6e6669726d6174696f6e7300000000000000006044820152606401610c6c565b60018054906101000a90046001600160a01b03166001600160a01b031663708dd0186040518163ffffffff1660e01b8152600401602060405180830381865afa1580156121e4573d5f803e3d5ffd5b505050506040513d601f19601f82011682018060405250810190612208919061333e565b61222557604051630ebcf8ad60e21b815260040160405180910390fd5b60078101805464ffffffffff4216600160301b026affffffffff0000000000ff1990911617600117905560048101546001600160a01b03166123135780600201544710156122855760405162461bcd60e51b8152600401610c6c90613479565b600181015460028201546040515f926001600160a01b031691906122ad906003860190613530565b5f6040518083038185875af1925050503d805f81146122e7576040519150601f19603f3d011682016040523d82523d5f602084013e6122ec565b606091505b505090508061230d5760405162461bcd60e51b8152600401610c6c906134f0565b506123ae565b600281015460048201546001600160a01b03165f908152600c602052604090205410156123525760405162461bcd60e51b8152600401610c6c906134a3565b600281015460048201546001600160a01b03165f908152600c60205260408120805490919061238290849061351d565b90915550506001810154600282015460048301546123ae926001600160a01b0391821692911690612a8c565b806002015460065f8282546123c39190612cd4565b909155506123d190506128d6565b604051339084907fefc13bdcf58f184ea7cae26b499fb33b539e01d0197cea456f3ada289b8cf19b905f90a350610efe60015f805160206135e383398151915255565b5f805160206135a383398151915261242b816127c8565b612433612861565b6001600160a01b03851661247d5760405162461bcd60e51b8152602060048201526011602482015270125b9d985b1a59081c9958da5c1a595b9d607a1b6044820152606401610c6c565b5f84116124ba5760405162461bcd60e51b815260206004820152600b60248201526a16995c9bc8185b5bdd5b9d60aa1b6044820152606401610c6c565b60018054906101000a90046001600160a01b03166001600160a01b031663708dd0186040518163ffffffff1660e01b8152600401602060405180830381865afa158015612509573d5f803e3d5ffd5b505050506040513d601f19601f8201168201806040525081019061252d919061333e565b61254a57604051630ebcf8ad60e21b815260040160405180910390fd5b60048054905f6125598361335d565b90915550506004546001600160a01b038416612604578447101561258f5760405162461bcd60e51b8152600401610c6c90613479565b5f866001600160a01b0316866040515f6040518083038185875af1925050503d805f81146125d8576040519150601f19603f3d011682016040523d82523d5f602084013e6125dd565b606091505b50509050806125fe5760405162461bcd60e51b8152600401610c6c906134f0565b5061267c565b6001600160a01b0384165f908152600c602052604090205485111561263b5760405162461bcd60e51b8152600401610c6c906134a3565b6001600160a01b0384165f908152600c60205260408120805487929061266290849061351d565b9091555061267c90506001600160a01b0385168787612a8c565b6040805160c0810182528281526001600160a01b0380891660208084019182528385018a815289841660608601908152608086018a815264ffffffffff421660a08801525f898152600b909452969092208551815592516001840180549186166001600160a01b0319928316179055905160028401559051600383018054919094169116179091559151909190600482019061271890826133b9565b5060a0820151816005015f6101000a81548164ffffffffff021916908364ffffffffff1602179055509050508460065f8282546127559190612cd4565b9091555061276390506128d6565b604080518681526001600160a01b03868116602083015288169183917ff8dd625a2a1668110c09a3c1501707dcede27cc9e3b5faaca43deb620d67c685910160405180910390a3506127c160015f805160206135e383398151915255565b5050505050565b6111488133612ac1565b5f6127dd83836117dc565b61285a575f838152602081815260408083206001600160a01b03861684529091529020805460ff191660011790556128123390565b6001600160a01b0316826001600160a01b0316847f2f8788117e7eff1d82e926ec794901d17c78024a50270940304540a733656f0d60405160405180910390a4506001610a26565b505f610a26565b612869612afa565b60025f805160206135e383398151915255565b60015460ff16156120b75760405163d93c066560e01b815260040160405180910390fd5b6128ae848484846001612b29565b610c0b57604051635274afe760e01b81526001600160a01b0385166004820152602401610c6c565b475f5b600d5481101561293157600c5f600d83815481106128f9576128f96132cd565b5f9182526020808320909101546001600160a01b031683528201929092526040019020546129279083612cd4565b91506001016128d9565b50600154600f546040516357227ecb60e11b81526004810184905260248101919091526101009091046001600160a01b03169063ae44fd96906044015f604051808303815f87803b158015612984575f80fd5b505af11580156127c1573d5f803e3d5ffd5b5f6129a183836117dc565b1561285a575f838152602081815260408083206001600160a01b0386168085529252808320805460ff1916905551339286917ff6391f5c32d9c69d2a47ea670b442974b53935d1edc7fd64eb21e047a839171b9190a4506001610a26565b612a07612b96565b6001805460ff191690557f5db9ee0a495bf2e6ff9c91a7834c1ba4fdd244a5e8aa4e537bd38aeae4b073aa335b6040516001600160a01b03909116815260200160405180910390a1565b612a5961287c565b6001805460ff1916811790557f62e78cea01bee320cd4e420270b5ea74000d11b0c9f74754ebdbfc544b05a25833612a34565b612a998383836001612bb9565b61112457604051635274afe760e01b81526001600160a01b0384166004820152602401610c6c565b612acb82826117dc565b610efe5760405163e2517d3f60e01b81526001600160a01b038216600482015260248101839052604401610c6c565b5f805160206135e3833981519152546002036120b757604051633ee5aeb560e01b815260040160405180910390fd5b6040516323b872dd60e01b5f8181526001600160a01b038781166004528616602452604485905291602083606481808c5af1925060015f51148316612b85578383151615612b79573d5f823e3d81fd5b5f883b113d1516831692505b604052505f60605295945050505050565b60015460ff166120b757604051638dfc202b60e01b815260040160405180910390fd5b60405163a9059cbb60e01b5f8181526001600160a01b038616600452602485905291602083604481808b5af1925060015f51148316612c0f578383151615612c03573d5f823e3d81fd5b5f873b113d1516831692505b60405250949350505050565b6040518061014001604052805f81526020015f6001600160a01b031681526020015f8152602001606081526020015f6001600160a01b03168152602001606081526020015f81526020015f6002811115612c7757612c77612e70565b81525f6020820181905260409091015290565b634e487b7160e01b5f52601160045260245ffd5b8082028115828204841417610a2657610a26612c8a565b5f82612ccf57634e487b7160e01b5f52601260045260245ffd5b500490565b80820180821115610a2657610a26612c8a565b5f60208284031215612cf7575f80fd5b81356001600160e01b031981168114612d0e575f80fd5b9392505050565b5f60208284031215612d25575f80fd5b5035919050565b5f81518084525f5b81811015612d5057602081850181015186830182015201612d34565b505f602082860101526020601f19601f83011685010191505092915050565b60208152815160208201525f602083015160018060a01b03808216604085015260408501516060850152806060860151166080850152505060808301516101008060a0850152612dc3610120850183612d2c565b915060a0850151612dd860c086018215159052565b5060c085015180151560e08601525060e085015164ffffffffff8116858301525b5090949350505050565b80356001600160a01b0381168114612e19575f80fd5b919050565b5f8060408385031215612e2f575f80fd5b82359150612e3f60208401612e03565b90509250929050565b5f8060408385031215612e59575f80fd5b612e6283612e03565b946020939093013593505050565b634e487b7160e01b5f52602160045260245ffd5b60038110612ea057634e487b7160e01b5f52602160045260245ffd5b9052565b60208152815160208201525f6020830151612eca60408401826001600160a01b03169052565b50604083015160608301526060830151610140806080850152612ef1610160850183612d2c565b91506080850151612f0d60a08601826001600160a01b03169052565b5060a0850151848303601f190160c0860152612f298382612d2c565b92505060c085015160e085015260e0850151610100612f4a81870183612e84565b8601519050610120612f648682018364ffffffffff169052565b86015164ffffffffff8116838701529050612df9565b8681526001600160a01b038681166020830152604082018690528416606082015260c0608082018190525f90612fb290830185612d2c565b905064ffffffffff831660a0830152979650505050505050565b5f60208284031215612fdc575f80fd5b612d0e82612e03565b634e487b7160e01b5f52604160045260245ffd5b5f67ffffffffffffffff8084111561301357613013612fe5565b604051601f8501601f19908116603f0116810190828211818310171561303b5761303b612fe5565b81604052809350858152868686011115613053575f80fd5b858560208301375f602087830101525050509392505050565b5f82601f83011261307b575f80fd5b612d0e83833560208501612ff9565b5f805f805f60a0868803121561309e575f80fd5b6130a786612e03565b9450602086013593506130bc60408701612e03565b9250606086013567ffffffffffffffff808211156130d8575f80fd5b818801915088601f8301126130eb575f80fd5b6130fa89833560208501612ff9565b9350608088013591508082111561310f575f80fd5b5061311c8882890161306c565b9150509295509295909350565b8881526001600160a01b0388811660208301526040820188905286166060820152610100608082018190525f9061316283820188612d2c565b95151560a0840152505091151560c083015264ffffffffff1660e09091015295945050505050565b8a81526001600160a01b038a81166020830152604082018a9052610140606083018190525f916131bc8483018c612d2c565b908a16608085015283810360a085015290506131d88189612d2c565b9150508560c08301526131ee60e0830186612e84565b64ffffffffff808516610100840152808416610120840152509b9a5050505050505050505050565b5f805f60608486031215613228575f80fd5b8335925061323860208501612e03565b9150604084013567ffffffffffffffff811115613253575f80fd5b61325f8682870161306c565b9150509250925092565b5f805f806080858703121561327c575f80fd5b61328585612e03565b93506020850135925061329a60408601612e03565b9150606085013567ffffffffffffffff8111156132b5575f80fd5b6132c18782880161306c565b91505092959194509250565b634e487b7160e01b5f52603260045260245ffd5b600181811c908216806132f557607f821691505b60208210810361331357634e487b7160e01b5f52602260045260245ffd5b50919050565b6020808252600b908201526a4e6f742070656e64696e6760a81b604082015260600190565b5f6020828403121561334e575f80fd5b81518015158114612d0e575f80fd5b5f6001820161336e5761336e612c8a565b5060010190565b601f82111561112457805f5260205f20601f840160051c8101602085101561339a5750805b601f840160051c820191505b818110156127c1575f81556001016133a6565b815167ffffffffffffffff8111156133d3576133d3612fe5565b6133e7816133e184546132e1565b84613375565b602080601f83116001811461341a575f84156134035750858301515b5f19600386901b1c1916600185901b178555613471565b5f85815260208120601f198616915b8281101561344857888601518255948401946001909101908401613429565b508582101561346557878501515f19600388901b60f8161c191681555b505060018460011b0185555b505050505050565b60208082526010908201526f092dce6eaccccd2c6d2cadce8408aa8960831b604082015260600190565b602080825260139082015272496e73756666696369656e7420746f6b656e7360681b604082015260600190565b828152604060208201525f6134e86040830184612d2c565b949350505050565b602080825260139082015272115512081d1c985b9cd9995c8819985a5b1959606a1b604082015260600190565b81810381811115610a2657610a26612c8a565b5f80835461353d816132e1565b60018281168015613555576001811461356a57613596565b60ff1984168752821515830287019450613596565b875f526020805f205f5b8581101561358d5781548a820152908401908201613574565b50505082870194505b5092969550505050505056fe71840dc4906352362b0cdaf79870196c8e42acafade72d5d5a6d59291253ceb1e2f4eaae4a9751e85a3e4a7b9587827a877f29914755229b07a7b2da98285f709b779b17422d0df92223018b32b4d1fa46e071723d6817e2486d003becc55f00a264697066735822122050234443d193041c2c7c24601a821d24104f3097e30399f072a51cd98096f87a64736f6c63430008180033","linkReferences":{}},"methodIdentifiers":{"BASIS_POINTS()":"e1f1c4a7","DEFAULT_ADMIN_ROLE()":"a217fddf","DISTRIBUTION_PERCENTAGE()":"e2d87d06","GOVERNANCE_ROLE()":"f36c8f5c","MAX_SIGNERS()":"59ecd657","REQUIRED_SIGNATURES()":"9ac18b19","SIGNER_ROLE()":"a1ebf35d","TITHE_PERCENTAGE()":"e75b0b4d","TREASURER_ROLE()":"f0a3a97c","allocationRequestCount()":"613919e7","allocationRequests(uint256)":"95ea119d","approveAllocation(uint256)":"6282e772","cancelTransaction(uint256)":"3380c0d8","checkConstitutionalConstraints()":"8b129228","confirmTransaction(uint256)":"c01a8c84","confirmations(uint256,address)":"3411c81c","constitution()":"c96b9e29","deposit()":"d0e30db0","depositToken(address,uint256)":"338b5dea","distributeReward(address,uint256,address,string)":"ff08108f","distributionCount()":"c65c3d95","distributions(uint256)":"4487d3df","diversifiedTokenBalances(address)":"4e83ed79","diversifiedValue()":"517e171f","executeAllocation(uint256)":"c6125725","executeTransaction(uint256)":"ee22610b","getAllocationRequest(uint256)":"2e58552a","getBalance()":"12065fe0","getRoleAdmin(bytes32)":"248a9ca3","getStats()":"c59d4847","getTransaction(uint256)":"33ea3dc8","grantRole(bytes32,address)":"2f2ff15d","hasRole(bytes32,address)":"91d14854","isTokenSupported(address)":"75151b63","markAsDiversified(address,uint256)":"8dda8118","pause()":"8456cb59","paused()":"5c975abb","renounceRole(bytes32,address)":"36568abe","requestAllocation(uint256,address,string)":"a29c400b","revokeRole(bytes32,address)":"d547741f","setConstitution(address)":"51af0f23","submitTransaction(address,uint256,address,bytes,string)":"6fa01cd0","supportedTokens(uint256)":"c6255626","supportsInterface(bytes4)":"01ffc9a7","titheCollected()":"920545d8","tokenBalances(address)":"523fba7f","totalDeposited()":"ff50abdc","totalDistributed()":"efca2eed","transactionCount()":"b77bf600","transactions(uint256)":"9ace38c2","unpause()":"3f4ba83a"},"id":64}