{
  "_format": "hh-sol-artifact-1",
  "contractName": "IdentityRegistryUpgradeable",
  "sourceName": "contracts/IdentityRegistryUpgradeable.sol",
  "abi": [
    {
      "inputs": [],
      "stateMutability": "nonpayable",
      "type": "constructor"
    },
    {
      "inputs": [
        {
          "internalType": "address",
          "name": "target",
          "type": "address"
        }
      ],
      "name": "AddressEmptyCode",
      "type": "error"
    },
    {
      "inputs": [
        {
          "internalType": "address",
          "name": "implementation",
          "type": "address"
        }
      ],
      "name": "ERC1967InvalidImplementation",
      "type": "error"
    },
    {
      "inputs": [],
      "name": "ERC1967NonPayable",
      "type": "error"
    },
    {
      "inputs": [
        {
          "internalType": "address",
          "name": "sender",
          "type": "address"
        },
        {
          "internalType": "uint256",
          "name": "tokenId",
          "type": "uint256"
        },
        {
          "internalType": "address",
          "name": "owner",
          "type": "address"
        }
      ],
      "name": "ERC721IncorrectOwner",
      "type": "error"
    },
    {
      "inputs": [
        {
          "internalType": "address",
          "name": "operator",
          "type": "address"
        },
        {
          "internalType": "uint256",
          "name": "tokenId",
          "type": "uint256"
        }
      ],
      "name": "ERC721InsufficientApproval",
      "type": "error"
    },
    {
      "inputs": [
        {
          "internalType": "address",
          "name": "approver",
          "type": "address"
        }
      ],
      "name": "ERC721InvalidApprover",
      "type": "error"
    },
    {
      "inputs": [
        {
          "internalType": "address",
          "name": "operator",
          "type": "address"
        }
      ],
      "name": "ERC721InvalidOperator",
      "type": "error"
    },
    {
      "inputs": [
        {
          "internalType": "address",
          "name": "owner",
          "type": "address"
        }
      ],
      "name": "ERC721InvalidOwner",
      "type": "error"
    },
    {
      "inputs": [
        {
          "internalType": "address",
          "name": "receiver",
          "type": "address"
        }
      ],
      "name": "ERC721InvalidReceiver",
      "type": "error"
    },
    {
      "inputs": [
        {
          "internalType": "address",
          "name": "sender",
          "type": "address"
        }
      ],
      "name": "ERC721InvalidSender",
      "type": "error"
    },
    {
      "inputs": [
        {
          "internalType": "uint256",
          "name": "tokenId",
          "type": "uint256"
        }
      ],
      "name": "ERC721NonexistentToken",
      "type": "error"
    },
    {
      "inputs": [],
      "name": "FailedCall",
      "type": "error"
    },
    {
      "inputs": [],
      "name": "InvalidInitialization",
      "type": "error"
    },
    {
      "inputs": [],
      "name": "NotInitializing",
      "type": "error"
    },
    {
      "inputs": [
        {
          "internalType": "address",
          "name": "owner",
          "type": "address"
        }
      ],
      "name": "OwnableInvalidOwner",
      "type": "error"
    },
    {
      "inputs": [
        {
          "internalType": "address",
          "name": "account",
          "type": "address"
        }
      ],
      "name": "OwnableUnauthorizedAccount",
      "type": "error"
    },
    {
      "inputs": [],
      "name": "UUPSUnauthorizedCallContext",
      "type": "error"
    },
    {
      "inputs": [
        {
          "internalType": "bytes32",
          "name": "slot",
          "type": "bytes32"
        }
      ],
      "name": "UUPSUnsupportedProxiableUUID",
      "type": "error"
    },
    {
      "anonymous": false,
      "inputs": [
        {
          "indexed": true,
          "internalType": "address",
          "name": "owner",
          "type": "address"
        },
        {
          "indexed": true,
          "internalType": "address",
          "name": "approved",
          "type": "address"
        },
        {
          "indexed": true,
          "internalType": "uint256",
          "name": "tokenId",
          "type": "uint256"
        }
      ],
      "name": "Approval",
      "type": "event"
    },
    {
      "anonymous": false,
      "inputs": [
        {
          "indexed": true,
          "internalType": "address",
          "name": "owner",
          "type": "address"
        },
        {
          "indexed": true,
          "internalType": "address",
          "name": "operator",
          "type": "address"
        },
        {
          "indexed": false,
          "internalType": "bool",
          "name": "approved",
          "type": "bool"
        }
      ],
      "name": "ApprovalForAll",
      "type": "event"
    },
    {
      "anonymous": false,
      "inputs": [
        {
          "indexed": false,
          "internalType": "uint256",
          "name": "_fromTokenId",
          "type": "uint256"
        },
        {
          "indexed": false,
          "internalType": "uint256",
          "name": "_toTokenId",
          "type": "uint256"
        }
      ],
      "name": "BatchMetadataUpdate",
      "type": "event"
    },
    {
      "anonymous": false,
      "inputs": [],
      "name": "EIP712DomainChanged",
      "type": "event"
    },
    {
      "anonymous": false,
      "inputs": [
        {
          "indexed": false,
          "internalType": "uint64",
          "name": "version",
          "type": "uint64"
        }
      ],
      "name": "Initialized",
      "type": "event"
    },
    {
      "anonymous": false,
      "inputs": [
        {
          "indexed": true,
          "internalType": "uint256",
          "name": "agentId",
          "type": "uint256"
        },
        {
          "indexed": true,
          "internalType": "string",
          "name": "indexedMetadataKey",
          "type": "string"
        },
        {
          "indexed": false,
          "internalType": "string",
          "name": "metadataKey",
          "type": "string"
        },
        {
          "indexed": false,
          "internalType": "bytes",
          "name": "metadataValue",
          "type": "bytes"
        }
      ],
      "name": "MetadataSet",
      "type": "event"
    },
    {
      "anonymous": false,
      "inputs": [
        {
          "indexed": false,
          "internalType": "uint256",
          "name": "_tokenId",
          "type": "uint256"
        }
      ],
      "name": "MetadataUpdate",
      "type": "event"
    },
    {
      "anonymous": false,
      "inputs": [
        {
          "indexed": true,
          "internalType": "address",
          "name": "previousOwner",
          "type": "address"
        },
        {
          "indexed": true,
          "internalType": "address",
          "name": "newOwner",
          "type": "address"
        }
      ],
      "name": "OwnershipTransferred",
      "type": "event"
    },
    {
      "anonymous": false,
      "inputs": [
        {
          "indexed": true,
          "internalType": "uint256",
          "name": "agentId",
          "type": "uint256"
        },
        {
          "indexed": false,
          "internalType": "string",
          "name": "agentURI",
          "type": "string"
        },
        {
          "indexed": true,
          "internalType": "address",
          "name": "owner",
          "type": "address"
        }
      ],
      "name": "Registered",
      "type": "event"
    },
    {
      "anonymous": false,
      "inputs": [
        {
          "indexed": true,
          "internalType": "address",
          "name": "from",
          "type": "address"
        },
        {
          "indexed": true,
          "internalType": "address",
          "name": "to",
          "type": "address"
        },
        {
          "indexed": true,
          "internalType": "uint256",
          "name": "tokenId",
          "type": "uint256"
        }
      ],
      "name": "Transfer",
      "type": "event"
    },
    {
      "anonymous": false,
      "inputs": [
        {
          "indexed": true,
          "internalType": "uint256",
          "name": "agentId",
          "type": "uint256"
        },
        {
          "indexed": false,
          "internalType": "string",
          "name": "newURI",
          "type": "string"
        },
        {
          "indexed": true,
          "internalType": "address",
          "name": "updatedBy",
          "type": "address"
        }
      ],
      "name": "URIUpdated",
      "type": "event"
    },
    {
      "anonymous": false,
      "inputs": [
        {
          "indexed": true,
          "internalType": "address",
          "name": "implementation",
          "type": "address"
        }
      ],
      "name": "Upgraded",
      "type": "event"
    },
    {
      "inputs": [],
      "name": "UPGRADE_INTERFACE_VERSION",
      "outputs": [
        {
          "internalType": "string",
          "name": "",
          "type": "string"
        }
      ],
      "stateMutability": "view",
      "type": "function"
    },
    {
      "inputs": [
        {
          "internalType": "address",
          "name": "to",
          "type": "address"
        },
        {
          "internalType": "uint256",
          "name": "tokenId",
          "type": "uint256"
        }
      ],
      "name": "approve",
      "outputs": [],
      "stateMutability": "nonpayable",
      "type": "function"
    },
    {
      "inputs": [
        {
          "internalType": "address",
          "name": "owner",
          "type": "address"
        }
      ],
      "name": "balanceOf",
      "outputs": [
        {
          "internalType": "uint256",
          "name": "",
          "type": "uint256"
        }
      ],
      "stateMutability": "view",
      "type": "function"
    },
    {
      "inputs": [],
      "name": "eip712Domain",
      "outputs": [
        {
          "internalType": "bytes1",
          "name": "fields",
          "type": "bytes1"
        },
        {
          "internalType": "string",
          "name": "name",
          "type": "string"
        },
        {
          "internalType": "string",
          "name": "version",
          "type": "string"
        },
        {
          "internalType": "uint256",
          "name": "chainId",
          "type": "uint256"
        },
        {
          "internalType": "address",
          "name": "verifyingContract",
          "type": "address"
        },
        {
          "internalType": "bytes32",
          "name": "salt",
          "type": "bytes32"
        },
        {
          "internalType": "uint256[]",
          "name": "extensions",
          "type": "uint256[]"
        }
      ],
      "stateMutability": "view",
      "type": "function"
    },
    {
      "inputs": [
        {
          "internalType": "uint256",
          "name": "agentId",
          "type": "uint256"
        }
      ],
      "name": "getAgentWallet",
      "outputs": [
        {
          "internalType": "address",
          "name": "",
          "type": "address"
        }
      ],
      "stateMutability": "view",
      "type": "function"
    },
    {
      "inputs": [
        {
          "internalType": "uint256",
          "name": "tokenId",
          "type": "uint256"
        }
      ],
      "name": "getApproved",
      "outputs": [
        {
          "internalType": "address",
          "name": "",
          "type": "address"
        }
      ],
      "stateMutability": "view",
      "type": "function"
    },
    {
      "inputs": [
        {
          "internalType": "uint256",
          "name": "agentId",
          "type": "uint256"
        },
        {
          "internalType": "string",
          "name": "metadataKey",
          "type": "string"
        }
      ],
      "name": "getMetadata",
      "outputs": [
        {
          "internalType": "bytes",
          "name": "",
          "type": "bytes"
        }
      ],
      "stateMutability": "view",
      "type": "function"
    },
    {
      "inputs": [],
      "name": "getVersion",
      "outputs": [
        {
          "internalType": "string",
          "name": "",
          "type": "string"
        }
      ],
      "stateMutability": "pure",
      "type": "function"
    },
    {
      "inputs": [],
      "name": "initialize",
      "outputs": [],
      "stateMutability": "nonpayable",
      "type": "function"
    },
    {
      "inputs": [
        {
          "internalType": "address",
          "name": "owner",
          "type": "address"
        },
        {
          "internalType": "address",
          "name": "operator",
          "type": "address"
        }
      ],
      "name": "isApprovedForAll",
      "outputs": [
        {
          "internalType": "bool",
          "name": "",
          "type": "bool"
        }
      ],
      "stateMutability": "view",
      "type": "function"
    },
    {
      "inputs": [
        {
          "internalType": "address",
          "name": "spender",
          "type": "address"
        },
        {
          "internalType": "uint256",
          "name": "agentId",
          "type": "uint256"
        }
      ],
      "name": "isAuthorizedOrOwner",
      "outputs": [
        {
          "internalType": "bool",
          "name": "",
          "type": "bool"
        }
      ],
      "stateMutability": "view",
      "type": "function"
    },
    {
      "inputs": [],
      "name": "name",
      "outputs": [
        {
          "internalType": "string",
          "name": "",
          "type": "string"
        }
      ],
      "stateMutability": "view",
      "type": "function"
    },
    {
      "inputs": [],
      "name": "owner",
      "outputs": [
        {
          "internalType": "address",
          "name": "",
          "type": "address"
        }
      ],
      "stateMutability": "view",
      "type": "function"
    },
    {
      "inputs": [
        {
          "internalType": "uint256",
          "name": "tokenId",
          "type": "uint256"
        }
      ],
      "name": "ownerOf",
      "outputs": [
        {
          "internalType": "address",
          "name": "",
          "type": "address"
        }
      ],
      "stateMutability": "view",
      "type": "function"
    },
    {
      "inputs": [],
      "name": "proxiableUUID",
      "outputs": [
        {
          "internalType": "bytes32",
          "name": "",
          "type": "bytes32"
        }
      ],
      "stateMutability": "view",
      "type": "function"
    },
    {
      "inputs": [],
      "name": "register",
      "outputs": [
        {
          "internalType": "uint256",
          "name": "agentId",
          "type": "uint256"
        }
      ],
      "stateMutability": "nonpayable",
      "type": "function"
    },
    {
      "inputs": [
        {
          "internalType": "string",
          "name": "agentURI",
          "type": "string"
        },
        {
          "components": [
            {
              "internalType": "string",
              "name": "metadataKey",
              "type": "string"
            },
            {
              "internalType": "bytes",
              "name": "metadataValue",
              "type": "bytes"
            }
          ],
          "internalType": "struct IdentityRegistryUpgradeable.MetadataEntry[]",
          "name": "metadata",
          "type": "tuple[]"
        }
      ],
      "name": "register",
      "outputs": [
        {
          "internalType": "uint256",
          "name": "agentId",
          "type": "uint256"
        }
      ],
      "stateMutability": "nonpayable",
      "type": "function"
    },
    {
      "inputs": [
        {
          "internalType": "string",
          "name": "agentURI",
          "type": "string"
        }
      ],
      "name": "register",
      "outputs": [
        {
          "internalType": "uint256",
          "name": "agentId",
          "type": "uint256"
        }
      ],
      "stateMutability": "nonpayable",
      "type": "function"
    },
    {
      "inputs": [],
      "name": "renounceOwnership",
      "outputs": [],
      "stateMutability": "nonpayable",
      "type": "function"
    },
    {
      "inputs": [
        {
          "internalType": "address",
          "name": "from",
          "type": "address"
        },
        {
          "internalType": "address",
          "name": "to",
          "type": "address"
        },
        {
          "internalType": "uint256",
          "name": "tokenId",
          "type": "uint256"
        }
      ],
      "name": "safeTransferFrom",
      "outputs": [],
      "stateMutability": "nonpayable",
      "type": "function"
    },
    {
      "inputs": [
        {
          "internalType": "address",
          "name": "from",
          "type": "address"
        },
        {
          "internalType": "address",
          "name": "to",
          "type": "address"
        },
        {
          "internalType": "uint256",
          "name": "tokenId",
          "type": "uint256"
        },
        {
          "internalType": "bytes",
          "name": "data",
          "type": "bytes"
        }
      ],
      "name": "safeTransferFrom",
      "outputs": [],
      "stateMutability": "nonpayable",
      "type": "function"
    },
    {
      "inputs": [
        {
          "internalType": "uint256",
          "name": "agentId",
          "type": "uint256"
        },
        {
          "internalType": "string",
          "name": "newURI",
          "type": "string"
        }
      ],
      "name": "setAgentURI",
      "outputs": [],
      "stateMutability": "nonpayable",
      "type": "function"
    },
    {
      "inputs": [
        {
          "internalType": "uint256",
          "name": "agentId",
          "type": "uint256"
        },
        {
          "internalType": "address",
          "name": "newWallet",
          "type": "address"
        },
        {
          "internalType": "uint256",
          "name": "deadline",
          "type": "uint256"
        },
        {
          "internalType": "bytes",
          "name": "signature",
          "type": "bytes"
        }
      ],
      "name": "setAgentWallet",
      "outputs": [],
      "stateMutability": "nonpayable",
      "type": "function"
    },
    {
      "inputs": [
        {
          "internalType": "address",
          "name": "operator",
          "type": "address"
        },
        {
          "internalType": "bool",
          "name": "approved",
          "type": "bool"
        }
      ],
      "name": "setApprovalForAll",
      "outputs": [],
      "stateMutability": "nonpayable",
      "type": "function"
    },
    {
      "inputs": [
        {
          "internalType": "uint256",
          "name": "agentId",
          "type": "uint256"
        },
        {
          "internalType": "string",
          "name": "metadataKey",
          "type": "string"
        },
        {
          "internalType": "bytes",
          "name": "metadataValue",
          "type": "bytes"
        }
      ],
      "name": "setMetadata",
      "outputs": [],
      "stateMutability": "nonpayable",
      "type": "function"
    },
    {
      "inputs": [
        {
          "internalType": "bytes4",
          "name": "interfaceId",
          "type": "bytes4"
        }
      ],
      "name": "supportsInterface",
      "outputs": [
        {
          "internalType": "bool",
          "name": "",
          "type": "bool"
        }
      ],
      "stateMutability": "view",
      "type": "function"
    },
    {
      "inputs": [],
      "name": "symbol",
      "outputs": [
        {
          "internalType": "string",
          "name": "",
          "type": "string"
        }
      ],
      "stateMutability": "view",
      "type": "function"
    },
    {
      "inputs": [
        {
          "internalType": "uint256",
          "name": "tokenId",
          "type": "uint256"
        }
      ],
      "name": "tokenURI",
      "outputs": [
        {
          "internalType": "string",
          "name": "",
          "type": "string"
        }
      ],
      "stateMutability": "view",
      "type": "function"
    },
    {
      "inputs": [
        {
          "internalType": "address",
          "name": "from",
          "type": "address"
        },
        {
          "internalType": "address",
          "name": "to",
          "type": "address"
        },
        {
          "internalType": "uint256",
          "name": "tokenId",
          "type": "uint256"
        }
      ],
      "name": "transferFrom",
      "outputs": [],
      "stateMutability": "nonpayable",
      "type": "function"
    },
    {
      "inputs": [
        {
          "internalType": "address",
          "name": "newOwner",
          "type": "address"
        }
      ],
      "name": "transferOwnership",
      "outputs": [],
      "stateMutability": "nonpayable",
      "type": "function"
    },
    {
      "inputs": [
        {
          "internalType": "uint256",
          "name": "agentId",
          "type": "uint256"
        }
      ],
      "name": "unsetAgentWallet",
      "outputs": [],
      "stateMutability": "nonpayable",
      "type": "function"
    },
    {
      "inputs": [
        {
          "internalType": "address",
          "name": "newImplementation",
          "type": "address"
        },
        {
          "internalType": "bytes",
          "name": "data",
          "type": "bytes"
        }
      ],
      "name": "upgradeToAndCall",
      "outputs": [],
      "stateMutability": "payable",
      "type": "function"
    }
  ],
  "bytecode": "0x60a08060405234620000d157306080527ff0c57e16840df040f15088dc2f81fe391c3923bec73e23a9662efc9c229c6a009081549060ff8260401c16620000c257506001600160401b036002600160401b0319828216016200007c575b60405161383d9081620000d6823960805181818161153001526115d10152f35b6001600160401b031990911681179091556040519081527fc7f505b2f371ae2175ee4913f4499e1f2633a7b5936321eed1cdaeb6115181d290602090a15f80806200005c565b63f92ee8a960e01b8152600490fd5b5f80fdfe60806040818152600480361015610014575f80fd5b5f3560e01c928362339509146124e85750826301ffc9a71461246157826306fdde031461238e578263081812fc14612370578263095ea7b31461228f5782630af28bd3146121af5782630d8e6e2c1461216b5782631aa3a00814611f9e57826323b872dd14611f875782632d1ef5ae14611a895782633fddcf19146119a057826342842e0e14611972578263466648da146117785782634f1ef2861461159457826352d1902d1461151d5782636352211e146114ee57826370a082311461149b578263715018a6146114345782638129fc1c14610d1f57826384b0196e14610c575782638da5cb5b14610c235782638ea42286146107a857826395d89b411461069e578263a22cb465146105e9578263ad3cb1cc146105a5578263b88d4fde1461054d578263c87b56dd1461051b578263cb4799f214610483578263d95e72be14610449578263e985e9c5146103ff578263f2c298be146101ae57505063f2fde38b1461017f575f80fd5b346101aa5760203660031901126101aa576101a861019b6125c2565b6101a361340f565b612f5f565b005b5f80fd5b346101aa57602091826003193601126101aa576001600160401b0382358181116101aa576101df9036908501612727565b927fa040f782729de4970518741823ec1276cbcd41a0c7493f62d173341566a04e009384549461020e86612a1e565b90558351913360601b9384888501526014845261022a84612650565b865f525f805160206137688339815191528852855f2093602b87516a1859d95b9d15d85b1b195d60aa1b96878252600b820152209281519283116103ec5750918189936102848a97969461027e8554612745565b85612a7e565b8490601f831160011461034b576103125f805160206137a883398151915299955f8051602061378883398151915298956102e9866103379a978d975f80516020613728833981519152975f92610340575b50508160011b915f199060031b1c19161790565b90555b6102f68433613145565b6103008185613016565b8b51918291868352339683019061259d565b0390a3865191898301526014825261032982612650565b865152855191829182612ac1565b0390a351908152f35b015190505f806102d5565b97959493929190601f19821698835f52855f20995f5b8181106103d25750945f805160206137888339815191529896946001855f805160206137a88339815191529d5f8051602061372883398151915296610312968f996103379e9c106103ba575b505050811b0190556102ec565b01515f1960f88460031b161c191690555f80806103ad565b828401518c556001909b019a8d9a50928701928701610361565b604190634e487b7160e01b5f525260245ffd5b50346101aa57806003193601126101aa5760209061041b6125c2565b61042c6104266125d8565b91612de9565b9060018060a01b03165f52825260ff815f20541690519015158152f35b50346101aa57806003193601126101aa5760209061047a6104686125c2565b6024359061047582612fd0565b61353c565b90519015158152f35b346101aa57816003193601126101aa57602435916001600160401b0383116101aa576105056104ea60206104fe946104c16105179736908301612727565b90355f525f805160206137688339815191528252845f208286519483868095519384920161257c565b820190815203019020825193848092612901565b03836126b5565b5191829160208352602083019061259d565b0390f35b90346101aa5760203660031901126101aa5761053a6105179235612e81565b905191829160208352602083019061259d565b346101aa5760803660031901126101aa576105666125c2565b61056e6125d8565b604435906064356001600160401b0381116101aa576101a89461059391369101612727565b9261059f838383612af7565b33613447565b50346101aa575f3660031901126101aa578051610517916105c582612650565b60058252640352e302e360dc1b60208301525191829160208352602083019061259d565b90346101aa57806003193601126101aa576106026125c2565b90602435918215158093036101aa573315610688576001600160a01b0316928315610673575061063133612de9565b835f52602052805f2060ff1981541660ff8416179055519081527f17307eab39ab6107e8899845ad3d59bd9653f200f220920489ca2b5937696c3160203392a3005b836024925191630b61174360e31b8352820152fd5b815163a9fbf51f60e01b81525f81860152602490fd5b50346101aa575f3660031901126101aa578051905f90827f80bb2b638cc20bc4d0a60d66940f3ab4a00c1d7b313497ca82fb0b4ab00793019283546106e281612745565b90818452602095600191876001821691825f14610781575050600114610725575b50505061051792916107169103856126b5565b5192828493845283019061259d565b5f90815286935091907ff4bad0a69248f59680a4f2b3000328cec71a413447c96781cfe5996daa8c456e5b8284106107695750505082010181610716610517610703565b8054848a018601528895508794909301928101610750565b60ff19168782015293151560051b8601909301935084925061071691506105179050610703565b346101aa57816003193601126101aa576001600160401b039181358381116101aa576107d79036908401612727565b926024928335908282116101aa57366023830112156101aa578181013590838211610c11578160051b92602093865193610813868301866126b5565b84528785850191830101913683116101aa57888101915b838310610b8a57505050507fa040f782729de4970518741823ec1276cbcd41a0c7493f62d173341566a04e009384549461086386612a1e565b90558551973360601b9788868b015260148a5261087f8a612650565b865f525f8051602061376883398151915291828752885f2090602b8a516a1859d95b9d15d85b1b195d60aa1b93848252600b820152208c51868111610b01576108d2816108cc8454612745565b84612a7e565b89601f9e601f8311600114610b1c57918061090e9261098e9d9c9b9a9998979695945f926103405750508160011b915f199060031b1c19161790565b90555b61091b8a33613145565b610925818b613016565b895f805160206137288339815191528c518a81528061094833958d83019061259d565b0390a389519a878c015260148b5261095f8b612650565b8951528851885f805160206137a88339815191529b828d935f805160206137888339815191529b8c9382612ac1565b0390a35f5b8551811015610b13576109b98b6109aa8389612e59565b51518981519101201415612d77565b866109c48288612e59565b510151895f528388526109f3888c805f20826109e0878d612e59565b515192519483868095519384920161257c565b82019081520301902090805190868211610b01578e90610a1d83610a178654612745565b86612a7e565b8a918311600114610a9b579180610a4d9260019695945f926103405750508160011b915f199060031b1c19161790565b90555b8a8a8a8a8a610a92610a87610a658884612e59565b515193610a7e89610a768187612e59565b515195612e59565b51015193612db2565b955192839283612dd2565b0390a301610993565b90601f19831691845f528b5f20925f5b8d828210610aeb5750509084600197969594939210610ad3575b505050831b83019055610a50565b01515f1960f88460031b161c191690558f8080610ac5565b6001859682939686015181550195019301610aab565b84604189634e487b7160e01b5f52525ffd5b86898b51908152f35b90601f19831691845f528c5f20925f5b818110610b73575091600193918561098e9f9e9d9c9b9a999897969410610b5b575b505050811b019055610911565b01515f1960f88460031b161c191690555f8080610b4e565b92938e600181928786015181550195019301610b2c565b82358881116101aa5782018960231982360301126101aa578951918a83018381108b821117610bff578b528b8201358a81116101aa57610bcf908d3691850101612727565b83526044820135928a84116101aa57610bf08a94938e869536920101612727565b8382015281520192019161082a565b8c604189634e487b7160e01b5f52525ffd5b60418691634e487b7160e01b5f52525ffd5b50346101aa575f3660031901126101aa575f805160206137488339815191525490516001600160a01b039091168152602090f35b50346101aa575f3660031901126101aa578051610cc391610c7b826104fe8161277d565b8051610c9181610c8a81612853565b03826126b5565b610cd0825192610ca08461269a565b5f84526020928151968796600f60f81b885260e0602089015260e088019061259d565b918683039087015261259d565b4660608501523060808501525f60a085015283810360c0850152602080845192838152019301915f5b828110610d0857505050500390f35b835185528695509381019392810192600101610cf9565b346101aa575f3660031901126101aa577ff0c57e16840df040f15088dc2f81fe391c3923bec73e23a9662efc9c229c6a009182549060ff82821c16156001600160401b03938484169384158061142d575b60018096149081611423575b15908161141a575b5061140b5767ffffffffffffffff19811685178755826113ec575b50825194610dac86612650565b600d86526020956c4167656e744964656e7469747960981b87820152845192610dd484612650565b600593848152641051d1539560da1b89820152610def613655565b610df7613655565b825184811161122c577f80bb2b638cc20bc4d0a60d66940f3ab4a00c1d7b313497ca82fb0b4ab007930090610e2c8254612745565b94601f958c8782116113a3575b50508b9086831160011461131b57610e6792915f91836111465750508160011b915f199060031b1c19161790565b90555b805184811161122c577f80bb2b638cc20bc4d0a60d66940f3ab4a00c1d7b313497ca82fb0b4ab007930191610e9f8354612745565b8b8682116112c8575b50508a9085831160011461124a57610ed692915f918361123f5750508160011b915f199060031b1c19161790565b90555b610ee1613655565b610ee9613655565b610ef233612f5f565b855190610efe82612650565b601782527f455243383030344964656e74697479526567697374727900000000000000000089830152865191610f3383612650565b888352603160f81b8a840152610f47613655565b610f4f613655565b805185811161122c577fa16a46d94261c7517cc8ff89f61c0ce93598e3c849801011dee649a6a557d10291610f848354612745565b8c8782116111d9575b50508b9086831160011461115157610fbb92915f91836111465750508160011b915f199060031b1c19161790565b90555b81519384116103ec57507fa16a46d94261c7517cc8ff89f61c0ce93598e3c849801011dee649a6a557d10393610ff48554612745565b8381116110f2575b5050879183116001146110765761102992915f918361106b5750508160011b915f199060031b1c19161790565b90555b61103257005b7fc7f505b2f371ae2175ee4913f4499e1f2633a7b5936321eed1cdaeb6115181d29368ff000000000000000019815416905551908152a1005b0151905089806102d5565b869291601f19831691855f527f5f9ce34815f8e11431c7bb75a8e6886a91478f7ffc1dbb0a98dc240fddd76b75925f5b8b8282106110dc57505084116110c4575b505050811b01905561102c565b01515f1960f88460031b161c191690558880806110b7565b8385015186558b979095019493840193016110a6565b61113691865f527f5f9ce34815f8e11431c7bb75a8e6886a91478f7ffc1dbb0a98dc240fddd76b759085808801821c8301938d891061113d575b01901c0190612a40565b8980610ffc565b9350829361112c565b015190508e806102d5565b8b92918d91601f198416865f527f42ad5d3e1f2e6e70edcf6d991b8a3023d3fca8047a131592f9edb9fd9b89d57d935f905b8282106111b857505084116111a0575b505050811b019055610fbe565b01515f1960f88460031b161c191690558d8080611193565b91929395968291958786015181550195019301908f918f9695949392611183565b61121c91855f52887f42ad5d3e1f2e6e70edcf6d991b8a3023d3fca8047a131592f9edb9fd9b89d57d918187018d1c8301938710611223575b018b1c0190612a40565b8d8c610f8d565b92508192611212565b604183634e487b7160e01b5f525260245ffd5b015190508d806102d5565b8a92918c91601f198416865f527ff4bad0a69248f59680a4f2b3000328cec71a413447c96781cfe5996daa8c456e935f905b8282106112b15750508411611299575b505050811b019055610ed9565b01515f1960f88460031b161c191690558c808061128c565b8385015186558f979095019493840193018f61127c565b61130b91855f52877ff4bad0a69248f59680a4f2b3000328cec71a413447c96781cfe5996daa8c456e918187018c1c8301938710611312575b018a1c0190612a40565b8c8b610ea8565b92508192611301565b8b92918d91601f198416865f527f37c58c799b6609234b945e882912ee9ad34948a1dfaa20a97485e1a7752bbf81935f905b828210611382575050841161136a575b505050811b019055610e6a565b01515f1960f88460031b161c191690558d808061135d565b91929395968291958786015181550195019301908f918f969594939261134d565b6113e591855f52887f37c58c799b6609234b945e882912ee9ad34948a1dfaa20a97485e1a7752bbf81918187018d1c830193871061122357018b1c0190612a40565b8d8c610e39565b68ffffffffffffffffff19166801000000000000000117865586610d9f565b50825163f92ee8a960e01b8152fd5b90501588610d84565b303b159150610d7c565b5082610d70565b346101aa575f3660031901126101aa5761144c61340f565b5f8051602061374883398151915280546001600160a01b031981169091555f906001600160a01b03167f8be0079c531659141344cd1fd0a4f28419497f9722a3daafe3b4186f6b6457e08280a3005b346101aa5760203660031901126101aa576114b46125c2565b906001600160a01b038216156114d8576020836114d084612e21565b549051908152f35b6024905f8451916322718ad960e21b8352820152fd5b90346101aa5760203660031901126101aa5761150c60209235612fd0565b90516001600160a01b039091168152f35b90346101aa575f3660031901126101aa577f00000000000000000000000000000000000000000000000000000000000000006001600160a01b0316300361158757602090517f360894a13ba1a3210667c828492db98dca3e2076cc3735a920a3ca505d382bbc8152f35b5163703e46dd60e11b8152fd5b816003193601126101aa576115a76125c2565b916024356001600160401b0381116101aa576115c69036908401612727565b906001600160a01b037f0000000000000000000000000000000000000000000000000000000000000000811630811490811561174a575b5061173a5761160a61340f565b8416918151946352d1902d60e01b86526020868681875afa5f9681611706575b5061164657505051634c9c8ce360e01b81529182015260249150fd5b838593877f360894a13ba1a3210667c828492db98dca3e2076cc3735a920a3ca505d382bbc908181036116f05750833b156116d95780546001600160a01b0319168317905551907fbc7cd75a20ee27fd9adebab32041f755214dbc6bffa90cc0225b39da2e5c2d3b5f80a28251156116c357506101a89250613696565b915050346116cd57005b63b398979f60e01b8152fd5b8151634c9c8ce360e01b8152808701849052602490fd5b86602491845191632a87526960e21b8352820152fd5b9096506020813d602011611732575b81611722602093836126b5565b810103126101aa5751958761162a565b3d9150611715565b815163703e46dd60e11b81528490fd5b9050817f360894a13ba1a3210667c828492db98dca3e2076cc3735a920a3ca505d382bbc54161415866115fd565b346101aa5760603660031901126101aa578035906001600160401b03906024358281116101aa576117ac9036908301612727565b906044358381116101aa576117c49036908301612727565b92845f5260205f805160206137c8833981519152815261180460018060a01b0380895f20541690813314918215611954575b508115611940575b506129c1565b61184e8185516118285f805160206137a88339815191528389019283201415612d77565b885f525f805160206137688339815191528252895f208a51809481938a5192839161257c565b8201908152030190209285519283116103ec57506118708261027e8554612745565b80601f83116001146118cd5750815f80516020613788833981519152959493926118ae925f916118c2575b508160011b915f199060031b1c19161790565b90555b6118bd610a8782612db2565b0390a3005b90508501518961189b565b90601f198316845f52825f20925f905b8282106119285750509183915f805160206137888339815191529796959460019410611910575b5050811b0190556118b1565b8601515f1960f88460031b161c191690558880611904565b80600185968294968c015181550195019301906118dd565b905061194b88612991565b163314896117fe565b61195f919250612de9565b335f52835260ff895f205416908a6117f6565b50346101aa576101a8906119853661261b565b919251926119928461269a565b5f845261059f838383612af7565b90346101aa5760203660031901126101aa575f805160206137888339815191525f805160206137a88339815191529235916119ff6119dd84612fd0565b6001600160a01b038181163314918215611a6a575b508115611a5657506129c1565b825f525f80516020613768833981519152602052805f205f602b83516a1859d95b9d15d85b1b195d60aa1b93848252600b82015220611a47611a418254612745565b82612a56565b5581515251806118bd81612d44565b9050611a6185612991565b163314866117fe565b611a75919250612de9565b335f5260205260ff835f20541690876119f2565b90346101aa5760803660031901126101aa578135611aa56125d8565b91604480359460648035926001600160401b03938481116101aa57611acd90369085016125ee565b9890611ad888612fd0565b6001600160a01b038082169b91338d14908115611f6a575b508015611f52575b611b01906129c1565b808b16938415611f2457804211611ef95761012c4201804211611ee6578111611eb257898b9c9d60429282519160209e8f8401947f678b53cd718d595370ab070ebf48edfdcd834beac116bf23e625fc7f4d5b7d328652840152886060840152608083015260a082015260a08152611b788161267f565b5190208a8c8151611b8c81610c8a8161277d565b8181519101208251611ba181610c8a81612853565b828151910120908351928301937f8b73c3c69bb8fe3d512ecc4cf759cc79239f7b179b0ffacaa9a75d522b39400f855283015260608201524660808201523060a082015260a08152611bf28161267f565b519020908b519161190160f01b8352600283015260228201522093611c21611c1b3685876126f1565b866133d5565b5089819492941015611e9f57918b93918d95931592831593611e92575b505050611dc1575b5094505050505051956001600160601b03199060601b1690818588015260148752611c7087612650565b855f525f805160206137688339815191528552835f2092602b85516a1859d95b9d15d85b1b195d60aa1b95868252600b820152209188519182116103ec5750611cbd816108cc8454612745565b85601f8211600114611d3c5791611d0e826118bd9795935f805160206137888339815191529997955f805160206137a88339815191529c5f92611d315750508160011b915f199060031b1c19161790565b90555b82519384015260148352611d2483612650565b8151525191829182612ac1565b015190508c806102d5565b601f19821698835f52875f20995f5b818110611daa5750925f805160206137a88339815191529a5f8051602061378883398151915299979593600193836118bd9b999710611d92575b505050811b019055611d11565b01515f1960f88460031b161c191690558b8080611d85565b838301518c556001909b019a928901928901611d4b565b611e005f9493611df286958551948593840196630b135d3f60e11b9a8b895260248601528b8501528b8401916129fe565b03601f1981018352826126b5565b51908c5afa90611e0e612cf5565b82611e85575b82611e5f575b505015611e2b578080878782611c46565b71696e76616c69642077616c6c65742073696760701b83918787519362461bcd60e51b855284015260126024840152820152fd5b909150611e7c63ffffffff60e01b91898082518301019101612d24565b16148980611e1a565b9150878251101591611e14565b16141590508e8080611c3e565b60218a634e487b7160e01b5f525260245ffd5b895162461bcd60e51b81526020818a0152601060248201526f3232b0b23634b732903a37b7903330b960811b818801528790fd5b601189634e487b7160e01b5f525260245ffd5b895162461bcd60e51b81526020818a01526007602482015266195e1c1a5c995960ca1b818801528790fd5b895162461bcd60e51b81526020818a0152600a602482015269189859081dd85b1b195d60b21b818801528790fd5b50611b0181611f608c612991565b1633149050611af8565b611f749150612de9565b335f5260205260ff895f2054168d611af0565b346101aa576101a8611f983661261b565b91612af7565b90346101aa575f3660031901126101aa577fa040f782729de4970518741823ec1276cbcd41a0c7493f62d173341566a04e0090815491611fdd83612a1e565b905580516020933360601b91828682015260148152611ffb81612650565b845f525f805160206137688339815191528652835f2091602b85516a1859d95b9d15d85b1b195d60aa1b94858252600b82015220918051916001600160401b0383116103ec57509082916120558261027e8a979654612745565b8890601f83116001146120e357926120a5835f805160206137a883398151915298945f805160206137888339815191529794610337975f9261123f5750508160011b915f199060031b1c19161790565b90555b6120b28533613145565b86518981525f8a820152855f80516020613728833981519152893393a3865191898301526014825261032982612650565b90601f19831691845f528a5f20925f5b8c828210612152575050935f8051602061378883398151915296936103379693600193835f805160206137a88339815191529c981061213a575b505050811b0190556120a8565b01515f1960f88460031b161c191690558c808061212d565b8484015186558c995060019095019493840193016120f3565b50346101aa575f3660031901126101aa5780516105179161218b82612650565b60058252640322e302e360dc1b60208301525191829160208352602083019061259d565b346101aa57816003193601126101aa57803590602435906001600160401b0382116101aa576122056118bd917f3a2c7fffc2cba7582c690e3b82c453ea02a308326a98a3ad7576c606336409fb933691016125ee565b9461223461221286612fd0565b6001600160a01b038181163314918215612270575b50811561225c57506129c1565b6122486122423688856126f1565b86613016565b5191829160208352339660208401916129fe565b905061226787612991565b163314886117fe565b61227b919250612de9565b335f5260205260ff835f2054169089612227565b90346101aa57806003193601126101aa576122a86125c2565b91602435906122b682612fd0565b903315158061235d575b80612340575b61232957506001600160a01b039384169382918591167f8c5be1e5ebec7d5bd14f71427d1e84f3dd0314c0f7b2291e5b200ac8c7c3b9255f80a45f9081525f805160206137e88339815191526020522080546001600160a01b0319169091179055005b60249084519063a9fbf51f60e01b82523390820152fd5b5061234a82612de9565b335f5260205260ff845f205416156122c6565b506001600160a01b0382163314156122c0565b90346101aa5760203660031901126101aa5761150c60209235612991565b50346101aa575f3660031901126101aa578051905f90827f80bb2b638cc20bc4d0a60d66940f3ab4a00c1d7b313497ca82fb0b4ab00793009283546123d281612745565b90818452602095600191876001821691825f146107815750506001146124055750505061051792916107169103856126b5565b5f90815286935091907f37c58c799b6609234b945e882912ee9ad34948a1dfaa20a97485e1a7752bbf815b8284106124495750505082010181610716610517610703565b8054848a018601528895508794909301928101612430565b346101aa5760203660031901126101aa573563ffffffff60e01b81168091036101aa57602091632483248360e11b82149182156124a2575b50519015158152f35b9091506380ac58cd60e01b81149081156124d7575b81156124c6575b509083612499565b6301ffc9a760e01b149050836124be565b635b5e139f60e01b811491506124b7565b91346101aa5760203660031901126101aa5761253e602b6020946104fe94355f525f805160206137688339815191528652835f206a1859d95b9d15d85b1b195d60aa1b8252600b82015220825193848092612901565b8282519201516001600160601b0319908181169360148110612567575b505050519060601c8152f35b60140360031b82901b1616915083808061255b565b5f5b83811061258d5750505f910152565b818101518382015260200161257e565b906020916125b68151809281855285808601910161257c565b601f01601f1916010190565b600435906001600160a01b03821682036101aa57565b602435906001600160a01b03821682036101aa57565b9181601f840112156101aa578235916001600160401b0383116101aa57602083818601950101116101aa57565b60609060031901126101aa576001600160a01b039060043582811681036101aa579160243590811681036101aa579060443590565b604081019081106001600160401b0382111761266b57604052565b634e487b7160e01b5f52604160045260245ffd5b60c081019081106001600160401b0382111761266b57604052565b602081019081106001600160401b0382111761266b57604052565b90601f801991011681019081106001600160401b0382111761266b57604052565b6001600160401b03811161266b57601f01601f191660200190565b9291926126fd826126d6565b9161270b60405193846126b5565b8294818452818301116101aa578281602093845f960137010152565b9080601f830112156101aa57816020612742933591016126f1565b90565b90600182811c92168015612773575b602083101461275f57565b634e487b7160e01b5f52602260045260245ffd5b91607f1691612754565b905f917fa16a46d94261c7517cc8ff89f61c0ce93598e3c849801011dee649a6a557d102908154916127ae83612745565b8083529260209160019182811690811561282c57506001146127d2575b5050505050565b90939495505f527f42ad5d3e1f2e6e70edcf6d991b8a3023d3fca8047a131592f9edb9fd9b89d57d925f935b85851061281957505050602092500101905f808080806127cb565b80548585018401529382019381016127fe565b9350505050602093945060ff929192191683830152151560051b0101905f808080806127cb565b905f917fa16a46d94261c7517cc8ff89f61c0ce93598e3c849801011dee649a6a557d1039081549161288483612745565b8083529260209160019182811690811561282c57506001146128a7575050505050565b90939495505f527f5f9ce34815f8e11431c7bb75a8e6886a91478f7ffc1dbb0a98dc240fddd76b75925f935b8585106128ee57505050602092500101905f808080806127cb565b80548585018401529382019381016128d3565b80545f939261290f82612745565b918282526020936001916001811690815f146129725750600114612934575050505050565b90939495505f92919252835f2092845f945b83861061295e57505050500101905f808080806127cb565b805485870183015294019385908201612946565b60ff19168685015250505090151560051b010191505f808080806127cb565b61299a81612fd0565b505f9081525f805160206137e883398151915260205260409020546001600160a01b031690565b156129c857565b60405162461bcd60e51b815260206004820152600e60248201526d139bdd08185d5d1a1bdc9a5e995960921b6044820152606490fd5b908060209392818452848401375f828201840152601f01601f1916010190565b5f198114612a2c5760010190565b634e487b7160e01b5f52601160045260245ffd5b818110612a4b575050565b5f8155600101612a40565b90601f8111612a63575050565b612a7c915f52601f60205f20910160051c810190612a40565b565b9190601f8111612a8d57505050565b612a7c925f5260205f20906020601f840160051c83019310612ab7575b601f0160051c0190612a40565b9091508190612aaa565b6040808252600b908201526a1859d95b9d15d85b1b195d60aa1b606082015261274291608082015b91602081840391015261259d565b6001600160a01b0382811693918415612cdd57825f52825f805160206137c8833981519152958660205260409684885f205416151580612cd5575b612c61575b825f528060205284885f2054169633612c0c575b612b599088612bd057612e21565b60018154019055825f52602052865f20816001600160601b0360a01b825416179055857fddf252ad1be2c89b69c2b068fc378daa952ba7f163c4a11628f55a4df523b3ef5f80a41692838303612baf5750505050565b6064945051926364283d7b60e01b8452600484015260248301526044820152fd5b5f8581525f805160206137e88339815191526020526040902080546001600160a01b0319169055612c0089612e21565b80545f19019055612e21565b909192612c1a90338961353c565b15612c285790859291612b4b565b878688612c45576024915190637e27328960e01b82526004820152fd5b604491519063177e802f60e01b82523360048301526024820152fd5b5f80516020613768833981519152602052875f205f602b8a516a1859d95b9d15d85b1b195d60aa1b93848252600b82015220612ca0611a418254612745565b558851525f805160206137a8833981519152835f805160206137888339815191528a5180612ccd81612d44565b0390a3612b37565b506001612b32565b604051633250574960e11b81525f6004820152602490fd5b3d15612d1f573d90612d06826126d6565b91612d1460405193846126b5565b82523d5f602084013e565b606090565b908160209103126101aa57516001600160e01b0319811681036101aa5790565b6040808252600b908201526a1859d95b9d15d85b1b195d60aa1b60608201526080602082018190525f9082015260a00190565b15612d7e57565b60405162461bcd60e51b815260206004820152600c60248201526b7265736572766564206b657960a01b6044820152606490fd5b612dca9060206040519282848094519384920161257c565b810103902090565b9091612ae96127429360408452604084019061259d565b6001600160a01b03165f9081527f80bb2b638cc20bc4d0a60d66940f3ab4a00c1d7b313497ca82fb0b4ab00793056020526040902090565b6001600160a01b03165f9081527f80bb2b638cc20bc4d0a60d66940f3ab4a00c1d7b313497ca82fb0b4ab00793036020526040902090565b8051821015612e6d5760209160051b010190565b634e487b7160e01b5f52603260045260245ffd5b612e8a81612fd0565b50604090612ed98251612e9c8161269a565b5f8152825f526020907f0542a41881ee128a365a727b282c86fa859579490b9bb45aab8503648c8e79008252612ee0855f20865194858092612901565b03846126b5565b8051928315612f56578051612f1a5750505050612efc90612fd0565b505f8151612f098161269a565b5251612f148161269a565b5f815290565b9091926127429450612f3681965196879486808701910161257c565b8201612f4a8251809386808501910161257c565b010380845201826126b5565b94505050505090565b6001600160a01b03908116908115612fb8575f8051602061374883398151915280546001600160a01b031981168417909155167f8be0079c531659141344cd1fd0a4f28419497f9722a3daafe3b4186f6b6457e05f80a3565b604051631e4fbdf760e01b81525f6004820152602490fd5b5f8181525f805160206137c883398151915260205260409020546001600160a01b0316908115612ffe575090565b60249060405190637e27328960e01b82526004820152fd5b919091805f526020907f0542a41881ee128a365a727b282c86fa859579490b9bb45aab8503648c8e7900825260405f208451946001600160401b03861161266b57613065866108cc8454612745565b8390601f87116001146130c15795806130b5927ff8e1a15aba9398e019f0b49df1a4fde98ee17ae345cb5f6b5e2c27f5033e8ce797985f926103405750508160011b915f199060031b1c19161790565b90555b604051908152a1565b90601f19871691835f52855f20925f5b81811061312e57509160019391897ff8e1a15aba9398e019f0b49df1a4fde98ee17ae345cb5f6b5e2c27f5033e8ce7999a9410613116575b505050811b0190556130b8565b01515f1960f88460031b161c191690555f8080613109565b9293876001819287860151815501950193016130d1565b60408051926131538461269a565b5f84526001600160a01b03938385169384156133be57825f525f805160206137c88339815191528386602098838a5280885f2054161515806133b6575b613343575b825f52838a52875f2054168015159384613307575b6131b386612e21565b60018154019055835f528a52875f20826001600160601b0360a01b8254161790557fddf252ad1be2c89b69c2b068fc378daa952ba7f163c4a11628f55a4df523b3ef5f80a46132f0573b613208575050505050565b846132459184959697945180938192630a85bd0160e11b968784523360048501525f6024850152604484015260806064840152608483019061259d565b03815f895af15f91816132c1575b5061328a57505050613263612cf5565b8051939084613284578251633250574960e11b815260048101859052602490fd5b84925001fd5b9194506001600160e01b0319909116036132aa5750505f808080806127cb565b602492505190633250574960e11b82526004820152fd5b6132e2919250873d89116132e9575b6132da81836126b5565b810190612d24565b905f613253565b503d6132d0565b83516339e3563760e11b81525f6004820152602490fd5b5f8481525f805160206137e88339815191526020526040902080546001600160a01b031916905561333782612e21565b80545f190190556131aa565b5f805160206137688339815191528a52875f205f602b8a516a1859d95b9d15d85b1b195d60aa1b93848252600b82015220613381611a418254612745565b558851525f805160206137a8833981519152835f805160206137888339815191528a51806133ae81612d44565b0390a3613195565b506001613190565b8351633250574960e11b81525f6004820152602490fd5b8151919060418303613405576133fe9250602082015190606060408401519301515f1a906135c8565b9192909190565b50505f9160029190565b5f80516020613748833981519152546001600160a01b0316330361342f57565b60405163118cdaa760e01b8152336004820152602490fd5b9291803b613456575050505050565b604051630a85bd0160e11b8082526001600160a01b039586166004830152928516602482015260448101939093526080606484015290921692602090829081906134a490608483019061259d565b03815f875af15f918161351b575b506134e957826134c0612cf5565b80519190826134e257604051633250574960e11b815260048101839052602490fd5b6020915001fd5b6001600160e01b0319160361350357505f808080806127cb565b60249060405190633250574960e11b82526004820152fd5b61353591925060203d6020116132e9576132da81836126b5565b905f6134b2565b6001600160a01b0391821680151593919290918461355c575b5050505090565b909183945082819416149384156135a8575b508315613582575b5050505f808080613555565b909192505f525f805160206137e883398151915260205260405f205416145f8080613576565b6135b3919450612de9565b825f5260205260ff60405f205416925f61356e565b91907f7fffffffffffffffffffffffffffffff5d576e7357a4501ddfe92f46681b20a0841161364a579160209360809260ff5f9560405194855216868401526040830152606082015282805260015afa1561363f575f516001600160a01b0381161561363557905f905f90565b505f906001905f90565b6040513d5f823e3d90fd5b5050505f9160039190565b60ff7ff0c57e16840df040f15088dc2f81fe391c3923bec73e23a9662efc9c229c6a005460401c161561368457565b604051631afcd79f60e31b8152600490fd5b905f8091602081519101845af48080613714575b156136ca5750506040513d81523d5f602083013e60203d82010160405290565b156136f157604051639996b31560e01b81526001600160a01b039091166004820152602490fd5b3d15613702576040513d5f823e3d90fd5b60405163d6bda27560e01b8152600490fd5b503d1515806136aa5750813b15156136aa56feca52e62c367d81bb2e328eb795f7c7ba24afb478408a26c0e201d155c449bc4a9016d09d72d40fdae2fd8ceac6b6234c7706214fd39c1cd1e609a0528c199300a040f782729de4970518741823ec1276cbcd41a0c7493f62d173341566a04e012c149ed548c6d2993cd73efe187df6eccabe4538091b33adbd25fafdb8a1468b2ac6109326e720d1435c0db66f7e35eda7839f52b6f1f5520a60788e132b4e3980bb2b638cc20bc4d0a60d66940f3ab4a00c1d7b313497ca82fb0b4ab007930280bb2b638cc20bc4d0a60d66940f3ab4a00c1d7b313497ca82fb0b4ab0079304a26469706673582212202aed144a704cbfe16419b3c4fd8322df2d7e1c0c31310b32ede8687a99beb17064736f6c63430008180033",
  "linkReferences": {},
  "deployedLinkReferences": {}
}