{"abi":[{"type":"constructor","inputs":[{"name":"name_","type":"string","internalType":"string"},{"name":"symbol_","type":"string","internalType":"string"},{"name":"baseBadgeURI_","type":"string","internalType":"string"}],"stateMutability":"nonpayable"},{"type":"function","name":"ADMIN_ROLE","inputs":[],"outputs":[{"name":"","type":"bytes32","internalType":"bytes32"}],"stateMutability":"view"},{"type":"function","name":"DEFAULT_ADMIN_ROLE","inputs":[],"outputs":[{"name":"","type":"bytes32","internalType":"bytes32"}],"stateMutability":"view"},{"type":"function","name":"MINTER_ROLE","inputs":[],"outputs":[{"name":"","type":"bytes32","internalType":"bytes32"}],"stateMutability":"view"},{"type":"function","name":"addAchievement","inputs":[{"name":"badgeId","type":"uint256","internalType":"uint256"}],"outputs":[],"stateMutability":"nonpayable"},{"type":"function","name":"approve","inputs":[{"name":"to","type":"address","internalType":"address"},{"name":"tokenId","type":"uint256","internalType":"uint256"}],"outputs":[],"stateMutability":"nonpayable"},{"type":"function","name":"balanceOf","inputs":[{"name":"owner","type":"address","internalType":"address"}],"outputs":[{"name":"","type":"uint256","internalType":"uint256"}],"stateMutability":"view"},{"type":"function","name":"burnAuth","inputs":[{"name":"badgeId","type":"uint256","internalType":"uint256"}],"outputs":[{"name":"","type":"uint8","internalType":"enum SoulBadger.BurnAuth"}],"stateMutability":"view"},{"type":"function","name":"getApproved","inputs":[{"name":"tokenId","type":"uint256","internalType":"uint256"}],"outputs":[{"name":"","type":"address","internalType":"address"}],"stateMutability":"view"},{"type":"function","name":"getBadge","inputs":[{"name":"badgeId","type":"uint256","internalType":"uint256"}],"outputs":[{"name":"badge","type":"tuple","internalType":"struct SoulBadger.SoulboundBadge","components":[{"name":"badgeType","type":"bytes32","internalType":"bytes32"},{"name":"issuer","type":"address","internalType":"address"},{"name":"boundTo","type":"address","internalType":"address"},{"name":"issuedAt","type":"uint40","internalType":"uint40"},{"name":"expiresAt","type":"uint40","internalType":"uint40"},{"name":"burnAuth","type":"uint8","internalType":"enum SoulBadger.BurnAuth"},{"name":"metadataURI","type":"string","internalType":"string"},{"name":"isActive","type":"bool","internalType":"bool"}]}],"stateMutability":"view"},{"type":"function","name":"getBadgeTypeCount","inputs":[{"name":"badgeType","type":"bytes32","internalType":"bytes32"}],"outputs":[{"name":"count","type":"uint256","internalType":"uint256"}],"stateMutability":"view"},{"type":"function","name":"getBadgesForAddress","inputs":[{"name":"owner","type":"address","internalType":"address"}],"outputs":[{"name":"badgeIds","type":"uint256[]","internalType":"uint256[]"}],"stateMutability":"view"},{"type":"function","name":"getCredentials","inputs":[{"name":"badgeId","type":"uint256","internalType":"uint256"}],"outputs":[{"name":"credentials","type":"tuple","internalType":"struct SoulBadger.AgentCredentials","components":[{"name":"agentType","type":"string","internalType":"string"},{"name":"trustLevel","type":"uint32","internalType":"uint32"},{"name":"knowledgeLevel","type":"uint32","internalType":"uint32"},{"name":"achievementCount","type":"uint32","internalType":"uint32"},{"name":"domainHash","type":"bytes32","internalType":"bytes32"},{"name":"verified","type":"bool","internalType":"bool"}]}],"stateMutability":"view"},{"type":"function","name":"getRoleAdmin","inputs":[{"name":"role","type":"bytes32","internalType":"bytes32"}],"outputs":[{"name":"","type":"bytes32","internalType":"bytes32"}],"stateMutability":"view"},{"type":"function","name":"grantRole","inputs":[{"name":"role","type":"bytes32","internalType":"bytes32"},{"name":"account","type":"address","internalType":"address"}],"outputs":[],"stateMutability":"nonpayable"},{"type":"function","name":"hasRole","inputs":[{"name":"role","type":"bytes32","internalType":"bytes32"},{"name":"account","type":"address","internalType":"address"}],"outputs":[{"name":"","type":"bool","internalType":"bool"}],"stateMutability":"view"},{"type":"function","name":"isApprovedForAll","inputs":[{"name":"owner","type":"address","internalType":"address"},{"name":"operator","type":"address","internalType":"address"}],"outputs":[{"name":"","type":"bool","internalType":"bool"}],"stateMutability":"view"},{"type":"function","name":"isBadgeExpired","inputs":[{"name":"badgeId","type":"uint256","internalType":"uint256"}],"outputs":[{"name":"expired","type":"bool","internalType":"bool"}],"stateMutability":"view"},{"type":"function","name":"isBadgeValid","inputs":[{"name":"badgeId","type":"uint256","internalType":"uint256"}],"outputs":[{"name":"valid","type":"bool","internalType":"bool"}],"stateMutability":"view"},{"type":"function","name":"mintAgentCredentialBadge","inputs":[{"name":"to","type":"address","internalType":"address"},{"name":"badgeType","type":"bytes32","internalType":"bytes32"},{"name":"agentType","type":"string","internalType":"string"},{"name":"trustLevel","type":"uint32","internalType":"uint32"},{"name":"knowledgeLevel","type":"uint32","internalType":"uint32"},{"name":"domainHash","type":"bytes32","internalType":"bytes32"},{"name":"metadataURI","type":"string","internalType":"string"}],"outputs":[{"name":"badgeId","type":"uint256","internalType":"uint256"}],"stateMutability":"nonpayable"},{"type":"function","name":"mintSoulboundBadge","inputs":[{"name":"to","type":"address","internalType":"address"},{"name":"badgeType","type":"bytes32","internalType":"bytes32"},{"name":"expiresAt","type":"uint40","internalType":"uint40"},{"name":"burnAuthType","type":"uint8","internalType":"enum SoulBadger.BurnAuth"},{"name":"metadataURI","type":"string","internalType":"string"}],"outputs":[{"name":"badgeId","type":"uint256","internalType":"uint256"}],"stateMutability":"nonpayable"},{"type":"function","name":"name","inputs":[],"outputs":[{"name":"","type":"string","internalType":"string"}],"stateMutability":"view"},{"type":"function","name":"ownerOf","inputs":[{"name":"tokenId","type":"uint256","internalType":"uint256"}],"outputs":[{"name":"","type":"address","internalType":"address"}],"stateMutability":"view"},{"type":"function","name":"renounceRole","inputs":[{"name":"role","type":"bytes32","internalType":"bytes32"},{"name":"callerConfirmation","type":"address","internalType":"address"}],"outputs":[],"stateMutability":"nonpayable"},{"type":"function","name":"revokeBadge","inputs":[{"name":"badgeId","type":"uint256","internalType":"uint256"},{"name":"reason","type":"string","internalType":"string"}],"outputs":[],"stateMutability":"nonpayable"},{"type":"function","name":"revokeRole","inputs":[{"name":"role","type":"bytes32","internalType":"bytes32"},{"name":"account","type":"address","internalType":"address"}],"outputs":[],"stateMutability":"nonpayable"},{"type":"function","name":"safeTransferFrom","inputs":[{"name":"from","type":"address","internalType":"address"},{"name":"to","type":"address","internalType":"address"},{"name":"tokenId","type":"uint256","internalType":"uint256"}],"outputs":[],"stateMutability":"nonpayable"},{"type":"function","name":"safeTransferFrom","inputs":[{"name":"from","type":"address","internalType":"address"},{"name":"to","type":"address","internalType":"address"},{"name":"tokenId","type":"uint256","internalType":"uint256"},{"name":"data","type":"bytes","internalType":"bytes"}],"outputs":[],"stateMutability":"nonpayable"},{"type":"function","name":"setApprovalForAll","inputs":[{"name":"operator","type":"address","internalType":"address"},{"name":"approved","type":"bool","internalType":"bool"}],"outputs":[],"stateMutability":"nonpayable"},{"type":"function","name":"setVerificationStatus","inputs":[{"name":"badgeId","type":"uint256","internalType":"uint256"},{"name":"verified","type":"bool","internalType":"bool"}],"outputs":[],"stateMutability":"nonpayable"},{"type":"function","name":"supportsInterface","inputs":[{"name":"interfaceId","type":"bytes4","internalType":"bytes4"}],"outputs":[{"name":"","type":"bool","internalType":"bool"}],"stateMutability":"view"},{"type":"function","name":"symbol","inputs":[],"outputs":[{"name":"","type":"string","internalType":"string"}],"stateMutability":"view"},{"type":"function","name":"tokenURI","inputs":[{"name":"tokenId","type":"uint256","internalType":"uint256"}],"outputs":[{"name":"","type":"string","internalType":"string"}],"stateMutability":"view"},{"type":"function","name":"transferFrom","inputs":[{"name":"from","type":"address","internalType":"address"},{"name":"to","type":"address","internalType":"address"},{"name":"tokenId","type":"uint256","internalType":"uint256"}],"outputs":[],"stateMutability":"nonpayable"},{"type":"function","name":"updateCredentials","inputs":[{"name":"badgeId","type":"uint256","internalType":"uint256"},{"name":"trustLevel","type":"uint32","internalType":"uint32"},{"name":"knowledgeLevel","type":"uint32","internalType":"uint32"}],"outputs":[],"stateMutability":"nonpayable"},{"type":"event","name":"Approval","inputs":[{"name":"owner","type":"address","indexed":true,"internalType":"address"},{"name":"approved","type":"address","indexed":true,"internalType":"address"},{"name":"tokenId","type":"uint256","indexed":true,"internalType":"uint256"}],"anonymous":false},{"type":"event","name":"ApprovalForAll","inputs":[{"name":"owner","type":"address","indexed":true,"internalType":"address"},{"name":"operator","type":"address","indexed":true,"internalType":"address"},{"name":"approved","type":"bool","indexed":false,"internalType":"bool"}],"anonymous":false},{"type":"event","name":"BadgeExpired","inputs":[{"name":"badgeId","type":"uint256","indexed":true,"internalType":"uint256"}],"anonymous":false},{"type":"event","name":"BadgeRevoked","inputs":[{"name":"badgeId","type":"uint256","indexed":true,"internalType":"uint256"},{"name":"revokedBy","type":"address","indexed":true,"internalType":"address"},{"name":"reason","type":"string","indexed":false,"internalType":"string"}],"anonymous":false},{"type":"event","name":"BatchMetadataUpdate","inputs":[{"name":"_fromTokenId","type":"uint256","indexed":false,"internalType":"uint256"},{"name":"_toTokenId","type":"uint256","indexed":false,"internalType":"uint256"}],"anonymous":false},{"type":"event","name":"CredentialsUpdated","inputs":[{"name":"badgeId","type":"uint256","indexed":true,"internalType":"uint256"},{"name":"trustLevel","type":"uint32","indexed":false,"internalType":"uint32"},{"name":"knowledgeLevel","type":"uint32","indexed":false,"internalType":"uint32"}],"anonymous":false},{"type":"event","name":"MetadataUpdate","inputs":[{"name":"_tokenId","type":"uint256","indexed":false,"internalType":"uint256"}],"anonymous":false},{"type":"event","name":"RoleAdminChanged","inputs":[{"name":"role","type":"bytes32","indexed":true,"internalType":"bytes32"},{"name":"previousAdminRole","type":"bytes32","indexed":true,"internalType":"bytes32"},{"name":"newAdminRole","type":"bytes32","indexed":true,"internalType":"bytes32"}],"anonymous":false},{"type":"event","name":"RoleGranted","inputs":[{"name":"role","type":"bytes32","indexed":true,"internalType":"bytes32"},{"name":"account","type":"address","indexed":true,"internalType":"address"},{"name":"sender","type":"address","indexed":true,"internalType":"address"}],"anonymous":false},{"type":"event","name":"RoleRevoked","inputs":[{"name":"role","type":"bytes32","indexed":true,"internalType":"bytes32"},{"name":"account","type":"address","indexed":true,"internalType":"address"},{"name":"sender","type":"address","indexed":true,"internalType":"address"}],"anonymous":false},{"type":"event","name":"SoulboundBadgeMinted","inputs":[{"name":"badgeId","type":"uint256","indexed":true,"internalType":"uint256"},{"name":"boundTo","type":"address","indexed":true,"internalType":"address"},{"name":"badgeType","type":"bytes32","indexed":true,"internalType":"bytes32"},{"name":"issuer","type":"address","indexed":false,"internalType":"address"}],"anonymous":false},{"type":"event","name":"Transfer","inputs":[{"name":"from","type":"address","indexed":true,"internalType":"address"},{"name":"to","type":"address","indexed":true,"internalType":"address"},{"name":"tokenId","type":"uint256","indexed":true,"internalType":"uint256"}],"anonymous":false},{"type":"error","name":"AccessControlBadConfirmation","inputs":[]},{"type":"error","name":"AccessControlUnauthorizedAccount","inputs":[{"name":"account","type":"address","internalType":"address"},{"name":"neededRole","type":"bytes32","internalType":"bytes32"}]},{"type":"error","name":"BadgeExpiredError","inputs":[]},{"type":"error","name":"BadgeNotActive","inputs":[]},{"type":"error","name":"ERC721IncorrectOwner","inputs":[{"name":"sender","type":"address","internalType":"address"},{"name":"tokenId","type":"uint256","internalType":"uint256"},{"name":"owner","type":"address","internalType":"address"}]},{"type":"error","name":"ERC721InsufficientApproval","inputs":[{"name":"operator","type":"address","internalType":"address"},{"name":"tokenId","type":"uint256","internalType":"uint256"}]},{"type":"error","name":"ERC721InvalidApprover","inputs":[{"name":"approver","type":"address","internalType":"address"}]},{"type":"error","name":"ERC721InvalidOperator","inputs":[{"name":"operator","type":"address","internalType":"address"}]},{"type":"error","name":"ERC721InvalidOwner","inputs":[{"name":"owner","type":"address","internalType":"address"}]},{"type":"error","name":"ERC721InvalidReceiver","inputs":[{"name":"receiver","type":"address","internalType":"address"}]},{"type":"error","name":"ERC721InvalidSender","inputs":[{"name":"sender","type":"address","internalType":"address"}]},{"type":"error","name":"ERC721NonexistentToken","inputs":[{"name":"tokenId","type":"uint256","internalType":"uint256"}]},{"type":"error","name":"InvalidBadgeType","inputs":[]},{"type":"error","name":"NotAuthorizedToBurn","inputs":[]},{"type":"error","name":"ReentrancyGuardReentrantCall","inputs":[]},{"type":"error","name":"TransferNotAllowed","inputs":[]}],"bytecode":{"object":"0x608060405234801562000010575f80fd5b5060405162002ec538038062002ec5833981016040819052620000339162000287565b82825f6200004283826200039c565b5060016200005182826200039c565b50505060016200006d6200006a620000f260201b60201c565b90565b55600d6200007c82826200039c565b5060016008556200008e5f3362000116565b50620000bb7fa49807205ce4d355092ef5a8a18f56e8913cf4a201fbe287825b095693c217753362000116565b50620000e87f9f2df0fed2c77648de5860a4cc508cd0818c85b8b8a1ab4ceeef8d981c8956a63362000116565b5050505062000468565b7f9b779b17422d0df92223018b32b4d1fa46e071723d6817e2486d003becc55f0090565b5f8281526007602090815260408083206001600160a01b038516845290915281205460ff16620001bd575f8381526007602090815260408083206001600160a01b03861684529091529020805460ff19166001179055620001743390565b6001600160a01b0316826001600160a01b0316847f2f8788117e7eff1d82e926ec794901d17c78024a50270940304540a733656f0d60405160405180910390a4506001620001c0565b505f5b92915050565b634e487b7160e01b5f52604160045260245ffd5b5f82601f830112620001ea575f80fd5b81516001600160401b0380821115620002075762000207620001c6565b604051601f8301601f19908116603f01168101908282118183101715620002325762000232620001c6565b81604052838152602092508660208588010111156200024f575f80fd5b5f91505b8382101562000272578582018301518183018401529082019062000253565b5f602085830101528094505050505092915050565b5f805f606084860312156200029a575f80fd5b83516001600160401b0380821115620002b1575f80fd5b620002bf87838801620001da565b94506020860151915080821115620002d5575f80fd5b620002e387838801620001da565b93506040860151915080821115620002f9575f80fd5b506200030886828701620001da565b9150509250925092565b600181811c908216806200032757607f821691505b6020821081036200034657634e487b7160e01b5f52602260045260245ffd5b50919050565b601f8211156200039757805f5260205f20601f840160051c81016020851015620003735750805b601f840160051c820191505b8181101562000394575f81556001016200037f565b50505b505050565b81516001600160401b03811115620003b857620003b8620001c6565b620003d081620003c9845462000312565b846200034c565b602080601f83116001811462000406575f8415620003ee5750858301515b5f19600386901b1c1916600185901b17855562000460565b5f85815260208120601f198616915b82811015620004365788860151825594840194600190910190840162000415565b50858210156200045457878501515f19600388901b60f8161c191681555b505060018460011b0185555b505050505050565b612a4f80620004765f395ff3fe608060405234801561000f575f80fd5b50600436106101fd575f3560e01c8063811a6eea11610114578063c44a0b74116100a9578063d547741f11610079578063d547741f146104c0578063e68677f7146104d3578063e985e9c5146104e6578063fc18fdf9146104f9578063fd6f07931461050c575f80fd5b8063c44a0b7414610454578063c87b56dd14610473578063cba6be6c14610486578063d539139314610499575f80fd5b8063a217fddf116100e4578063a217fddf14610414578063a22cb4651461041b578063ad5d77f31461042e578063b88d4fde14610441575f80fd5b8063811a6eea146103c65780638d838622146103d957806391d14854146103f957806395d89b411461040c575f80fd5b806323b872dd1161019557806342842e0e1161016557806342842e0e146103595780636352211e1461036c57806370a082311461037f578063729368321461039257806375b238fc146103b2575f80fd5b806323b872dd146102f0578063248a9ca3146103035780632f2ff15d1461033357806336568abe14610346575f80fd5b8063095ea7b3116101d0578063095ea7b3146102a25780630ef644a5146102b75780630f4d9b01146102ca57806313198e87146102dd575f80fd5b806301ffc9a7146102015780630489b56f1461022957806306fdde0314610262578063081812fc14610277575b5f80fd5b61021461020f366004612113565b61052c565b60405190151581526020015b60405180910390f35b61025561023736600461212e565b5f90815260096020526040902060020154600160f01b900460ff1690565b6040516102209190612179565b61026a61053c565b60405161022091906121d4565b61028a61028536600461212e565b6105cb565b6040516001600160a01b039091168152602001610220565b6102b56102b0366004612201565b6105f2565b005b6102b56102c5366004612238565b610601565b6102146102d836600461212e565b610674565b6102146102eb36600461212e565b6106a2565b6102b56102fe366004612262565b6106ea565b61032561031136600461212e565b5f9081526007602052604090206001015490565b604051908152602001610220565b6102b561034136600461229b565b610773565b6102b561035436600461229b565b610797565b6102b5610367366004612262565b6107cf565b61028a61037a36600461212e565b6107e9565b61032561038d3660046122bc565b6107f3565b6103a56103a036600461212e565b610838565b60405161022091906122d5565b6103255f805160206129fa83398151915281565b6103256103d43660046123e3565b61095f565b6103ec6103e736600461212e565b6109c1565b6040516102209190612467565b61021461040736600461229b565b610b43565b61026a610b6d565b6103255f81565b6102b5610429366004612509565b610b7c565b61032561043c366004612544565b610b87565b6102b561044f3660046125e6565b610dae565b61032561046236600461212e565b5f908152600c602052604090205490565b61026a61048136600461212e565b610dc6565b6102b561049436600461212e565b610e8b565b6103257f9f2df0fed2c77648de5860a4cc508cd0818c85b8b8a1ab4ceeef8d981c8956a681565b6102b56104ce36600461229b565b610f20565b6102b56104e136600461265d565b610f44565b6102146104f43660046126d2565b611167565b6102b56105073660046126fa565b611194565b61051f61051a3660046122bc565b6112fe565b6040516102209190612733565b5f61053682611367565b92915050565b60605f805461054a90612776565b80601f016020809104026020016040519081016040528092919081815260200182805461057690612776565b80156105c15780601f10610598576101008083540402835291602001916105c1565b820191905f5260205f20905b8154815290600101906020018083116105a457829003601f168201915b5050505050905090565b5f6105d58261138b565b505f828152600460205260409020546001600160a01b0316610536565b6105fd8282336113c3565b5050565b5f805160206129fa833981519152610618816113d0565b5f8381526009602052604090206004015460ff166106515760405162461bcd60e51b8152600401610648906127ae565b60405180910390fd5b505f918252600a6020526040909120600301805460ff1916911515919091179055565b5f818152600960205260408120600481015460ff16801561069b5750610699836106a2565b155b9392505050565b5f8181526009602052604081206002810154600160c81b900464ffffffffff1682036106d057505f92915050565b60020154600160c81b900464ffffffffff16421192915050565b6001600160a01b03821661071357604051633250574960e11b81525f6004820152602401610648565b5f61071f8383336113dd565b9050836001600160a01b0316816001600160a01b03161461076d576040516364283d7b60e01b81526001600160a01b0380861660048301526024820184905282166044820152606401610648565b50505050565b5f8281526007602052604090206001015461078d816113d0565b61076d838361143d565b6001600160a01b03811633146107c05760405163334bd91960e11b815260040160405180910390fd5b6107ca82826114ce565b505050565b6107ca83838360405180602001604052805f815250610dae565b5f6105368261138b565b5f6001600160a01b03821661081d576040516322718ad960e21b81525f6004820152602401610648565b506001600160a01b03165f9081526003602052604090205490565b6040805160c08101825260608082525f6020830181905292820183905281018290526080810182905260a08101919091525f828152600a602052604090819020815160c0810190925280548290829061089090612776565b80601f01602080910402602001604051908101604052809291908181526020018280546108bc90612776565b80156109075780601f106108de57610100808354040283529160200191610907565b820191905f5260205f20905b8154815290600101906020018083116108ea57829003601f168201915b5050509183525050600182015463ffffffff8082166020840152640100000000820481166040840152600160401b9091041660608201526002820154608082015260039091015460ff16151560a09091015292915050565b5f7f9f2df0fed2c77648de5860a4cc508cd0818c85b8b8a1ab4ceeef8d981c8956a661098a816113d0565b610992611539565b61099f8787878787611554565b91506109b760015f805160206129da83398151915255565b5095945050505050565b60408051610100810182525f8082526020820181905291810182905260608082018390526080820183905260a0820183905260c082015260e08101919091525f828152600960209081526040918290208251610100810184528154815260018201546001600160a01b039081169382019390935260028201549283169381019390935264ffffffffff600160a01b830481166060850152600160c81b83041660808401529060a083019060ff600160f01b909104166003811115610a8757610a87612145565b6003811115610a9857610a98612145565b8152602001600382018054610aac90612776565b80601f0160208091040260200160405190810160405280929190818152602001828054610ad890612776565b8015610b235780601f10610afa57610100808354040283529160200191610b23565b820191905f5260205f20905b815481529060010190602001808311610b0657829003601f168201915b50505091835250506004919091015460ff16151560209091015292915050565b5f9182526007602090815260408084206001600160a01b0393909316845291905290205460ff1690565b60606001805461054a90612776565b6105fd3383836117fe565b5f7f9f2df0fed2c77648de5860a4cc508cd0818c85b8b8a1ab4ceeef8d981c8956a6610bb2816113d0565b610bba611539565b6127108663ffffffff161115610c0d5760405162461bcd60e51b81526020600482015260186024820152775472757374206c6576656c206f7574206f662072616e676560401b6044820152606401610648565b60648563ffffffff161115610c645760405162461bcd60e51b815260206004820152601c60248201527f4b6e6f776c65646765206c6576656c206f7574206f662072616e6765000000006044820152606401610648565b610c7289895f600387611554565b6040805160c08101825289815263ffffffff808a16602080840191909152908916828401525f6060830181905260808301899052600160a0840152848152600a90915291909120815192945090918190610ccc908261281c565b50602082810151600183018054604080870151606088015163ffffffff908116600160401b026bffffffff0000000000000000199282166401000000000267ffffffffffffffff19909516968216969096179390931716939093179091556080850151600285015560a0909401516003909301805493151560ff1990941693909317909255815189841681529288169083015283917fbbc58bbf43e0f3d87bf5bf8deafe7bcf32a4c98b5b017705cf1692cbd3650c4b910160405180910390a2610da260015f805160206129da83398151915255565b50979650505050505050565b610db98484846106ea565b61076d338585858561189c565b5f8181526009602052604081206003810180546060939190610de790612776565b90501115610e8257806003018054610dfe90612776565b80601f0160208091040260200160405190810160405280929190818152602001828054610e2a90612776565b8015610e755780601f10610e4c57610100808354040283529160200191610e75565b820191905f5260205f20905b815481529060010190602001808311610e5857829003601f168201915b5050505050915050919050565b61069b836119c4565b5f805160206129fa833981519152610ea2816113d0565b5f8281526009602052604090206004015460ff16610ed25760405162461bcd60e51b8152600401610648906127ae565b5f828152600a602052604090206001018054600160401b900463ffffffff16906008610efd836128ec565b91906101000a81548163ffffffff021916908363ffffffff160217905550505050565b5f82815260076020526040902060010154610f3a816113d0565b61076d83836114ce565b610f4c611539565b5f838152600960205260409020600481015460ff16610f7d5760405162461bcd60e51b8152600401610648906127ae565b5f806002830154600160f01b900460ff166003811115610f9f57610f9f612145565b03610fd85760018201546001600160a01b0316331480610fd15750610fd15f805160206129fa83398151915233610b43565b90506110a9565b60016002830154600160f01b900460ff166003811115610ffa57610ffa612145565b03611015575060028101546001600160a01b031633146110a9565b600280830154600160f01b900460ff16600381111561103657611036612145565b0361107f5760018201546001600160a01b0316331480611062575060028201546001600160a01b031633145b80610fd15750610fd15f805160206129fa83398151915233610b43565b60036002830154600160f01b900460ff1660038111156110a1576110a1612145565b036110a957505f5b806110f65760405162461bcd60e51b815260206004820152601860248201527f4e6f7420617574686f72697a656420746f207265766f6b6500000000000000006044820152606401610648565b60048201805460ff1916905561110b85611ac3565b336001600160a01b0316857f69c1ff3c5bdf9ff8aa53ed8467eacce439afd3a7a7befccc4aaaf979373f09b9868660405161114792919061290e565b60405180910390a350506107ca60015f805160206129da83398151915255565b6001600160a01b039182165f90815260056020908152604080832093909416825291909152205460ff1690565b5f805160206129fa8339815191526111ab816113d0565b5f8481526009602052604090206004015460ff166111db5760405162461bcd60e51b8152600401610648906127ae565b6127108363ffffffff16111561122e5760405162461bcd60e51b81526020600482015260186024820152775472757374206c6576656c206f7574206f662072616e676560401b6044820152606401610648565b60648263ffffffff1611156112855760405162461bcd60e51b815260206004820152601c60248201527f4b6e6f776c65646765206c6576656c206f7574206f662072616e6765000000006044820152606401610648565b5f848152600a6020908152604091829020600101805463ffffffff87811667ffffffffffffffff1990921682176401000000009188169182021790925583519081529182015285917fbbc58bbf43e0f3d87bf5bf8deafe7bcf32a4c98b5b017705cf1692cbd3650c4b910160405180910390a250505050565b6001600160a01b0381165f908152600b602090815260409182902080548351818402810184019094528084526060939283018282801561135b57602002820191905f5260205f20905b815481526020019060010190808311611347575b50505050509050919050565b5f6001600160e01b03198216637965db0b60e01b1480610536575061053682611afb565b5f818152600260205260408120546001600160a01b03168061053657604051637e27328960e01b815260048101849052602401610648565b6107ca8383836001611b1f565b6113da8133611c23565b50565b5f828152600260205260408120546001600160a01b0316801580159061140b57506001600160a01b03851615155b1561142957604051638cd22d1960e01b815260040160405180910390fd5b611434858585611c5c565b95945050505050565b5f6114488383610b43565b6114c7575f8381526007602090815260408083206001600160a01b03861684529091529020805460ff1916600117905561147f3390565b6001600160a01b0316826001600160a01b0316847f2f8788117e7eff1d82e926ec794901d17c78024a50270940304540a733656f0d60405160405180910390a4506001610536565b505f610536565b5f6114d98383610b43565b156114c7575f8381526007602090815260408083206001600160a01b0386168085529252808320805460ff1916905551339286917ff6391f5c32d9c69d2a47ea670b442974b53935d1edc7fd64eb21e047a839171b9190a4506001610536565b611541611d4e565b60025f805160206129da83398151915255565b5f6001600160a01b0386166115ab5760405162461bcd60e51b815260206004820152601b60248201527f43616e6e6f74206d696e7420746f207a65726f206164647265737300000000006044820152606401610648565b846115ed5760405162461bcd60e51b8152602060048201526012602482015271496e76616c6964206261646765207479706560701b6044820152606401610648565b60088054905f6115fc8361293c565b919050559050604051806101000160405280868152602001336001600160a01b03168152602001876001600160a01b031681526020014264ffffffffff1681526020018564ffffffffff16815260200184600381111561165e5761165e612145565b81526020808201859052600160409283018190525f85815260098352839020845181559184015190820180546001600160a01b039283166001600160a01b0319909116179055918301516002820180546060860151608087015164ffffffffff908116600160c81b0264ffffffffff60c81b1991909216600160a01b026001600160c81b03199093169490961693909317179384168217815560a08501519293909160ff60f01b191665ffffffffffff60c81b1990911617600160f01b83600381111561172d5761172d612145565b021790555060c08201516003820190611746908261281c565b5060e091909101516004909101805460ff19169115159190911790556001600160a01b0386165f908152600b60209081526040808320805460018101825590845282842001849055878352600c90915281208054916117a48361293c565b91905055506117b38682611d7f565b60405133815285906001600160a01b0388169083907f9a5775c23321c6fec7f54d48a9a28ca92f04aefdf715ffa28fea0c3e4e87e4a69060200160405180910390a495945050505050565b6001600160a01b03821661183057604051630b61174360e31b81526001600160a01b0383166004820152602401610648565b6001600160a01b038381165f81815260056020908152604080832094871680845294825291829020805460ff191686151590811790915591519182527f17307eab39ab6107e8899845ad3d59bd9653f200f220920489ca2b5937696c31910160405180910390a3505050565b6001600160a01b0383163b156119bd57604051630a85bd0160e11b81526001600160a01b0384169063150b7a02906118de908890889087908790600401612954565b6020604051808303815f875af1925050508015611918575060408051601f3d908101601f1916820190925261191591810190612990565b60015b61197f573d808015611945576040519150601f19603f3d011682016040523d82523d5f602084013e61194a565b606091505b5080515f0361197757604051633250574960e11b81526001600160a01b0385166004820152602401610648565b805160208201fd5b6001600160e01b03198116630a85bd0160e11b146119bb57604051633250574960e11b81526001600160a01b0385166004820152602401610648565b505b5050505050565b60606119cf8261138b565b505f82815260066020526040812080546119e890612776565b80601f0160208091040260200160405190810160405280929190818152602001828054611a1490612776565b8015611a5f5780601f10611a3657610100808354040283529160200191611a5f565b820191905f5260205f20905b815481529060010190602001808311611a4257829003601f168201915b505050505090505f611a6f611d98565b905080515f03611a80575092915050565b815115611ab2578082604051602001611a9a9291906129ab565b60405160208183030381529060405292505050919050565b611abb84611da7565b949350505050565b5f611acf5f835f6113dd565b90506001600160a01b0381166105fd57604051637e27328960e01b815260048101839052602401610648565b5f6001600160e01b03198216632483248360e11b1480610536575061053682611e0b565b8080611b3357506001600160a01b03821615155b15611bf4575f611b428461138b565b90506001600160a01b03831615801590611b6e5750826001600160a01b0316816001600160a01b031614155b8015611b815750611b7f8184611167565b155b15611baa5760405163a9fbf51f60e01b81526001600160a01b0384166004820152602401610648565b8115611bf25783856001600160a01b0316826001600160a01b03167f8c5be1e5ebec7d5bd14f71427d1e84f3dd0314c0f7b2291e5b200ac8c7c3b92560405160405180910390a45b505b50505f90815260046020526040902080546001600160a01b0319166001600160a01b0392909216919091179055565b611c2d8282610b43565b6105fd5760405163e2517d3f60e01b81526001600160a01b038216600482015260248101839052604401610648565b5f828152600260205260408120546001600160a01b0390811690831615611c8857611c88818486611e5a565b6001600160a01b03811615611cc257611ca35f855f80611b1f565b6001600160a01b0381165f90815260036020526040902080545f190190555b6001600160a01b03851615611cf0576001600160a01b0385165f908152600360205260409020805460010190555b5f8481526002602052604080822080546001600160a01b0319166001600160a01b0389811691821790925591518793918516917fddf252ad1be2c89b69c2b068fc378daa952ba7f163c4a11628f55a4df523b3ef91a4949350505050565b5f805160206129da83398151915254600203611d7d57604051633ee5aeb560e01b815260040160405180910390fd5b565b6105fd828260405180602001604052805f815250611ebe565b6060600d805461054a90612776565b6060611db28261138b565b505f611dbc611d98565b90505f815111611dda5760405180602001604052805f81525061069b565b80611de484611ed5565b604051602001611df59291906129ab565b6040516020818303038152906040529392505050565b5f6001600160e01b031982166380ac58cd60e01b1480611e3b57506001600160e01b03198216635b5e139f60e01b145b8061053657506301ffc9a760e01b6001600160e01b0319831614610536565b611e65838383611f65565b6107ca576001600160a01b038316611e9357604051637e27328960e01b815260048101829052602401610648565b60405163177e802f60e01b81526001600160a01b038316600482015260248101829052604401610648565b611ec88383611fc6565b6107ca335f85858561189c565b60605f611ee183612027565b60010190505f8167ffffffffffffffff811115611f0057611f0061233e565b6040519080825280601f01601f191660200182016040528015611f2a576020820181803683370190505b5090508181016020015b5f19016f181899199a1a9b1b9c1cb0b131b232b360811b600a86061a8153600a8504945084611f3457509392505050565b5f6001600160a01b03831615801590611abb5750826001600160a01b0316846001600160a01b03161480611f9e5750611f9e8484611167565b80611abb5750505f908152600460205260409020546001600160a01b03908116911614919050565b6001600160a01b038216611fef57604051633250574960e11b81525f6004820152602401610648565b5f611ffb83835f6113dd565b90506001600160a01b038116156107ca576040516339e3563760e11b81525f6004820152602401610648565b5f8072184f03e93ff9f4daa797ed6e38ed64bf6a1f0160401b83106120655772184f03e93ff9f4daa797ed6e38ed64bf6a1f0160401b830492506040015b6d04ee2d6d415b85acef81000000008310612091576d04ee2d6d415b85acef8100000000830492506020015b662386f26fc1000083106120af57662386f26fc10000830492506010015b6305f5e10083106120c7576305f5e100830492506008015b61271083106120db57612710830492506004015b606483106120ed576064830492506002015b600a83106105365760010192915050565b6001600160e01b0319811681146113da575f80fd5b5f60208284031215612123575f80fd5b813561069b816120fe565b5f6020828403121561213e575f80fd5b5035919050565b634e487b7160e01b5f52602160045260245ffd5b6004811061217557634e487b7160e01b5f52602160045260245ffd5b9052565b602081016105368284612159565b5f5b838110156121a1578181015183820152602001612189565b50505f910152565b5f81518084526121c0816020860160208601612187565b601f01601f19169290920160200192915050565b602081525f61069b60208301846121a9565b80356001600160a01b03811681146121fc575f80fd5b919050565b5f8060408385031215612212575f80fd5b61221b836121e6565b946020939093013593505050565b803580151581146121fc575f80fd5b5f8060408385031215612249575f80fd5b8235915061225960208401612229565b90509250929050565b5f805f60608486031215612274575f80fd5b61227d846121e6565b925061228b602085016121e6565b9150604084013590509250925092565b5f80604083850312156122ac575f80fd5b82359150612259602084016121e6565b5f602082840312156122cc575f80fd5b61069b826121e6565b602081525f825160c060208401526122f060e08401826121a9565b9050602084015163ffffffff80821660408601528060408701511660608601528060608701511660808601525050608084015160a084015260a0840151151560c08401528091505092915050565b634e487b7160e01b5f52604160045260245ffd5b5f67ffffffffffffffff8084111561236c5761236c61233e565b604051601f8501601f19908116603f011681019082821181831017156123945761239461233e565b816040528093508581528686860111156123ac575f80fd5b858560208301375f602087830101525050509392505050565b5f82601f8301126123d4575f80fd5b61069b83833560208501612352565b5f805f805f60a086880312156123f7575f80fd5b612400866121e6565b945060208601359350604086013564ffffffffff81168114612420575f80fd5b9250606086013560048110612433575f80fd5b9150608086013567ffffffffffffffff81111561244e575f80fd5b61245a888289016123c5565b9150509295509295909350565b60208082528251828201528201516001600160a01b039081166040808401919091528301511660608083019190915282015164ffffffffff811660808301525f9050608083015164ffffffffff811660a08401525060a08301516124ce60c0840182612159565b5060c08301516101008060e08501526124eb6101208501836121a9565b915060e08501516124ff8286018215159052565b5090949350505050565b5f806040838503121561251a575f80fd5b612523836121e6565b915061225960208401612229565b803563ffffffff811681146121fc575f80fd5b5f805f805f805f60e0888a03121561255a575f80fd5b612563886121e6565b965060208801359550604088013567ffffffffffffffff80821115612586575f80fd5b6125928b838c016123c5565b96506125a060608b01612531565b95506125ae60808b01612531565b945060a08a0135935060c08a01359150808211156125ca575f80fd5b506125d78a828b016123c5565b91505092959891949750929550565b5f805f80608085870312156125f9575f80fd5b612602856121e6565b9350612610602086016121e6565b925060408501359150606085013567ffffffffffffffff811115612632575f80fd5b8501601f81018713612642575f80fd5b61265187823560208401612352565b91505092959194509250565b5f805f6040848603121561266f575f80fd5b83359250602084013567ffffffffffffffff8082111561268d575f80fd5b818601915086601f8301126126a0575f80fd5b8135818111156126ae575f80fd5b8760208285010111156126bf575f80fd5b6020830194508093505050509250925092565b5f80604083850312156126e3575f80fd5b6126ec836121e6565b9150612259602084016121e6565b5f805f6060848603121561270c575f80fd5b8335925061271c60208501612531565b915061272a60408501612531565b90509250925092565b602080825282518282018190525f9190848201906040850190845b8181101561276a5783518352928401929184019160010161274e565b50909695505050505050565b600181811c9082168061278a57607f821691505b6020821081036127a857634e487b7160e01b5f52602260045260245ffd5b50919050565b60208082526010908201526f4261646765206e6f742061637469766560801b604082015260600190565b601f8211156107ca57805f5260205f20601f840160051c810160208510156127fd5750805b601f840160051c820191505b818110156119bd575f8155600101612809565b815167ffffffffffffffff8111156128365761283661233e565b61284a816128448454612776565b846127d8565b602080601f83116001811461287d575f84156128665750858301515b5f19600386901b1c1916600185901b1785556119bb565b5f85815260208120601f198616915b828110156128ab5788860151825594840194600190910190840161288c565b50858210156128c857878501515f19600388901b60f8161c191681555b5050505050600190811b01905550565b634e487b7160e01b5f52601160045260245ffd5b5f63ffffffff808316818103612904576129046128d8565b6001019392505050565b60208152816020820152818360408301375f818301604090810191909152601f909201601f19160101919050565b5f6001820161294d5761294d6128d8565b5060010190565b6001600160a01b03858116825284166020820152604081018390526080606082018190525f90612986908301846121a9565b9695505050505050565b5f602082840312156129a0575f80fd5b815161069b816120fe565b5f83516129bc818460208801612187565b8351908301906129d0818360208801612187565b0194935050505056fe9b779b17422d0df92223018b32b4d1fa46e071723d6817e2486d003becc55f00a49807205ce4d355092ef5a8a18f56e8913cf4a201fbe287825b095693c21775a2646970667358221220e319a732959012c626a0abc4e78118bbddc6c51a6c95295ce812290f87e3bb6f64736f6c63430008180033","linkReferences":{}},"methodIdentifiers":{"ADMIN_ROLE()":"75b238fc","DEFAULT_ADMIN_ROLE()":"a217fddf","MINTER_ROLE()":"d5391393","addAchievement(uint256)":"cba6be6c","approve(address,uint256)":"095ea7b3","balanceOf(address)":"70a08231","burnAuth(uint256)":"0489b56f","getApproved(uint256)":"081812fc","getBadge(uint256)":"8d838622","getBadgeTypeCount(bytes32)":"c44a0b74","getBadgesForAddress(address)":"fd6f0793","getCredentials(uint256)":"72936832","getRoleAdmin(bytes32)":"248a9ca3","grantRole(bytes32,address)":"2f2ff15d","hasRole(bytes32,address)":"91d14854","isApprovedForAll(address,address)":"e985e9c5","isBadgeExpired(uint256)":"13198e87","isBadgeValid(uint256)":"0f4d9b01","mintAgentCredentialBadge(address,bytes32,string,uint32,uint32,bytes32,string)":"ad5d77f3","mintSoulboundBadge(address,bytes32,uint40,uint8,string)":"811a6eea","name()":"06fdde03","ownerOf(uint256)":"6352211e","renounceRole(bytes32,address)":"36568abe","revokeBadge(uint256,string)":"e68677f7","revokeRole(bytes32,address)":"d547741f","safeTransferFrom(address,address,uint256)":"42842e0e","safeTransferFrom(address,address,uint256,bytes)":"b88d4fde","setApprovalForAll(address,bool)":"a22cb465","setVerificationStatus(uint256,bool)":"0ef644a5","supportsInterface(bytes4)":"01ffc9a7","symbol()":"95d89b41","tokenURI(uint256)":"c87b56dd","transferFrom(address,address,uint256)":"23b872dd","updateCredentials(uint256,uint32,uint32)":"fc18fdf9"},"id":63}